{
  "abi": [
    {
      "anonymous": false,
      "inputs": [],
      "name": "LogFrozen",
      "type": "event"
    },
    {
      "anonymous": false,
      "inputs": [
        {
          "indexed": false,
          "internalType": "uint256",
          "name": "ownerKey",
          "type": "uint256"
        },
        {
          "indexed": false,
          "internalType": "uint256",
          "name": "vaultId",
          "type": "uint256"
        }
      ],
      "name": "LogFullWithdrawalRequest",
      "type": "event"
    },
    {
      "anonymous": false,
      "inputs": [
        {
          "indexed": false,
          "internalType": "address",
          "name": "acceptedGovernor",
          "type": "address"
        }
      ],
      "name": "LogNewGovernorAccepted",
      "type": "event"
    },
    {
      "anonymous": false,
      "inputs": [
        {
          "indexed": false,
          "internalType": "address",
          "name": "nominatedGovernor",
          "type": "address"
        }
      ],
      "name": "LogNominatedGovernor",
      "type": "event"
    },
    {
      "anonymous": false,
      "inputs": [],
      "name": "LogNominationCancelled",
      "type": "event"
    },
    {
      "anonymous": false,
      "inputs": [
        {
          "indexed": false,
          "internalType": "address",
          "name": "removedGovernor",
          "type": "address"
        }
      ],
      "name": "LogRemovedGovernor",
      "type": "event"
    },
    {
      "anonymous": false,
      "inputs": [],
      "name": "LogUnFrozen",
      "type": "event"
    },
    {
      "anonymous": false,
      "inputs": [
        {
          "indexed": false,
          "internalType": "address",
          "name": "ethKey",
          "type": "address"
        },
        {
          "indexed": false,
          "internalType": "uint256",
          "name": "starkKey",
          "type": "uint256"
        },
        {
          "indexed": false,
          "internalType": "address",
          "name": "sender",
          "type": "address"
        }
      ],
      "name": "LogUserRegistered",
      "type": "event"
    },
    {
      "inputs": [],
      "name": "DEPOSIT_CANCEL_DELAY",
      "outputs": [
        {
          "internalType": "uint256",
          "name": "",
          "type": "uint256"
        }
      ],
      "stateMutability": "view",
      "type": "function"
    },
    {
      "inputs": [],
      "name": "FREEZE_GRACE_PERIOD",
      "outputs": [
        {
          "internalType": "uint256",
          "name": "",
          "type": "uint256"
        }
      ],
      "stateMutability": "view",
      "type": "function"
    },
    {
      "inputs": [],
      "name": "MAIN_GOVERNANCE_INFO_TAG",
      "outputs": [
        {
          "internalType": "string",
          "name": "",
          "type": "string"
        }
      ],
      "stateMutability": "view",
      "type": "function"
    },
    {
      "inputs": [],
      "name": "MAX_FORCED_ACTIONS_REQS_PER_BLOCK",
      "outputs": [
        {
          "internalType": "uint256",
          "name": "",
          "type": "uint256"
        }
      ],
      "stateMutability": "view",
      "type": "function"
    },
    {
      "inputs": [],
      "name": "MAX_VERIFIER_COUNT",
      "outputs": [
        {
          "internalType": "uint256",
          "name": "",
          "type": "uint256"
        }
      ],
      "stateMutability": "view",
      "type": "function"
    },
    {
      "inputs": [],
      "name": "UNFREEZE_DELAY",
      "outputs": [
        {
          "internalType": "uint256",
          "name": "",
          "type": "uint256"
        }
      ],
      "stateMutability": "view",
      "type": "function"
    },
    {
      "inputs": [],
      "name": "VERIFIER_REMOVAL_DELAY",
      "outputs": [
        {
          "internalType": "uint256",
          "name": "",
          "type": "uint256"
        }
      ],
      "stateMutability": "view",
      "type": "function"
    },
    {
      "inputs": [],
      "name": "defaultVaultWithdrawalLock",
      "outputs": [
        {
          "internalType": "uint256",
          "name": "",
          "type": "uint256"
        }
      ],
      "stateMutability": "view",
      "type": "function"
    },
    {
      "inputs": [
        {
          "internalType": "uint256",
          "name": "ownerKey",
          "type": "uint256"
        },
        {
          "internalType": "uint256",
          "name": "vaultId",
          "type": "uint256"
        }
      ],
      "name": "freezeRequest",
      "outputs": [],
      "stateMutability": "nonpayable",
      "type": "function"
    },
    {
      "inputs": [
        {
          "internalType": "uint256",
          "name": "ownerKey",
          "type": "uint256"
        },
        {
          "internalType": "uint256",
          "name": "vaultId",
          "type": "uint256"
        }
      ],
      "name": "fullWithdrawalRequest",
      "outputs": [],
      "stateMutability": "nonpayable",
      "type": "function"
    },
    {
      "inputs": [],
      "name": "getActionCount",
      "outputs": [
        {
          "internalType": "uint256",
          "name": "",
          "type": "uint256"
        }
      ],
      "stateMutability": "view",
      "type": "function"
    },
    {
      "inputs": [
        {
          "internalType": "uint256",
          "name": "actionIndex",
          "type": "uint256"
        }
      ],
      "name": "getActionHashByIndex",
      "outputs": [
        {
          "internalType": "bytes32",
          "name": "",
          "type": "bytes32"
        }
      ],
      "stateMutability": "view",
      "type": "function"
    },
    {
      "inputs": [
        {
          "internalType": "uint256",
          "name": "ownerKey",
          "type": "uint256"
        }
      ],
      "name": "getEthKey",
      "outputs": [
        {
          "internalType": "address",
          "name": "",
          "type": "address"
        }
      ],
      "stateMutability": "view",
      "type": "function"
    },
    {
      "inputs": [
        {
          "internalType": "uint256",
          "name": "ownerKey",
          "type": "uint256"
        },
        {
          "internalType": "uint256",
          "name": "vaultId",
          "type": "uint256"
        }
      ],
      "name": "getFullWithdrawalRequest",
      "outputs": [
        {
          "internalType": "uint256",
          "name": "",
          "type": "uint256"
        }
      ],
      "stateMutability": "view",
      "type": "function"
    },
    {
      "inputs": [],
      "name": "getGlobalConfigCode",
      "outputs": [
        {
          "internalType": "uint256",
          "name": "",
          "type": "uint256"
        }
      ],
      "stateMutability": "view",
      "type": "function"
    },
    {
      "inputs": [],
      "name": "getLastBatchId",
      "outputs": [
        {
          "internalType": "uint256",
          "name": "",
          "type": "uint256"
        }
      ],
      "stateMutability": "view",
      "type": "function"
    },
    {
      "inputs": [],
      "name": "getOrderRoot",
      "outputs": [
        {
          "internalType": "uint256",
          "name": "",
          "type": "uint256"
        }
      ],
      "stateMutability": "view",
      "type": "function"
    },
    {
      "inputs": [],
      "name": "getOrderTreeHeight",
      "outputs": [
        {
          "internalType": "uint256",
          "name": "",
          "type": "uint256"
        }
      ],
      "stateMutability": "view",
      "type": "function"
    },
    {
      "inputs": [],
      "name": "getRollupTreeHeight",
      "outputs": [
        {
          "internalType": "uint256",
          "name": "",
          "type": "uint256"
        }
      ],
      "stateMutability": "view",
      "type": "function"
    },
    {
      "inputs": [],
      "name": "getRollupVaultRoot",
      "outputs": [
        {
          "internalType": "uint256",
          "name": "",
          "type": "uint256"
        }
      ],
      "stateMutability": "view",
      "type": "function"
    },
    {
      "inputs": [],
      "name": "getSequenceNumber",
      "outputs": [
        {
          "internalType": "uint256",
          "name": "",
          "type": "uint256"
        }
      ],
      "stateMutability": "view",
      "type": "function"
    },
    {
      "inputs": [],
      "name": "getValidiumTreeHeight",
      "outputs": [
        {
          "internalType": "uint256",
          "name": "",
          "type": "uint256"
        }
      ],
      "stateMutability": "view",
      "type": "function"
    },
    {
      "inputs": [],
      "name": "getValidiumVaultRoot",
      "outputs": [
        {
          "internalType": "uint256",
          "name": "",
          "type": "uint256"
        }
      ],
      "stateMutability": "view",
      "type": "function"
    },
    {
      "inputs": [],
      "name": "identify",
      "outputs": [
        {
          "internalType": "string",
          "name": "",
          "type": "string"
        }
      ],
      "stateMutability": "pure",
      "type": "function"
    },
    {
      "inputs": [
        {
          "internalType": "bytes",
          "name": "",
          "type": "bytes"
        }
      ],
      "name": "initialize",
      "outputs": [],
      "stateMutability": "nonpayable",
      "type": "function"
    },
    {
      "inputs": [],
      "name": "initializerSize",
      "outputs": [
        {
          "internalType": "uint256",
          "name": "",
          "type": "uint256"
        }
      ],
      "stateMutability": "view",
      "type": "function"
    },
    {
      "inputs": [],
      "name": "isFrozen",
      "outputs": [
        {
          "internalType": "bool",
          "name": "",
          "type": "bool"
        }
      ],
      "stateMutability": "view",
      "type": "function"
    },
    {
      "inputs": [],
      "name": "mainAcceptGovernance",
      "outputs": [],
      "stateMutability": "nonpayable",
      "type": "function"
    },
    {
      "inputs": [],
      "name": "mainCancelNomination",
      "outputs": [],
      "stateMutability": "nonpayable",
      "type": "function"
    },
    {
      "inputs": [
        {
          "internalType": "address",
          "name": "testGovernor",
          "type": "address"
        }
      ],
      "name": "mainIsGovernor",
      "outputs": [
        {
          "internalType": "bool",
          "name": "",
          "type": "bool"
        }
      ],
      "stateMutability": "view",
      "type": "function"
    },
    {
      "inputs": [
        {
          "internalType": "address",
          "name": "newGovernor",
          "type": "address"
        }
      ],
      "name": "mainNominateNewGovernor",
      "outputs": [],
      "stateMutability": "nonpayable",
      "type": "function"
    },
    {
      "inputs": [
        {
          "internalType": "address",
          "name": "governorForRemoval",
          "type": "address"
        }
      ],
      "name": "mainRemoveGovernor",
      "outputs": [],
      "stateMutability": "nonpayable",
      "type": "function"
    },
    {
      "inputs": [],
      "name": "orderRegistryAddress",
      "outputs": [
        {
          "internalType": "address",
          "name": "",
          "type": "address"
        }
      ],
      "stateMutability": "view",
      "type": "function"
    },
    {
      "inputs": [
        {
          "internalType": "address",
          "name": "ethKey",
          "type": "address"
        },
        {
          "internalType": "uint256",
          "name": "starkKey",
          "type": "uint256"
        },
        {
          "internalType": "bytes",
          "name": "starkSignature",
          "type": "bytes"
        }
      ],
      "name": "registerEthAddress",
      "outputs": [],
      "stateMutability": "nonpayable",
      "type": "function"
    },
    {
      "inputs": [
        {
          "internalType": "uint256",
          "name": "starkKey",
          "type": "uint256"
        },
        {
          "internalType": "bytes",
          "name": "starkSignature",
          "type": "bytes"
        }
      ],
      "name": "registerSender",
      "outputs": [],
      "stateMutability": "nonpayable",
      "type": "function"
    },
    {
      "inputs": [],
      "name": "unFreeze",
      "outputs": [],
      "stateMutability": "nonpayable",
      "type": "function"
    },
    {
      "inputs": [],
      "name": "validatedSelectors",
      "outputs": [
        {
          "internalType": "bytes4[]",
          "name": "selectors",
          "type": "bytes4[]"
        }
      ],
      "stateMutability": "pure",
      "type": "function"
    }
  ],
  "bytecode": {
    "object": "0x608060405234801561001057600080fd5b506125e9806100206000396000f3fe608060405234801561001057600080fd5b50600436106102265760003560e01c80637e9da4c511610130578063a45d7841116100b8578063c23b60ef1161007c578063c23b60ef146105e8578063e30a5cff14610665578063e6de62821461066d578063e9aa2d6b14610675578063eeb728661461067d57610226565b8063a45d784114610528578063a93310c414610530578063b766311214610553578063bb7c3d321461055b578063bea841871461056357610226565b80638ed31439116100ff5780638ed31439146104c757806393c1e466146104cf578063993f3639146104f25780639c6a2837146104fa578063a1cc921e1461050257610226565b80637e9da4c51461041a57806381b477961461042257806386aeb4451461042a5780638c4bce1c146104a157610226565b806342af35fd116101b35780635e586cd1116101825780635e586cd1146103dd5780635eecd218146103fa57806372eb36881461040257806377e84e0d1461040a5780637cf12b901461041257610226565b806342af35fd14610337578063439fab911461033f57806345f5cd97146103af578063515535e8146103d557610226565b806328700a15116101fa57806328700a15146102de578063296e2f37146102e857806333eeb1471461030b5780633a8cc4fc146103275780633cc660ad1461032f57610226565b80627175421461022b5780630dded952146102455780630ebdac031461024d5780631dbd1da7146102a5575b600080fd5b610233610685565b60408051918252519081900360200190f35b61023361068c565b610255610692565b60408051602080825283518183015283519192839290830191858101910280838360005b83811015610291578181015183820152602001610279565b505050509050019250505060405180910390f35b6102c2600480360360208110156102bb57600080fd5b50356107ae565b604080516001600160a01b039092168252519081900360200190f35b6102e66107f5565b005b610233600480360360408110156102fe57600080fd5b50803590602001356107ff565b610313610826565b604080519115158252519081900360200190f35b610233610836565b61023361083c565b610233610841565b6102e66004803603602081101561035557600080fd5b81019060208101813564010000000081111561037057600080fd5b82018360208201111561038257600080fd5b803590602001918460018302840111640100000000831117156103a457600080fd5b509092509050610847565b610313600480360360208110156103c557600080fd5b50356001600160a01b0316610886565b610233610897565b610233600480360360208110156103f357600080fd5b503561089d565b61023361090d565b6102e6610913565b61023361091b565b6102e6610922565b610233610a66565b610233610a6c565b6102e66004803603604081101561044057600080fd5b8135919081019060408101602082013564010000000081111561046257600080fd5b82018360208201111561047457600080fd5b8035906020019184600183028401116401000000008311171561049657600080fd5b509092509050610a72565b6102e6600480360360208110156104b757600080fd5b50356001600160a01b0316610a83565b610233610a8f565b6102e6600480360360408110156104e557600080fd5b5080359060200135610a95565b610233610b52565b6102c2610b5a565b6102e66004803603602081101561051857600080fd5b50356001600160a01b0316610b71565b610233610b7a565b6102e66004803603604081101561054657600080fd5b5080359060200135610b88565b610233610cdf565b610233610ce6565b6102e66004803603606081101561057957600080fd5b6001600160a01b03823516916020810135918101906060810160408201356401000000008111156105a957600080fd5b8201836020820111156105bb57600080fd5b803590602001918460018302840111640100000000831117156105dd57600080fd5b509092509050610cec565b6105f0611035565b6040805160208082528351818301528351919283929083019185019080838360005b8381101561062a578181015183820152602001610612565b50505050905090810190601f1680156106575780820380516001836020036101000a031916815260200191505b509250505060405180910390f35b610233611051565b610233611056565b61023361105b565b6105f0611061565b62093a8081565b600f5490565b604080516003808252608082019092526060919060009082602082018580368337505081519194505060018201916349e0f23360e11b9185919081106106d457fe5b6001600160e01b03199092166020928302919091019091015282516001820191632a4cc43160e21b91859190811061070857fe5b6001600160e01b0319909216602092830291909101909101528251600182019163bea8418760e01b91859190811061073c57fe5b6001600160e01b0319909216602092830291909101909101528082146107a9576040805162461bcd60e51b815260206004820181905260248201527f494e434f52524543545f53454c4543544f52535f41525241595f4c454e475448604482015290519081900360640190fd5b505090565b6000818152601860205260408120546001600160a01b031680156107d35790506107f0565b6001600160a01b03831683146107ea5760006107ec565b825b9150505b919050565b6107fd611098565b565b60006022600061080f8585611165565b815260200190815260200160002054905092915050565b600454600160a01b900460ff1690565b600d5490565b600090565b600c5490565b6040805162461bcd60e51b815260206004820152600f60248201526e1393d517d253541311535153951151608a1b604482015290519081900360640190fd5b6000610891826111c6565b92915050565b601d5490565b60245460009082106108ee576040805162461bcd60e51b815260206004820152601560248201527408286a8929e9cbe929c888ab0bea89e9ebe90928e9605b1b604482015290519081900360640190fd5b602482815481106108fb57fe5b90600052602060002001549050919050565b60245490565b6107fd6111f5565b6202a30081565b61092a610826565b61096e576040805162461bcd60e51b815260206004820152601060248201526f29aa20aa22afa727aa2fa32927ad22a760811b604482015290519081900360640190fd5b610977336111c6565b6109ba576040805162461bcd60e51b815260206004820152600f60248201526e4f4e4c595f474f5645524e414e434560881b604482015290519081900360640190fd5b600554421015610a11576040805162461bcd60e51b815260206004820152601860248201527f554e465245455a455f4e4f545f414c4c4f5745445f5945540000000000000000604482015290519081900360640190fd5b6004805460ff60a01b19169055600d805460019081019091556025805482019055600f805490910190556040517f07017fe9180629cfffba412f65a9affcf9a121de02294179f5c058f881dcc9f890600090a1565b60105490565b60265490565b610a7e33848484610cec565b505050565b610a8c8161128c565b50565b60255490565b610a9d610826565b15610ae1576040805162461bcd60e51b815260206004820152600f60248201526e29aa20aa22afa4a9afa32927ad22a760891b604482015290519081900360640190fd5b610aea81611389565b610b33576040805162461bcd60e51b815260206004820152601560248201527413d55517d3d197d4905391d157d59055531517d251605a1b604482015290519081900360640190fd5b6000610b3f83836107ff565b9050610b4a816113a3565b610a7e6114a0565b6301e1338081565b68010000000000000004546001600160a01b031681565b610a8c81611534565b680100000000000000035481565b610b90610826565b15610bd4576040805162461bcd60e51b815260206004820152600f60248201526e29aa20aa22afa4a9afa32927ad22a760891b604482015290519081900360640190fd5b81610bde81611681565b6001600160a01b0316336001600160a01b031614610c43576040805162461bcd60e51b815260206004820152601a60248201527f4d49534d41544348494e475f535441524b5f4554485f4b455953000000000000604482015290519081900360640190fd5b610c4c82611389565b610c95576040805162461bcd60e51b815260206004820152601560248201527413d55517d3d197d4905391d157d59055531517d251605a1b604482015290519081900360640190fd5b610c9f83836116dd565b604080518481526020810184905281517f08eb46dbb87dcfe92d4846e5766802051525fba08a9b48318f5e0fe41186d298929181900390910190a1505050565b6224ea0081565b600e5490565b82610d32576040805162461bcd60e51b8152602060048201526011602482015270494e56414c49445f535441524b5f4b455960781b604482015290519081900360640190fd5b6001601160c01b01600160fb1b018310610d87576040805162461bcd60e51b8152602060048201526011602482015270494e56414c49445f535441524b5f4b455960781b604482015290519081900360640190fd5b6001600160a01b038416610dd8576040805162461bcd60e51b8152602060048201526013602482015272494e56414c49445f4554485f4144445245535360681b604482015290519081900360640190fd5b6000838152601860205260409020546001600160a01b031615610e3a576040805162461bcd60e51b8152602060048201526015602482015274535441524b5f4b45595f554e415641494c41424c4560581b604482015290519081900360640190fd5b610e43836116f1565b610e88576040805162461bcd60e51b8152602060048201526011602482015270494e56414c49445f535441524b5f4b455960781b604482015290519081900360640190fd5b60608114610edd576040805162461bcd60e51b815260206004820152601e60248201527f494e56414c49445f535441524b5f5349474e41545552455f4c454e4754480000604482015290519081900360640190fd5b606082828080601f01602080910402602001604051908101604052809392919081815260200183838082843760009201829052508451949550938493508392506020860191506060811015610f3157600080fd5b5080516020808301516040938401518451702ab9b2b92932b3b4b9ba3930ba34b7b71d60791b8185015260608e901b6bffffffffffffffffffffffff1916603182015260458082018e90528651808303909101815260659091019095528451949092019390932091955091935090915060008051602061256e8339815191529006610fbf8185858b86611760565b60008881526018602090815260409182902080546001600160a01b038d166001600160a01b0319909116811790915582519081529081018a9052338183015290517fcab1cf17c190e4e2195a7b8f7b362023246fa774390432b4704ab6b29d56b07b9181900360600190a1505050505050505050565b60405180606001604052806026815260200161258e6026913981565b600a81565b604081565b60275490565b60408051808201909152601e81527f537461726b576172655f466f72636564416374696f6e735f323032325f330000602082015290565b60006110a2611ad7565b60018101549091506001600160a01b03163314611106576040805162461bcd60e51b815260206004820152601760248201527f4f4e4c595f43414e4449444154455f474f5645524e4f52000000000000000000604482015290519081900360640190fd5b600181015461111d906001600160a01b0316611b54565b6001810180546001600160a01b03191690556040805133815290517fcfb473e6c03f9a29ddaf990e736fa3de5188a0bd85d684f5b6e164ebfbfff5d29181900360200190a150565b60006111bf6040518060400160405280600f81526020016e1195531317d5d2551211149055d053608a1b81525084846040516020018083815260200182815260200192505050604051602081830303815290604052611bd4565b9392505050565b6000806111d1611ad7565b6001600160a01b039390931660009081526020939093525050604090205460ff1690565b6111fe336111c6565b611241576040805162461bcd60e51b815260206004820152600f60248201526e4f4e4c595f474f5645524e414e434560881b604482015290519081900360640190fd5b600061124b611ad7565b6001810180546001600160a01b03191690556040519091507f7a8dc7dd7fffb43c4807438fa62729225156941e641fd877938f4edade3429f590600090a150565b611295336111c6565b6112d8576040805162461bcd60e51b815260206004820152600f60248201526e4f4e4c595f474f5645524e414e434560881b604482015290519081900360640190fd5b60006112e2611ad7565b90506112ed826111c6565b15611332576040805162461bcd60e51b815260206004820152601060248201526f20a62922a0a22cafa3a7ab22a92727a960811b604482015290519081900360640190fd5b6001810180546001600160a01b0384166001600160a01b0319909116811790915560408051918252517f6166272c8d3f5f579082f2827532732f97195007983bb5b83ac12c56700b01a69181900360200190a15050565b600061139482611c96565b80610891575061089182611cab565b806113f5576040805162461bcd60e51b815260206004820152601960248201527f464f524345445f414354494f4e5f554e52455155455354454400000000000000604482015290519081900360640190fd5b62093a808181019081101561140657fe5b80421015611453576040805162461bcd60e51b8152602060048201526015602482015274464f524345445f414354494f4e5f50454e44494e4760581b604482015290519081900360640190fd5b600554811161149c576040805162461bcd60e51b815260206004820152601060248201526f149151949151569157d055151153541560821b604482015290519081900360640190fd5b5050565b6114a8610826565b156114ec576040805162461bcd60e51b815260206004820152600f60248201526e29aa20aa22afa4a9afa32927ad22a760891b604482015290519081900360640190fd5b426301e13380016005556004805460ff60a01b1916600160a01b1790556040517ff5b8e6419478ab140eb98026ab5bd607038cb0ac4d4dad5b1fc0848dfd203d1f90600090a1565b61153d336111c6565b611580576040805162461bcd60e51b815260206004820152600f60248201526e4f4e4c595f474f5645524e414e434560881b604482015290519081900360640190fd5b336001600160a01b03821614156115d5576040805162461bcd60e51b8152602060048201526014602482015273474f5645524e4f525f53454c465f52454d4f564560601b604482015290519081900360640190fd5b60006115df611ad7565b90506115ea826111c6565b61162a576040805162461bcd60e51b815260206004820152600c60248201526b2727aa2fa3a7ab22a92727a960a11b604482015290519081900360640190fd5b6001600160a01b03821660008181526020838152604091829020805460ff19169055815192835290517fd75f94825e770b8b512be8e74759e252ad00e102e38f50cce2f7c6f868a295999281900390910190a15050565b600061168c826107ae565b90506001600160a01b0381166107f0576040805162461bcd60e51b81526020600482015260116024820152701554d15497d553949151d254d511549151607a1b604482015290519081900360640190fd5b61149c6116ea8383611165565b6001611cdd565b6000806001601160c01b01600160fb1b01836001601160c01b01600160fb1b018586090990506107ec6001601160c01b01600160fb1b017f06f21413efbe40de150e596d72f7a8c5609ad26c15c915c1f4cdfcb99cee9e896001601160c01b01600160fb1b0186850808611dbc565b8460008051602061256e8339815191528106146117bb576040805162461bcd60e51b81526020600482015260146024820152736d736748617368206f7574206f662072616e676560601b604482015290519081900360640190fd5b826001111580156117d9575060008051602061256e83398151915283105b61181b576040805162461bcd60e51b815260206004820152600e60248201526d73206f7574206f662072616e676560901b604482015290519081900360640190fd5b60006118358460008051602061256e833981519152611ddc565b90508460011115801561184b5750600160fb1b85105b61188d576040805162461bcd60e51b815260206004820152600e60248201526d72206f7574206f662072616e676560901b604482015290519081900360640190fd5b806001111580156118a15750600160fb1b81105b6118e3576040805162461bcd60e51b815260206004820152600e60248201526d77206f7574206f662072616e676560901b604482015290519081900360640190fd5b60006001601160c01b01600160fb1b01846001601160c01b01600160fb1b0186870909905060006001601160c01b01600160fb1b0184850990506001601160c01b01600160fb1b017f06f21413efbe40de150e596d72f7a8c5609ad26c15c915c1f4cdfcb99cee9e896001601160c01b01600160fb1b018785080881146119a5576040805162461bcd60e51b8152602060048201526011602482015270494e56414c49445f535441524b5f4b455960781b604482015290519081900360640190fd5b5060009050808080611a078a7f01ef15c18599971b7beced415a40f0c7deacfd9b0d1819e03d723d8bc943cfca7e5668060aa49730b7be4801df46ec62de53ecd11abe43a32873000c36e8dc1f60016001601160c01b01600160fb1b01611e88565b9092509050600080611a2a8b8a8a60016001601160c01b01600160fb1b01611e88565b9092509050611a4b8484848460016001601160c01b01600160fb1b01611ec2565b909650945060009350611a7592508691508590508460016001601160c01b01600160fb1b01611e88565b509050878114611acc576040805162461bcd60e51b815260206004820152601760248201527f494e56414c49445f535441524b5f5349474e4154555245000000000000000000604482015290519081900360640190fd5b505050505050505050565b60008060405180606001604052806026815260200161258e602691396040518082805190602001908083835b60208310611b225780518252601f199092019160209182019101611b03565b51815160209384036101000a600019018019909216911617905292019485525060405193849003019092209392505050565b611b5d816111c6565b15611ba2576040805162461bcd60e51b815260206004820152601060248201526f20a62922a0a22cafa3a7ab22a92727a960811b604482015290519081900360640190fd5b6000611bac611ad7565b6001600160a01b0390921660009081526020929092525060409020805460ff19166001179055565b600082826040516020018083805190602001908083835b60208310611c0a5780518252601f199092019160209182019101611beb565b51815160209384036101000a600019018019909216911617905285519190930192850191508083835b60208310611c525780518252601f199092019160209182019101611c33565b6001836020036101000a0380198251168184511680821785525050505050509050019250505060405160208183030381529060405280519060200120905092915050565b6000611ca0610ce6565b60020a909110919050565b600067800000000000000081611cbf610a6c565b60020a82019050838211158015611cd557508084105b949350505050565b8015611cfe5760005b615289811015611cf857600101611ce6565b50611d79565b43600090815260216020526040902054600a11611d62576040805162461bcd60e51b815260206004820152601e60248201527f4d41585f52455155455354535f5045525f424c4f434b5f524541434845440000604482015290519081900360640190fd5b436000908152602160205260409020805460010190555b5060008181526022602052604081204290556024805460018101825591527f7cd332d19b93bcabe3cce7ca0c18a052f57e5fd03b4758a09f30f5ddc4b22ec40155565b6000611dd38267080000000000001160bf1b611f42565b60011492915050565b60008215801590611ded5750818314155b8015611df857508115155b611e3a576040805162461bcd60e51b815260206004820152600e60248201526d24b73b30b634b210373ab6b132b960911b604482015290519081900360640190fd5b6000600183825b8615611e7d57868281611e5057fe5b049050828680611e5c57fe5b8780611e6457fe5b8584098803860882890290930397909450919250611e41565b509195945050505050565b6000806000806000611e9f8a8a8a60018b8b6120ee565b925092509250611eb183838389612165565b945094505050509550959350505050565b6000806000806000888b1415611f0a578580611eda57fe5b888b08611ef05760008094509450505050611f37565b611efe8b8b60018a8a6121bc565b91945092509050611f23565b611f1b8b8b60018c8c60018c6122d2565b919450925090505b611f2f83838389612165565b945094505050505b965096945050505050565b600080606060056001600160a01b0316602080602088886001601160c01b01600160fb1b016040516020018087815260200186815260200185815260200184815260200183815260200182815260200196505050505050506040516020818303038152906040526040518082805190602001908083835b60208310611fd85780518252601f199092019160209182019101611fb9565b6001836020036101000a038019825116818451168082178552505050505050905001915050600060405180830381855afa9150503d8060008114612038576040519150601f19603f3d011682016040523d82523d6000602084013e61203d565b606091505b50915091508181906120cd5760405162461bcd60e51b81526004018080602001828103825283818151815260200191508051906020019080838360005b8381101561209257818101518382015260200161207a565b50505050905090810190601f1680156120bf5780820380516001836020036101000a031916815260200191505b509250505060405180910390fd5b508080602001905160208110156120e357600080fd5b505195945050505050565b6000808088612104575086915085905084612159565b8860008060015b8315612150576001841615612131576121298383838f8f8f8e6122d2565b919450925090505b6002840493506121448c8c8c8c8c6121bc565b919d509b50995061210b565b91955093509150505b96509650969350505050565b60008060006121748585611ddc565b90506000848061218057fe5b82830990506000858061218f57fe5b828a0990506000868061219e57fe5b87806121a657fe5b8486098a09919a91995090975050505050505050565b60008080856121d25750869150859050846122c7565b600084806121dc57fe5b898a099050600085806121eb57fe5b898a099050600086806121fa57fe5b898a0990506000878061220957fe5b888061221157fe5b848e0960040990506000888061222357fe5b898061222b57fe5b8a8061223357fe5b8586098c098a8061224057fe5b87600309089050888061224f57fe5b898061225757fe5b8384088a038a8061226457fe5b838409089450888061227257fe5b898061227a57fe5b8a8061228257fe5b8687096008098a038a8061229257fe5b8b8061229a57fe5b888d038608840908935088806122ac57fe5b89806122b457fe5b8c8e096002099497509295509293505050505b955095509592505050565b60008080891580156122e2575088155b156122f4575085915084905083612542565b86158015612300575085155b15612312575088915087905086612542565b61231a61254f565b848061232257fe5b898a098152848061232f57fe5b81518a096020820152848061234057fe5b8687096040820152848061235057fe5b604082015187096060820152604080516080810190915280868061237057fe5b60408401518e098152602001868061238457fe5b60608401518d098152602001868061239857fe5b83518b09815260200186806123a957fe5b60208401518a099052604081015181519192501415806123d157506060810151602082015114155b612422576040805162461bcd60e51b815260206004820152601e60248201527f557365206a6163446f75626c652066756e6374696f6e20696e73746561640000604482015290519081900360640190fd5b61242a61254f565b858061243257fe5b8251604084015190880390088152858061244857fe5b6020830151606084015190880390086020820152858061246457fe5b815180096040820152858061247557fe5b815160408301510960608201526000868061248c57fe5b60608301518803888061249b57fe5b6020850151800908905086806124ad57fe5b87806124b557fe5b88806124bd57fe5b6040850151865109600209880382089050600087806124d857fe5b88806124e057fe5b838a038a806124eb57fe5b6040870151885109086020850151099050878061250457fe5b888061250c57fe5b60608501516020870151098903820890506000888061252757fe5b898061252f57fe5b8b8f098551099297509095509093505050505b9750975097945050505050565b6040518060800160405280600490602082028036833750919291505056fe0800000000000010ffffffffffffffffb781126dcae7b2321e66a241adc64d2f537461726b45782e4d61696e2e323031392e476f7665726e6f7273496e666f726d6174696f6ea2646970667358221220d3921262125fa771819d221e27f9eed1961762a46ea0a688d9fe3ac78218aa1964736f6c634300060c0033",
    "linkReferences": {}
  },
  "methodIdentifiers": {
    "DEPOSIT_CANCEL_DELAY()": "77e84e0d",
    "FREEZE_GRACE_PERIOD()": "00717542",
    "MAIN_GOVERNANCE_INFO_TAG()": "c23b60ef",
    "MAX_FORCED_ACTIONS_REQS_PER_BLOCK()": "e30a5cff",
    "MAX_VERIFIER_COUNT()": "e6de6282",
    "UNFREEZE_DELAY()": "993f3639",
    "VERIFIER_REMOVAL_DELAY()": "b7663112",
    "defaultVaultWithdrawalLock()": "a45d7841",
    "freezeRequest(uint256,uint256)": "93c1e466",
    "fullWithdrawalRequest(uint256,uint256)": "a93310c4",
    "getActionCount()": "5eecd218",
    "getActionHashByIndex(uint256)": "5e586cd1",
    "getEthKey(uint256)": "1dbd1da7",
    "getFullWithdrawalRequest(uint256,uint256)": "296e2f37",
    "getGlobalConfigCode()": "e9aa2d6b",
    "getLastBatchId()": "515535e8",
    "getOrderRoot()": "0dded952",
    "getOrderTreeHeight()": "7e9da4c5",
    "getRollupTreeHeight()": "81b47796",
    "getRollupVaultRoot()": "8ed31439",
    "getSequenceNumber()": "42af35fd",
    "getValidiumTreeHeight()": "bb7c3d32",
    "getValidiumVaultRoot()": "3a8cc4fc",
    "identify()": "eeb72866",
    "initialize(bytes)": "439fab91",
    "initializerSize()": "3cc660ad",
    "isFrozen()": "33eeb147",
    "mainAcceptGovernance()": "28700a15",
    "mainCancelNomination()": "72eb3688",
    "mainIsGovernor(address)": "45f5cd97",
    "mainNominateNewGovernor(address)": "8c4bce1c",
    "mainRemoveGovernor(address)": "a1cc921e",
    "orderRegistryAddress()": "9c6a2837",
    "registerEthAddress(address,uint256,bytes)": "bea84187",
    "registerSender(uint256,bytes)": "86aeb445",
    "unFreeze()": "7cf12b90",
    "validatedSelectors()": "0ebdac03"
  },
  "id": 99
}