{
  "abi": [
    {
      "inputs": [
        {
          "internalType": "address",
          "name": "operator",
          "type": "address"
        },
        {
          "internalType": "address",
          "name": "",
          "type": "address"
        },
        {
          "internalType": "uint256[]",
          "name": "",
          "type": "uint256[]"
        },
        {
          "internalType": "uint256[]",
          "name": "",
          "type": "uint256[]"
        },
        {
          "internalType": "bytes",
          "name": "",
          "type": "bytes"
        }
      ],
      "name": "onERC1155BatchReceived",
      "outputs": [
        {
          "internalType": "bytes4",
          "name": "",
          "type": "bytes4"
        }
      ],
      "stateMutability": "nonpayable",
      "type": "function"
    },
    {
      "inputs": [
        {
          "internalType": "address",
          "name": "operator",
          "type": "address"
        },
        {
          "internalType": "address",
          "name": "",
          "type": "address"
        },
        {
          "internalType": "uint256",
          "name": "",
          "type": "uint256"
        },
        {
          "internalType": "uint256",
          "name": "",
          "type": "uint256"
        },
        {
          "internalType": "bytes",
          "name": "",
          "type": "bytes"
        }
      ],
      "name": "onERC1155Received",
      "outputs": [
        {
          "internalType": "bytes4",
          "name": "",
          "type": "bytes4"
        }
      ],
      "stateMutability": "nonpayable",
      "type": "function"
    }
  ],
  "bytecode": {
    "object": "0x608060405234801561001057600080fd5b506102a4806100206000396000f3fe608060405234801561001057600080fd5b50600436106100365760003560e01c8063bc197c811461003b578063f23a6e611461017f575b600080fd5b610162600480360360a081101561005157600080fd5b6001600160a01b038235811692602081013590911691810190606081016040820135600160201b81111561008457600080fd5b82018360208201111561009657600080fd5b803590602001918460208302840111600160201b831117156100b757600080fd5b919390929091602081019035600160201b8111156100d457600080fd5b8201836020820111156100e657600080fd5b803590602001918460208302840111600160201b8311171561010757600080fd5b919390929091602081019035600160201b81111561012457600080fd5b82018360208201111561013657600080fd5b803590602001918460018302840111600160201b8311171561015757600080fd5b509092509050610212565b604080516001600160e01b03199092168252519081900360200190f35b610162600480360360a081101561019557600080fd5b6001600160a01b03823581169260208101359091169160408201359160608101359181019060a081016080820135600160201b8111156101d457600080fd5b8201836020820111156101e657600080fd5b803590602001918460018302840111600160201b8311171561020757600080fd5b509092509050610241565b60006001600160a01b038916301461022b576000610234565b63bc197c8160e01b5b9998505050505050505050565b60006001600160a01b038716301461025a576000610263565b63f23a6e6160e01b5b97965050505050505056fea2646970667358221220a9ca47f7bb412309d5102d174902cf0723a5cf0c6c430f8c657757d522ca257a64736f6c634300060c0033",
    "linkReferences": {}
  },
  "methodIdentifiers": {
    "onERC1155BatchReceived(address,address,uint256[],uint256[],bytes)": "bc197c81",
    "onERC1155Received(address,address,uint256,uint256,bytes)": "f23a6e61"
  },
  "id": 5
}