{
  "abi": [
    {
      "anonymous": false,
      "inputs": [
        {
          "indexed": false,
          "internalType": "bytes",
          "name": "data",
          "type": "bytes"
        }
      ],
      "name": "LogExternalInitialize",
      "type": "event"
    },
    {
      "inputs": [
        {
          "internalType": "bytes",
          "name": "data",
          "type": "bytes"
        }
      ],
      "name": "initialize",
      "outputs": [],
      "stateMutability": "nonpayable",
      "type": "function"
    }
  ],
  "bytecode": {
    "object": "0x608060405234801561001057600080fd5b50610309806100206000396000f3fe608060405234801561001057600080fd5b506004361061002b5760003560e01c8063439fab9114610030575b600080fd5b6100a06004803603602081101561004657600080fd5b81019060208101813564010000000081111561006157600080fd5b82018360208201111561007357600080fd5b8035906020019184600183028401116401000000008311171561009557600080fd5b5090925090506100a2565b005b602081146100f7576040805162461bcd60e51b815260206004820152601b60248201527f494e434f52524543545f494e49545f444154415f53495a455f33320000000000604482015290519081900360640190fd5b60008282602081101561010957600080fd5b503590506101168161017b565b7fcd1400d214c673d845a60be61e4392df27be94360484e7da79f75c0222550615838360405180806020018281038252848482818152602001925080828437600083820152604051601f909101601f19169092018290039550909350505050a1505050565b6224ea008111156101c4576040805162461bcd60e51b815260206004820152600e60248201526d44454c41595f544f4f5f4c4f4e4760901b604482015290519081900360640190fd5b60408051600481526024810182526020810180516001600160e01b03166320cea94d60e01b178152915181517fc21dbb3089fcb2c4f4c6a67854ab4db2b0f233ea4b21b21f912d52d18fc5db1f936000936060933093919290918291908083835b602083106102445780518252601f199092019160209182019101610225565b6001836020036101000a038019825116818451168082178552505050505050905001915050600060405180830381855afa9150503d80600081146102a4576040519150601f19603f3d011682016040523d82523d6000602084013e6102a9565b606091505b509150915081156102ce578080602001905160208110156102c957600080fd5b505192505b50505556fea2646970667358221220a8a3b6a155fb77247e376c0b5091e8ebde0b3e7784cbbe495af0d699f02a5a1264736f6c634300060c0033",
    "linkReferences": {}
  },
  "methodIdentifiers": {
    "initialize(bytes)": "439fab91"
  },
  "id": 118
}