{
  "abi": [
    {
      "anonymous": false,
      "inputs": [
        {
          "indexed": false,
          "internalType": "bytes",
          "name": "data",
          "type": "bytes"
        }
      ],
      "name": "LogExternalInitialize",
      "type": "event"
    },
    {
      "inputs": [],
      "name": "DEPOSIT_CANCEL_DELAY",
      "outputs": [
        {
          "internalType": "uint256",
          "name": "",
          "type": "uint256"
        }
      ],
      "stateMutability": "view",
      "type": "function"
    },
    {
      "inputs": [],
      "name": "FREEZE_GRACE_PERIOD",
      "outputs": [
        {
          "internalType": "uint256",
          "name": "",
          "type": "uint256"
        }
      ],
      "stateMutability": "view",
      "type": "function"
    },
    {
      "inputs": [],
      "name": "MAX_FORCED_ACTIONS_REQS_PER_BLOCK",
      "outputs": [
        {
          "internalType": "uint256",
          "name": "",
          "type": "uint256"
        }
      ],
      "stateMutability": "view",
      "type": "function"
    },
    {
      "inputs": [],
      "name": "MAX_VERIFIER_COUNT",
      "outputs": [
        {
          "internalType": "uint256",
          "name": "",
          "type": "uint256"
        }
      ],
      "stateMutability": "view",
      "type": "function"
    },
    {
      "inputs": [],
      "name": "UNFREEZE_DELAY",
      "outputs": [
        {
          "internalType": "uint256",
          "name": "",
          "type": "uint256"
        }
      ],
      "stateMutability": "view",
      "type": "function"
    },
    {
      "inputs": [],
      "name": "VERIFIER_REMOVAL_DELAY",
      "outputs": [
        {
          "internalType": "uint256",
          "name": "",
          "type": "uint256"
        }
      ],
      "stateMutability": "view",
      "type": "function"
    },
    {
      "inputs": [
        {
          "internalType": "bytes",
          "name": "data",
          "type": "bytes"
        }
      ],
      "name": "initialize",
      "outputs": [],
      "stateMutability": "nonpayable",
      "type": "function"
    }
  ],
  "bytecode": {
    "object": "0x608060405234801561001057600080fd5b506107f3806100206000396000f3fe608060405234801561001057600080fd5b506004361061007c5760003560e01c8063993f36391161005b578063993f363914610115578063b76631121461011d578063e30a5cff14610125578063e6de62821461012d5761007c565b806271754214610081578063439fab911461009b57806377e84e0d1461010d575b600080fd5b610089610135565b60408051918252519081900360200190f35b61010b600480360360208110156100b157600080fd5b8101906020810181356401000000008111156100cc57600080fd5b8201836020820111156100de57600080fd5b8035906020019184600183028401116401000000008311171561010057600080fd5b50909250905061013c565b005b610089610154565b61008961015b565b610089610163565b61008961016a565b61008961016f565b62093a8081565b6101468282610174565b6101506000610296565b5050565b6202a30081565b6301e1338081565b6224ea0081565b600a81565b604081565b608081146101c0576040805162461bcd60e51b8152602060048201526014602482015273554e45585045435445445f444154415f53495a4560601b604482015290519081900360640190fd5b600080600080858560808110156101d657600080fd5b506001600160a01b0381358116955060208201359450604082013516925060600135905061020660196000610783565b610212601b6000610783565b6102206019856040866103ee565b61022e601b836040846103ee565b7fcd1400d214c673d845a60be61e4392df27be94360484e7da79f75c0222550615868660405180806020018281038252848482818152602001925080828437600083820152604051601f909101601f19169092018290039550909350505050a1505050505050565b6224ea008111156102df576040805162461bcd60e51b815260206004820152600e60248201526d44454c41595f544f4f5f4c4f4e4760901b604482015290519081900360640190fd5b60408051600481526024810182526020810180516001600160e01b03166320cea94d60e01b178152915181517fc21dbb3089fcb2c4f4c6a67854ab4db2b0f233ea4b21b21f912d52d18fc5db1f936000936060933093919290918291908083835b6020831061035f5780518252601f199092019160209182019101610340565b6001836020036101000a038019825116818451168082178552505050505050905001915050600060405180830381855afa9150503d80600081146103bf576040519150601f19603f3d011682016040523d82523d6000602084013e6103c4565b606091505b509150915081156103e9578080602001905160208110156103e457600080fd5b505192505b505055565b836104016001600160a01b03851661071e565b610449576040805162461bcd60e51b8152602060048201526014602482015273105111149154d4d7d393d517d0d3d395149050d560621b604482015290519081900360640190fd5b6000846001600160a01b031663eeb728666040518163ffffffff1660e01b815260040160006040518083038186803b15801561048457600080fd5b505afa158015610498573d6000803e3d6000fd5b505050506040513d6000823e601f3d908101601f1916820160405260208110156104c157600080fd5b81019080805160405193929190846401000000008211156104e157600080fd5b9083019060208201858111156104f657600080fd5b825164010000000081118282018810171561051057600080fd5b82525081516020918201929091019080838360005b8381101561053d578181015183820152602001610525565b50505050905090810190601f16801561056a5780820380516001836020036101000a031916815260200191505b506040525050506040516020018082805190602001908083835b602083106105a35780518252601f199092019160209182019101610584565b6001836020036101000a038019825116818451168082178552505050505050905001915050604051602081830303815290604052805190602001209050828114610634576040805162461bcd60e51b815260206004820152601e60248201527f554e45585045435445445f434f4e54524143545f4944454e5449464945520000604482015290519081900360640190fd5b81548411610681576040805162461bcd60e51b8152602060048201526015602482015274434841494e5f41545f4d41585f434150414349545960581b604482015290519081900360640190fd5b60001961068e8387610724565b146106d7576040805162461bcd60e51b8152602060048201526014602482015273454e5452595f414c52454144595f45584953545360601b604482015290519081900360640190fd5b50508354600181810186556000868152602080822090930180546001600160a01b039097166001600160a01b03199097168717905594855290940190935250604081205550565b3b151590565b8154600090815b8181101561077557836001600160a01b031685828154811061074957fe5b6000918252602090912001546001600160a01b0316141561076d57915061077d9050565b60010161072b565b506000199150505b92915050565b50805460008255906000526020600020908101906107a191906107a4565b50565b5b808211156107b957600081556001016107a5565b509056fea26469706673582212202d5e81280f3dfe0ac216e4b7c4b768185bbb6285aa8b476c8c3ba5d7b59cc84a64736f6c634300060c0033",
    "linkReferences": {}
  },
  "methodIdentifiers": {
    "DEPOSIT_CANCEL_DELAY()": "77e84e0d",
    "FREEZE_GRACE_PERIOD()": "00717542",
    "MAX_FORCED_ACTIONS_REQS_PER_BLOCK()": "e30a5cff",
    "MAX_VERIFIER_COUNT()": "e6de6282",
    "UNFREEZE_DELAY()": "993f3639",
    "VERIFIER_REMOVAL_DELAY()": "b7663112",
    "initialize(bytes)": "439fab91"
  },
  "id": 116
}