{
  "abi": [
    {
      "anonymous": false,
      "inputs": [
        {
          "indexed": false,
          "internalType": "uint256",
          "name": "newDefaultLockTime",
          "type": "uint256"
        }
      ],
      "name": "LogDefaultVaultWithdrawalLockSet",
      "type": "event"
    },
    {
      "anonymous": false,
      "inputs": [
        {
          "indexed": false,
          "internalType": "address",
          "name": "ethKey",
          "type": "address"
        },
        {
          "indexed": false,
          "internalType": "uint256",
          "name": "assetType",
          "type": "uint256"
        },
        {
          "indexed": false,
          "internalType": "uint256",
          "name": "assetId",
          "type": "uint256"
        },
        {
          "indexed": false,
          "internalType": "uint256",
          "name": "vaultId",
          "type": "uint256"
        },
        {
          "indexed": false,
          "internalType": "uint256",
          "name": "nonQuantizedAmount",
          "type": "uint256"
        },
        {
          "indexed": false,
          "internalType": "uint256",
          "name": "quantizedAmount",
          "type": "uint256"
        }
      ],
      "name": "LogDepositToVault",
      "type": "event"
    },
    {
      "anonymous": false,
      "inputs": [
        {
          "indexed": false,
          "internalType": "address",
          "name": "acceptedGovernor",
          "type": "address"
        }
      ],
      "name": "LogNewGovernorAccepted",
      "type": "event"
    },
    {
      "anonymous": false,
      "inputs": [
        {
          "indexed": false,
          "internalType": "address",
          "name": "nominatedGovernor",
          "type": "address"
        }
      ],
      "name": "LogNominatedGovernor",
      "type": "event"
    },
    {
      "anonymous": false,
      "inputs": [],
      "name": "LogNominationCancelled",
      "type": "event"
    },
    {
      "anonymous": false,
      "inputs": [
        {
          "indexed": false,
          "internalType": "address",
          "name": "removedGovernor",
          "type": "address"
        }
      ],
      "name": "LogRemovedGovernor",
      "type": "event"
    },
    {
      "anonymous": false,
      "inputs": [
        {
          "indexed": false,
          "internalType": "address",
          "name": "ethKey",
          "type": "address"
        },
        {
          "indexed": false,
          "internalType": "uint256",
          "name": "assetId",
          "type": "uint256"
        },
        {
          "indexed": false,
          "internalType": "uint256",
          "name": "vaultId",
          "type": "uint256"
        },
        {
          "indexed": false,
          "internalType": "uint256",
          "name": "timeRelease",
          "type": "uint256"
        }
      ],
      "name": "LogVaultWithdrawalLockSet",
      "type": "event"
    },
    {
      "anonymous": false,
      "inputs": [
        {
          "indexed": false,
          "internalType": "address",
          "name": "ethKey",
          "type": "address"
        },
        {
          "indexed": false,
          "internalType": "uint256",
          "name": "assetType",
          "type": "uint256"
        },
        {
          "indexed": false,
          "internalType": "uint256",
          "name": "assetId",
          "type": "uint256"
        },
        {
          "indexed": false,
          "internalType": "uint256",
          "name": "vaultId",
          "type": "uint256"
        },
        {
          "indexed": false,
          "internalType": "uint256",
          "name": "nonQuantizedAmount",
          "type": "uint256"
        },
        {
          "indexed": false,
          "internalType": "uint256",
          "name": "quantizedAmount",
          "type": "uint256"
        }
      ],
      "name": "LogWithdrawalFromVault",
      "type": "event"
    },
    {
      "inputs": [],
      "name": "DEPOSIT_CANCEL_DELAY",
      "outputs": [
        {
          "internalType": "uint256",
          "name": "",
          "type": "uint256"
        }
      ],
      "stateMutability": "view",
      "type": "function"
    },
    {
      "inputs": [],
      "name": "FREEZE_GRACE_PERIOD",
      "outputs": [
        {
          "internalType": "uint256",
          "name": "",
          "type": "uint256"
        }
      ],
      "stateMutability": "view",
      "type": "function"
    },
    {
      "inputs": [],
      "name": "MAIN_GOVERNANCE_INFO_TAG",
      "outputs": [
        {
          "internalType": "string",
          "name": "",
          "type": "string"
        }
      ],
      "stateMutability": "view",
      "type": "function"
    },
    {
      "inputs": [],
      "name": "MAX_FORCED_ACTIONS_REQS_PER_BLOCK",
      "outputs": [
        {
          "internalType": "uint256",
          "name": "",
          "type": "uint256"
        }
      ],
      "stateMutability": "view",
      "type": "function"
    },
    {
      "inputs": [],
      "name": "MAX_VERIFIER_COUNT",
      "outputs": [
        {
          "internalType": "uint256",
          "name": "",
          "type": "uint256"
        }
      ],
      "stateMutability": "view",
      "type": "function"
    },
    {
      "inputs": [],
      "name": "STARKEX_MAX_DEFAULT_VAULT_LOCK",
      "outputs": [
        {
          "internalType": "uint256",
          "name": "",
          "type": "uint256"
        }
      ],
      "stateMutability": "view",
      "type": "function"
    },
    {
      "inputs": [],
      "name": "UNFREEZE_DELAY",
      "outputs": [
        {
          "internalType": "uint256",
          "name": "",
          "type": "uint256"
        }
      ],
      "stateMutability": "view",
      "type": "function"
    },
    {
      "inputs": [],
      "name": "VERIFIER_REMOVAL_DELAY",
      "outputs": [
        {
          "internalType": "uint256",
          "name": "",
          "type": "uint256"
        }
      ],
      "stateMutability": "view",
      "type": "function"
    },
    {
      "inputs": [
        {
          "internalType": "uint256",
          "name": "assetType",
          "type": "uint256"
        },
        {
          "internalType": "uint256",
          "name": "tokenId",
          "type": "uint256"
        }
      ],
      "name": "calculateAssetIdWithTokenId",
      "outputs": [
        {
          "internalType": "uint256",
          "name": "",
          "type": "uint256"
        }
      ],
      "stateMutability": "view",
      "type": "function"
    },
    {
      "inputs": [
        {
          "internalType": "uint256",
          "name": "assetType",
          "type": "uint256"
        },
        {
          "internalType": "bytes",
          "name": "mintingBlob",
          "type": "bytes"
        }
      ],
      "name": "calculateMintableAssetId",
      "outputs": [
        {
          "internalType": "uint256",
          "name": "assetId",
          "type": "uint256"
        }
      ],
      "stateMutability": "pure",
      "type": "function"
    },
    {
      "inputs": [],
      "name": "defaultVaultWithdrawalLock",
      "outputs": [
        {
          "internalType": "uint256",
          "name": "",
          "type": "uint256"
        }
      ],
      "stateMutability": "view",
      "type": "function"
    },
    {
      "inputs": [
        {
          "internalType": "uint256",
          "name": "assetType",
          "type": "uint256"
        },
        {
          "internalType": "uint256",
          "name": "tokenId",
          "type": "uint256"
        },
        {
          "internalType": "uint256",
          "name": "vaultId",
          "type": "uint256"
        },
        {
          "internalType": "uint256",
          "name": "quantizedAmount",
          "type": "uint256"
        }
      ],
      "name": "depositERC1155ToVault",
      "outputs": [],
      "stateMutability": "nonpayable",
      "type": "function"
    },
    {
      "inputs": [
        {
          "internalType": "uint256",
          "name": "assetType",
          "type": "uint256"
        },
        {
          "internalType": "uint256",
          "name": "vaultId",
          "type": "uint256"
        },
        {
          "internalType": "uint256",
          "name": "quantizedAmount",
          "type": "uint256"
        }
      ],
      "name": "depositERC20ToVault",
      "outputs": [],
      "stateMutability": "nonpayable",
      "type": "function"
    },
    {
      "inputs": [
        {
          "internalType": "uint256",
          "name": "assetType",
          "type": "uint256"
        },
        {
          "internalType": "uint256",
          "name": "vaultId",
          "type": "uint256"
        }
      ],
      "name": "depositEthToVault",
      "outputs": [],
      "stateMutability": "payable",
      "type": "function"
    },
    {
      "inputs": [
        {
          "internalType": "uint256",
          "name": "assetType",
          "type": "uint256"
        }
      ],
      "name": "getAssetInfo",
      "outputs": [
        {
          "internalType": "bytes",
          "name": "assetInfo",
          "type": "bytes"
        }
      ],
      "stateMutability": "view",
      "type": "function"
    },
    {
      "inputs": [
        {
          "internalType": "address",
          "name": "ethKey",
          "type": "address"
        },
        {
          "internalType": "uint256",
          "name": "assetType",
          "type": "uint256"
        },
        {
          "internalType": "uint256",
          "name": "tokenId",
          "type": "uint256"
        },
        {
          "internalType": "uint256",
          "name": "vaultId",
          "type": "uint256"
        }
      ],
      "name": "getQuantizedErc1155VaultBalance",
      "outputs": [
        {
          "internalType": "uint256",
          "name": "",
          "type": "uint256"
        }
      ],
      "stateMutability": "view",
      "type": "function"
    },
    {
      "inputs": [
        {
          "internalType": "address",
          "name": "ethKey",
          "type": "address"
        },
        {
          "internalType": "uint256",
          "name": "assetId",
          "type": "uint256"
        },
        {
          "internalType": "uint256",
          "name": "vaultId",
          "type": "uint256"
        }
      ],
      "name": "getQuantizedVaultBalance",
      "outputs": [
        {
          "internalType": "uint256",
          "name": "",
          "type": "uint256"
        }
      ],
      "stateMutability": "view",
      "type": "function"
    },
    {
      "inputs": [
        {
          "internalType": "uint256",
          "name": "presumedAssetType",
          "type": "uint256"
        }
      ],
      "name": "getQuantum",
      "outputs": [
        {
          "internalType": "uint256",
          "name": "quantum",
          "type": "uint256"
        }
      ],
      "stateMutability": "view",
      "type": "function"
    },
    {
      "inputs": [
        {
          "internalType": "address",
          "name": "ethKey",
          "type": "address"
        },
        {
          "internalType": "uint256",
          "name": "assetId",
          "type": "uint256"
        },
        {
          "internalType": "uint256",
          "name": "vaultId",
          "type": "uint256"
        }
      ],
      "name": "getVaultBalance",
      "outputs": [
        {
          "internalType": "uint256",
          "name": "",
          "type": "uint256"
        }
      ],
      "stateMutability": "view",
      "type": "function"
    },
    {
      "inputs": [
        {
          "internalType": "address",
          "name": "ethKey",
          "type": "address"
        },
        {
          "internalType": "uint256",
          "name": "assetId",
          "type": "uint256"
        },
        {
          "internalType": "uint256",
          "name": "vaultId",
          "type": "uint256"
        }
      ],
      "name": "getVaultWithdrawalLock",
      "outputs": [
        {
          "internalType": "uint256",
          "name": "",
          "type": "uint256"
        }
      ],
      "stateMutability": "view",
      "type": "function"
    },
    {
      "inputs": [],
      "name": "identify",
      "outputs": [
        {
          "internalType": "string",
          "name": "",
          "type": "string"
        }
      ],
      "stateMutability": "pure",
      "type": "function"
    },
    {
      "inputs": [
        {
          "internalType": "bytes",
          "name": "",
          "type": "bytes"
        }
      ],
      "name": "initialize",
      "outputs": [],
      "stateMutability": "nonpayable",
      "type": "function"
    },
    {
      "inputs": [],
      "name": "initializerSize",
      "outputs": [
        {
          "internalType": "uint256",
          "name": "",
          "type": "uint256"
        }
      ],
      "stateMutability": "view",
      "type": "function"
    },
    {
      "inputs": [],
      "name": "isStrictVaultBalancePolicy",
      "outputs": [
        {
          "internalType": "bool",
          "name": "",
          "type": "bool"
        }
      ],
      "stateMutability": "view",
      "type": "function"
    },
    {
      "inputs": [
        {
          "internalType": "address",
          "name": "ethKey",
          "type": "address"
        },
        {
          "internalType": "uint256",
          "name": "assetId",
          "type": "uint256"
        },
        {
          "internalType": "uint256",
          "name": "vaultId",
          "type": "uint256"
        }
      ],
      "name": "isVaultLocked",
      "outputs": [
        {
          "internalType": "bool",
          "name": "",
          "type": "bool"
        }
      ],
      "stateMutability": "view",
      "type": "function"
    },
    {
      "inputs": [
        {
          "internalType": "uint256",
          "name": "assetId",
          "type": "uint256"
        },
        {
          "internalType": "uint256",
          "name": "vaultId",
          "type": "uint256"
        },
        {
          "internalType": "uint256",
          "name": "lockTime",
          "type": "uint256"
        }
      ],
      "name": "lockVault",
      "outputs": [],
      "stateMutability": "nonpayable",
      "type": "function"
    },
    {
      "inputs": [],
      "name": "mainAcceptGovernance",
      "outputs": [],
      "stateMutability": "nonpayable",
      "type": "function"
    },
    {
      "inputs": [],
      "name": "mainCancelNomination",
      "outputs": [],
      "stateMutability": "nonpayable",
      "type": "function"
    },
    {
      "inputs": [
        {
          "internalType": "address",
          "name": "testGovernor",
          "type": "address"
        }
      ],
      "name": "mainIsGovernor",
      "outputs": [
        {
          "internalType": "bool",
          "name": "",
          "type": "bool"
        }
      ],
      "stateMutability": "view",
      "type": "function"
    },
    {
      "inputs": [
        {
          "internalType": "address",
          "name": "newGovernor",
          "type": "address"
        }
      ],
      "name": "mainNominateNewGovernor",
      "outputs": [],
      "stateMutability": "nonpayable",
      "type": "function"
    },
    {
      "inputs": [
        {
          "internalType": "address",
          "name": "governorForRemoval",
          "type": "address"
        }
      ],
      "name": "mainRemoveGovernor",
      "outputs": [],
      "stateMutability": "nonpayable",
      "type": "function"
    },
    {
      "inputs": [],
      "name": "orderRegistryAddress",
      "outputs": [
        {
          "internalType": "address",
          "name": "",
          "type": "address"
        }
      ],
      "stateMutability": "view",
      "type": "function"
    },
    {
      "inputs": [
        {
          "internalType": "uint256",
          "name": "newDefaultTime",
          "type": "uint256"
        }
      ],
      "name": "setDefaultVaultWithdrawalLock",
      "outputs": [],
      "stateMutability": "nonpayable",
      "type": "function"
    },
    {
      "inputs": [],
      "name": "validatedSelectors",
      "outputs": [
        {
          "internalType": "bytes4[]",
          "name": "selectors",
          "type": "bytes4[]"
        }
      ],
      "stateMutability": "pure",
      "type": "function"
    },
    {
      "inputs": [
        {
          "internalType": "uint256",
          "name": "assetType",
          "type": "uint256"
        },
        {
          "internalType": "uint256",
          "name": "tokenId",
          "type": "uint256"
        },
        {
          "internalType": "uint256",
          "name": "vaultId",
          "type": "uint256"
        },
        {
          "internalType": "uint256",
          "name": "quantizedAmount",
          "type": "uint256"
        }
      ],
      "name": "withdrawErc1155FromVault",
      "outputs": [],
      "stateMutability": "nonpayable",
      "type": "function"
    },
    {
      "inputs": [
        {
          "internalType": "uint256",
          "name": "assetType",
          "type": "uint256"
        },
        {
          "internalType": "uint256",
          "name": "vaultId",
          "type": "uint256"
        },
        {
          "internalType": "uint256",
          "name": "quantizedAmount",
          "type": "uint256"
        }
      ],
      "name": "withdrawFromVault",
      "outputs": [],
      "stateMutability": "nonpayable",
      "type": "function"
    }
  ],
  "bytecode": {
    "object": "0x608060405234801561001057600080fd5b50612fec806100206000396000f3fe60806040526004361061020e5760003560e01c8063a1cc921e11610118578063d4181dea116100a0578063e6de62821161006f578063e6de628214610884578063e8d28a9d14610899578063eeb72866146108cf578063f637d950146108e4578063f7ac85871461090e5761020e565b8063d4181dea146107dc578063dd7202d814610806578063e30a5cff14610830578063e69a9de7146108455761020e565b8063a90f34a3116100e7578063a90f34a314610611578063b12773fb1461064d578063b766311214610707578063bf422b2e1461071c578063c23b60ef146107525761020e565b8063a1cc921e1461056a578063a3c71fde1461059d578063a45d7841146105c0578063a70c4b3b146105d55761020e565b80635adf16391161019b5780638c4bce1c1161016a5780638c4bce1c14610482578063993f3639146104b55780639c6a2837146104ca5780639de5c4e5146104fb578063a1cc5e131461053a5761020e565b80635adf16391461044357806372eb36881461045857806377e84e0d1461046d578063835a71c3146102135761020e565b806327c2b36d116101e257806327c2b36d1461031657806328700a15146103695780633cc660ad1461037e578063439fab911461039357806345f5cd97146104105761020e565b8062717542146102135780630ebdac031461023a5780631c6bd5441461029f5780631d133002146102de575b600080fd5b34801561021f57600080fd5b50610228610953565b60408051918252519081900360200190f35b34801561024657600080fd5b5061024f61095a565b60408051602080825283518183015283519192839290830191858101910280838360005b8381101561028b578181015183820152602001610273565b505050509050019250505060405180910390f35b3480156102ab57600080fd5b50610228600480360360608110156102c257600080fd5b506001600160a01b038135169060208101359060400135610a43565b3480156102ea57600080fd5b506103146004803603606081101561030157600080fd5b5080359060208101359060400135610a61565b005b34801561032257600080fd5b506103556004803603606081101561033957600080fd5b506001600160a01b038135169060208101359060400135610b38565b604080519115158252519081900360200190f35b34801561037557600080fd5b50610314610b51565b34801561038a57600080fd5b50610228610b5b565b34801561039f57600080fd5b50610314600480360360208110156103b657600080fd5b8101906020810181356401000000008111156103d157600080fd5b8201836020820111156103e357600080fd5b8035906020019184600183028401116401000000008311171561040557600080fd5b509092509050610b60565b34801561041c57600080fd5b506103556004803603602081101561043357600080fd5b50356001600160a01b0316610b9f565b34801561044f57600080fd5b50610355610bb2565b34801561046457600080fd5b50610314610bc3565b34801561047957600080fd5b50610228610bcb565b34801561048e57600080fd5b50610314600480360360208110156104a557600080fd5b50356001600160a01b0316610bd2565b3480156104c157600080fd5b50610228610bde565b3480156104d657600080fd5b506104df610be6565b604080516001600160a01b039092168252519081900360200190f35b34801561050757600080fd5b506102286004803603606081101561051e57600080fd5b506001600160a01b038135169060208101359060400135610bfd565b34801561054657600080fd5b506102286004803603604081101561055d57600080fd5b5080359060200135610c38565b34801561057657600080fd5b506103146004803603602081101561058d57600080fd5b50356001600160a01b0316610d5f565b610314600480360360408110156105b357600080fd5b5080359060200135610d68565b3480156105cc57600080fd5b50610228610dd1565b3480156105e157600080fd5b50610314600480360360808110156105f857600080fd5b5080359060208101359060408101359060600135610ddf565b34801561061d57600080fd5b506103146004803603608081101561063457600080fd5b5080359060208101359060408101359060600135610ec2565b34801561065957600080fd5b506102286004803603604081101561067057600080fd5b8135919081019060408101602082013564010000000081111561069257600080fd5b8201836020820111156106a457600080fd5b803590602001918460018302840111640100000000831117156106c657600080fd5b91908080601f016020809104026020016040519081016040528093929190818152602001838380828437600092019190915250929550610f64945050505050565b34801561071357600080fd5b50610228611025565b34801561072857600080fd5b506103146004803603606081101561073f57600080fd5b508035906020810135906040013561102c565b34801561075e57600080fd5b5061076761111d565b6040805160208082528351818301528351919283929083019185019080838360005b838110156107a1578181015183820152602001610789565b50505050905090810190601f1680156107ce5780820380516001836020036101000a031916815260200191505b509250505060405180910390f35b3480156107e857600080fd5b50610314600480360360208110156107ff57600080fd5b5035611139565b34801561081257600080fd5b506102286004803603602081101561082957600080fd5b5035611220565b34801561083c57600080fd5b50610228611251565b34801561085157600080fd5b506102286004803603606081101561086857600080fd5b506001600160a01b038135169060208101359060400135611256565b34801561089057600080fd5b5061022861128c565b3480156108a557600080fd5b50610314600480360360608110156108bc57600080fd5b5080359060208101359060400135611291565b3480156108db57600080fd5b50610767611363565b3480156108f057600080fd5b506107676004803603602081101561090757600080fd5b503561139a565b34801561091a57600080fd5b506102286004803603608081101561093157600080fd5b506001600160a01b03813516906020810135906040810135906060013561149f565b62093a8081565b604080516002808252606082810190935290600090828160200160208202803683375050815191945050600182019163a90f34a360e01b91859190811061099d57fe5b6001600160e01b03199092166020928302919091019091015282516001820191635fa1159760e11b9185919081106109d157fe5b6001600160e01b031990921660209283029190910190910152808214610a3e576040805162461bcd60e51b815260206004820181905260248201527f494e434f52524543545f53454c4543544f52535f41525241595f4c454e475448604482015290519081900360640190fd5b505090565b6000610a5983610a54868686611256565b6114e5565b949350505050565b610a6a8361155c565b610ab2576040805162461bcd60e51b81526020600482015260146024820152734e4f545f45524332305f41535345545f5459504560601b604482015290519081900360640190fd5b82610abe818484611580565b610ac88483611601565b7feab1149e7dda57c040af22580ce50b38b8b3af38433be30a24b3938166cd45e933858386610af786886114e5565b604080516001600160a01b0390961686526020860194909452848401929092526060840152608083015260a08201859052519081900360c00190a150505050565b600080610b46858585610bfd565b421095945050505050565b610b596118cb565b565b600090565b6040805162461bcd60e51b815260206004820152600f60248201526e1393d517d253541311535153951151608a1b604482015290519081900360640190fd5b6000610baa82611998565b90505b919050565b680100000000000000025460ff1690565b610b596119c7565b6202a30081565b610bdb81611a5e565b50565b6301e1338081565b68010000000000000004546001600160a01b031681565b6001600160a01b0383166000908152680100000000000000016020908152604080832085845282528083208484529091529020549392505050565b6000610c4383611b5b565b610c7e5760405162461bcd60e51b8152600401808060200182810382526021815260200180612f706021913960400191505060405180910390fd5b6060610c8984611b9f565b610cb8576040518060400160405280600d81526020016c2727a72fa6a4a72a20a126229d60991b815250610cd6565b6040518060400160405280600481526020016327232a1d60e11b8152505b90506001600160fa1b038185856040516020018084805190602001908083835b60208310610d155780518252601f199092019160209182019101610cf6565b51815160209384036101000a600019018019909216911617905292019485525083810192909252506040805180840383018152928101905281519101209190911695945050505050565b610bdb81611bb2565b610d7182611cff565b610db7576040805162461bcd60e51b8152602060048201526012602482015271494e56414c49445f41535345545f5459504560701b604482015290519081900360640190fd5b6000610dc38334611d12565b905082610abe818484611580565b680100000000000000035481565b610de884611d7f565b610e2d576040805162461bcd60e51b81526020600482015260116024820152702727aa2fa2a92198989a9aafaa27a5a2a760791b604482015290519081900360640190fd5b6000610e398585610c38565b9050610e46818484611580565b610e51858584611d92565b7feab1149e7dda57c040af22580ce50b38b8b3af38433be30a24b3938166cd45e933868386610e8086886114e5565b604080516001600160a01b0390961686526020860194909452848401929092526060840152608083015260a08201859052519081900360c00190a15050505050565b610ecb84611d7f565b610f10576040805162461bcd60e51b81526020600482015260116024820152702727aa2fa2a92198989a9aafaa27a5a2a760791b604482015290519081900360640190fd5b6000610f1c8585610c38565b9050610f29818484611e56565b610f3533868685611f8d565b7f824058caef851aafcaa37b343756b98e0c9e3a86be89eaa6a326d66df04e5a4333868386610e8086886114e5565b600080828051906020012060001c9050600160fa1b6001600160f01b036040518060400160405280600981526020016826a4a72a20a126229d60b91b81525086846040516020018084805190602001908083835b60208310610fd75780518252601f199092019160209182019101610fb8565b51815160209384036101000a60001901801990921691161790529201948552508381019290925250604080518084038301815292810190528151910120919091169190911795945050505050565b6224ea0081565b6110358361205e565b611086576040805162461bcd60e51b815260206004820152601760248201527f4e4f4e5f46554e4749424c455f41535345545f54595045000000000000000000604482015290519081900360640190fd5b61108f836120bd565b156110d7576040805162461bcd60e51b81526020600482015260136024820152724d494e5441424c455f41535345545f5459504560681b604482015290519081900360640190fd5b826110e3818484611e56565b6110ee338584612101565b7f824058caef851aafcaa37b343756b98e0c9e3a86be89eaa6a326d66df04e5a4333858386610af786886114e5565b604051806060016040528060268152602001612f916026913981565b61114233611998565b611185576040805162461bcd60e51b815260206004820152600f60248201526e4f4e4c595f474f5645524e414e434560881b604482015290519081900360640190fd5b62093a808111156111dd576040805162461bcd60e51b815260206004820152601a60248201527f44454641554c545f4c4f434b5f54494d455f544f4f5f4c4f4e47000000000000604482015290519081900360640190fd5b680100000000000000038190556040805182815290517f832169a4c3cea413f0041437fd118afbc4b33edbf6783da382128bca1e56b2d29181900360200190a150565b60008181526015602052604081205460ff1661123e57506001610bad565b5060009081526016602052604090205490565b600a81565b6001600160a01b0383166000908152600160401b6020908152604080832085845282528083208484529091529020549392505050565b604081565b600061129e338585610bfd565b9050428201818110156112ec576040805162461bcd60e51b8152602060048201526011602482015270494e56414c49445f4c4f434b5f54494d4560781b604482015290519081900360640190fd5b336000818152680100000000000000016020908152604080832089845282528083208884528252918290208490558151928352820187905281810186905260608201839052517fcd08744f6e50d6b64d69f8a5eddc7f66e34db287f51c1da789ff770ebc7cf73e9181900360800190a15050505050565b60408051808201909152601e81527f537461726b576172655f4f6e636861696e5661756c74735f323032325f320000602082015290565b60008181526015602052604090205460609060ff16611400576040805162461bcd60e51b815260206004820152601960248201527f41535345545f545950455f4e4f545f5245474953544552454400000000000000604482015290519081900360640190fd5b60008281526014602090815260409182902080548351601f6002600019610100600186161502019093169290920491820184900484028101840190945280845290918301828280156114935780601f1061146857610100808354040283529160200191611493565b820191906000526020600020905b81548152906001019060200180831161147657829003601f168201915b50505050509050919050565b6000806114ac8585610c38565b6001600160a01b0387166000908152600160401b6020908152604080832093835292815282822086835290522054915050949350505050565b6000806114f184611220565b905080830291508281838161150257fe5b0414611555576040805162461bcd60e51b815260206004820152601760248201527f44455155414e54495a4154494f4e5f4f564552464c4f57000000000000000000604482015290519081900360640190fd5b5092915050565b6000630f47261b60e41b61156f83612393565b6001600160e01b0319161492915050565b61158a83836123a6565b336000908152600160401b602090815260408083208684528252808320858452909152902080548201908190558111156115fc576040805162461bcd60e51b815260206004820152600e60248201526d5641554c545f4f564552464c4f5760901b604482015290519081900360640190fd5b505050565b600061160d83836114e5565b90506116188361155c565b1561181a578161162857506118c7565b6000611633846123de565b905060008190506000816001600160a01b03166370a08231306040518263ffffffff1660e01b815260040180826001600160a01b0316815260200191505060206040518083038186803b15801561168957600080fd5b505afa15801561169d573d6000803e3d6000fd5b505050506040513d60208110156116b357600080fd5b50516040805133602482015230604482015260648082018890528251808303909101815260849091019091526020810180516001600160e01b03166323b872dd60e01b17905290915061170f6001600160a01b038516826123f1565b6000836001600160a01b03166370a08231306040518263ffffffff1660e01b815260040180826001600160a01b0316815260200191505060206040518083038186803b15801561175e57600080fd5b505afa158015611772573d6000803e3d6000fd5b505050506040513d602081101561178857600080fd5b50519050828110156117cc576040805162461bcd60e51b81526020600482015260086024820152674f564552464c4f5760c01b604482015290519081900360640190fd5b8583018114611810576040805162461bcd60e51b815260206004820152601c6024820152600080516020612f50833981519152604482015290519081900360640190fd5b50505050506115fc565b61182383611cff565b156118815780341461187c576040805162461bcd60e51b815260206004820152601860248201527f494e434f52524543545f4445504f5349545f414d4f554e540000000000000000604482015290519081900360640190fd5b6115fc565b6040805162461bcd60e51b8152602060048201526016602482015275554e535550504f525445445f544f4b454e5f5459504560501b604482015290519081900360640190fd5b5050565b60006118d56125dd565b60018101549091506001600160a01b03163314611939576040805162461bcd60e51b815260206004820152601760248201527f4f4e4c595f43414e4449444154455f474f5645524e4f52000000000000000000604482015290519081900360640190fd5b6001810154611950906001600160a01b031661265a565b6001810180546001600160a01b03191690556040805133815290517fcfb473e6c03f9a29ddaf990e736fa3de5188a0bd85d684f5b6e164ebfbfff5d29181900360200190a150565b6000806119a36125dd565b6001600160a01b039390931660009081526020939093525050604090205460ff1690565b6119d033611998565b611a13576040805162461bcd60e51b815260206004820152600f60248201526e4f4e4c595f474f5645524e414e434560881b604482015290519081900360640190fd5b6000611a1d6125dd565b6001810180546001600160a01b03191690556040519091507f7a8dc7dd7fffb43c4807438fa62729225156941e641fd877938f4edade3429f590600090a150565b611a6733611998565b611aaa576040805162461bcd60e51b815260206004820152600f60248201526e4f4e4c595f474f5645524e414e434560881b604482015290519081900360640190fd5b6000611ab46125dd565b9050611abf82611998565b15611b04576040805162461bcd60e51b815260206004820152601060248201526f20a62922a0a22cafa3a7ab22a92727a960811b604482015290519081900360640190fd5b6001810180546001600160a01b0384166001600160a01b0319909116811790915560408051918252517f6166272c8d3f5f579082f2827532732f97195007983bb5b83ac12c56700b01a69181900360200190a15050565b600080611b6783612393565b90506001600160e01b0319811663012b8bc960e11b1480611b9857506001600160e01b03198116633348691d60e01b145b9392505050565b600063012b8bc960e11b61156f83612393565b611bbb33611998565b611bfe576040805162461bcd60e51b815260206004820152600f60248201526e4f4e4c595f474f5645524e414e434560881b604482015290519081900360640190fd5b336001600160a01b0382161415611c53576040805162461bcd60e51b8152602060048201526014602482015273474f5645524e4f525f53454c465f52454d4f564560601b604482015290519081900360640190fd5b6000611c5d6125dd565b9050611c6882611998565b611ca8576040805162461bcd60e51b815260206004820152600c60248201526b2727aa2fa3a7ab22a92727a960a11b604482015290519081900360640190fd5b6001600160a01b03821660008181526020838152604091829020805460ff19169055815192835290517fd75f94825e770b8b512be8e74759e252ad00e102e38f50cce2f7c6f868a295999281900390910190a15050565b60006341917ff960e11b61156f83612393565b600080611d1e84611220565b9050808381611d2957fe5b0615611d6d576040805162461bcd60e51b815260206004820152600e60248201526d1253959053125117d05353d5539560921b604482015290519081900360640190fd5b808381611d7657fe5b04949350505050565b6000633348691d60e01b61156f83612393565b611d9b83611b5b565b611de2576040805162461bcd60e51b815260206004820152601360248201527246554e4749424c455f41535345545f5459504560681b604482015290519081900360640190fd5b611deb83611b9f565b15611e455780600114611e3b576040805162461bcd60e51b8152602060048201526013602482015272494c4c4547414c5f4e46545f42414c414e434560681b604482015290519081900360640190fd5b61187c83836126da565b80156115fc576115fc83838361278d565b60008111611e9d576040805162461bcd60e51b815260206004820152600f60248201526e16915493d7d5d2551211149055d053608a1b604482015290519081900360640190fd5b611ea8338484610b38565b15611eec576040805162461bcd60e51b815260206004820152600f60248201526e159055531517d254d7d313d0d2d151608a1b604482015290519081900360640190fd5b336000908152600160401b60209081526040808320868452825280832085845290915290205481811015611f5e576040805162461bcd60e51b8152602060048201526014602482015273494e53554646494349454e545f42414c414e434560601b604482015290519081900360640190fd5b336000908152600160401b60209081526040808320968352958152858220948252939093529290912091039055565b611f9683611b5b565b611fdd576040805162461bcd60e51b815260206004820152601360248201527246554e4749424c455f41535345545f5459504560681b604482015290519081900360640190fd5b611fe683611b9f565b156120465780600114612036576040805162461bcd60e51b8152602060048201526013602482015272494c4c4547414c5f4e46545f42414c414e434560681b604482015290519081900360640190fd5b612041848484612aa3565b612058565b80156120585761205884848484612ba8565b50505050565b60008061206a83612393565b90506001600160e01b031981166341917ff960e11b148061209b57506001600160e01b03198116630f47261b60e41b145b80611b9857506001600160e01b031981166368646e2d60e01b14915050919050565b6000806120c983612393565b90506001600160e01b031981166368646e2d60e01b1480611b9857506001600160e01b03198116635c5c333960e11b14915050919050565b6001600160a01b038316612150576040805162461bcd60e51b81526020600482015260116024820152701253959053125117d49150d25412515395607a1b604482015290519081900360640190fd5b600061215c83836114e5565b90506121678361155c565b15612367578161217757506115fc565b6000612182846123de565b905060008190506000816001600160a01b03166370a08231306040518263ffffffff1660e01b815260040180826001600160a01b0316815260200191505060206040518083038186803b1580156121d857600080fd5b505afa1580156121ec573d6000803e3d6000fd5b505050506040513d602081101561220257600080fd5b5051604080516001600160a01b03808b16602483015260448083018990528351808403909101815260649092019092526020810180516001600160e01b031663a9059cbb60e01b17905291925061225b908516826123f1565b6000836001600160a01b03166370a08231306040518263ffffffff1660e01b815260040180826001600160a01b0316815260200191505060206040518083038186803b1580156122aa57600080fd5b505afa1580156122be573d6000803e3d6000fd5b505050506040513d60208110156122d457600080fd5b5051905082811115612319576040805162461bcd60e51b8152602060048201526009602482015268554e444552464c4f5760b81b604482015290519081900360640190fd5b858303811461235d576040805162461bcd60e51b815260206004820152601c6024820152600080516020612f50833981519152604482015290519081900360640190fd5b5050505050612058565b61237083611cff565b15611881578161238057506115fc565b6120416001600160a01b03851682612e95565b6000610baa6123a18361139a565b612f31565b60006123b3338484610bfd565b9050680100000000000000035442018110156115fc576115fc83836801000000000000000354611291565b6000610baa6123ec8361139a565b612f42565b6123fa82612f49565b61243f576040805162461bcd60e51b81526020600482015260116024820152704241445f544f4b454e5f4144445245535360781b604482015290519081900360640190fd5b60006060836001600160a01b0316836040518082805190602001908083835b6020831061247d5780518252601f19909201916020918201910161245e565b6001836020036101000a0380198251168184511680821785525050505050509050019150506000604051808303816000865af19150503d80600081146124df576040519150601f19603f3d011682016040523d82523d6000602084013e6124e4565b606091505b50915091508181906125745760405162461bcd60e51b81526004018080602001828103825283818151815260200191508051906020019080838360005b83811015612539578181015183820152602001612521565b50505050905090810190601f1680156125665780820380516001836020036101000a031916815260200191505b509250505060405180910390fd5b508051156120585780806020019051602081101561259157600080fd5b5051612058576040805162461bcd60e51b81526020600482015260166024820152751513d2d15397d3d4115490551253d397d1905253115160521b604482015290519081900360640190fd5b600080604051806060016040528060268152602001612f91602691396040518082805190602001908083835b602083106126285780518252601f199092019160209182019101612609565b51815160209384036101000a600019018019909216911617905292019485525060405193849003019092209392505050565b61266381611998565b156126a8576040805162461bcd60e51b815260206004820152601060248201526f20a62922a0a22cafa3a7ab22a92727a960811b604482015290519081900360640190fd5b60006126b26125dd565b6001600160a01b0390921660009081526020929092525060409020805460ff19166001179055565b6126e382611b9f565b612727576040805162461bcd60e51b815260206004820152601060248201526f2727aa2fa2a9219b9918afaa27a5a2a760811b604482015290519081900360640190fd5b6000612732836123de565b6040805133602482015230604482015260648082018690528251808303909101815260849091019091526020810180516001600160e01b0316632142170760e11b1790529091506115fc906001600160a01b038316906123f1565b61279683611d7f565b6127db576040805162461bcd60e51b81526020600482015260116024820152702727aa2fa2a92198989a9aafaa27a5a2a760791b604482015290519081900360640190fd5b806127e5576115fc565b60006127f184836114e5565b905060006127fe856123de565b60408051627eeac760e11b815230600482015260248101879052905191925082916000916001600160a01b0384169162fdd58e91604480820192602092909190829003018186803b15801561285257600080fd5b505afa158015612866573d6000803e3d6000fd5b505050506040513d602081101561287c57600080fd5b8101908080519060200190929190505050905061299163f242432a60e01b333089886040518060200160405280600081525060405160240180866001600160a01b03168152602001856001600160a01b0316815260200184815260200183815260200180602001828103825283818151815260200191508051906020019080838360005b83811015612918578181015183820152602001612900565b50505050905090810190601f1680156129455780820380516001836020036101000a031916815260200191505b5060408051601f198184030181529190526020810180516001600160e01b03166001600160e01b0319909a169990991790985250506001600160a01b038a16959450506123f192505050565b6000826001600160a01b031662fdd58e30896040518363ffffffff1660e01b815260040180836001600160a01b031681526020018281526020019250505060206040518083038186803b1580156129e757600080fd5b505afa1580156129fb573d6000803e3d6000fd5b505050506040513d6020811015612a1157600080fd5b5051905081811015612a55576040805162461bcd60e51b81526020600482015260086024820152674f564552464c4f5760c01b604482015290519081900360640190fd5b8482018114612a99576040805162461bcd60e51b815260206004820152601c6024820152600080516020612f50833981519152604482015290519081900360640190fd5b5050505050505050565b6001600160a01b038316612af2576040805162461bcd60e51b81526020600482015260116024820152701253959053125117d49150d25412515395607a1b604482015290519081900360640190fd5b612afb82611b9f565b612b3f576040805162461bcd60e51b815260206004820152601060248201526f2727aa2fa2a9219b9918afaa27a5a2a760811b604482015290519081900360640190fd5b6000612b4a836123de565b604080513060248201526001600160a01b03808816604483015260648083018790528351808403909101815260849092019092526020810180516001600160e01b0316632142170760e11b17905291925061205891908316906123f1565b6001600160a01b038416612bf7576040805162461bcd60e51b81526020600482015260116024820152701253959053125117d49150d25412515395607a1b604482015290519081900360640190fd5b612c0083611d7f565b612c45576040805162461bcd60e51b81526020600482015260116024820152702727aa2fa2a92198989a9aafaa27a5a2a760791b604482015290519081900360640190fd5b80612c4f57612058565b6000612c5b84836114e5565b90506000612c68856123de565b60408051627eeac760e11b815230600482015260248101879052905191925082916000916001600160a01b0384169162fdd58e91604480820192602092909190829003018186803b158015612cbc57600080fd5b505afa158015612cd0573d6000803e3d6000fd5b505050506040513d6020811015612ce657600080fd5b81019080805190602001909291905050509050612d8163f242432a60e01b308a89886040518060200160405280600081525060405160240180866001600160a01b03168152602001856001600160a01b03168152602001848152602001838152602001806020018281038252838181518152602001915080519060200190808383600083811015612918578181015183820152602001612900565b6000826001600160a01b031662fdd58e30896040518363ffffffff1660e01b815260040180836001600160a01b031681526020018281526020019250505060206040518083038186803b158015612dd757600080fd5b505afa158015612deb573d6000803e3d6000fd5b505050506040513d6020811015612e0157600080fd5b5051905081811115612e46576040805162461bcd60e51b8152602060048201526009602482015268554e444552464c4f5760b81b604482015290519081900360640190fd5b8482038114612e8a576040805162461bcd60e51b815260206004820152601c6024820152600080516020612f50833981519152604482015290519081900360640190fd5b505050505050505050565b6040516000906001600160a01b0384169083908381818185875af1925050503d8060008114612ee0576040519150601f19603f3d011682016040523d82523d6000602084013e612ee5565b606091505b50509050806115fc576040805162461bcd60e51b815260206004820152601360248201527211551217d514905394d1915497d19052531151606a1b604482015290519081900360640190fd5b602001516001600160e01b03191690565b6024015190565b3b15159056fe494e434f52524543545f414d4f554e545f5452414e534645525245440000000041535345545f545950455f444f45535f4e4f545f54414b455f544f4b454e5f4944537461726b45782e4d61696e2e323031392e476f7665726e6f7273496e666f726d6174696f6ea26469706673582212206b46f398efc1e0a405984c3ba79bae21f1dab373a271c203170f3889b91a64f464736f6c634300060c0033",
    "linkReferences": {}
  },
  "methodIdentifiers": {
    "DEPOSIT_CANCEL_DELAY()": "77e84e0d",
    "FREEZE_GRACE_PERIOD()": "00717542",
    "MAIN_GOVERNANCE_INFO_TAG()": "c23b60ef",
    "MAX_FORCED_ACTIONS_REQS_PER_BLOCK()": "e30a5cff",
    "MAX_VERIFIER_COUNT()": "e6de6282",
    "STARKEX_MAX_DEFAULT_VAULT_LOCK()": "835a71c3",
    "UNFREEZE_DELAY()": "993f3639",
    "VERIFIER_REMOVAL_DELAY()": "b7663112",
    "calculateAssetIdWithTokenId(uint256,uint256)": "a1cc5e13",
    "calculateMintableAssetId(uint256,bytes)": "b12773fb",
    "defaultVaultWithdrawalLock()": "a45d7841",
    "depositERC1155ToVault(uint256,uint256,uint256,uint256)": "a70c4b3b",
    "depositERC20ToVault(uint256,uint256,uint256)": "1d133002",
    "depositEthToVault(uint256,uint256)": "a3c71fde",
    "getAssetInfo(uint256)": "f637d950",
    "getQuantizedErc1155VaultBalance(address,uint256,uint256,uint256)": "f7ac8587",
    "getQuantizedVaultBalance(address,uint256,uint256)": "e69a9de7",
    "getQuantum(uint256)": "dd7202d8",
    "getVaultBalance(address,uint256,uint256)": "1c6bd544",
    "getVaultWithdrawalLock(address,uint256,uint256)": "9de5c4e5",
    "identify()": "eeb72866",
    "initialize(bytes)": "439fab91",
    "initializerSize()": "3cc660ad",
    "isStrictVaultBalancePolicy()": "5adf1639",
    "isVaultLocked(address,uint256,uint256)": "27c2b36d",
    "lockVault(uint256,uint256,uint256)": "e8d28a9d",
    "mainAcceptGovernance()": "28700a15",
    "mainCancelNomination()": "72eb3688",
    "mainIsGovernor(address)": "45f5cd97",
    "mainNominateNewGovernor(address)": "8c4bce1c",
    "mainRemoveGovernor(address)": "a1cc921e",
    "orderRegistryAddress()": "9c6a2837",
    "setDefaultVaultWithdrawalLock(uint256)": "d4181dea",
    "validatedSelectors()": "0ebdac03",
    "withdrawErc1155FromVault(uint256,uint256,uint256,uint256)": "a90f34a3",
    "withdrawFromVault(uint256,uint256,uint256)": "bf422b2e"
  },
  "id": 100
}