{
  "abi": [
    {
      "inputs": [
        {
          "internalType": "uint256",
          "name": "presumedAssetType",
          "type": "uint256"
        }
      ],
      "name": "getQuantum",
      "outputs": [
        {
          "internalType": "uint256",
          "name": "quantum",
          "type": "uint256"
        }
      ],
      "stateMutability": "view",
      "type": "function"
    }
  ],
  "bytecode": {
    "object": "0x608060405234801561001057600080fd5b5060c18061001f6000396000f3fe6080604052348015600f57600080fd5b506004361060285760003560e01c8063dd7202d814602d575b600080fd5b604760048036036020811015604157600080fd5b50356059565b60408051918252519081900360200190f35b60008181526015602052604081205460ff166075575060016086565b506000818152601660205260409020545b91905056fea26469706673582212202b50892c548a987b325bacd9212fe850da08f14db1205e1c74e2e3bcf91086bb64736f6c634300060c0033",
    "linkReferences": {}
  },
  "methodIdentifiers": {
    "getQuantum(uint256)": "dd7202d8"
  },
  "id": 34
}