{
  "abi": [
    {
      "anonymous": false,
      "inputs": [
        {
          "indexed": false,
          "internalType": "uint256",
          "name": "ownerKey",
          "type": "uint256"
        },
        {
          "indexed": false,
          "internalType": "uint256",
          "name": "assetId",
          "type": "uint256"
        },
        {
          "indexed": false,
          "internalType": "uint256",
          "name": "quantizedAmount",
          "type": "uint256"
        }
      ],
      "name": "LogAssetWithdrawalAllowed",
      "type": "event"
    },
    {
      "anonymous": false,
      "inputs": [],
      "name": "LogFrozen",
      "type": "event"
    },
    {
      "anonymous": false,
      "inputs": [
        {
          "indexed": false,
          "internalType": "uint256",
          "name": "ownerKey",
          "type": "uint256"
        },
        {
          "indexed": false,
          "internalType": "uint256",
          "name": "assetId",
          "type": "uint256"
        },
        {
          "indexed": false,
          "internalType": "uint256",
          "name": "quantizedAmount",
          "type": "uint256"
        }
      ],
      "name": "LogMintableWithdrawalAllowed",
      "type": "event"
    },
    {
      "anonymous": false,
      "inputs": [
        {
          "indexed": false,
          "internalType": "address",
          "name": "acceptedGovernor",
          "type": "address"
        }
      ],
      "name": "LogNewGovernorAccepted",
      "type": "event"
    },
    {
      "anonymous": false,
      "inputs": [
        {
          "indexed": false,
          "internalType": "uint256",
          "name": "ownerKey",
          "type": "uint256"
        },
        {
          "indexed": false,
          "internalType": "uint256",
          "name": "assetId",
          "type": "uint256"
        }
      ],
      "name": "LogNftWithdrawalAllowed",
      "type": "event"
    },
    {
      "anonymous": false,
      "inputs": [
        {
          "indexed": false,
          "internalType": "address",
          "name": "nominatedGovernor",
          "type": "address"
        }
      ],
      "name": "LogNominatedGovernor",
      "type": "event"
    },
    {
      "anonymous": false,
      "inputs": [],
      "name": "LogNominationCancelled",
      "type": "event"
    },
    {
      "anonymous": false,
      "inputs": [
        {
          "indexed": false,
          "internalType": "address",
          "name": "operator",
          "type": "address"
        }
      ],
      "name": "LogOperatorAdded",
      "type": "event"
    },
    {
      "anonymous": false,
      "inputs": [
        {
          "indexed": false,
          "internalType": "address",
          "name": "operator",
          "type": "address"
        }
      ],
      "name": "LogOperatorRemoved",
      "type": "event"
    },
    {
      "anonymous": false,
      "inputs": [
        {
          "indexed": false,
          "internalType": "address",
          "name": "removedGovernor",
          "type": "address"
        }
      ],
      "name": "LogRemovedGovernor",
      "type": "event"
    },
    {
      "anonymous": false,
      "inputs": [
        {
          "indexed": false,
          "internalType": "uint256",
          "name": "sequenceNumber",
          "type": "uint256"
        },
        {
          "indexed": false,
          "internalType": "uint256",
          "name": "batchId",
          "type": "uint256"
        },
        {
          "indexed": false,
          "internalType": "uint256",
          "name": "validiumVaultRoot",
          "type": "uint256"
        },
        {
          "indexed": false,
          "internalType": "uint256",
          "name": "rollupVaultRoot",
          "type": "uint256"
        },
        {
          "indexed": false,
          "internalType": "uint256",
          "name": "orderRoot",
          "type": "uint256"
        }
      ],
      "name": "LogRootUpdate",
      "type": "event"
    },
    {
      "anonymous": false,
      "inputs": [
        {
          "indexed": false,
          "internalType": "bytes32",
          "name": "stateTransitionFact",
          "type": "bytes32"
        }
      ],
      "name": "LogStateTransitionFact",
      "type": "event"
    },
    {
      "anonymous": false,
      "inputs": [],
      "name": "LogUnFrozen",
      "type": "event"
    },
    {
      "anonymous": false,
      "inputs": [
        {
          "indexed": false,
          "internalType": "address",
          "name": "ethKey",
          "type": "address"
        },
        {
          "indexed": false,
          "internalType": "uint256",
          "name": "assetId",
          "type": "uint256"
        },
        {
          "indexed": false,
          "internalType": "uint256",
          "name": "vaultId",
          "type": "uint256"
        },
        {
          "indexed": false,
          "internalType": "int256",
          "name": "quantizedAmountChange",
          "type": "int256"
        }
      ],
      "name": "LogVaultBalanceChangeApplied",
      "type": "event"
    },
    {
      "anonymous": false,
      "inputs": [
        {
          "indexed": false,
          "internalType": "uint256",
          "name": "ownerKey",
          "type": "uint256"
        },
        {
          "indexed": false,
          "internalType": "uint256",
          "name": "assetType",
          "type": "uint256"
        },
        {
          "indexed": false,
          "internalType": "uint256",
          "name": "nonQuantizedAmount",
          "type": "uint256"
        },
        {
          "indexed": false,
          "internalType": "uint256",
          "name": "quantizedAmount",
          "type": "uint256"
        }
      ],
      "name": "LogWithdrawalAllowed",
      "type": "event"
    },
    {
      "inputs": [],
      "name": "DEPOSIT_CANCEL_DELAY",
      "outputs": [
        {
          "internalType": "uint256",
          "name": "",
          "type": "uint256"
        }
      ],
      "stateMutability": "view",
      "type": "function"
    },
    {
      "inputs": [],
      "name": "FREEZE_GRACE_PERIOD",
      "outputs": [
        {
          "internalType": "uint256",
          "name": "",
          "type": "uint256"
        }
      ],
      "stateMutability": "view",
      "type": "function"
    },
    {
      "inputs": [],
      "name": "MAIN_GOVERNANCE_INFO_TAG",
      "outputs": [
        {
          "internalType": "string",
          "name": "",
          "type": "string"
        }
      ],
      "stateMutability": "view",
      "type": "function"
    },
    {
      "inputs": [],
      "name": "MAX_FORCED_ACTIONS_REQS_PER_BLOCK",
      "outputs": [
        {
          "internalType": "uint256",
          "name": "",
          "type": "uint256"
        }
      ],
      "stateMutability": "view",
      "type": "function"
    },
    {
      "inputs": [],
      "name": "MAX_VERIFIER_COUNT",
      "outputs": [
        {
          "internalType": "uint256",
          "name": "",
          "type": "uint256"
        }
      ],
      "stateMutability": "view",
      "type": "function"
    },
    {
      "inputs": [],
      "name": "STARKEX_MAX_DEFAULT_VAULT_LOCK",
      "outputs": [
        {
          "internalType": "uint256",
          "name": "",
          "type": "uint256"
        }
      ],
      "stateMutability": "view",
      "type": "function"
    },
    {
      "inputs": [],
      "name": "UNFREEZE_DELAY",
      "outputs": [
        {
          "internalType": "uint256",
          "name": "",
          "type": "uint256"
        }
      ],
      "stateMutability": "view",
      "type": "function"
    },
    {
      "inputs": [],
      "name": "VERIFIER_REMOVAL_DELAY",
      "outputs": [
        {
          "internalType": "uint256",
          "name": "",
          "type": "uint256"
        }
      ],
      "stateMutability": "view",
      "type": "function"
    },
    {
      "inputs": [],
      "name": "defaultVaultWithdrawalLock",
      "outputs": [
        {
          "internalType": "uint256",
          "name": "",
          "type": "uint256"
        }
      ],
      "stateMutability": "view",
      "type": "function"
    },
    {
      "inputs": [
        {
          "internalType": "uint256",
          "name": "ownerKey",
          "type": "uint256"
        },
        {
          "internalType": "uint256",
          "name": "vaultId",
          "type": "uint256"
        },
        {
          "internalType": "uint256",
          "name": "assetId",
          "type": "uint256"
        },
        {
          "internalType": "uint256",
          "name": "quantizedAmount",
          "type": "uint256"
        }
      ],
      "name": "escape",
      "outputs": [],
      "stateMutability": "nonpayable",
      "type": "function"
    },
    {
      "inputs": [],
      "name": "getActionCount",
      "outputs": [
        {
          "internalType": "uint256",
          "name": "",
          "type": "uint256"
        }
      ],
      "stateMutability": "view",
      "type": "function"
    },
    {
      "inputs": [
        {
          "internalType": "uint256",
          "name": "actionIndex",
          "type": "uint256"
        }
      ],
      "name": "getActionHashByIndex",
      "outputs": [
        {
          "internalType": "bytes32",
          "name": "",
          "type": "bytes32"
        }
      ],
      "stateMutability": "view",
      "type": "function"
    },
    {
      "inputs": [
        {
          "internalType": "uint256",
          "name": "ownerKey",
          "type": "uint256"
        },
        {
          "internalType": "uint256",
          "name": "vaultId",
          "type": "uint256"
        }
      ],
      "name": "getFullWithdrawalRequest",
      "outputs": [
        {
          "internalType": "uint256",
          "name": "",
          "type": "uint256"
        }
      ],
      "stateMutability": "view",
      "type": "function"
    },
    {
      "inputs": [],
      "name": "getGlobalConfigCode",
      "outputs": [
        {
          "internalType": "uint256",
          "name": "",
          "type": "uint256"
        }
      ],
      "stateMutability": "view",
      "type": "function"
    },
    {
      "inputs": [],
      "name": "getLastBatchId",
      "outputs": [
        {
          "internalType": "uint256",
          "name": "",
          "type": "uint256"
        }
      ],
      "stateMutability": "view",
      "type": "function"
    },
    {
      "inputs": [],
      "name": "getOrderRoot",
      "outputs": [
        {
          "internalType": "uint256",
          "name": "",
          "type": "uint256"
        }
      ],
      "stateMutability": "view",
      "type": "function"
    },
    {
      "inputs": [],
      "name": "getOrderTreeHeight",
      "outputs": [
        {
          "internalType": "uint256",
          "name": "",
          "type": "uint256"
        }
      ],
      "stateMutability": "view",
      "type": "function"
    },
    {
      "inputs": [
        {
          "internalType": "uint256",
          "name": "presumedAssetType",
          "type": "uint256"
        }
      ],
      "name": "getQuantum",
      "outputs": [
        {
          "internalType": "uint256",
          "name": "quantum",
          "type": "uint256"
        }
      ],
      "stateMutability": "view",
      "type": "function"
    },
    {
      "inputs": [],
      "name": "getRollupTreeHeight",
      "outputs": [
        {
          "internalType": "uint256",
          "name": "",
          "type": "uint256"
        }
      ],
      "stateMutability": "view",
      "type": "function"
    },
    {
      "inputs": [],
      "name": "getRollupVaultRoot",
      "outputs": [
        {
          "internalType": "uint256",
          "name": "",
          "type": "uint256"
        }
      ],
      "stateMutability": "view",
      "type": "function"
    },
    {
      "inputs": [],
      "name": "getSequenceNumber",
      "outputs": [
        {
          "internalType": "uint256",
          "name": "",
          "type": "uint256"
        }
      ],
      "stateMutability": "view",
      "type": "function"
    },
    {
      "inputs": [],
      "name": "getValidiumTreeHeight",
      "outputs": [
        {
          "internalType": "uint256",
          "name": "",
          "type": "uint256"
        }
      ],
      "stateMutability": "view",
      "type": "function"
    },
    {
      "inputs": [],
      "name": "getValidiumVaultRoot",
      "outputs": [
        {
          "internalType": "uint256",
          "name": "",
          "type": "uint256"
        }
      ],
      "stateMutability": "view",
      "type": "function"
    },
    {
      "inputs": [],
      "name": "identify",
      "outputs": [
        {
          "internalType": "string",
          "name": "",
          "type": "string"
        }
      ],
      "stateMutability": "pure",
      "type": "function"
    },
    {
      "inputs": [
        {
          "internalType": "bytes",
          "name": "data",
          "type": "bytes"
        }
      ],
      "name": "initialize",
      "outputs": [],
      "stateMutability": "nonpayable",
      "type": "function"
    },
    {
      "inputs": [],
      "name": "initializerSize",
      "outputs": [
        {
          "internalType": "uint256",
          "name": "",
          "type": "uint256"
        }
      ],
      "stateMutability": "view",
      "type": "function"
    },
    {
      "inputs": [],
      "name": "isFrozen",
      "outputs": [
        {
          "internalType": "bool",
          "name": "",
          "type": "bool"
        }
      ],
      "stateMutability": "view",
      "type": "function"
    },
    {
      "inputs": [
        {
          "internalType": "address",
          "name": "testedOperator",
          "type": "address"
        }
      ],
      "name": "isOperator",
      "outputs": [
        {
          "internalType": "bool",
          "name": "",
          "type": "bool"
        }
      ],
      "stateMutability": "view",
      "type": "function"
    },
    {
      "inputs": [],
      "name": "mainAcceptGovernance",
      "outputs": [],
      "stateMutability": "nonpayable",
      "type": "function"
    },
    {
      "inputs": [],
      "name": "mainCancelNomination",
      "outputs": [],
      "stateMutability": "nonpayable",
      "type": "function"
    },
    {
      "inputs": [
        {
          "internalType": "address",
          "name": "testGovernor",
          "type": "address"
        }
      ],
      "name": "mainIsGovernor",
      "outputs": [
        {
          "internalType": "bool",
          "name": "",
          "type": "bool"
        }
      ],
      "stateMutability": "view",
      "type": "function"
    },
    {
      "inputs": [
        {
          "internalType": "address",
          "name": "newGovernor",
          "type": "address"
        }
      ],
      "name": "mainNominateNewGovernor",
      "outputs": [],
      "stateMutability": "nonpayable",
      "type": "function"
    },
    {
      "inputs": [
        {
          "internalType": "address",
          "name": "governorForRemoval",
          "type": "address"
        }
      ],
      "name": "mainRemoveGovernor",
      "outputs": [],
      "stateMutability": "nonpayable",
      "type": "function"
    },
    {
      "inputs": [],
      "name": "orderRegistryAddress",
      "outputs": [
        {
          "internalType": "address",
          "name": "",
          "type": "address"
        }
      ],
      "stateMutability": "view",
      "type": "function"
    },
    {
      "inputs": [
        {
          "internalType": "address",
          "name": "newOperator",
          "type": "address"
        }
      ],
      "name": "registerOperator",
      "outputs": [],
      "stateMutability": "nonpayable",
      "type": "function"
    },
    {
      "inputs": [],
      "name": "unFreeze",
      "outputs": [],
      "stateMutability": "nonpayable",
      "type": "function"
    },
    {
      "inputs": [
        {
          "internalType": "address",
          "name": "removedOperator",
          "type": "address"
        }
      ],
      "name": "unregisterOperator",
      "outputs": [],
      "stateMutability": "nonpayable",
      "type": "function"
    },
    {
      "inputs": [
        {
          "internalType": "uint256[]",
          "name": "publicInput",
          "type": "uint256[]"
        },
        {
          "internalType": "uint256[]",
          "name": "applicationData",
          "type": "uint256[]"
        }
      ],
      "name": "updateState",
      "outputs": [],
      "stateMutability": "nonpayable",
      "type": "function"
    },
    {
      "inputs": [],
      "name": "validatedSelectors",
      "outputs": [
        {
          "internalType": "bytes4[]",
          "name": "selectors",
          "type": "bytes4[]"
        }
      ],
      "stateMutability": "pure",
      "type": "function"
    }
  ],
  "bytecode": {
    "object": "0x608060405234801561001057600080fd5b50613a46806100206000396000f3fe608060405234801561001057600080fd5b506004361061023c5760003560e01c80637cf12b901161013b578063a1cc921e116100b8578063dd7202d81161007c578063dd7202d81461067f578063e30a5cff1461069c578063e6de6282146106a4578063e9aa2d6b146106ac578063eeb72866146106b45761023c565b8063a1cc921e146105c4578063a45d7841146105ea578063b7663112146105f2578063bb7c3d32146105fa578063c23b60ef146106025761023c565b80638ed31439116100ff5780638ed314391461053b57806396115bc214610543578063993f3639146105695780639c6a2837146105715780639e3adac4146105955761023c565b80637cf12b90146104fd5780637e9da4c51461050557806381b477961461050d578063835a71c3146102415780638c4bce1c146105155761023c565b806342af35fd116101c95780635e586cd11161018d5780635e586cd1146104a25780635eecd218146104bf5780636d70f7ae146104c757806372eb3688146104ed57806377e84e0d146104f55761023c565b806342af35fd1461033a578063439fab911461034257806345f5cd97146103b2578063515535e8146103d8578063538f9406146103e05761023c565b8063296e2f3711610210578063296e2f37146102c557806333eeb147146102e85780633682a450146103045780633a8cc4fc1461032a5780633cc660ad146103325761023c565b8062717542146102415780630dded9521461025b5780630ebdac031461026357806328700a15146102bb575b600080fd5b6102496106bc565b60408051918252519081900360200190f35b6102496106c3565b61026b6106c9565b60408051602080825283518183015283519192839290830191858101910280838360005b838110156102a757818101518382015260200161028f565b505050509050019250505060405180910390f35b6102c361077d565b005b610249600480360360408110156102db57600080fd5b5080359060200135610787565b6102f06107ae565b604080519115158252519081900360200190f35b6102c36004803603602081101561031a57600080fd5b50356001600160a01b03166107be565b610249610872565b610249610878565b61024961087e565b6102c36004803603602081101561035857600080fd5b81019060208101813564010000000081111561037357600080fd5b82018360208201111561038557600080fd5b803590602001918460018302840111640100000000831117156103a757600080fd5b509092509050610884565b6102f0600480360360208110156103c857600080fd5b50356001600160a01b0316610d2d565b610249610d40565b6102c3600480360360408110156103f657600080fd5b81019060208101813564010000000081111561041157600080fd5b82018360208201111561042357600080fd5b8035906020019184602083028401116401000000008311171561044557600080fd5b91939092909160208101903564010000000081111561046357600080fd5b82018360208201111561047557600080fd5b8035906020019184602083028401116401000000008311171561049757600080fd5b509092509050610d46565b610249600480360360208110156104b857600080fd5b50356112c4565b610249611334565b6102f0600480360360208110156104dd57600080fd5b50356001600160a01b031661133a565b6102c3611367565b61024961136f565b6102c3611376565b6102496114ba565b6102496114c0565b6102c36004803603602081101561052b57600080fd5b50356001600160a01b03166114c6565b6102496114d2565b6102c36004803603602081101561055957600080fd5b50356001600160a01b03166114d8565b61024961158c565b610579611594565b604080516001600160a01b039092168252519081900360200190f35b6102c3600480360360808110156105ab57600080fd5b50803590602081013590604081013590606001356115ab565b6102c3600480360360208110156105da57600080fd5b50356001600160a01b0316611828565b610249611831565b61024961183f565b610249611846565b61060a61184c565b6040805160208082528351818301528351919283929083019185019080838360005b8381101561064457818101518382015260200161062c565b50505050905090810190601f1680156106715780820380516001836020036101000a031916815260200191505b509250505060405180910390f35b6102496004803603602081101561069557600080fd5b5035611868565b610249611899565b61024961189e565b6102496118a3565b61060a6118a9565b62093a8081565b600f5490565b6040805160018082528183019092526060919060009082602080830190803683375050815191945050600182019163278eb6b160e21b91859190811061070b57fe5b6001600160e01b031990921660209283029190910190910152808214610778576040805162461bcd60e51b815260206004820181905260248201527f494e434f52524543545f53454c4543544f52535f41525241595f4c454e475448604482015290519081900360640190fd5b505090565b6107856118e0565b565b60006022600061079785856119ad565b815260200190815260200160002054905092915050565b600454600160a01b900460ff1690565b6107c733611a0e565b61080a576040805162461bcd60e51b815260206004820152600f60248201526e4f4e4c595f474f5645524e414e434560881b604482015290519081900360640190fd5b6001610814611a3d565b6001600160a01b03831660008181526020928352604090819020805460ff191694151594909417909355825190815291517f50a18c352ee1c02ffe058e15c2eb6e58be387c81e73cc1e17035286e54c19a579281900390910190a150565b600d5490565b61016090565b600c5490565b60408051808201909152601981527f53544154455f414c52454144595f494e495449414c495a4544000000000000006020820152600d548190156109465760405162461bcd60e51b81526004018080602001828103825283818151815260200191508051906020019080838360005b8381101561090b5781810151838201526020016108f3565b50505050905090810190601f1680156109385780820380516001836020036101000a031916815260200191505b509250505060405180910390fd5b50600e548190156109985760405162461bcd60e51b815260206004820181815283516024840152835190928392604490910191908501908083836000831561090b5781810151838201526020016108f3565b506025548190156109ea5760405162461bcd60e51b815260206004820181815283516024840152835190928392604490910191908501908083836000831561090b5781810151838201526020016108f3565b50602654819015610a3c5760405162461bcd60e51b815260206004820181815283516024840152835190928392604490910191908501908083836000831561090b5781810151838201526020016108f3565b50600f54819015610a8e5760405162461bcd60e51b815260206004820181815283516024840152835190928392604490910191908501908083836000831561090b5781810151838201526020016108f3565b50601054819015610ae05760405162461bcd60e51b815260206004820181815283516024840152835190928392604490910191908501908083836000831561090b5781810151838201526020016108f3565b506101608214610b37576040805162461bcd60e51b815260206004820152601c60248201527f494e434f52524543545f494e49545f444154415f53495a455f33353200000000604482015290519081900360640190fd5b610b3f61370c565b606084848080601f016020809104026020016040519081016040528093929190818152602001838380828437600092019190915250505060208201805190945091925050600167080000000000001160c01b0111610be4576040805162461bcd60e51b815260206004820152601b60248201527f474c4f42414c5f434f4e4649475f434f4445203e3d205052494d450000000000604482015290519081900360640190fd5b603f8260c0015110610c3d576040805162461bcd60e51b815260206004820152601760248201527f494e56414c49445f56414c494449554d5f484549474854000000000000000000604482015290519081900360640190fd5b603f8260e0015110610c8e576040805162461bcd60e51b81526020600482015260156024820152741253959053125117d493d313155417d2115251d215605a1b604482015290519081900360640190fd5b610c96611a42565b610c9e611ac4565b610cca8260400151836060015184608001518560a001518660c001518760e00151886101000151611b22565b610cd78260200151611b42565b50805160275561012081015168010000000000000002805460ff191691151591909117905561014001516801000000000000000480546001600160a01b0319166001600160a01b03909216919091179055505050565b6000610d3882611a0e565b90505b919050565b601d5490565b610d4e6107ae565b15610d92576040805162461bcd60e51b815260206004820152600f60248201526e29aa20aa22afa4a9afa32927ad22a760891b604482015290519081900360640190fd5b610d9b3361133a565b610ddc576040805162461bcd60e51b815260206004820152600d60248201526c27a7262cafa7a822a920aa27a960991b604482015290519081900360640190fd5b600f831015610e1c5760405162461bcd60e51b81526004018080602001828103825260318152602001806138916031913960400191505060405180910390fd5b60275484846000818110610e2c57fe5b9050602002013514610e85576040805162461bcd60e51b815260206004820152601c60248201527f476c6f62616c20636f6e66696720636f6465206d69736d617463682e00000000604482015290519081900360640190fd5b600167080000000000001160c01b0184846002818110610ea157fe5b9050602002013510610ee45760405162461bcd60e51b81526004018080602001828103825260218152602001806138486021913960400191505060405180910390fd5b600167080000000000001160c01b0184846004818110610f0057fe5b9050602002013510610f59576040805162461bcd60e51b815260206004820152601f60248201527f4e657720726f6c6c7570207661756c7420726f6f74203e3d205052494d452e00604482015290519081900360640190fd5b600167080000000000001160c01b0184846006818110610f7557fe5b9050602002013510610fce576040805162461bcd60e51b815260206004820152601860248201527f4e6577206f7264657220726f6f74203e3d205052494d452e0000000000000000604482015290519081900360640190fd5b601d541580610ff15750601d5482826001818110610fe857fe5b90506020020135145b611042576040805162461bcd60e51b815260206004820152601760248201527f57524f4e475f50524556494f55535f42415443485f4944000000000000000000604482015290519081900360640190fd5b624000008484600781811061105357fe5b90506020020135106110965760405162461bcd60e51b815260040180806020018281038252602c81526020018061381c602c913960400191505060405180910390fd5b610e104204848460078181106110a857fe5b90506020020135116110eb5760405162461bcd60e51b815260040180806020018281038252604e8152602001806137a6604e913960600191505060405180910390fd5b60006110f78585611b64565b6040805182815290519192507f9866f8ddfe70bb512b2f2b28b49d4017c43f7ba775f1a20c61c13eea8cdac111919081900360200190a16111a56019826040518060400160405280601d81526020017f4e4f5f53544154455f5452414e534954494f4e5f5645524946494552530000008152506040518060400160405280601981526020017f4e4f5f53544154455f5452414e534954494f4e5f50524f4f4600000000000000815250611c02565b6000858560028181106111b457fe5b90506020020135868660088181106111c857fe5b90506020020135878760068181106111dc57fe5b905060200201358888600a8181106111f057fe5b90506020020135600c5460010160405160200180868152602001858152602001848152602001838152602001828152602001955050505050506040516020818303038152906040528051906020012090506112b0601b826040518060400160405280601981526020017f4e4f5f415641494c4142494c4954595f56455249464945525300000000000000815250604051806040016040528060158152602001742727afa0ab20a4a620a124a624aa2cafa82927a7a360591b815250611c02565b6112bc86868686611d46565b505050505050565b6024546000908210611315576040805162461bcd60e51b815260206004820152601560248201527408286a8929e9cbe929c888ab0bea89e9ebe90928e9605b1b604482015290519081900360640190fd5b6024828154811061132257fe5b90600052602060002001549050919050565b60245490565b6000611344611a3d565b6001600160a01b0392909216600090815260209290925250604090205460ff1690565b610785611e28565b6202a30081565b61137e6107ae565b6113c2576040805162461bcd60e51b815260206004820152601060248201526f29aa20aa22afa727aa2fa32927ad22a760811b604482015290519081900360640190fd5b6113cb33611a0e565b61140e576040805162461bcd60e51b815260206004820152600f60248201526e4f4e4c595f474f5645524e414e434560881b604482015290519081900360640190fd5b600554421015611465576040805162461bcd60e51b815260206004820152601860248201527f554e465245455a455f4e4f545f414c4c4f5745445f5945540000000000000000604482015290519081900360640190fd5b6004805460ff60a01b19169055600d805460019081019091556025805482019055600f805490910190556040517f07017fe9180629cfffba412f65a9affcf9a121de02294179f5c058f881dcc9f890600090a1565b60105490565b60265490565b6114cf81611ebf565b50565b60255490565b6114e133611a0e565b611524576040805162461bcd60e51b815260206004820152600f60248201526e4f4e4c595f474f5645524e414e434560881b604482015290519081900360640190fd5b600061152e611a3d565b6001600160a01b03831660008181526020928352604090819020805460ff191694151594909417909355825190815291517fec5f6c3a91a1efb1f9a308bb33c6e9e66bf9090fad0732f127dfdbf516d0625d9281900390910190a150565b6301e1338081565b68010000000000000004546001600160a01b031681565b6115b36107ae565b6115f7576040805162461bcd60e51b815260206004820152601060248201526f29aa20aa22afa727aa2fa32927ad22a760811b604482015290519081900360640190fd5b61160083611fbc565b611649576040805162461bcd60e51b815260206004820152601560248201527413d55517d3d197d4905391d157d59055531517d251605a1b604482015290519081900360640190fd5b60008381526009602052604090205460ff16156116a3576040805162461bcd60e51b81526020600482015260136024820152721154d0d0541157d053149150511657d554d151606a1b604482015290519081900360640190fd5b6000838152600960205260408120805460ff19166001908117909155600a80549091019055806116d285611fd6565b6116eb576116de6114d2565b6116e66114c0565b6116fb565b6116f3610872565b6116fb611846565b91509150600061170a86611feb565b6040805160208082018b9052818301899052606082018890526080820187905260a0820186905260c08083018590528351808403909101815260e08301808552815191830191909120600454636a93856760e01b90925260e48401819052935194955092936001600160a01b03909316928392636a93856792610104808301939192829003018186803b1580156117a057600080fd5b505afa1580156117b4573d6000803e3d6000fd5b505050506040513d60208110156117ca57600080fd5b5051611812576040805162461bcd60e51b815260206004820152601260248201527122a9a1a0a822afa620a1a5a9afa82927a7a360711b604482015290519081900360640190fd5b61181d898888611ff8565b505050505050505050565b6114cf8161221b565b680100000000000000035481565b6224ea0081565b600e5490565b60405180606001604052806026815260200161391b6026913981565b60008181526015602052604081205460ff1661188657506001610d3b565b5060009081526016602052604090205490565b600a81565b604081565b60275490565b60408051808201909152601d81527f537461726b576172655f537461726b457853746174655f323032325f35000000602082015290565b60006118ea612368565b60018101549091506001600160a01b0316331461194e576040805162461bcd60e51b815260206004820152601760248201527f4f4e4c595f43414e4449444154455f474f5645524e4f52000000000000000000604482015290519081900360640190fd5b6001810154611965906001600160a01b03166123e5565b6001810180546001600160a01b03191690556040805133815290517fcfb473e6c03f9a29ddaf990e736fa3de5188a0bd85d684f5b6e164ebfbfff5d29181900360200190a150565b6000611a076040518060400160405280600f81526020016e1195531317d5d2551211149055d053608a1b81525084846040516020018083815260200182815260200192505050604051602081830303815290604052612465565b9392505050565b600080611a19612368565b6001600160a01b039390931660009081526020939093525050604090205460ff1690565b601390565b6000611a4c612368565b6001810154909150600160a01b900460ff1615611aa6576040805162461bcd60e51b81526020600482015260136024820152721053149150511657d253925512505312569151606a1b604482015290519081900360640190fd5b60018101805460ff60a01b1916600160a01b1790556114cf336123e5565b6001611ace611a3d565b3360008181526020928352604090819020805460ff191694151594909417909355825190815291517f50a18c352ee1c02ffe058e15c2eb6e58be387c81e73cc1e17035286e54c19a579281900390910190a1565b600c96909655600d94909455602592909255600f55600e55602655601055565b600480546001600160a01b0319166001600160a01b0392909216919091179055565b60006011821015611ba65760405162461bcd60e51b81526004018080602001828103825260338152602001806138c26033913960400191505060405180910390fd5b611a07611bba60011984016000858761377a565b604080518082019091528087876001198101818110611bd557fe5b905060200201358152602001878760018a8a905003818110611bf357fe5b90506020020135815250612527565b835484908381611c535760405162461bcd60e51b815260206004820181815283516024840152835190928392604490910191908501908083836000831561090b5781810151838201526020016108f3565b5060005b81811015611d3d57828181548110611c6b57fe5b6000918252602091829020015460408051636a93856760e01b8152600481018a905290516001600160a01b0390921692636a93856792602480840193829003018186803b158015611cbb57600080fd5b505afa158015611ccf573d6000803e3d6000fd5b505050506040513d6020811015611ce557600080fd5b50518490611d345760405162461bcd60e51b815260206004820181815283516024840152835190928392604490910191908501908083836000831561090b5781810151838201526020016108f3565b50600101611c57565b50505050505050565b611e1684846001818110611d5657fe5b9050602002013585856002818110611d6a57fe5b9050602002013586866003818110611d7e57fe5b9050602002013587876004818110611d9257fe5b9050602002013588886005818110611da657fe5b9050602002013589896006818110611dba57fe5b905060200201358a8a6008818110611dce57fe5b905060200201358b8b6009818110611de257fe5b905060200201358c8c600a818110611df657fe5b905060200201358b8b6000818110611e0a57fe5b905060200201356125b2565b611e2284848484612825565b50505050565b611e3133611a0e565b611e74576040805162461bcd60e51b815260206004820152600f60248201526e4f4e4c595f474f5645524e414e434560881b604482015290519081900360640190fd5b6000611e7e612368565b6001810180546001600160a01b03191690556040519091507f7a8dc7dd7fffb43c4807438fa62729225156941e641fd877938f4edade3429f590600090a150565b611ec833611a0e565b611f0b576040805162461bcd60e51b815260206004820152600f60248201526e4f4e4c595f474f5645524e414e434560881b604482015290519081900360640190fd5b6000611f15612368565b9050611f2082611a0e565b15611f65576040805162461bcd60e51b815260206004820152601060248201526f20a62922a0a22cafa3a7ab22a92727a960811b604482015290519081900360640190fd5b6001810180546001600160a01b0384166001600160a01b0319909116811790915560408051918252517f6166272c8d3f5f579082f2827532732f97195007983bb5b83ac12c56700b01a69181900360200190a15050565b6000611fc782611fd6565b80610d385750610d3882612b14565b6000611fe0611846565b60020a909110919050565b677fffffffffffffff1690565b600083815260086020908152604080832085845290915290205481018181101561205f576040805162461bcd60e51b81526020600482015260136024820152725749544844524157414c5f4f564552464c4f5760681b604482015290519081900360640190fd5b600084815260086020908152604080832086845282528083208490556015909152902054839060ff16156120e3577f03c10a82c955f7bcd0c934147fb39cafca947a4294425b1751d884c8ac95428785826120ba8487612b46565b6040805193845260208401929092528282015260608201869052519081900360800190a1612214565b600160fa1b6001600160f01b0385161784141561213f57604080518681526020810186905280820185905290517f2acce0cedb29dc4927e6c891b57ef5bc8858eea4bf52787ea94873aebd4aeca09181900360600190a1612214565b6001600160fa1b038416841461218f576040805162461bcd60e51b815260206004820152601060248201526f1253959053125117d054d4d15517d25160821b604482015290519081900360640190fd5b600182116121d357604080518681526020810186905281517ff07608f26256bce78d87220cfc0e7b1cc69b48e55104bfa591b2818161386627929181900390910190a15b604080518681526020810186905280820185905290517fd31f59c968eb53320f624721416cf88605da9aadbaa723405e52affe9de4b07f9181900360600190a15b5050505050565b61222433611a0e565b612267576040805162461bcd60e51b815260206004820152600f60248201526e4f4e4c595f474f5645524e414e434560881b604482015290519081900360640190fd5b336001600160a01b03821614156122bc576040805162461bcd60e51b8152602060048201526014602482015273474f5645524e4f525f53454c465f52454d4f564560601b604482015290519081900360640190fd5b60006122c6612368565b90506122d182611a0e565b612311576040805162461bcd60e51b815260206004820152600c60248201526b2727aa2fa3a7ab22a92727a960a11b604482015290519081900360640190fd5b6001600160a01b03821660008181526020838152604091829020805460ff19169055815192835290517fd75f94825e770b8b512be8e74759e252ad00e102e38f50cce2f7c6f868a295999281900390910190a15050565b60008060405180606001604052806026815260200161391b602691396040518082805190602001908083835b602083106123b35780518252601f199092019160209182019101612394565b51815160209384036101000a600019018019909216911617905292019485525060405193849003019092209392505050565b6123ee81611a0e565b15612433576040805162461bcd60e51b815260206004820152601060248201526f20a62922a0a22cafa3a7ab22a92727a960811b604482015290519081900360640190fd5b600061243d612368565b6001600160a01b0390921660009081526020929092525060409020805460ff19166001179055565b600082826040516020018083805190602001908083835b6020831061249b5780518252601f19909201916020918201910161247c565b51815160209384036101000a600019018019909216911617905285519190930192850191508083835b602083106124e35780518252601f1990920191602091820191016124c4565b6001836020036101000a0380198251168184511680821785525050505050509050019250505060405160208183030381529060405280519060200120905092915050565b600080848490509050600085856040516020018083836020028082843760408051601f199490920182810394909401825283815281516020928301208b518c840151848701929092528286018b905260608601529098016080808501919091528851808503909101815260a09093019097525080519501949094206001019450505050509392505050565b600d548a14612608576040805162461bcd60e51b815260206004820152601d60248201527f56414c494449554d5f5641554c545f524f4f545f494e434f5252454354000000604482015290519081900360640190fd5b602554881461265e576040805162461bcd60e51b815260206004820152601b60248201527f524f4c4c55505f5641554c545f524f4f545f494e434f52524543540000000000604482015290519081900360640190fd5b600f5486146126ab576040805162461bcd60e51b815260206004820152601460248201527313d491115497d493d3d517d25390d3d4949150d560621b604482015290519081900360640190fd5b83600e5414612701576040805162461bcd60e51b815260206004820152601e60248201527f56414c494449554d5f545245455f4845494748545f494e434f52524543540000604482015290519081900360640190fd5b8260265414612757576040805162461bcd60e51b815260206004820152601c60248201527f524f4c4c55505f545245455f4845494748545f494e434f525245435400000000604482015290519081900360640190fd5b81601054146127ad576040805162461bcd60e51b815260206004820152601b60248201527f4f524445525f545245455f4845494748545f494e434f52524543540000000000604482015290519081900360640190fd5b600d8990556025879055600f859055600c805460010190819055601d82905560408051918252602082018390528181018b90526060820189905260808201879052517f54fe7a67f8957a96919a0d1b81eeb25ea8c06f96ad528671da17a4a8400406649181900360a00190a150505050505050505050565b60008484600b81811061283457fe5b90506020020135905060008585600c81811061284c57fe5b90506020020135905060008686600d81811061286457fe5b90506020020135905060008787600e81811061287c57fe5b905060200201359050600160401b84106128dd576040805162461bcd60e51b815260206004820181905260248201527f496e76616c6964206e756d626572206f66206d6f64696669636174696f6e732e604482015290519081900360640190fd5b600160401b831061291f5760405162461bcd60e51b81526004018080602001828103825260288152602001806137f46028913960400191505060405180910390fd5b600160401b82106129615760405162461bcd60e51b81526004018080602001828103825260288152602001806138696028913960400191505060405180910390fd5b600160401b81106129a35760405162461bcd60e51b81526004018080602001828103825260218152602001806139416021913960400191505060405180910390fd5b6011600385810285018482020190830201018710156129f35760405162461bcd60e51b815260040180806020018281038252603c8152602001806139d5603c913960400191505060405180910390fd5b6002808402018514612a365760405162461bcd60e51b81526004018080602001828103825260408152602001806139626040913960400191505060405180910390fd5b600f6002612a4f612a498a84818e61377a565b88612bbd565b82019150600080612a838c8c86908092612a6b9392919061377a565b8c8c87908092612a7d9392919061377a565b8b612d87565b940193929092019150612aa39050612a9d8a84818e61377a565b86613030565b90910190612abc612ab68a84818e61377a565b856133d6565b90910160020190888214612b08576040805162461bcd60e51b815260206004820152600e60248201526d496e636f72726563742053697a6560901b604482015290519081900360640190fd5b50505050505050505050565b600067800000000000000081612b286114c0565b60020a82019050838211158015612b3e57508084105b949350505050565b600080612b5284611868565b9050808302915082818381612b6357fe5b0414612bb6576040805162461bcd60e51b815260206004820152601760248201527f44455155414e54495a4154494f4e5f4f564552464c4f57000000000000000000604482015290519081900360640190fd5b5092915050565b600080805b83811015612d7e576000868684818110612bd857fe5b9050602002013590506000878785600101818110612bf257fe5b905060200201359050600167080000000000001160c01b018210612c52576040805162461bcd60e51b8152602060048201526012602482015271537461726b206b6579203e3d205052494d4560701b604482015290519081900360640190fd5b600167080000000000001160c01b018110612ca8576040805162461bcd60e51b81526020600482015260116024820152704173736574206964203e3d205052494d4560781b604482015290519081900360640190fd5b6000888886600201818110612cb957fe5b905060200201359050608181901c600014612d055760405162461bcd60e51b81526004018080602001828103825260268152602001806138f56026913960400191505060405180910390fd5b67ffffffffffffffff818116677fffffffffffffff190190604083901c166000821315612d3d57612d388582868561363d565b612d54565b6000821215612d5457612d548585846000036136d8565b600160801b831615612d6a57612d6a85826136e8565b505050600393909301925050600101612bc2565b50949350505050565b60008060008060005b85811015613021576000888884818110612da657fe5b9050602002013590506000898985600101818110612dc057fe5b9050602002013560001b905060008c8c87818110612dda57fe5b9050602002013590506001600160fa1b03838360405160200180836001600160a01b031660601b8152601401828152602001925050506040516020818303038152906040528051906020012060001c168114612e73576040805162461bcd60e51b815260206004820152601360248201527221b7b73234ba34b7b71036b4b9b6b0ba31b41760691b604482015290519081900360640190fd5b60408051602480820185905282518083039091018152604490910182526020810180516001600160e01b0316636a93856760e01b178152915181516000936060936001600160a01b038916939092909182918083835b60208310612ee85780518252601f199092019160209182019101612ec9565b6001836020036101000a038019825116818451168082178552505050505050905001915050600060405180830381855afa9150503d8060008114612f48576040519150601f19603f3d011682016040523d82523d6000602084013e612f4d565b606091505b5091509150818015612f60575080516020145b612fb1576040805162461bcd60e51b815260206004820152601a60248201527f4241445f464143545f52454749535452595f434f4e5452414354000000000000604482015290519081900360640190fd5b808060200190516020811015612fc657600080fd5b50516130035760405162461bcd60e51b81526004018080602001828103825260338152602001806139a26033913960400191505060405180910390fd5b60018801975060028701965050505050508080600101915050612d90565b50909890975095505050505050565b600080805b83811015612d7e57600086868481811061304b57fe5b905060200201359050600087878560010181811061306557fe5b905060200201359050600167080000000000001160c01b0181106130c3576040805162461bcd60e51b815260206004820152601060248201526f61737365744964203e3d205052494d4560801b604482015290519081900360640190fd5b60008888866002018181106130d457fe5b90506020020135905060a081901c600014613136576040805162461bcd60e51b815260206004820152601f60248201527f556e737570706f72746564207661756c7420757064617465206669656c642e00604482015290519081900360640190fd5b6001600160a01b0383166000908152600160401b602090815260408083208584528252808320637fffffff608086901c16808552925280832054677fffffffffffffff1967ffffffffffffffff808716828101969488901c9091169493908301909101908513156131eb578181136131e6576040805162461bcd60e51b815260206004820152600e60248201526d5641554c545f4f564552464c4f5760901b604482015290519081900360640190fd5b613240565b84821215613240576040805162461bcd60e51b815260206004820152601a60248201527f494e53554646494349454e545f5641554c545f42414c414e4345000000000000604482015290519081900360640190fd5b680100000000000000025460ff16156132fe5760008412156132a9576040805162461bcd60e51b815260206004820152601b60248201527f494c4c4547414c5f42414c414e43455f524551554952454d454e540000000000604482015290519081900360640190fd5b838212156132fe576040805162461bcd60e51b815260206004820152601960248201527f554e4d45545f42414c414e43455f524551554952454d454e5400000000000000604482015290519081900360640190fd5b6000811215613347576040805162461bcd60e51b815260206004820152601060248201526f4e454741544956455f42414c414e434560801b604482015290519081900360640190fd5b6001600160a01b0388166000818152600160401b602090815260408083208b845282528083208784528252918290208490558151928352820189905281810185905260608201879052517f2b2b583bb5166d03b87a8e7c2785e61530ab776400fb69e1bcb13b33afef2b589181900360800190a160038a01995050505050505050508080600101915050613035565b68010000000000000004546000906001600160a01b031681805b848110156136335760028201861015613447576040805162461bcd60e51b815260206004820152601460248201527324b7383aba1037baba1037b3103137bab732399760611b604482015290519081900360640190fd5b600087878481811061345557fe5b905060200201359050600088888560010181811061346f57fe5b9050602002013590508381850160020110156134c8576040805162461bcd60e51b8152602060048201526013602482015272213637b11039b4bd329037bb32b9333637bb9760691b604482015290519081900360640190fd5b60028481019482010188101561351c576040805162461bcd60e51b815260206004820152601460248201527324b7383aba1037baba1037b3103137bab732399760611b604482015290519081900360640190fd5b600061352c828601868b8d61377a565b604051602001808383602002808284376040805191909301818103601f190182528084528151602092830120632a1a8f8960e11b82526001600160a01b038b81166004840152306024840152604483018290529451909850938d1696506354351f1295506064808201955091939250829003018186803b1580156135af57600080fd5b505afa1580156135c3573d6000803e3d6000fd5b505050506040513d60208110156135d957600080fd5b5051613624576040805162461bcd60e51b815260206004820152601560248201527427b93232b9103737ba103932b3b4b9ba32b932b21760591b604482015290519081900360640190fd5b509290920191506001016133f0565b5095945050505050565b600084815260066020908152604080832085845282528083208684529091529020548111156136aa576040805162461bcd60e51b815260206004820152601460248201527311115413d4d25517d25394d551919250d251539560621b604482015290519081900360640190fd5b6000938452600660209081526040808620938652928152828520938552929092529091208054919091039055565b6136e3838383611ff8565b505050565b602260006136f684846119ad565b8152602001908152602001600020600090555050565b6040518061016001604052806000815260200160006001600160a01b031681526020016000815260200160008152602001600081526020016000815260200160008152602001600081526020016000815260200160001515815260200160006001600160a01b031681525090565b60008085851115613789578182fd5b83861115613795578182fd5b505060208302019391909203915056fe54696d657374616d70206f66207468652063757272656e7420626c6f636b2070617373656420746865207468726573686f6c6420666f7220746865207472616e73616374696f6e2062617463682e496e76616c6964206e756d626572206f6620636f6e646974696f6e616c207472616e73666572732e476c6f62616c2065787069726174696f6e2074696d657374616d70206973206f7574206f662072616e67652e4e65772076616c696469756d207661756c7420726f6f74203e3d205052494d452e496e76616c6964206e756d626572206f66206f6e636861696e207661756c7420757064617465732e7075626c6963496e70757420646f6573206e6f7420636f6e7461696e20616c6c207265717569726564206669656c64732e70726f6772616d4f757470757420646f6573206e6f7420636f6e7461696e20616c6c207265717569726564206669656c64732e556e737570706f72746564206d6f64696669636174696f6e20616374696f6e206669656c642e537461726b45782e4d61696e2e323031392e476f7665726e6f7273496e666f726d6174696f6e496e76616c6964206e756d626572206f66206f6e636861696e206f72646572732e6170706c69636174696f6e446174612073697a6520697320696e636f6e73697374656e742077697468206578706563746564207472616e73616374696f6e732e436f6e646974696f6e20666f722074686520636f6e646974696f6e616c207472616e7366657220776173206e6f74206d65742e7075626c6963496e7075742073697a6520697320696e636f6e73697374656e742077697468206578706563746564207472616e73616374696f6e732ea26469706673582212203108b646c85c25781e42bfe43f587e1c02995ff5340d9707042111dd303eeef164736f6c634300060c0033",
    "linkReferences": {}
  },
  "methodIdentifiers": {
    "DEPOSIT_CANCEL_DELAY()": "77e84e0d",
    "FREEZE_GRACE_PERIOD()": "00717542",
    "MAIN_GOVERNANCE_INFO_TAG()": "c23b60ef",
    "MAX_FORCED_ACTIONS_REQS_PER_BLOCK()": "e30a5cff",
    "MAX_VERIFIER_COUNT()": "e6de6282",
    "STARKEX_MAX_DEFAULT_VAULT_LOCK()": "835a71c3",
    "UNFREEZE_DELAY()": "993f3639",
    "VERIFIER_REMOVAL_DELAY()": "b7663112",
    "defaultVaultWithdrawalLock()": "a45d7841",
    "escape(uint256,uint256,uint256,uint256)": "9e3adac4",
    "getActionCount()": "5eecd218",
    "getActionHashByIndex(uint256)": "5e586cd1",
    "getFullWithdrawalRequest(uint256,uint256)": "296e2f37",
    "getGlobalConfigCode()": "e9aa2d6b",
    "getLastBatchId()": "515535e8",
    "getOrderRoot()": "0dded952",
    "getOrderTreeHeight()": "7e9da4c5",
    "getQuantum(uint256)": "dd7202d8",
    "getRollupTreeHeight()": "81b47796",
    "getRollupVaultRoot()": "8ed31439",
    "getSequenceNumber()": "42af35fd",
    "getValidiumTreeHeight()": "bb7c3d32",
    "getValidiumVaultRoot()": "3a8cc4fc",
    "identify()": "eeb72866",
    "initialize(bytes)": "439fab91",
    "initializerSize()": "3cc660ad",
    "isFrozen()": "33eeb147",
    "isOperator(address)": "6d70f7ae",
    "mainAcceptGovernance()": "28700a15",
    "mainCancelNomination()": "72eb3688",
    "mainIsGovernor(address)": "45f5cd97",
    "mainNominateNewGovernor(address)": "8c4bce1c",
    "mainRemoveGovernor(address)": "a1cc921e",
    "orderRegistryAddress()": "9c6a2837",
    "registerOperator(address)": "3682a450",
    "unFreeze()": "7cf12b90",
    "unregisterOperator(address)": "96115bc2",
    "updateState(uint256[],uint256[])": "538f9406",
    "validatedSelectors()": "0ebdac03"
  },
  "id": 102
}