{
  "abi": [
    {
      "anonymous": false,
      "inputs": [],
      "name": "LogFrozen",
      "type": "event"
    },
    {
      "anonymous": false,
      "inputs": [
        {
          "indexed": false,
          "internalType": "address",
          "name": "acceptedGovernor",
          "type": "address"
        }
      ],
      "name": "LogNewGovernorAccepted",
      "type": "event"
    },
    {
      "anonymous": false,
      "inputs": [
        {
          "indexed": false,
          "internalType": "address",
          "name": "nominatedGovernor",
          "type": "address"
        }
      ],
      "name": "LogNominatedGovernor",
      "type": "event"
    },
    {
      "anonymous": false,
      "inputs": [],
      "name": "LogNominationCancelled",
      "type": "event"
    },
    {
      "anonymous": false,
      "inputs": [
        {
          "indexed": false,
          "internalType": "address",
          "name": "entry",
          "type": "address"
        },
        {
          "indexed": false,
          "internalType": "string",
          "name": "entryId",
          "type": "string"
        }
      ],
      "name": "LogRegistered",
      "type": "event"
    },
    {
      "anonymous": false,
      "inputs": [
        {
          "indexed": false,
          "internalType": "address",
          "name": "entry",
          "type": "address"
        },
        {
          "indexed": false,
          "internalType": "string",
          "name": "entryId",
          "type": "string"
        }
      ],
      "name": "LogRemovalIntent",
      "type": "event"
    },
    {
      "anonymous": false,
      "inputs": [
        {
          "indexed": false,
          "internalType": "address",
          "name": "entry",
          "type": "address"
        },
        {
          "indexed": false,
          "internalType": "string",
          "name": "entryId",
          "type": "string"
        }
      ],
      "name": "LogRemoved",
      "type": "event"
    },
    {
      "anonymous": false,
      "inputs": [
        {
          "indexed": false,
          "internalType": "address",
          "name": "removedGovernor",
          "type": "address"
        }
      ],
      "name": "LogRemovedGovernor",
      "type": "event"
    },
    {
      "anonymous": false,
      "inputs": [],
      "name": "LogUnFrozen",
      "type": "event"
    },
    {
      "inputs": [],
      "name": "DEPOSIT_CANCEL_DELAY",
      "outputs": [
        {
          "internalType": "uint256",
          "name": "",
          "type": "uint256"
        }
      ],
      "stateMutability": "view",
      "type": "function"
    },
    {
      "inputs": [],
      "name": "FREEZE_GRACE_PERIOD",
      "outputs": [
        {
          "internalType": "uint256",
          "name": "",
          "type": "uint256"
        }
      ],
      "stateMutability": "view",
      "type": "function"
    },
    {
      "inputs": [],
      "name": "MAIN_GOVERNANCE_INFO_TAG",
      "outputs": [
        {
          "internalType": "string",
          "name": "",
          "type": "string"
        }
      ],
      "stateMutability": "view",
      "type": "function"
    },
    {
      "inputs": [],
      "name": "MAX_FORCED_ACTIONS_REQS_PER_BLOCK",
      "outputs": [
        {
          "internalType": "uint256",
          "name": "",
          "type": "uint256"
        }
      ],
      "stateMutability": "view",
      "type": "function"
    },
    {
      "inputs": [],
      "name": "MAX_VERIFIER_COUNT",
      "outputs": [
        {
          "internalType": "uint256",
          "name": "",
          "type": "uint256"
        }
      ],
      "stateMutability": "view",
      "type": "function"
    },
    {
      "inputs": [],
      "name": "UNFREEZE_DELAY",
      "outputs": [
        {
          "internalType": "uint256",
          "name": "",
          "type": "uint256"
        }
      ],
      "stateMutability": "view",
      "type": "function"
    },
    {
      "inputs": [],
      "name": "VERIFIER_REMOVAL_DELAY",
      "outputs": [
        {
          "internalType": "uint256",
          "name": "",
          "type": "uint256"
        }
      ],
      "stateMutability": "view",
      "type": "function"
    },
    {
      "inputs": [
        {
          "internalType": "address",
          "name": "verifier",
          "type": "address"
        }
      ],
      "name": "announceAvailabilityVerifierRemovalIntent",
      "outputs": [],
      "stateMutability": "nonpayable",
      "type": "function"
    },
    {
      "inputs": [
        {
          "internalType": "address",
          "name": "verifier",
          "type": "address"
        }
      ],
      "name": "announceVerifierRemovalIntent",
      "outputs": [],
      "stateMutability": "nonpayable",
      "type": "function"
    },
    {
      "inputs": [],
      "name": "getRegisteredAvailabilityVerifiers",
      "outputs": [
        {
          "internalType": "address[]",
          "name": "_verifers",
          "type": "address[]"
        }
      ],
      "stateMutability": "view",
      "type": "function"
    },
    {
      "inputs": [],
      "name": "getRegisteredVerifiers",
      "outputs": [
        {
          "internalType": "address[]",
          "name": "_verifers",
          "type": "address[]"
        }
      ],
      "stateMutability": "view",
      "type": "function"
    },
    {
      "inputs": [],
      "name": "identify",
      "outputs": [
        {
          "internalType": "string",
          "name": "",
          "type": "string"
        }
      ],
      "stateMutability": "pure",
      "type": "function"
    },
    {
      "inputs": [
        {
          "internalType": "bytes",
          "name": "",
          "type": "bytes"
        }
      ],
      "name": "initialize",
      "outputs": [],
      "stateMutability": "nonpayable",
      "type": "function"
    },
    {
      "inputs": [],
      "name": "initializerSize",
      "outputs": [
        {
          "internalType": "uint256",
          "name": "",
          "type": "uint256"
        }
      ],
      "stateMutability": "view",
      "type": "function"
    },
    {
      "inputs": [
        {
          "internalType": "address",
          "name": "verifierAddress",
          "type": "address"
        }
      ],
      "name": "isAvailabilityVerifier",
      "outputs": [
        {
          "internalType": "bool",
          "name": "",
          "type": "bool"
        }
      ],
      "stateMutability": "view",
      "type": "function"
    },
    {
      "inputs": [],
      "name": "isFrozen",
      "outputs": [
        {
          "internalType": "bool",
          "name": "",
          "type": "bool"
        }
      ],
      "stateMutability": "view",
      "type": "function"
    },
    {
      "inputs": [
        {
          "internalType": "address",
          "name": "verifierAddress",
          "type": "address"
        }
      ],
      "name": "isVerifier",
      "outputs": [
        {
          "internalType": "bool",
          "name": "",
          "type": "bool"
        }
      ],
      "stateMutability": "view",
      "type": "function"
    },
    {
      "inputs": [],
      "name": "mainAcceptGovernance",
      "outputs": [],
      "stateMutability": "nonpayable",
      "type": "function"
    },
    {
      "inputs": [],
      "name": "mainCancelNomination",
      "outputs": [],
      "stateMutability": "nonpayable",
      "type": "function"
    },
    {
      "inputs": [
        {
          "internalType": "address",
          "name": "testGovernor",
          "type": "address"
        }
      ],
      "name": "mainIsGovernor",
      "outputs": [
        {
          "internalType": "bool",
          "name": "",
          "type": "bool"
        }
      ],
      "stateMutability": "view",
      "type": "function"
    },
    {
      "inputs": [
        {
          "internalType": "address",
          "name": "newGovernor",
          "type": "address"
        }
      ],
      "name": "mainNominateNewGovernor",
      "outputs": [],
      "stateMutability": "nonpayable",
      "type": "function"
    },
    {
      "inputs": [
        {
          "internalType": "address",
          "name": "governorForRemoval",
          "type": "address"
        }
      ],
      "name": "mainRemoveGovernor",
      "outputs": [],
      "stateMutability": "nonpayable",
      "type": "function"
    },
    {
      "inputs": [
        {
          "internalType": "address",
          "name": "verifier",
          "type": "address"
        },
        {
          "internalType": "string",
          "name": "identifier",
          "type": "string"
        }
      ],
      "name": "registerAvailabilityVerifier",
      "outputs": [],
      "stateMutability": "nonpayable",
      "type": "function"
    },
    {
      "inputs": [
        {
          "internalType": "address",
          "name": "verifier",
          "type": "address"
        },
        {
          "internalType": "string",
          "name": "identifier",
          "type": "string"
        }
      ],
      "name": "registerVerifier",
      "outputs": [],
      "stateMutability": "nonpayable",
      "type": "function"
    },
    {
      "inputs": [
        {
          "internalType": "address",
          "name": "verifier",
          "type": "address"
        }
      ],
      "name": "removeAvailabilityVerifier",
      "outputs": [],
      "stateMutability": "nonpayable",
      "type": "function"
    },
    {
      "inputs": [
        {
          "internalType": "address",
          "name": "verifier",
          "type": "address"
        }
      ],
      "name": "removeVerifier",
      "outputs": [],
      "stateMutability": "nonpayable",
      "type": "function"
    },
    {
      "inputs": [],
      "name": "unFreeze",
      "outputs": [],
      "stateMutability": "nonpayable",
      "type": "function"
    },
    {
      "inputs": [],
      "name": "validatedSelectors",
      "outputs": [
        {
          "internalType": "bytes4[]",
          "name": "selectors",
          "type": "bytes4[]"
        }
      ],
      "stateMutability": "pure",
      "type": "function"
    }
  ],
  "bytecode": {
    "object": "0x608060405234801561001057600080fd5b50611d9d806100206000396000f3fe608060405234801561001057600080fd5b50600436106101c35760003560e01c806377e84e0d116100f9578063bd1279ae11610097578063ca2dfd0a11610071578063ca2dfd0a146105b7578063e30a5cff146105dd578063e6de6282146105e5578063eeb72866146105ed576101c3565b8063bd1279ae14610496578063bdb75785146104bc578063c23b60ef1461053a576101c3565b8063993f3639116100d3578063993f36391461043a578063a1cc921e14610442578063b1e640bf14610468578063b76631121461048e576101c3565b806377e84e0d146104045780637cf12b901461040c5780638c4bce1c14610414576101c3565b80633776fe2a11610166578063439fab9111610140578063439fab911461036057806345f5cd97146103ce5780634eab9ed3146103f457806372eb3688146103fc576101c3565b80633776fe2a146102b45780633cc660ad14610332578063418573b71461033a576101c3565b80631d078bbb116101a25780631d078bbb1461024257806328700a151461026a578063331052181461027257806333eeb147146102ac576101c3565b8062717542146101c85780630ebdac03146101e25780631ac347f21461023a575b600080fd5b6101d06105f5565b60408051918252519081900360200190f35b6101ea6105fc565b60408051602080825283518183015283519192839290830191858101910280838360005b8381101561022657818101518382015260200161020e565b505050509050019250505060405180910390f35b6101ea6106b0565b6102686004803603602081101561025857600080fd5b50356001600160a01b0316610715565b005b610268610727565b6102986004803603602081101561028857600080fd5b50356001600160a01b0316610731565b604080519115158252519081900360200190f35b610298610749565b610268600480360360408110156102ca57600080fd5b6001600160a01b038235169190810190604081016020820135600160201b8111156102f457600080fd5b82018360208201111561030657600080fd5b803590602001918460018302840111600160201b8311171561032757600080fd5b509092509050610759565b6101d06107a2565b6102686004803603602081101561035057600080fd5b50356001600160a01b03166107a7565b6102686004803603602081101561037657600080fd5b810190602081018135600160201b81111561039057600080fd5b8201836020820111156103a257600080fd5b803590602001918460018302840111600160201b831117156103c357600080fd5b5090925090506107b6565b610298600480360360208110156103e457600080fd5b50356001600160a01b03166107f5565b6101ea610806565b610268610869565b6101d0610871565b610268610878565b6102686004803603602081101561042a57600080fd5b50356001600160a01b03166109bc565b6101d06109c5565b6102686004803603602081101561045857600080fd5b50356001600160a01b03166109cd565b6102686004803603602081101561047e57600080fd5b50356001600160a01b03166109d6565b6101d06109e1565b610298600480360360208110156104ac57600080fd5b50356001600160a01b03166109e8565b610268600480360360408110156104d257600080fd5b6001600160a01b038235169190810190604081016020820135600160201b8111156104fc57600080fd5b82018360208201111561050e57600080fd5b803590602001918460018302840111600160201b8311171561052f57600080fd5b5090925090506109f8565b610542610a3c565b6040805160208082528351818301528351919283929083019185019080838360005b8381101561057c578181015183820152602001610564565b50505050905090810190601f1680156105a95780820380516001836020036101000a031916815260200191505b509250505060405180910390f35b610268600480360360208110156105cd57600080fd5b50356001600160a01b0316610a58565b6101d0610a63565b6101d0610a68565b610542610a6d565b62093a8081565b604080516001808252818301909252606091906000908260208083019080368337505081519194505060018201916307cf12b960e41b91859190811061063e57fe5b6001600160e01b0319909216602092830291909101909101528082146106ab576040805162461bcd60e51b815260206004820181905260248201527f494e434f52524543545f53454c4543544f52535f41525241595f4c454e475448604482015290519081900360640190fd5b505090565b6060601b60000180548060200260200160405190810160405280929190818152602001828054801561070b57602002820191906000526020600020905b81546001600160a01b031681526001909101906020018083116106ed575b5050505050905090565b610724601b826224ea00610aa4565b50565b61072f610de2565b565b6000600019610741601984610eaf565b141592915050565b600454600160a01b900460ff1690565b61079d601984604085858080601f016020809104026020016040519081016040528093929190818152602001838380828437600092019190915250610f0c92505050565b505050565b600090565b6107246019826224ea00610aa4565b6040805162461bcd60e51b815260206004820152600f60248201526e1393d517d253541311535153951151608a1b604482015290519081900360640190fd5b60006108008261148d565b92915050565b6060601960000180548060200260200160405190810160405280929190818152602001828054801561070b576020028201919060005260206000209081546001600160a01b031681526001909101906020018083116106ed575050505050905090565b61072f6114bc565b6202a30081565b610880610749565b6108c4576040805162461bcd60e51b815260206004820152601060248201526f29aa20aa22afa727aa2fa32927ad22a760811b604482015290519081900360640190fd5b6108cd3361148d565b610910576040805162461bcd60e51b815260206004820152600f60248201526e4f4e4c595f474f5645524e414e434560881b604482015290519081900360640190fd5b600554421015610967576040805162461bcd60e51b815260206004820152601860248201527f554e465245455a455f4e4f545f414c4c4f5745445f5945540000000000000000604482015290519081900360640190fd5b6004805460ff60a01b19169055600d805460019081019091556025805482019055600f805490910190556040517f07017fe9180629cfffba412f65a9affcf9a121de02294179f5c058f881dcc9f890600090a1565b61072481611553565b6301e1338081565b61072481611650565b610724601b8261179d565b6224ea0081565b6000600019610741601b84610eaf565b61079d601b84604085858080601f016020809104026020016040519081016040528093929190818152602001838380828437600092019190915250610f0c92505050565b604051806060016040528060268152602001611d426026913981565b61072460198261179d565b600a81565b604081565b60408051808201909152601d81527f537461726b576172655f416c6c5665726966696572735f323032325f32000000602082015290565b610aad3361148d565b610af0576040805162461bcd60e51b815260206004820152600f60248201526e4f4e4c595f474f5645524e414e434560881b604482015290519081900360640190fd5b610af8610749565b15610b3c576040805162461bcd60e51b815260206004820152600f60248201526e29aa20aa22afa4a9afa32927ad22a760891b604482015290519081900360640190fd5b610b468383611be2565b504281420111610b95576040805162461bcd60e51b8152602060048201526015602482015274494e56414c49445f52454d4f56414c5f44454c415960581b604482015290519081900360640190fd5b6001600160a01b038216600090815260018401602052604090205415610bf6576040805162461bcd60e51b81526020600482015260116024820152701053149150511657d0539393d55390d151607a1b604482015290519081900360640190fd5b6001600160a01b03821660008181526001850160205260408082204285019055805163775b943360e11b815290517fa98ac1f696177f16ca482653307aa4a02b68cf03b14409a546de5adf946484fc938693909263eeb728669260048083019392829003018186803b158015610c6b57600080fd5b505afa158015610c7f573d6000803e3d6000fd5b505050506040513d6000823e601f3d908101601f191682016040526020811015610ca857600080fd5b8101908080516040519392919084600160201b821115610cc757600080fd5b908301906020820185811115610cdc57600080fd5b8251600160201b811182820188101715610cf557600080fd5b82525081516020918201929091019080838360005b83811015610d22578181015183820152602001610d0a565b50505050905090810190601f168015610d4f5780820380516001836020036101000a031916815260200191505b5060405250505060405180836001600160a01b0316815260200180602001828103825283818151815260200191508051906020019080838360005b83811015610da2578181015183820152602001610d8a565b50505050905090810190601f168015610dcf5780820380516001836020036101000a031916815260200191505b50935050505060405180910390a1505050565b6000610dec611c3e565b60018101549091506001600160a01b03163314610e50576040805162461bcd60e51b815260206004820152601760248201527f4f4e4c595f43414e4449444154455f474f5645524e4f52000000000000000000604482015290519081900360640190fd5b6001810154610e67906001600160a01b0316611cbb565b6001810180546001600160a01b03191690556040805133815290517fcfb473e6c03f9a29ddaf990e736fa3de5188a0bd85d684f5b6e164ebfbfff5d29181900360200190a150565b8154600090815b81811015610f0057836001600160a01b0316858281548110610ed457fe5b6000918252602090912001546001600160a01b03161415610ef85791506108009050565b600101610eb6565b50600019949350505050565b610f153361148d565b610f58576040805162461bcd60e51b815260206004820152600f60248201526e4f4e4c595f474f5645524e414e434560881b604482015290519081900360640190fd5b610f60610749565b15610fa4576040805162461bcd60e51b815260206004820152600f60248201526e29aa20aa22afa4a9afa32927ad22a760891b604482015290519081900360640190fd5b83610fb76001600160a01b038516611d3b565b610fff576040805162461bcd60e51b8152602060048201526014602482015273105111149154d4d7d393d517d0d3d395149050d560621b604482015290519081900360640190fd5b6000846001600160a01b031663eeb728666040518163ffffffff1660e01b815260040160006040518083038186803b15801561103a57600080fd5b505afa15801561104e573d6000803e3d6000fd5b505050506040513d6000823e601f3d908101601f19168201604052602081101561107757600080fd5b8101908080516040519392919084600160201b82111561109657600080fd5b9083019060208201858111156110ab57600080fd5b8251600160201b8111828201881017156110c457600080fd5b82525081516020918201929091019080838360005b838110156110f15781810151838201526020016110d9565b50505050905090810190601f16801561111e5780820380516001836020036101000a031916815260200191505b506040525050506040516020018082805190602001908083835b602083106111575780518252601f199092019160209182019101611138565b6001836020036101000a0380198251168184511680821785525050505050509050019150506040516020818303038152906040528051906020012090506000836040516020018082805190602001908083835b602083106111c95780518252601f1990920191602091820191016111aa565b6001836020036101000a03801982511681845116808217855250505050505090500191505060405160208183030381529060405280519060200120905080821461125a576040805162461bcd60e51b815260206004820152601e60248201527f554e45585045435445445f434f4e54524143545f4944454e5449464945520000604482015290519081900360640190fd5b825485116112a7576040805162461bcd60e51b8152602060048201526015602482015274434841494e5f41545f4d41585f434150414349545960581b604482015290519081900360640190fd5b6000196112b48488610eaf565b146112fd576040805162461bcd60e51b8152602060048201526014602482015273454e5452595f414c52454144595f45584953545360601b604482015290519081900360640190fd5b8254158061136c5750856001600160a01b031663d6354e156040518163ffffffff1660e01b815260040160206040518083038186803b15801561133f57600080fd5b505afa158015611353573d6000803e3d6000fd5b505050506040513d602081101561136957600080fd5b50515b6113b1576040805162461bcd60e51b8152602060048201526011602482015270115395149657d393d517d1539050931151607a1b604482015290519081900360640190fd5b86546001810188556000888152602080822090920180546001600160a01b0319166001600160a01b038a169081179091556040805191825281840181815288519183019190915287517faa7f29c97c6763919ef56006f07fbf5c1ac734b0414665df43cecdbce9010c9b948b948a94939260608501928601918190849084905b83811015611449578181015183820152602001611431565b50505050905090810190601f1680156114765780820380516001836020036101000a031916815260200191505b50935050505060405180910390a150505050505050565b600080611498611c3e565b6001600160a01b039390931660009081526020939093525050604090205460ff1690565b6114c53361148d565b611508576040805162461bcd60e51b815260206004820152600f60248201526e4f4e4c595f474f5645524e414e434560881b604482015290519081900360640190fd5b6000611512611c3e565b6001810180546001600160a01b03191690556040519091507f7a8dc7dd7fffb43c4807438fa62729225156941e641fd877938f4edade3429f590600090a150565b61155c3361148d565b61159f576040805162461bcd60e51b815260206004820152600f60248201526e4f4e4c595f474f5645524e414e434560881b604482015290519081900360640190fd5b60006115a9611c3e565b90506115b48261148d565b156115f9576040805162461bcd60e51b815260206004820152601060248201526f20a62922a0a22cafa3a7ab22a92727a960811b604482015290519081900360640190fd5b6001810180546001600160a01b0384166001600160a01b0319909116811790915560408051918252517f6166272c8d3f5f579082f2827532732f97195007983bb5b83ac12c56700b01a69181900360200190a15050565b6116593361148d565b61169c576040805162461bcd60e51b815260206004820152600f60248201526e4f4e4c595f474f5645524e414e434560881b604482015290519081900360640190fd5b336001600160a01b03821614156116f1576040805162461bcd60e51b8152602060048201526014602482015273474f5645524e4f525f53454c465f52454d4f564560601b604482015290519081900360640190fd5b60006116fb611c3e565b90506117068261148d565b611746576040805162461bcd60e51b815260206004820152600c60248201526b2727aa2fa3a7ab22a92727a960a11b604482015290519081900360640190fd5b6001600160a01b03821660008181526020838152604091829020805460ff19169055815192835290517fd75f94825e770b8b512be8e74759e252ad00e102e38f50cce2f7c6f868a295999281900390910190a15050565b6117a63361148d565b6117e9576040805162461bcd60e51b815260206004820152600f60248201526e4f4e4c595f474f5645524e414e434560881b604482015290519081900360640190fd5b6117f1610749565b15611835576040805162461bcd60e51b815260206004820152600f60248201526e29aa20aa22afa4a9afa32927ad22a760891b604482015290519081900360640190fd5b8160006118428284611be2565b6001600160a01b0384166000908152600186016020526040902054909150806118aa576040805162461bcd60e51b815260206004820152601560248201527414915353d5905317d393d517d0539393d55390d151605a1b604482015290519081900360640190fd5b804210156118ff576040805162461bcd60e51b815260206004820152601760248201527f52454d4f56414c5f4e4f545f454e41424c45445f594554000000000000000000604482015290519081900360640190fd5b825460018111611956576040805162461bcd60e51b815260206004820152601d60248201527f4c4153545f454e5452595f4d41595f4e4f545f42455f52454d4f564544000000604482015290519081900360640190fd5b6001810383146119c85783600182038154811061196f57fe5b9060005260206000200160009054906101000a90046001600160a01b031684848154811061199957fe5b9060005260206000200160006101000a8154816001600160a01b0302191690836001600160a01b031602179055505b838054806119d257fe5b60008281526020808220830160001990810180546001600160a01b03191690559092019092556001600160a01b038716808352600189019091526040808320839055805163775b943360e11b815290517f35b176cf4f09df896aa55e10eec90bb4c4689ea1d076135a8de3138d829d01429389939263eeb728669260048083019392829003018186803b158015611a6857600080fd5b505afa158015611a7c573d6000803e3d6000fd5b505050506040513d6000823e601f3d908101601f191682016040526020811015611aa557600080fd5b8101908080516040519392919084600160201b821115611ac457600080fd5b908301906020820185811115611ad957600080fd5b8251600160201b811182820188101715611af257600080fd5b82525081516020918201929091019080838360005b83811015611b1f578181015183820152602001611b07565b50505050905090810190601f168015611b4c5780820380516001836020036101000a031916815260200191505b5060405250505060405180836001600160a01b0316815260200180602001828103825283818151815260200191508051906020019080838360005b83811015611b9f578181015183820152602001611b87565b50505050905090810190601f168015611bcc5780820380516001836020036101000a031916815260200191505b50935050505060405180910390a1505050505050565b6000611bee8383610eaf565b9050600019811415610800576040805162461bcd60e51b8152602060048201526014602482015273115395149657d113d154d7d393d517d1561254d560621b604482015290519081900360640190fd5b600080604051806060016040528060268152602001611d42602691396040518082805190602001908083835b60208310611c895780518252601f199092019160209182019101611c6a565b51815160209384036101000a600019018019909216911617905292019485525060405193849003019092209392505050565b611cc48161148d565b15611d09576040805162461bcd60e51b815260206004820152601060248201526f20a62922a0a22cafa3a7ab22a92727a960811b604482015290519081900360640190fd5b6000611d13611c3e565b6001600160a01b0390921660009081526020929092525060409020805460ff19166001179055565b3b15159056fe537461726b45782e4d61696e2e323031392e476f7665726e6f7273496e666f726d6174696f6ea26469706673582212209b3dc9a0a5f096278e451a6b72957ba1c4dd08214b8ba6bfcde209e0347687ce64736f6c634300060c0033",
    "linkReferences": {}
  },
  "methodIdentifiers": {
    "DEPOSIT_CANCEL_DELAY()": "77e84e0d",
    "FREEZE_GRACE_PERIOD()": "00717542",
    "MAIN_GOVERNANCE_INFO_TAG()": "c23b60ef",
    "MAX_FORCED_ACTIONS_REQS_PER_BLOCK()": "e30a5cff",
    "MAX_VERIFIER_COUNT()": "e6de6282",
    "UNFREEZE_DELAY()": "993f3639",
    "VERIFIER_REMOVAL_DELAY()": "b7663112",
    "announceAvailabilityVerifierRemovalIntent(address)": "1d078bbb",
    "announceVerifierRemovalIntent(address)": "418573b7",
    "getRegisteredAvailabilityVerifiers()": "1ac347f2",
    "getRegisteredVerifiers()": "4eab9ed3",
    "identify()": "eeb72866",
    "initialize(bytes)": "439fab91",
    "initializerSize()": "3cc660ad",
    "isAvailabilityVerifier(address)": "bd1279ae",
    "isFrozen()": "33eeb147",
    "isVerifier(address)": "33105218",
    "mainAcceptGovernance()": "28700a15",
    "mainCancelNomination()": "72eb3688",
    "mainIsGovernor(address)": "45f5cd97",
    "mainNominateNewGovernor(address)": "8c4bce1c",
    "mainRemoveGovernor(address)": "a1cc921e",
    "registerAvailabilityVerifier(address,string)": "bdb75785",
    "registerVerifier(address,string)": "3776fe2a",
    "removeAvailabilityVerifier(address)": "b1e640bf",
    "removeVerifier(address)": "ca2dfd0a",
    "unFreeze()": "7cf12b90",
    "validatedSelectors()": "0ebdac03"
  },
  "id": 110
}