{
  "abi": [
    {
      "inputs": [
        {
          "internalType": "address[63]",
          "name": "tables",
          "type": "address[63]"
        }
      ],
      "stateMutability": "nonpayable",
      "type": "constructor"
    },
    {
      "inputs": [
        {
          "internalType": "bytes32",
          "name": "hash",
          "type": "bytes32"
        }
      ],
      "name": "isValid",
      "outputs": [
        {
          "internalType": "bool",
          "name": "val",
          "type": "bool"
        }
      ],
      "stateMutability": "view",
      "type": "function"
    },
    {
      "inputs": [
        {
          "internalType": "uint256[]",
          "name": "escapeProof",
          "type": "uint256[]"
        }
      ],
      "name": "verifyEscape",
      "outputs": [],
      "stateMutability": "nonpayable",
      "type": "function"
    }
  ],
  "bytecode": {
    "object": "0x608060405234801561001057600080fd5b506040516105d93803806105d983398181016040526107e081101561003457600080fd5b50610042600082603f610049565b50506100c0565b82603f8101928215610091579160200282015b8281111561009157825182546001600160a01b0319166001600160a01b0390911617825560209092019160019091019061005c565b5061009d9291506100a1565b5090565b5b8082111561009d5780546001600160a01b03191681556001016100a2565b61050a806100cf6000396000f3fe608060405234801561001057600080fd5b50600436106100365760003560e01c80632dd530061461003b5780636a938567146100ad575b600080fd5b6100ab6004803603602081101561005157600080fd5b81019060208101813564010000000081111561006c57600080fd5b82018360208201111561007e57600080fd5b803590602001918460208302840111640100000000831117156100a057600080fd5b5090925090506100de565b005b6100ca600480360360208110156100c357600080fd5b50356104d0565b604080519115158252519081900360200190f35b806044811015610128576040805162461bcd60e51b815260206004820152601060248201526f283937b7b3103a37b79039b437b93a1760811b604482015290519081900360640190fd5b60c8811061016f576040805162461bcd60e51b815260206004820152600f60248201526e283937b7b3103a37b7903637b7339760891b604482015290519081900360640190fd5b60018116156101c5576040805162461bcd60e51b815260206004820152601a60248201527f50726f6f66206c656e677468206d757374206265206576656e2e000000000000604482015290519081900360640190fd5b600060026001198301049050600119810160006008868660001987018181106101ea57fe5b90506020020135901c90508160020a8110610245576040805162461bcd60e51b81526020600482015260166024820152753632b0b324b73232bc103737ba1034b7103a3932b29760511b604482015290519081900360640190fd5b6040805160208781028281018201845288835292860292606092918a918a9182919085019084908082843760009201919091525050602090920192506102a8915050565b62461bcd60e51b60005260206004528160245280604452816044016000fd5b805160041c6001600160fc1b03601f8301511667080000000000001160c01b80821181841117156102fe576102fe60187f42616420737461726b4b6579206f7220617373657449642e0000000000000000610289565b8560011b604051603f8702810160005b603f81101561033b578889820284018a838b0184545afa610333573d6000803e3d6000fd5b60010161030e565b506000806000600167080000000000001160c01b015b8b84101561048c5785840180516020820151918e01945060019350905b868510156103df57845160208601518585038586838309850886848309915086828708878182098889898b03860183098a8c8c87880909089350888a8209905088818309995088898a888409868c030185098a8c88098b030896505087818409965050505050508d8501945061036e565b50604085019450848c015160041c6001600160fc1b03601f87018e0151168a81118b8311171561042a5761042a6013722b30b63ab29037baba1037b3103930b733b29760691b610289565b60018a1615610437578091505b508361045657610456600b6a30ad1034b9903d32b9379760a91b610289565b8284820982031561047f5761047f60106f2130b21026b2b935b632903830ba341760811b610289565b50508660011c9650610351565b50505060009687525050506020929092525050605f8201516001600160fc1b031660405291015160041c60605260809290925260a05260c090206001905550505050565b549056fea2646970667358221220dfd741ec561fcbed6b94490e6dcf2dc1437f7502909c4e794f92b60f702ab02064736f6c634300060c0033",
    "linkReferences": {}
  },
  "methodIdentifiers": {
    "isValid(bytes32)": "6a938567",
    "verifyEscape(uint256[])": "2dd53006"
  },
  "id": 88
}