{
  "abi": [
    {
      "inputs": [
        {
          "internalType": "address",
          "name": "counterAddress",
          "type": "address"
        }
      ],
      "stateMutability": "nonpayable",
      "type": "constructor"
    },
    {
      "inputs": [],
      "name": "opcodeAddress",
      "outputs": [
        {
          "internalType": "address",
          "name": "selfAddress",
          "type": "address"
        }
      ],
      "stateMutability": "view",
      "type": "function"
    },
    {
      "inputs": [
        {
          "internalType": "uint256",
          "name": "blockNumber",
          "type": "uint256"
        }
      ],
      "name": "opcodeBlockHash",
      "outputs": [
        {
          "internalType": "bytes32",
          "name": "_blockhash",
          "type": "bytes32"
        }
      ],
      "stateMutability": "view",
      "type": "function"
    },
    {
      "inputs": [],
      "name": "opcodeCall",
      "outputs": [],
      "stateMutability": "nonpayable",
      "type": "function"
    },
    {
      "inputs": [],
      "name": "opcodeStaticCall",
      "outputs": [
        {
          "internalType": "uint256",
          "name": "",
          "type": "uint256"
        }
      ],
      "stateMutability": "view",
      "type": "function"
    }
  ],
  "bytecode": {
    "object": "0x608060405234801561001057600080fd5b5060405161026838038061026883398101604081905261002f91610054565b600080546001600160a01b0319166001600160a01b0392909216919091179055610084565b60006020828403121561006657600080fd5b81516001600160a01b038116811461007d57600080fd5b9392505050565b6101d5806100936000396000f3fe608060405234801561001057600080fd5b506004361061004c5760003560e01c80632328ea8014610051578063240070ab1461005b57806379889d791461006e578063cd79346c1461008e575b600080fd5b610059610096565b005b6040513081526020015b60405180910390f35b61008061007c36600461016d565b4090565b604051908152602001610065565b6100806100f0565b600080546040805162dc4c0f60e61b815290516001600160a01b039092169263371303c09260048084019382900301818387803b1580156100d657600080fd5b505af11580156100ea573d6000803e3d6000fd5b50505050565b60008060009054906101000a90046001600160a01b03166001600160a01b03166306661abd6040518163ffffffff1660e01b8152600401602060405180830381865afa158015610144573d6000803e3d6000fd5b505050506040513d601f19601f820116820180604052508101906101689190610186565b905090565b60006020828403121561017f57600080fd5b5035919050565b60006020828403121561019857600080fd5b505191905056fea26469706673582212209f24590bbb49477407d25b6d821fbfe7638c933b5d5fa7bbb4e27a93ff6b73a564736f6c63430008110033",
    "linkReferences": {}
  },
  "methodIdentifiers": {
    "opcodeAddress()": "240070ab",
    "opcodeBlockHash(uint256)": "79889d79",
    "opcodeCall()": "2328ea80",
    "opcodeStaticCall()": "cd79346c"
  },
  "id": 0
}