{
  "abi": [
    {
      "inputs": [],
      "name": "hasRegisteredFact",
      "outputs": [
        {
          "internalType": "bool",
          "name": "",
          "type": "bool"
        }
      ],
      "stateMutability": "view",
      "type": "function"
    },
    {
      "inputs": [
        {
          "internalType": "bytes32",
          "name": "fact",
          "type": "bytes32"
        }
      ],
      "name": "isValid",
      "outputs": [
        {
          "internalType": "bool",
          "name": "",
          "type": "bool"
        }
      ],
      "stateMutability": "view",
      "type": "function"
    }
  ],
  "bytecode": {
    "object": "0x608060405234801561001057600080fd5b5060ce8061001f6000396000f3fe6080604052348015600f57600080fd5b506004361060325760003560e01c80636a938567146037578063d6354e15146065575b600080fd5b605160048036036020811015604b57600080fd5b5035606b565b604080519115158252519081900360200190f35b6051607a565b60006074826083565b92915050565b60015460ff1690565b60009081526020819052604090205460ff169056fea26469706673582212207687001db1da4ad132dbfd8ef134a52e6d2590caddaf4614ed5c5b9cee403acb64736f6c634300060c0033",
    "linkReferences": {}
  },
  "methodIdentifiers": {
    "hasRegisteredFact()": "d6354e15",
    "isValid(bytes32)": "6a938567"
  },
  "id": 8
}