{
  "abi": [
    {
      "anonymous": false,
      "inputs": [
        {
          "indexed": false,
          "internalType": "address",
          "name": "acceptedGovernor",
          "type": "address"
        }
      ],
      "name": "LogNewGovernorAccepted",
      "type": "event"
    },
    {
      "anonymous": false,
      "inputs": [
        {
          "indexed": false,
          "internalType": "address",
          "name": "nominatedGovernor",
          "type": "address"
        }
      ],
      "name": "LogNominatedGovernor",
      "type": "event"
    },
    {
      "anonymous": false,
      "inputs": [],
      "name": "LogNominationCancelled",
      "type": "event"
    },
    {
      "anonymous": false,
      "inputs": [
        {
          "indexed": false,
          "internalType": "address",
          "name": "removedGovernor",
          "type": "address"
        }
      ],
      "name": "LogRemovedGovernor",
      "type": "event"
    },
    {
      "inputs": [],
      "name": "PROXY_GOVERNANCE_TAG",
      "outputs": [
        {
          "internalType": "string",
          "name": "",
          "type": "string"
        }
      ],
      "stateMutability": "view",
      "type": "function"
    },
    {
      "inputs": [],
      "name": "proxyAcceptGovernance",
      "outputs": [],
      "stateMutability": "nonpayable",
      "type": "function"
    },
    {
      "inputs": [],
      "name": "proxyCancelNomination",
      "outputs": [],
      "stateMutability": "nonpayable",
      "type": "function"
    },
    {
      "inputs": [
        {
          "internalType": "address",
          "name": "testGovernor",
          "type": "address"
        }
      ],
      "name": "proxyIsGovernor",
      "outputs": [
        {
          "internalType": "bool",
          "name": "",
          "type": "bool"
        }
      ],
      "stateMutability": "view",
      "type": "function"
    },
    {
      "inputs": [
        {
          "internalType": "address",
          "name": "newGovernor",
          "type": "address"
        }
      ],
      "name": "proxyNominateNewGovernor",
      "outputs": [],
      "stateMutability": "nonpayable",
      "type": "function"
    },
    {
      "inputs": [
        {
          "internalType": "address",
          "name": "governorForRemoval",
          "type": "address"
        }
      ],
      "name": "proxyRemoveGovernor",
      "outputs": [],
      "stateMutability": "nonpayable",
      "type": "function"
    }
  ],
  "bytecode": {
    "object": "0x608060405234801561001057600080fd5b50610707806100206000396000f3fe608060405234801561001057600080fd5b50600436106100625760003560e01c806312f16e6d1461006757806356f36dbf1461008f5780636684b1d61461010c5780638757653f14610114578063b449ea5d1461013a578063f9bcdde414610174575b600080fd5b61008d6004803603602081101561007d57600080fd5b50356001600160a01b031661017c565b005b610097610188565b6040805160208082528351818301528351919283929083019185019080838360005b838110156100d15781810151838201526020016100b9565b50505050905090810190601f1680156100fe5780820380516001836020036101000a031916815260200191505b509250505060405180910390f35b61008d6101a4565b61008d6004803603602081101561012a57600080fd5b50356001600160a01b03166101ae565b6101606004803603602081101561015057600080fd5b50356001600160a01b03166101b7565b604080519115158252519081900360200190f35b61008d6101c8565b610185816101d0565b50565b6040518060600160405280602781526020016106ab6027913981565b6101ac61031d565b565b610185816103ea565b60006101c2826104e7565b92915050565b6101ac610516565b6101d9336104e7565b61021c576040805162461bcd60e51b815260206004820152600f60248201526e4f4e4c595f474f5645524e414e434560881b604482015290519081900360640190fd5b336001600160a01b0382161415610271576040805162461bcd60e51b8152602060048201526014602482015273474f5645524e4f525f53454c465f52454d4f564560601b604482015290519081900360640190fd5b600061027b6105ad565b9050610286826104e7565b6102c6576040805162461bcd60e51b815260206004820152600c60248201526b2727aa2fa3a7ab22a92727a960a11b604482015290519081900360640190fd5b6001600160a01b03821660008181526020838152604091829020805460ff19169055815192835290517fd75f94825e770b8b512be8e74759e252ad00e102e38f50cce2f7c6f868a295999281900390910190a15050565b60006103276105ad565b60018101549091506001600160a01b0316331461038b576040805162461bcd60e51b815260206004820152601760248201527f4f4e4c595f43414e4449444154455f474f5645524e4f52000000000000000000604482015290519081900360640190fd5b60018101546103a2906001600160a01b031661062a565b6001810180546001600160a01b03191690556040805133815290517fcfb473e6c03f9a29ddaf990e736fa3de5188a0bd85d684f5b6e164ebfbfff5d29181900360200190a150565b6103f3336104e7565b610436576040805162461bcd60e51b815260206004820152600f60248201526e4f4e4c595f474f5645524e414e434560881b604482015290519081900360640190fd5b60006104406105ad565b905061044b826104e7565b15610490576040805162461bcd60e51b815260206004820152601060248201526f20a62922a0a22cafa3a7ab22a92727a960811b604482015290519081900360640190fd5b6001810180546001600160a01b0384166001600160a01b0319909116811790915560408051918252517f6166272c8d3f5f579082f2827532732f97195007983bb5b83ac12c56700b01a69181900360200190a15050565b6000806104f26105ad565b6001600160a01b039390931660009081526020939093525050604090205460ff1690565b61051f336104e7565b610562576040805162461bcd60e51b815260206004820152600f60248201526e4f4e4c595f474f5645524e414e434560881b604482015290519081900360640190fd5b600061056c6105ad565b6001810180546001600160a01b03191690556040519091507f7a8dc7dd7fffb43c4807438fa62729225156941e641fd877938f4edade3429f590600090a150565b6000806040518060600160405280602781526020016106ab602791396040518082805190602001908083835b602083106105f85780518252601f1990920191602091820191016105d9565b51815160209384036101000a600019018019909216911617905292019485525060405193849003019092209392505050565b610633816104e7565b15610678576040805162461bcd60e51b815260206004820152601060248201526f20a62922a0a22cafa3a7ab22a92727a960811b604482015290519081900360640190fd5b60006106826105ad565b6001600160a01b0390921660009081526020929092525060409020805460ff1916600117905556fe537461726b45782e50726f78792e323031392e476f7665726e6f7273496e666f726d6174696f6ea26469706673582212201aa32560befcf96c89b69d7865cfee6c8126662fef9a48a45fa5a2abf9ae9be064736f6c634300060c0033",
    "linkReferences": {}
  },
  "methodIdentifiers": {
    "PROXY_GOVERNANCE_TAG()": "56f36dbf",
    "proxyAcceptGovernance()": "6684b1d6",
    "proxyCancelNomination()": "f9bcdde4",
    "proxyIsGovernor(address)": "b449ea5d",
    "proxyNominateNewGovernor(address)": "8757653f",
    "proxyRemoveGovernor(address)": "12f16e6d"
  },
  "id": 112
}