{
  "abi": [
    {
      "inputs": [],
      "name": "DEPOSIT_CANCEL_DELAY",
      "outputs": [
        {
          "internalType": "uint256",
          "name": "",
          "type": "uint256"
        }
      ],
      "stateMutability": "view",
      "type": "function"
    },
    {
      "inputs": [],
      "name": "FREEZE_GRACE_PERIOD",
      "outputs": [
        {
          "internalType": "uint256",
          "name": "",
          "type": "uint256"
        }
      ],
      "stateMutability": "view",
      "type": "function"
    },
    {
      "inputs": [],
      "name": "MAX_FORCED_ACTIONS_REQS_PER_BLOCK",
      "outputs": [
        {
          "internalType": "uint256",
          "name": "",
          "type": "uint256"
        }
      ],
      "stateMutability": "view",
      "type": "function"
    },
    {
      "inputs": [],
      "name": "MAX_VERIFIER_COUNT",
      "outputs": [
        {
          "internalType": "uint256",
          "name": "",
          "type": "uint256"
        }
      ],
      "stateMutability": "view",
      "type": "function"
    },
    {
      "inputs": [],
      "name": "UNFREEZE_DELAY",
      "outputs": [
        {
          "internalType": "uint256",
          "name": "",
          "type": "uint256"
        }
      ],
      "stateMutability": "view",
      "type": "function"
    },
    {
      "inputs": [],
      "name": "VERIFIER_REMOVAL_DELAY",
      "outputs": [
        {
          "internalType": "uint256",
          "name": "",
          "type": "uint256"
        }
      ],
      "stateMutability": "view",
      "type": "function"
    },
    {
      "inputs": [],
      "name": "configurationDelay",
      "outputs": [
        {
          "internalType": "uint256",
          "name": "",
          "type": "uint256"
        }
      ],
      "stateMutability": "view",
      "type": "function"
    },
    {
      "inputs": [
        {
          "internalType": "uint256",
          "name": "",
          "type": "uint256"
        }
      ],
      "name": "configurationHash",
      "outputs": [
        {
          "internalType": "bytes32",
          "name": "",
          "type": "bytes32"
        }
      ],
      "stateMutability": "view",
      "type": "function"
    },
    {
      "inputs": [],
      "name": "getActionCount",
      "outputs": [
        {
          "internalType": "uint256",
          "name": "",
          "type": "uint256"
        }
      ],
      "stateMutability": "view",
      "type": "function"
    },
    {
      "inputs": [
        {
          "internalType": "uint256",
          "name": "actionIndex",
          "type": "uint256"
        }
      ],
      "name": "getActionHashByIndex",
      "outputs": [
        {
          "internalType": "bytes32",
          "name": "",
          "type": "bytes32"
        }
      ],
      "stateMutability": "view",
      "type": "function"
    },
    {
      "inputs": [
        {
          "internalType": "uint256",
          "name": "starkKey",
          "type": "uint256"
        },
        {
          "internalType": "uint256",
          "name": "vaultId",
          "type": "uint256"
        },
        {
          "internalType": "uint256",
          "name": "quantizedAmount",
          "type": "uint256"
        }
      ],
      "name": "getForcedWithdrawalRequest",
      "outputs": [
        {
          "internalType": "uint256",
          "name": "",
          "type": "uint256"
        }
      ],
      "stateMutability": "view",
      "type": "function"
    },
    {
      "inputs": [],
      "name": "globalConfigurationHash",
      "outputs": [
        {
          "internalType": "bytes32",
          "name": "",
          "type": "bytes32"
        }
      ],
      "stateMutability": "view",
      "type": "function"
    }
  ],
  "bytecode": {
    "object": "0x608060405234801561001057600080fd5b506103d5806100206000396000f3fe608060405234801561001057600080fd5b50600436106100b35760003560e01c8063adac3e1511610071578063adac3e1514610130578063b766311214610138578063c1a8513014610140578063e30a5cff14610148578063e6de628214610150578063f2011f6614610158576100b3565b8062717542146100b8578063260e96dd146100d25780635e586cd1146100fb5780635eecd2181461011857806377e84e0d14610120578063993f363914610128575b600080fd5b6100c0610175565b60408051918252519081900360200190f35b6100c0600480360360608110156100e857600080fd5b508035906020810135906040013561017c565b6100c06004803603602081101561011157600080fd5b50356101a5565b6100c0610215565b6100c061021b565b6100c0610222565b6100c061022a565b6100c0610238565b6100c061023f565b6100c061024d565b6100c0610252565b6100c06004803603602081101561016e57600080fd5b5035610257565b62093a8081565b60006022600061018d868686610271565b81526020019081526020016000205490509392505050565b60245460009082106101f6576040805162461bcd60e51b815260206004820152601560248201527408286a8929e9cbe929c888ab0bea89e9ebe90928e9605b1b604482015290519081900360640190fd5b6024828154811061020357fe5b90600052602060002001549050919050565b60245490565b6202a30081565b6301e1338081565b680100000000000000015481565b6224ea0081565b680100000000000000045481565b600a81565b604081565b680100000000000000026020526000908152604090205481565b60006102d5604051806040016040528060118152602001701193d490d15117d5d2551211149055d053607a1b8152508585856040516020018084815260200183815260200182815260200193505050506040516020818303038152906040526102dd565b949350505050565b600082826040516020018083805190602001908083835b602083106103135780518252601f1990920191602091820191016102f4565b51815160209384036101000a600019018019909216911617905285519190930192850191508083835b6020831061035b5780518252601f19909201916020918201910161033c565b6001836020036101000a038019825116818451168082178552505050505050905001925050506040516020818303038152906040528051906020012090509291505056fea264697066735822122068fdf98afa6f56ef8981c949e4a8f4b054d6a57a99eb9f08665a64366b1180c364736f6c634300060c0033",
    "linkReferences": {}
  },
  "methodIdentifiers": {
    "DEPOSIT_CANCEL_DELAY()": "77e84e0d",
    "FREEZE_GRACE_PERIOD()": "00717542",
    "MAX_FORCED_ACTIONS_REQS_PER_BLOCK()": "e30a5cff",
    "MAX_VERIFIER_COUNT()": "e6de6282",
    "UNFREEZE_DELAY()": "993f3639",
    "VERIFIER_REMOVAL_DELAY()": "b7663112",
    "configurationDelay()": "c1a85130",
    "configurationHash(uint256)": "f2011f66",
    "getActionCount()": "5eecd218",
    "getActionHashByIndex(uint256)": "5e586cd1",
    "getForcedWithdrawalRequest(uint256,uint256,uint256)": "260e96dd",
    "globalConfigurationHash()": "adac3e15"
  },
  "id": 77
}