{
  "abi": [
    {
      "anonymous": false,
      "inputs": [
        {
          "indexed": false,
          "internalType": "bytes",
          "name": "data",
          "type": "bytes"
        }
      ],
      "name": "LogExternalInitialize",
      "type": "event"
    },
    {
      "inputs": [],
      "name": "configurationDelay",
      "outputs": [
        {
          "internalType": "uint256",
          "name": "",
          "type": "uint256"
        }
      ],
      "stateMutability": "view",
      "type": "function"
    },
    {
      "inputs": [
        {
          "internalType": "uint256",
          "name": "",
          "type": "uint256"
        }
      ],
      "name": "configurationHash",
      "outputs": [
        {
          "internalType": "bytes32",
          "name": "",
          "type": "bytes32"
        }
      ],
      "stateMutability": "view",
      "type": "function"
    },
    {
      "inputs": [],
      "name": "globalConfigurationHash",
      "outputs": [
        {
          "internalType": "bytes32",
          "name": "",
          "type": "bytes32"
        }
      ],
      "stateMutability": "view",
      "type": "function"
    },
    {
      "inputs": [
        {
          "internalType": "bytes",
          "name": "data",
          "type": "bytes"
        }
      ],
      "name": "initialize",
      "outputs": [],
      "stateMutability": "nonpayable",
      "type": "function"
    }
  ],
  "bytecode": {
    "object": "0x608060405234801561001057600080fd5b50610298806100206000396000f3fe608060405234801561001057600080fd5b506004361061004c5760003560e01c8063439fab9114610051578063adac3e15146100c3578063c1a85130146100dd578063f2011f66146100e5575b600080fd5b6100c16004803603602081101561006757600080fd5b81019060208101813564010000000081111561008257600080fd5b82018360208201111561009457600080fd5b803590602001918460018302840111640100000000831117156100b657600080fd5b509092509050610102565b005b6100cb61022c565b60408051918252519081900360200190f35b6100cb61023a565b6100cb600480360360208110156100fb57600080fd5b5035610248565b60208114610157576040805162461bcd60e51b815260206004820152601b60248201527f494e434f52524543545f494e49545f444154415f53495a455f33320000000000604482015290519081900360640190fd5b60008282602081101561016957600080fd5b503590506224ea008111156101bb576040805162461bcd60e51b815260206004820152601360248201527244454c41595f54494d455f544f4f5f4c4f4e4760681b604482015290519081900360640190fd5b6801000000000000000481905560408051602080825281018490527fcd1400d214c673d845a60be61e4392df27be94360484e7da79f75c0222550615918591859181908101848480828437600083820152604051601f909101601f19169092018290039550909350505050a1505050565b680100000000000000015481565b680100000000000000045481565b68010000000000000002602052600090815260409020548156fea2646970667358221220291837a599f60179cc54fe7387bfb605c64097d950718cff81ed02aa109480dc64736f6c634300060c0033",
    "linkReferences": {}
  },
  "methodIdentifiers": {
    "configurationDelay()": "c1a85130",
    "configurationHash(uint256)": "f2011f66",
    "globalConfigurationHash()": "adac3e15",
    "initialize(bytes)": "439fab91"
  },
  "id": 117
}