{
  "abi": [
    {
      "inputs": [],
      "stateMutability": "nonpayable",
      "type": "constructor"
    },
    {
      "inputs": [],
      "name": "count",
      "outputs": [
        {
          "internalType": "uint256",
          "name": "",
          "type": "uint256"
        }
      ],
      "stateMutability": "view",
      "type": "function"
    },
    {
      "inputs": [],
      "name": "dec",
      "outputs": [],
      "stateMutability": "nonpayable",
      "type": "function"
    },
    {
      "inputs": [],
      "name": "inc",
      "outputs": [],
      "stateMutability": "nonpayable",
      "type": "function"
    },
    {
      "inputs": [],
      "name": "reset",
      "outputs": [],
      "stateMutability": "nonpayable",
      "type": "function"
    }
  ],
  "bytecode": {
    "object": "0x608060405234801561001057600080fd5b506000805561018f806100246000396000f3fe608060405234801561001057600080fd5b506004361061004c5760003560e01c806306661abd14610051578063371303c01461006c578063b3bcfa8214610076578063d826f88f1461007e575b600080fd5b61005a60005481565b60405190815260200160405180910390f35b610074610087565b005b6100746100a0565b61007460008055565b6001600080828254610099919061012d565b9091555050565b60008054116101055760405162461bcd60e51b815260206004820152602760248201527f636f756e742073686f756c64206265207374726963746c7920677265617465726044820152660207468616e20360cc1b606482015260840160405180910390fd5b60016000808282546100999190610146565b634e487b7160e01b600052601160045260246000fd5b8082018082111561014057610140610117565b92915050565b818103818111156101405761014061011756fea264697066735822122065d0c313288b0a071e94d8efc6bea62a090eae085ed3488791c9f265cd97332a64736f6c63430008110033",
    "linkReferences": {}
  },
  "methodIdentifiers": {
    "count()": "06661abd",
    "dec()": "b3bcfa82",
    "inc()": "371303c0",
    "reset()": "d826f88f"
  },
  "id": 0
}