{
  "abi": [
    {
      "anonymous": false,
      "inputs": [
        {
          "indexed": false,
          "internalType": "uint256",
          "name": "ownerKey",
          "type": "uint256"
        },
        {
          "indexed": false,
          "internalType": "uint256",
          "name": "assetId",
          "type": "uint256"
        },
        {
          "indexed": false,
          "internalType": "uint256",
          "name": "quantizedAmount",
          "type": "uint256"
        }
      ],
      "name": "LogAssetWithdrawalAllowed",
      "type": "event"
    },
    {
      "anonymous": false,
      "inputs": [
        {
          "indexed": false,
          "internalType": "address",
          "name": "depositorEthKey",
          "type": "address"
        },
        {
          "indexed": false,
          "internalType": "uint256",
          "name": "starkKey",
          "type": "uint256"
        },
        {
          "indexed": false,
          "internalType": "uint256",
          "name": "vaultId",
          "type": "uint256"
        },
        {
          "indexed": false,
          "internalType": "uint256",
          "name": "assetType",
          "type": "uint256"
        },
        {
          "indexed": false,
          "internalType": "uint256",
          "name": "nonQuantizedAmount",
          "type": "uint256"
        },
        {
          "indexed": false,
          "internalType": "uint256",
          "name": "quantizedAmount",
          "type": "uint256"
        }
      ],
      "name": "LogDeposit",
      "type": "event"
    },
    {
      "anonymous": false,
      "inputs": [
        {
          "indexed": false,
          "internalType": "uint256",
          "name": "starkKey",
          "type": "uint256"
        },
        {
          "indexed": false,
          "internalType": "uint256",
          "name": "vaultId",
          "type": "uint256"
        },
        {
          "indexed": false,
          "internalType": "uint256",
          "name": "assetId",
          "type": "uint256"
        }
      ],
      "name": "LogDepositCancel",
      "type": "event"
    },
    {
      "anonymous": false,
      "inputs": [
        {
          "indexed": false,
          "internalType": "uint256",
          "name": "starkKey",
          "type": "uint256"
        },
        {
          "indexed": false,
          "internalType": "uint256",
          "name": "vaultId",
          "type": "uint256"
        },
        {
          "indexed": false,
          "internalType": "uint256",
          "name": "assetType",
          "type": "uint256"
        },
        {
          "indexed": false,
          "internalType": "uint256",
          "name": "nonQuantizedAmount",
          "type": "uint256"
        },
        {
          "indexed": false,
          "internalType": "uint256",
          "name": "quantizedAmount",
          "type": "uint256"
        }
      ],
      "name": "LogDepositCancelReclaimed",
      "type": "event"
    },
    {
      "anonymous": false,
      "inputs": [
        {
          "indexed": false,
          "internalType": "uint256",
          "name": "starkKey",
          "type": "uint256"
        },
        {
          "indexed": false,
          "internalType": "uint256",
          "name": "vaultId",
          "type": "uint256"
        },
        {
          "indexed": false,
          "internalType": "uint256",
          "name": "assetType",
          "type": "uint256"
        },
        {
          "indexed": false,
          "internalType": "uint256",
          "name": "tokenId",
          "type": "uint256"
        },
        {
          "indexed": false,
          "internalType": "uint256",
          "name": "assetId",
          "type": "uint256"
        }
      ],
      "name": "LogDepositNftCancelReclaimed",
      "type": "event"
    },
    {
      "anonymous": false,
      "inputs": [
        {
          "indexed": false,
          "internalType": "address",
          "name": "depositorEthKey",
          "type": "address"
        },
        {
          "indexed": false,
          "internalType": "uint256",
          "name": "starkKey",
          "type": "uint256"
        },
        {
          "indexed": false,
          "internalType": "uint256",
          "name": "vaultId",
          "type": "uint256"
        },
        {
          "indexed": false,
          "internalType": "uint256",
          "name": "assetType",
          "type": "uint256"
        },
        {
          "indexed": false,
          "internalType": "uint256",
          "name": "tokenId",
          "type": "uint256"
        },
        {
          "indexed": false,
          "internalType": "uint256",
          "name": "assetId",
          "type": "uint256"
        },
        {
          "indexed": false,
          "internalType": "uint256",
          "name": "nonQuantizedAmount",
          "type": "uint256"
        },
        {
          "indexed": false,
          "internalType": "uint256",
          "name": "quantizedAmount",
          "type": "uint256"
        }
      ],
      "name": "LogDepositWithTokenId",
      "type": "event"
    },
    {
      "anonymous": false,
      "inputs": [
        {
          "indexed": false,
          "internalType": "uint256",
          "name": "starkKey",
          "type": "uint256"
        },
        {
          "indexed": false,
          "internalType": "uint256",
          "name": "vaultId",
          "type": "uint256"
        },
        {
          "indexed": false,
          "internalType": "uint256",
          "name": "assetType",
          "type": "uint256"
        },
        {
          "indexed": false,
          "internalType": "uint256",
          "name": "tokenId",
          "type": "uint256"
        },
        {
          "indexed": false,
          "internalType": "uint256",
          "name": "assetId",
          "type": "uint256"
        },
        {
          "indexed": false,
          "internalType": "uint256",
          "name": "nonQuantizedAmount",
          "type": "uint256"
        },
        {
          "indexed": false,
          "internalType": "uint256",
          "name": "quantizedAmount",
          "type": "uint256"
        }
      ],
      "name": "LogDepositWithTokenIdCancelReclaimed",
      "type": "event"
    },
    {
      "anonymous": false,
      "inputs": [],
      "name": "LogFrozen",
      "type": "event"
    },
    {
      "anonymous": false,
      "inputs": [
        {
          "indexed": false,
          "internalType": "uint256",
          "name": "ownerKey",
          "type": "uint256"
        },
        {
          "indexed": false,
          "internalType": "uint256",
          "name": "assetType",
          "type": "uint256"
        },
        {
          "indexed": false,
          "internalType": "uint256",
          "name": "nonQuantizedAmount",
          "type": "uint256"
        },
        {
          "indexed": false,
          "internalType": "uint256",
          "name": "quantizedAmount",
          "type": "uint256"
        },
        {
          "indexed": false,
          "internalType": "uint256",
          "name": "assetId",
          "type": "uint256"
        }
      ],
      "name": "LogMintWithdrawalPerformed",
      "type": "event"
    },
    {
      "anonymous": false,
      "inputs": [
        {
          "indexed": false,
          "internalType": "uint256",
          "name": "ownerKey",
          "type": "uint256"
        },
        {
          "indexed": false,
          "internalType": "uint256",
          "name": "assetId",
          "type": "uint256"
        },
        {
          "indexed": false,
          "internalType": "uint256",
          "name": "quantizedAmount",
          "type": "uint256"
        }
      ],
      "name": "LogMintableWithdrawalAllowed",
      "type": "event"
    },
    {
      "anonymous": false,
      "inputs": [
        {
          "indexed": false,
          "internalType": "address",
          "name": "acceptedGovernor",
          "type": "address"
        }
      ],
      "name": "LogNewGovernorAccepted",
      "type": "event"
    },
    {
      "anonymous": false,
      "inputs": [
        {
          "indexed": false,
          "internalType": "address",
          "name": "depositorEthKey",
          "type": "address"
        },
        {
          "indexed": false,
          "internalType": "uint256",
          "name": "starkKey",
          "type": "uint256"
        },
        {
          "indexed": false,
          "internalType": "uint256",
          "name": "vaultId",
          "type": "uint256"
        },
        {
          "indexed": false,
          "internalType": "uint256",
          "name": "assetType",
          "type": "uint256"
        },
        {
          "indexed": false,
          "internalType": "uint256",
          "name": "tokenId",
          "type": "uint256"
        },
        {
          "indexed": false,
          "internalType": "uint256",
          "name": "assetId",
          "type": "uint256"
        }
      ],
      "name": "LogNftDeposit",
      "type": "event"
    },
    {
      "anonymous": false,
      "inputs": [
        {
          "indexed": false,
          "internalType": "uint256",
          "name": "ownerKey",
          "type": "uint256"
        },
        {
          "indexed": false,
          "internalType": "uint256",
          "name": "assetId",
          "type": "uint256"
        }
      ],
      "name": "LogNftWithdrawalAllowed",
      "type": "event"
    },
    {
      "anonymous": false,
      "inputs": [
        {
          "indexed": false,
          "internalType": "uint256",
          "name": "ownerKey",
          "type": "uint256"
        },
        {
          "indexed": false,
          "internalType": "uint256",
          "name": "assetType",
          "type": "uint256"
        },
        {
          "indexed": false,
          "internalType": "uint256",
          "name": "tokenId",
          "type": "uint256"
        },
        {
          "indexed": false,
          "internalType": "uint256",
          "name": "assetId",
          "type": "uint256"
        },
        {
          "indexed": false,
          "internalType": "address",
          "name": "recipient",
          "type": "address"
        }
      ],
      "name": "LogNftWithdrawalPerformed",
      "type": "event"
    },
    {
      "anonymous": false,
      "inputs": [
        {
          "indexed": false,
          "internalType": "address",
          "name": "nominatedGovernor",
          "type": "address"
        }
      ],
      "name": "LogNominatedGovernor",
      "type": "event"
    },
    {
      "anonymous": false,
      "inputs": [],
      "name": "LogNominationCancelled",
      "type": "event"
    },
    {
      "anonymous": false,
      "inputs": [
        {
          "indexed": false,
          "internalType": "address",
          "name": "removedGovernor",
          "type": "address"
        }
      ],
      "name": "LogRemovedGovernor",
      "type": "event"
    },
    {
      "anonymous": false,
      "inputs": [
        {
          "indexed": false,
          "internalType": "uint256",
          "name": "assetType",
          "type": "uint256"
        }
      ],
      "name": "LogSystemAssetType",
      "type": "event"
    },
    {
      "anonymous": false,
      "inputs": [
        {
          "indexed": false,
          "internalType": "address",
          "name": "tokenAdmin",
          "type": "address"
        }
      ],
      "name": "LogTokenAdminAdded",
      "type": "event"
    },
    {
      "anonymous": false,
      "inputs": [
        {
          "indexed": false,
          "internalType": "address",
          "name": "tokenAdmin",
          "type": "address"
        }
      ],
      "name": "LogTokenAdminRemoved",
      "type": "event"
    },
    {
      "anonymous": false,
      "inputs": [
        {
          "indexed": false,
          "internalType": "uint256",
          "name": "assetType",
          "type": "uint256"
        },
        {
          "indexed": false,
          "internalType": "bytes",
          "name": "assetInfo",
          "type": "bytes"
        },
        {
          "indexed": false,
          "internalType": "uint256",
          "name": "quantum",
          "type": "uint256"
        }
      ],
      "name": "LogTokenRegistered",
      "type": "event"
    },
    {
      "anonymous": false,
      "inputs": [],
      "name": "LogUnFrozen",
      "type": "event"
    },
    {
      "anonymous": false,
      "inputs": [
        {
          "indexed": false,
          "internalType": "address",
          "name": "userAdmin",
          "type": "address"
        }
      ],
      "name": "LogUserAdminAdded",
      "type": "event"
    },
    {
      "anonymous": false,
      "inputs": [
        {
          "indexed": false,
          "internalType": "address",
          "name": "userAdmin",
          "type": "address"
        }
      ],
      "name": "LogUserAdminRemoved",
      "type": "event"
    },
    {
      "anonymous": false,
      "inputs": [
        {
          "indexed": false,
          "internalType": "address",
          "name": "ethKey",
          "type": "address"
        },
        {
          "indexed": false,
          "internalType": "uint256",
          "name": "starkKey",
          "type": "uint256"
        },
        {
          "indexed": false,
          "internalType": "address",
          "name": "sender",
          "type": "address"
        }
      ],
      "name": "LogUserRegistered",
      "type": "event"
    },
    {
      "anonymous": false,
      "inputs": [
        {
          "indexed": false,
          "internalType": "uint256",
          "name": "ownerKey",
          "type": "uint256"
        },
        {
          "indexed": false,
          "internalType": "uint256",
          "name": "assetType",
          "type": "uint256"
        },
        {
          "indexed": false,
          "internalType": "uint256",
          "name": "nonQuantizedAmount",
          "type": "uint256"
        },
        {
          "indexed": false,
          "internalType": "uint256",
          "name": "quantizedAmount",
          "type": "uint256"
        }
      ],
      "name": "LogWithdrawalAllowed",
      "type": "event"
    },
    {
      "anonymous": false,
      "inputs": [
        {
          "indexed": false,
          "internalType": "uint256",
          "name": "ownerKey",
          "type": "uint256"
        },
        {
          "indexed": false,
          "internalType": "uint256",
          "name": "assetType",
          "type": "uint256"
        },
        {
          "indexed": false,
          "internalType": "uint256",
          "name": "nonQuantizedAmount",
          "type": "uint256"
        },
        {
          "indexed": false,
          "internalType": "uint256",
          "name": "quantizedAmount",
          "type": "uint256"
        },
        {
          "indexed": false,
          "internalType": "address",
          "name": "recipient",
          "type": "address"
        }
      ],
      "name": "LogWithdrawalPerformed",
      "type": "event"
    },
    {
      "anonymous": false,
      "inputs": [
        {
          "indexed": false,
          "internalType": "uint256",
          "name": "ownerKey",
          "type": "uint256"
        },
        {
          "indexed": false,
          "internalType": "uint256",
          "name": "assetType",
          "type": "uint256"
        },
        {
          "indexed": false,
          "internalType": "uint256",
          "name": "tokenId",
          "type": "uint256"
        },
        {
          "indexed": false,
          "internalType": "uint256",
          "name": "assetId",
          "type": "uint256"
        },
        {
          "indexed": false,
          "internalType": "uint256",
          "name": "nonQuantizedAmount",
          "type": "uint256"
        },
        {
          "indexed": false,
          "internalType": "uint256",
          "name": "quantizedAmount",
          "type": "uint256"
        },
        {
          "indexed": false,
          "internalType": "address",
          "name": "recipient",
          "type": "address"
        }
      ],
      "name": "LogWithdrawalWithTokenIdPerformed",
      "type": "event"
    },
    {
      "inputs": [],
      "name": "DEPOSIT_CANCEL_DELAY",
      "outputs": [
        {
          "internalType": "uint256",
          "name": "",
          "type": "uint256"
        }
      ],
      "stateMutability": "view",
      "type": "function"
    },
    {
      "inputs": [],
      "name": "FREEZE_GRACE_PERIOD",
      "outputs": [
        {
          "internalType": "uint256",
          "name": "",
          "type": "uint256"
        }
      ],
      "stateMutability": "view",
      "type": "function"
    },
    {
      "inputs": [],
      "name": "MAIN_GOVERNANCE_INFO_TAG",
      "outputs": [
        {
          "internalType": "string",
          "name": "",
          "type": "string"
        }
      ],
      "stateMutability": "view",
      "type": "function"
    },
    {
      "inputs": [],
      "name": "MAX_FORCED_ACTIONS_REQS_PER_BLOCK",
      "outputs": [
        {
          "internalType": "uint256",
          "name": "",
          "type": "uint256"
        }
      ],
      "stateMutability": "view",
      "type": "function"
    },
    {
      "inputs": [],
      "name": "MAX_VERIFIER_COUNT",
      "outputs": [
        {
          "internalType": "uint256",
          "name": "",
          "type": "uint256"
        }
      ],
      "stateMutability": "view",
      "type": "function"
    },
    {
      "inputs": [],
      "name": "UNFREEZE_DELAY",
      "outputs": [
        {
          "internalType": "uint256",
          "name": "",
          "type": "uint256"
        }
      ],
      "stateMutability": "view",
      "type": "function"
    },
    {
      "inputs": [],
      "name": "VERIFIER_REMOVAL_DELAY",
      "outputs": [
        {
          "internalType": "uint256",
          "name": "",
          "type": "uint256"
        }
      ],
      "stateMutability": "view",
      "type": "function"
    },
    {
      "inputs": [
        {
          "internalType": "uint256",
          "name": "assetType",
          "type": "uint256"
        },
        {
          "internalType": "uint256",
          "name": "tokenId",
          "type": "uint256"
        }
      ],
      "name": "calculateAssetIdWithTokenId",
      "outputs": [
        {
          "internalType": "uint256",
          "name": "",
          "type": "uint256"
        }
      ],
      "stateMutability": "view",
      "type": "function"
    },
    {
      "inputs": [
        {
          "internalType": "uint256",
          "name": "assetType",
          "type": "uint256"
        },
        {
          "internalType": "bytes",
          "name": "mintingBlob",
          "type": "bytes"
        }
      ],
      "name": "calculateMintableAssetId",
      "outputs": [
        {
          "internalType": "uint256",
          "name": "assetId",
          "type": "uint256"
        }
      ],
      "stateMutability": "pure",
      "type": "function"
    },
    {
      "inputs": [],
      "name": "configurationDelay",
      "outputs": [
        {
          "internalType": "uint256",
          "name": "",
          "type": "uint256"
        }
      ],
      "stateMutability": "view",
      "type": "function"
    },
    {
      "inputs": [
        {
          "internalType": "uint256",
          "name": "",
          "type": "uint256"
        }
      ],
      "name": "configurationHash",
      "outputs": [
        {
          "internalType": "bytes32",
          "name": "",
          "type": "bytes32"
        }
      ],
      "stateMutability": "view",
      "type": "function"
    },
    {
      "inputs": [
        {
          "internalType": "uint256",
          "name": "starkKey",
          "type": "uint256"
        },
        {
          "internalType": "uint256",
          "name": "assetType",
          "type": "uint256"
        },
        {
          "internalType": "uint256",
          "name": "vaultId",
          "type": "uint256"
        }
      ],
      "name": "deposit",
      "outputs": [],
      "stateMutability": "payable",
      "type": "function"
    },
    {
      "inputs": [
        {
          "internalType": "uint256",
          "name": "starkKey",
          "type": "uint256"
        },
        {
          "internalType": "uint256",
          "name": "assetType",
          "type": "uint256"
        },
        {
          "internalType": "uint256",
          "name": "vaultId",
          "type": "uint256"
        },
        {
          "internalType": "uint256",
          "name": "quantizedAmount",
          "type": "uint256"
        }
      ],
      "name": "deposit",
      "outputs": [],
      "stateMutability": "nonpayable",
      "type": "function"
    },
    {
      "inputs": [
        {
          "internalType": "uint256",
          "name": "starkKey",
          "type": "uint256"
        },
        {
          "internalType": "uint256",
          "name": "assetId",
          "type": "uint256"
        },
        {
          "internalType": "uint256",
          "name": "vaultId",
          "type": "uint256"
        }
      ],
      "name": "depositCancel",
      "outputs": [],
      "stateMutability": "nonpayable",
      "type": "function"
    },
    {
      "inputs": [
        {
          "internalType": "uint256",
          "name": "starkKey",
          "type": "uint256"
        },
        {
          "internalType": "uint256",
          "name": "assetType",
          "type": "uint256"
        },
        {
          "internalType": "uint256",
          "name": "tokenId",
          "type": "uint256"
        },
        {
          "internalType": "uint256",
          "name": "vaultId",
          "type": "uint256"
        },
        {
          "internalType": "uint256",
          "name": "quantizedAmount",
          "type": "uint256"
        }
      ],
      "name": "depositERC1155",
      "outputs": [],
      "stateMutability": "nonpayable",
      "type": "function"
    },
    {
      "inputs": [
        {
          "internalType": "uint256",
          "name": "starkKey",
          "type": "uint256"
        },
        {
          "internalType": "uint256",
          "name": "assetType",
          "type": "uint256"
        },
        {
          "internalType": "uint256",
          "name": "vaultId",
          "type": "uint256"
        },
        {
          "internalType": "uint256",
          "name": "quantizedAmount",
          "type": "uint256"
        }
      ],
      "name": "depositERC20",
      "outputs": [],
      "stateMutability": "nonpayable",
      "type": "function"
    },
    {
      "inputs": [
        {
          "internalType": "uint256",
          "name": "starkKey",
          "type": "uint256"
        },
        {
          "internalType": "uint256",
          "name": "assetType",
          "type": "uint256"
        },
        {
          "internalType": "uint256",
          "name": "vaultId",
          "type": "uint256"
        }
      ],
      "name": "depositEth",
      "outputs": [],
      "stateMutability": "payable",
      "type": "function"
    },
    {
      "inputs": [
        {
          "internalType": "uint256",
          "name": "starkKey",
          "type": "uint256"
        },
        {
          "internalType": "uint256",
          "name": "assetType",
          "type": "uint256"
        },
        {
          "internalType": "uint256",
          "name": "vaultId",
          "type": "uint256"
        },
        {
          "internalType": "uint256",
          "name": "tokenId",
          "type": "uint256"
        }
      ],
      "name": "depositNft",
      "outputs": [],
      "stateMutability": "nonpayable",
      "type": "function"
    },
    {
      "inputs": [
        {
          "internalType": "uint256",
          "name": "starkKey",
          "type": "uint256"
        },
        {
          "internalType": "uint256",
          "name": "assetType",
          "type": "uint256"
        },
        {
          "internalType": "uint256",
          "name": "vaultId",
          "type": "uint256"
        },
        {
          "internalType": "uint256",
          "name": "tokenId",
          "type": "uint256"
        }
      ],
      "name": "depositNftReclaim",
      "outputs": [],
      "stateMutability": "nonpayable",
      "type": "function"
    },
    {
      "inputs": [
        {
          "internalType": "uint256",
          "name": "starkKey",
          "type": "uint256"
        },
        {
          "internalType": "uint256",
          "name": "assetType",
          "type": "uint256"
        },
        {
          "internalType": "uint256",
          "name": "vaultId",
          "type": "uint256"
        }
      ],
      "name": "depositReclaim",
      "outputs": [],
      "stateMutability": "nonpayable",
      "type": "function"
    },
    {
      "inputs": [
        {
          "internalType": "uint256",
          "name": "starkKey",
          "type": "uint256"
        },
        {
          "internalType": "uint256",
          "name": "assetType",
          "type": "uint256"
        },
        {
          "internalType": "uint256",
          "name": "tokenId",
          "type": "uint256"
        },
        {
          "internalType": "uint256",
          "name": "vaultId",
          "type": "uint256"
        },
        {
          "internalType": "uint256",
          "name": "quantizedAmount",
          "type": "uint256"
        }
      ],
      "name": "depositWithTokenId",
      "outputs": [],
      "stateMutability": "nonpayable",
      "type": "function"
    },
    {
      "inputs": [
        {
          "internalType": "uint256",
          "name": "starkKey",
          "type": "uint256"
        },
        {
          "internalType": "uint256",
          "name": "assetType",
          "type": "uint256"
        },
        {
          "internalType": "uint256",
          "name": "tokenId",
          "type": "uint256"
        },
        {
          "internalType": "uint256",
          "name": "vaultId",
          "type": "uint256"
        }
      ],
      "name": "depositWithTokenIdReclaim",
      "outputs": [],
      "stateMutability": "nonpayable",
      "type": "function"
    },
    {
      "inputs": [
        {
          "internalType": "uint256",
          "name": "assetType",
          "type": "uint256"
        }
      ],
      "name": "getAssetInfo",
      "outputs": [
        {
          "internalType": "bytes",
          "name": "assetInfo",
          "type": "bytes"
        }
      ],
      "stateMutability": "view",
      "type": "function"
    },
    {
      "inputs": [
        {
          "internalType": "uint256",
          "name": "starkKey",
          "type": "uint256"
        },
        {
          "internalType": "uint256",
          "name": "assetId",
          "type": "uint256"
        },
        {
          "internalType": "uint256",
          "name": "vaultId",
          "type": "uint256"
        }
      ],
      "name": "getCancellationRequest",
      "outputs": [
        {
          "internalType": "uint256",
          "name": "request",
          "type": "uint256"
        }
      ],
      "stateMutability": "view",
      "type": "function"
    },
    {
      "inputs": [
        {
          "internalType": "uint256",
          "name": "starkKey",
          "type": "uint256"
        },
        {
          "internalType": "uint256",
          "name": "assetId",
          "type": "uint256"
        },
        {
          "internalType": "uint256",
          "name": "vaultId",
          "type": "uint256"
        }
      ],
      "name": "getDepositBalance",
      "outputs": [
        {
          "internalType": "uint256",
          "name": "",
          "type": "uint256"
        }
      ],
      "stateMutability": "view",
      "type": "function"
    },
    {
      "inputs": [
        {
          "internalType": "uint256",
          "name": "ownerKey",
          "type": "uint256"
        }
      ],
      "name": "getEthKey",
      "outputs": [
        {
          "internalType": "address",
          "name": "",
          "type": "address"
        }
      ],
      "stateMutability": "view",
      "type": "function"
    },
    {
      "inputs": [
        {
          "internalType": "uint256",
          "name": "starkKey",
          "type": "uint256"
        },
        {
          "internalType": "uint256",
          "name": "assetId",
          "type": "uint256"
        },
        {
          "internalType": "uint256",
          "name": "vaultId",
          "type": "uint256"
        }
      ],
      "name": "getQuantizedDepositBalance",
      "outputs": [
        {
          "internalType": "uint256",
          "name": "",
          "type": "uint256"
        }
      ],
      "stateMutability": "view",
      "type": "function"
    },
    {
      "inputs": [
        {
          "internalType": "uint256",
          "name": "presumedAssetType",
          "type": "uint256"
        }
      ],
      "name": "getQuantum",
      "outputs": [
        {
          "internalType": "uint256",
          "name": "quantum",
          "type": "uint256"
        }
      ],
      "stateMutability": "view",
      "type": "function"
    },
    {
      "inputs": [],
      "name": "getSystemAssetType",
      "outputs": [
        {
          "internalType": "uint256",
          "name": "",
          "type": "uint256"
        }
      ],
      "stateMutability": "view",
      "type": "function"
    },
    {
      "inputs": [
        {
          "internalType": "uint256",
          "name": "ownerKey",
          "type": "uint256"
        },
        {
          "internalType": "uint256",
          "name": "assetId",
          "type": "uint256"
        }
      ],
      "name": "getWithdrawalBalance",
      "outputs": [
        {
          "internalType": "uint256",
          "name": "",
          "type": "uint256"
        }
      ],
      "stateMutability": "view",
      "type": "function"
    },
    {
      "inputs": [],
      "name": "globalConfigurationHash",
      "outputs": [
        {
          "internalType": "bytes32",
          "name": "",
          "type": "bytes32"
        }
      ],
      "stateMutability": "view",
      "type": "function"
    },
    {
      "inputs": [],
      "name": "identify",
      "outputs": [
        {
          "internalType": "string",
          "name": "",
          "type": "string"
        }
      ],
      "stateMutability": "pure",
      "type": "function"
    },
    {
      "inputs": [
        {
          "internalType": "bytes",
          "name": "",
          "type": "bytes"
        }
      ],
      "name": "initialize",
      "outputs": [],
      "stateMutability": "nonpayable",
      "type": "function"
    },
    {
      "inputs": [],
      "name": "initializerSize",
      "outputs": [
        {
          "internalType": "uint256",
          "name": "",
          "type": "uint256"
        }
      ],
      "stateMutability": "view",
      "type": "function"
    },
    {
      "inputs": [
        {
          "internalType": "uint256",
          "name": "assetType",
          "type": "uint256"
        }
      ],
      "name": "isAssetRegistered",
      "outputs": [
        {
          "internalType": "bool",
          "name": "",
          "type": "bool"
        }
      ],
      "stateMutability": "view",
      "type": "function"
    },
    {
      "inputs": [],
      "name": "isFrozen",
      "outputs": [
        {
          "internalType": "bool",
          "name": "",
          "type": "bool"
        }
      ],
      "stateMutability": "view",
      "type": "function"
    },
    {
      "inputs": [
        {
          "internalType": "address",
          "name": "testedAdmin",
          "type": "address"
        }
      ],
      "name": "isTokenAdmin",
      "outputs": [
        {
          "internalType": "bool",
          "name": "",
          "type": "bool"
        }
      ],
      "stateMutability": "view",
      "type": "function"
    },
    {
      "inputs": [
        {
          "internalType": "address",
          "name": "testedAdmin",
          "type": "address"
        }
      ],
      "name": "isUserAdmin",
      "outputs": [
        {
          "internalType": "bool",
          "name": "",
          "type": "bool"
        }
      ],
      "stateMutability": "view",
      "type": "function"
    },
    {
      "inputs": [],
      "name": "mainAcceptGovernance",
      "outputs": [],
      "stateMutability": "nonpayable",
      "type": "function"
    },
    {
      "inputs": [],
      "name": "mainCancelNomination",
      "outputs": [],
      "stateMutability": "nonpayable",
      "type": "function"
    },
    {
      "inputs": [
        {
          "internalType": "address",
          "name": "testGovernor",
          "type": "address"
        }
      ],
      "name": "mainIsGovernor",
      "outputs": [
        {
          "internalType": "bool",
          "name": "",
          "type": "bool"
        }
      ],
      "stateMutability": "view",
      "type": "function"
    },
    {
      "inputs": [
        {
          "internalType": "address",
          "name": "newGovernor",
          "type": "address"
        }
      ],
      "name": "mainNominateNewGovernor",
      "outputs": [],
      "stateMutability": "nonpayable",
      "type": "function"
    },
    {
      "inputs": [
        {
          "internalType": "address",
          "name": "governorForRemoval",
          "type": "address"
        }
      ],
      "name": "mainRemoveGovernor",
      "outputs": [],
      "stateMutability": "nonpayable",
      "type": "function"
    },
    {
      "inputs": [
        {
          "internalType": "address",
          "name": "operator",
          "type": "address"
        },
        {
          "internalType": "address",
          "name": "",
          "type": "address"
        },
        {
          "internalType": "uint256",
          "name": "",
          "type": "uint256"
        },
        {
          "internalType": "bytes",
          "name": "",
          "type": "bytes"
        }
      ],
      "name": "onERC721Received",
      "outputs": [
        {
          "internalType": "bytes4",
          "name": "",
          "type": "bytes4"
        }
      ],
      "stateMutability": "nonpayable",
      "type": "function"
    },
    {
      "inputs": [
        {
          "internalType": "address",
          "name": "ethKey",
          "type": "address"
        },
        {
          "internalType": "uint256",
          "name": "starkKey",
          "type": "uint256"
        },
        {
          "internalType": "bytes",
          "name": "signature",
          "type": "bytes"
        },
        {
          "internalType": "uint256",
          "name": "assetType",
          "type": "uint256"
        },
        {
          "internalType": "uint256",
          "name": "vaultId",
          "type": "uint256"
        },
        {
          "internalType": "uint256",
          "name": "quantizedAmount",
          "type": "uint256"
        }
      ],
      "name": "registerAndDepositERC20",
      "outputs": [],
      "stateMutability": "nonpayable",
      "type": "function"
    },
    {
      "inputs": [
        {
          "internalType": "address",
          "name": "ethKey",
          "type": "address"
        },
        {
          "internalType": "uint256",
          "name": "starkKey",
          "type": "uint256"
        },
        {
          "internalType": "bytes",
          "name": "signature",
          "type": "bytes"
        },
        {
          "internalType": "uint256",
          "name": "assetType",
          "type": "uint256"
        },
        {
          "internalType": "uint256",
          "name": "vaultId",
          "type": "uint256"
        }
      ],
      "name": "registerAndDepositEth",
      "outputs": [],
      "stateMutability": "payable",
      "type": "function"
    },
    {
      "inputs": [
        {
          "internalType": "uint256",
          "name": "assetType",
          "type": "uint256"
        },
        {
          "internalType": "bytes",
          "name": "assetInfo",
          "type": "bytes"
        }
      ],
      "name": "registerSystemAssetType",
      "outputs": [],
      "stateMutability": "nonpayable",
      "type": "function"
    },
    {
      "inputs": [
        {
          "internalType": "uint256",
          "name": "",
          "type": "uint256"
        },
        {
          "internalType": "bytes",
          "name": "",
          "type": "bytes"
        }
      ],
      "name": "registerToken",
      "outputs": [],
      "stateMutability": "nonpayable",
      "type": "function"
    },
    {
      "inputs": [
        {
          "internalType": "uint256",
          "name": "",
          "type": "uint256"
        },
        {
          "internalType": "bytes",
          "name": "",
          "type": "bytes"
        },
        {
          "internalType": "uint256",
          "name": "",
          "type": "uint256"
        }
      ],
      "name": "registerToken",
      "outputs": [],
      "stateMutability": "nonpayable",
      "type": "function"
    },
    {
      "inputs": [
        {
          "internalType": "address",
          "name": "newAdmin",
          "type": "address"
        }
      ],
      "name": "registerTokenAdmin",
      "outputs": [],
      "stateMutability": "nonpayable",
      "type": "function"
    },
    {
      "inputs": [
        {
          "internalType": "address",
          "name": "ethKey",
          "type": "address"
        },
        {
          "internalType": "uint256",
          "name": "starkKey",
          "type": "uint256"
        },
        {
          "internalType": "bytes",
          "name": "signature",
          "type": "bytes"
        }
      ],
      "name": "registerUser",
      "outputs": [],
      "stateMutability": "nonpayable",
      "type": "function"
    },
    {
      "inputs": [
        {
          "internalType": "address",
          "name": "newAdmin",
          "type": "address"
        }
      ],
      "name": "registerUserAdmin",
      "outputs": [],
      "stateMutability": "nonpayable",
      "type": "function"
    },
    {
      "inputs": [],
      "name": "unFreeze",
      "outputs": [],
      "stateMutability": "nonpayable",
      "type": "function"
    },
    {
      "inputs": [
        {
          "internalType": "address",
          "name": "oldAdmin",
          "type": "address"
        }
      ],
      "name": "unregisterTokenAdmin",
      "outputs": [],
      "stateMutability": "nonpayable",
      "type": "function"
    },
    {
      "inputs": [
        {
          "internalType": "address",
          "name": "oldAdmin",
          "type": "address"
        }
      ],
      "name": "unregisterUserAdmin",
      "outputs": [],
      "stateMutability": "nonpayable",
      "type": "function"
    },
    {
      "inputs": [],
      "name": "validatedSelectors",
      "outputs": [
        {
          "internalType": "bytes4[]",
          "name": "selectors",
          "type": "bytes4[]"
        }
      ],
      "stateMutability": "pure",
      "type": "function"
    },
    {
      "inputs": [
        {
          "internalType": "uint256",
          "name": "ownerKey",
          "type": "uint256"
        },
        {
          "internalType": "uint256",
          "name": "assetType",
          "type": "uint256"
        }
      ],
      "name": "withdraw",
      "outputs": [],
      "stateMutability": "nonpayable",
      "type": "function"
    },
    {
      "inputs": [
        {
          "internalType": "uint256",
          "name": "ownerKey",
          "type": "uint256"
        },
        {
          "internalType": "uint256",
          "name": "assetType",
          "type": "uint256"
        },
        {
          "internalType": "bytes",
          "name": "mintingBlob",
          "type": "bytes"
        }
      ],
      "name": "withdrawAndMint",
      "outputs": [],
      "stateMutability": "nonpayable",
      "type": "function"
    },
    {
      "inputs": [
        {
          "internalType": "uint256",
          "name": "ownerKey",
          "type": "uint256"
        },
        {
          "internalType": "uint256",
          "name": "assetType",
          "type": "uint256"
        },
        {
          "internalType": "uint256",
          "name": "tokenId",
          "type": "uint256"
        }
      ],
      "name": "withdrawNft",
      "outputs": [],
      "stateMutability": "nonpayable",
      "type": "function"
    },
    {
      "inputs": [
        {
          "internalType": "uint256",
          "name": "ownerKey",
          "type": "uint256"
        },
        {
          "internalType": "uint256",
          "name": "assetType",
          "type": "uint256"
        },
        {
          "internalType": "uint256",
          "name": "tokenId",
          "type": "uint256"
        }
      ],
      "name": "withdrawWithTokenId",
      "outputs": [],
      "stateMutability": "nonpayable",
      "type": "function"
    }
  ],
  "bytecode": {
    "object": "0x608060405234801561001057600080fd5b506156b980620000216000396000f3fe6080604052600436106103955760003560e01c8063993f3639116101dc578063c23b60ef11610102578063e30a5cff116100a0578063f2011f661161006f578063f2011f66146111aa578063f3e0c3fb146111d4578063f637d95014611207578063fcb058221461123157610395565b8063e30a5cff1461113b578063e6de628214611150578063ec3161b014611165578063eeb728661461119557610395565b8063d88d8b38116100dc578063d88d8b3814610f40578063d91443b714610ffa578063dd2414d414611081578063dd7202d81461111157610395565b8063c23b60ef14610d98578063c8b1031a14610e22578063d528058914610ea457610395565b8063adac3e151161017a578063b12773fb11610149578063b12773fb14610c7a578063b766311214610d32578063be2b110514610d47578063c1a8513014610d8357610395565b8063adac3e1514610bc0578063ae1cdde614610bd5578063ae87381614610c11578063b04b617914610c4757610395565b8063a1cc921e116101b6578063a1cc921e14610af1578063a2bdde3d14610b24578063a6fa6e9014610b57578063abf98fe114610b8a57610395565b8063993f363914610a705780639ed1708414610a85578063a1cc5e1314610ac157610395565b80633ccfc8ed116102c15780636ce5d9571161025f5780637cf12b901161022e5780637cf12b90146109705780637df7dc04146109855780637fbf9ba9146109bb5780638c4bce1c14610a3d57610395565b80636ce5d957146103c157806372eb36881461091357806374d523a81461092857806377e84e0d1461095b57610395565b806345f5cd971161029b57806345f5cd971461083257806349325bac146108655780634e8912da146108a757806364d84842146108dd57610395565b80633ccfc8ed146106fe578063439fab9114610787578063441a3e701461080257610395565b80631dbd1da71161033957806329e411ac1161030857806329e411ac1461065c578063333ac20b1461069e57806333eeb147146106d45780633cc660ad146106e957610395565b80631dbd1da7146105b05780632505c3d9146105f657806327b66a4d1461063257806328700a151461064757610395565b8063049f5ade11610375578063049f5ade146104225780630b3a2d21146104605780630ebdac0314610493578063150b7a02146104f857610395565b80627175421461039a578062aeef8a146103c1578063019b417a146103ec575b600080fd5b3480156103a657600080fd5b506103af61126d565b60408051918252519081900360200190f35b6103ea600480360360608110156103d757600080fd5b5080359060208101359060400135611274565b005b3480156103f857600080fd5b506103ea6004803603606081101561040f57600080fd5b50803590602081013590604001356112dd565b34801561042e57600080fd5b5061044c6004803603602081101561044557600080fd5b50356112e8565b604080519115158252519081900360200190f35b34801561046c57600080fd5b506103ea6004803603602081101561048357600080fd5b50356001600160a01b0316611300565b34801561049f57600080fd5b506104a86113a7565b60408051602080825283518183015283519192839290830191858101910280838360005b838110156104e45781810151838201526020016104cc565b505050509050019250505060405180910390f35b34801561050457600080fd5b506105936004803603608081101561051b57600080fd5b6001600160a01b03823581169260208101359091169160408201359190810190608081016060820135600160201b81111561055557600080fd5b82018360208201111561056757600080fd5b803590602001918460018302840111600160201b8311171561058857600080fd5b5090925090506114c3565b604080516001600160e01b03199092168252519081900360200190f35b3480156105bc57600080fd5b506105da600480360360208110156105d357600080fd5b50356114ef565b604080516001600160a01b039092168252519081900360200190f35b34801561060257600080fd5b506103ea6004803603608081101561061957600080fd5b5080359060208101359060408101359060600135611534565b34801561063e57600080fd5b506103af6116ae565b34801561065357600080fd5b506103ea6116b7565b34801561066857600080fd5b506103ea600480360360a081101561067f57600080fd5b50803590602081013590604081013590606081013590608001356116c1565b3480156106aa57600080fd5b506103af600480360360608110156106c157600080fd5b50803590602081013590604001356118ba565b3480156106e057600080fd5b5061044c6118de565b3480156106f557600080fd5b506103af6118ee565b6103ea600480360360a081101561071457600080fd5b6001600160a01b0382351691602081013591810190606081016040820135600160201b81111561074357600080fd5b82018360208201111561075557600080fd5b803590602001918460018302840111600160201b8311171561077657600080fd5b9193509150803590602001356118f3565b34801561079357600080fd5b506103ea600480360360208110156107aa57600080fd5b810190602081018135600160201b8111156107c457600080fd5b8201836020820111156107d657600080fd5b803590602001918460018302840111600160201b831117156107f757600080fd5b509092509050611912565b34801561080e57600080fd5b506103ea6004803603604081101561082557600080fd5b5080359060200135611951565b34801561083e57600080fd5b5061044c6004803603602081101561085557600080fd5b50356001600160a01b0316611a95565b34801561087157600080fd5b506103ea600480360360a081101561088857600080fd5b5080359060208101359060408101359060608101359060800135611aa6565b3480156108b357600080fd5b506103af600480360360608110156108ca57600080fd5b5080359060208101359060400135611b54565b3480156108e957600080fd5b506103ea6004803603606081101561090057600080fd5b5080359060208101359060400135611b78565b34801561091f57600080fd5b506103ea611ce9565b34801561093457600080fd5b5061044c6004803603602081101561094b57600080fd5b50356001600160a01b0316611cf1565b34801561096757600080fd5b506103af611d0f565b34801561097c57600080fd5b506103ea611d16565b34801561099157600080fd5b506103ea600480360360608110156109a857600080fd5b5080359060208101359060400135611e5a565b3480156109c757600080fd5b506103ea600480360360408110156109de57600080fd5b81359190810190604081016020820135600160201b8111156109ff57600080fd5b820183602082011115610a1157600080fd5b803590602001918460018302840111600160201b83111715610a3257600080fd5b509092509050611f2e565b348015610a4957600080fd5b506103ea60048036036020811015610a6057600080fd5b50356001600160a01b0316612021565b348015610a7c57600080fd5b506103af61202d565b348015610a9157600080fd5b506103ea60048036036080811015610aa857600080fd5b5080359060208101359060408101359060600135612035565b348015610acd57600080fd5b506103af60048036036040811015610ae457600080fd5b5080359060200135612047565b348015610afd57600080fd5b506103ea60048036036020811015610b1457600080fd5b50356001600160a01b031661216e565b348015610b3057600080fd5b5061044c60048036036020811015610b4757600080fd5b50356001600160a01b0316612177565b348015610b6357600080fd5b506103ea60048036036020811015610b7a57600080fd5b50356001600160a01b0316612195565b348015610b9657600080fd5b506103af60048036036060811015610bad57600080fd5b5080359060208101359060400135612239565b348015610bcc57600080fd5b506103af612271565b348015610be157600080fd5b506103ea60048036036080811015610bf857600080fd5b508035906020810135906040810135906060013561227f565b348015610c1d57600080fd5b506103ea60048036036060811015610c3457600080fd5b5080359060208101359060400135612326565b348015610c5357600080fd5b506103ea60048036036020811015610c6a57600080fd5b50356001600160a01b0316612463565b348015610c8657600080fd5b506103af60048036036040811015610c9d57600080fd5b81359190810190604081016020820135600160201b811115610cbe57600080fd5b820183602082011115610cd057600080fd5b803590602001918460018302840111600160201b83111715610cf157600080fd5b91908080601f016020809104026020016040519081016040528093929190818152602001838380828437600092019190915250929550612507945050505050565b348015610d3e57600080fd5b506103af6125c8565b348015610d5357600080fd5b506103ea60048036036080811015610d6a57600080fd5b50803590602081013590604081013590606001356125cf565b348015610d8f57600080fd5b506103af612788565b348015610da457600080fd5b50610dad612796565b6040805160208082528351818301528351919283929083019185019080838360005b83811015610de7578181015183820152602001610dcf565b50505050905090810190601f168015610e145780820380516001836020036101000a031916815260200191505b509250505060405180910390f35b348015610e2e57600080fd5b506103ea60048036036040811015610e4557600080fd5b81359190810190604081016020820135600160201b811115610e6657600080fd5b820183602082011115610e7857600080fd5b803590602001918460018302840111600160201b83111715610e9957600080fd5b5090925090506127b2565b348015610eb057600080fd5b506103ea600480360360c0811015610ec757600080fd5b6001600160a01b0382351691602081013591810190606081016040820135600160201b811115610ef657600080fd5b820183602082011115610f0857600080fd5b803590602001918460018302840111600160201b83111715610f2957600080fd5b9193509150803590602081013590604001356127f6565b348015610f4c57600080fd5b506103ea60048036036060811015610f6357600080fd5b81359190810190604081016020820135600160201b811115610f8457600080fd5b820183602082011115610f9657600080fd5b803590602001918460018302840111600160201b83111715610fb757600080fd5b91908080601f01602080910402602001604051908101604052809392919081815260200183838082843760009201919091525092955050913592506127b2915050565b34801561100657600080fd5b506103ea6004803603606081101561101d57600080fd5b813591602081013591810190606081016040820135600160201b81111561104357600080fd5b82018360208201111561105557600080fd5b803590602001918460018302840111600160201b8311171561107657600080fd5b509092509050612817565b34801561108d57600080fd5b506103ea600480360360608110156110a457600080fd5b6001600160a01b0382351691602081013591810190606081016040820135600160201b8111156110d357600080fd5b8201836020820111156110e557600080fd5b803590602001918460018302840111600160201b8311171561110657600080fd5b509092509050612a0d565b34801561111d57600080fd5b506103af6004803603602081101561113457600080fd5b5035612dfb565b34801561114757600080fd5b506103af612e2c565b34801561115c57600080fd5b506103af612e31565b34801561117157600080fd5b506103af6004803603604081101561118857600080fd5b5080359060200135612e36565b3480156111a157600080fd5b50610dad612e65565b3480156111b657600080fd5b506103af600480360360208110156111cd57600080fd5b5035612e85565b3480156111e057600080fd5b506103ea600480360360208110156111f757600080fd5b50356001600160a01b0316612e9f565b34801561121357600080fd5b50610dad6004803603602081101561122a57600080fd5b5035612f46565b34801561123d57600080fd5b506103ea6004803603608081101561125457600080fd5b508035906020810135906040810135906060013561304b565b62093a8081565b61127d826130c3565b6112c3576040805162461bcd60e51b8152602060048201526012602482015271494e56414c49445f41535345545f5459504560701b604482015290519081900360640190fd5b6112d88383836112d386346130e7565b611534565b505050565b6112d8838383611b78565b60008181526015602052604090205460ff165b919050565b61130933613154565b61134c576040805162461bcd60e51b815260206004820152600f60248201526e4f4e4c595f474f5645524e414e434560881b604482015290519081900360640190fd5b6001600160a01b038116600081815260116020908152604091829020805460ff19166001179055815192835290517f9085a9044aeb6daeeb5b4bf84af42b1a1613d4056f503c4e992b6396c16bd52f9281900390910190a150565b60408051600380825260808201909252606091906000908260208201858036833750508151919450506001820191631f7df70160e21b9185919081106113e957fe5b6001600160e01b031990921660209283029190910190910152825160018201916357439c0b60e11b91859190811061141d57fe5b6001600160e01b03199092166020928302919091019091015282516001820191630441a3e760e41b91859190811061145157fe5b6001600160e01b0319909216602092830291909101909101528082146114be576040805162461bcd60e51b815260206004820181905260248201527f494e434f52524543545f53454c4543544f52535f41525241595f4c454e475448604482015290519081900360640190fd5b505090565b60006001600160a01b03861630146114dc5760006114e5565b630a85bd0160e11b5b9695505050505050565b6000818152601860205260408120546001600160a01b031680156115145790506112fb565b6001600160a01b038316831461152b57600061152d565b825b9392505050565b61153c6118de565b15611580576040805162461bcd60e51b815260206004820152600f60248201526e29aa20aa22afa4a9afa32927ad22a760891b604482015290519081900360640190fd5b61158983613183565b156115d1576040805162461bcd60e51b81526020600482015260136024820152724d494e5441424c455f41535345545f5459504560681b604482015290519081900360640190fd5b6115da836131c7565b611625576040805162461bcd60e51b81526020600482015260176024820152764e4f4e5f46554e4749424c455f41535345545f5459504560481b604482015290519081900360640190fd5b8261163285828585613226565b5061163d848361331b565b7f06724742ccc8c330a39a641ef02a0b419bd09248360680bb38159b0a8c2635d63386858761166c89886135e5565b604080516001600160a01b0390961686526020860194909452848401929092526060840152608083015260a08201859052519081900360c00190a15050505050565b600160401b5490565b6116bf61365c565b565b6116c96118de565b1561170d576040805162461bcd60e51b815260206004820152600f60248201526e29aa20aa22afa4a9afa32927ad22a760891b604482015290519081900360640190fd5b61171684613729565b61175c576040805162461bcd60e51b8152602060048201526012602482015271494e56414c49445f41535345545f5459504560701b604482015290519081900360640190fd5b60006117688585612047565b9050600061177887838686613226565b90506117838661376d565b1561182c5760018111156117d6576040805162461bcd60e51b81526020600482015260156024820152741253131151d05317d15490cdcc8c57d05353d55395605a1b604482015290519081900360640190fd5b6040805133815260208101899052808201869052606081018890526080810187905260a0810184905290517f0fcf2162832b2d6033d4d34d2f45a28d9cfee523f1899945bbdd32529cfda67b9181900360c00190a15b611837868685613780565b7fed94dc026fa9364c53bc0af51cde7f54f3109b3f31fceb26d01396d80e20453b3388868989876118688d8b6135e5565b604080516001600160a01b0390981688526020880196909652868601949094526060860192909252608085015260a084015260c083015260e0820186905251908190036101000190a150505050505050565b60009283526007602090815260408085209385529281528284209184525290205490565b600454600160a01b900460ff1690565b600090565b6118ff86868686612a0d565b61190a858383611274565b505050505050565b6040805162461bcd60e51b815260206004820152600f60248201526e1393d517d253541311535153951151608a1b604482015290519081900360640190fd5b600061195c83613844565b905061196782613183565b156119af576040805162461bcd60e51b81526020600482015260136024820152724d494e5441424c455f41535345545f5459504560681b604482015290519081900360640190fd5b6119b8826131c7565b611a03576040805162461bcd60e51b81526020600482015260176024820152764e4f4e5f46554e4749424c455f41535345545f5459504560481b604482015290519081900360640190fd5b6000838152600860209081526040808320858452909152812080549190558290611a2e8383836138a0565b7fb7477a7b93b2addc5272bbd7ad0986ef1c0d0bd265f26c3dc4bbe42727c2ac0c8585611a5b87856135e5565b60408051938452602084019290925282820152606082018490526001600160a01b0386166080830152519081900360a00190a15050505050565b6000611aa082613154565b92915050565b611aae6118de565b15611af2576040805162461bcd60e51b815260206004820152600f60248201526e29aa20aa22afa4a9afa32927ad22a760891b604482015290519081900360640190fd5b611afb84613b37565b611b40576040805162461bcd60e51b81526020600482015260116024820152702727aa2fa2a92198989a9aafaa27a5a2a760791b604482015290519081900360640190fd5b611b4d85858585856116c1565b5050505050565b60009283526006602090815260408085209385529281528284209184525290205490565b611b8182613729565b611bc7576040805162461bcd60e51b8152602060048201526012602482015271494e56414c49445f41535345545f5459504560701b604482015290519081900360640190fd5b6000611bd38383612047565b90506000611be085613844565b600086815260086020908152604080832086845290915281208054919055909150611c0d82868684613b4a565b611c168561376d565b15611c72576040805187815260208101879052808201869052606081018590526001600160a01b038416608082015290517fa5cfa8e2199ec5b8ca319288bcab72734207d30569756ee594a74b4df7abbf419181900360a00190a15b7fc6ba68235f3229e53f3a95cda25543ad54c0f6df2493a06c05fb930bea7966fe86868686611ca18a876135e5565b604080519586526020860194909452848401929092526060840152608083015260a082018490526001600160a01b03851660c0830152519081900360e00190a1505050505050565b6116bf613c10565b6001600160a01b031660009081526012602052604090205460ff1690565b6202a30081565b611d1e6118de565b611d62576040805162461bcd60e51b815260206004820152601060248201526f29aa20aa22afa727aa2fa32927ad22a760811b604482015290519081900360640190fd5b611d6b33613154565b611dae576040805162461bcd60e51b815260206004820152600f60248201526e4f4e4c595f474f5645524e414e434560881b604482015290519081900360640190fd5b600554421015611e05576040805162461bcd60e51b815260206004820152601860248201527f554e465245455a455f4e4f545f414c4c4f5745445f5945540000000000000000604482015290519081900360640190fd5b6004805460ff60a01b19169055600d805460019081019091556025805482019055600f805490910190556040517f07017fe9180629cfffba412f65a9affcf9a121de02294179f5c058f881dcc9f890600090a1565b82611e6481613844565b6001600160a01b0316336001600160a01b031614611ec6576040805162461bcd60e51b815260206004820152601a6024820152794d49534d41544348494e475f535441524b5f4554485f4b45595360301b604482015290519081900360640190fd5b60008481526007602090815260408083208684528252808320858452825291829020429055815186815290810184905280820185905290517f0bc1df35228095c37da66a6ffcc755ea79dfc437345685f618e05fafad6b445e9181900360600190a150505050565b611f3733612177565b611f7c576040805162461bcd60e51b815260206004820152601160248201527027a7262cafaa27a5a2a729afa0a226a4a760791b604482015290519081900360640190fd5b600160401b5415611fd4576040805162461bcd60e51b815260206004820152601d60248201527f53595354454d5f41535345545f545950455f414c52454144595f534554000000604482015290519081900360640190fd5b600160401b839055611fe98383836001613ca7565b6040805184815290517f51f48293a5ef1940e2b4eb2580372cf384aaa5bc739639e4624ce8d18c9644ab9181900360200190a1505050565b61202a8161404e565b50565b6301e1338081565b61204184848484611534565b50505050565b600061205283613729565b61208d5760405162461bcd60e51b815260040180806020018281038252602181526020018061563d6021913960400191505060405180910390fd5b60606120988461376d565b6120c7576040518060400160405280600d81526020016c2727a72fa6a4a72a20a126229d60991b8152506120e5565b6040518060400160405280600481526020016327232a1d60e11b8152505b90506001600160fa1b038185856040516020018084805190602001908083835b602083106121245780518252601f199092019160209182019101612105565b51815160209384036101000a600019018019909216911617905292019485525083810192909252506040805180840383018152928101905281519101209190911695945050505050565b61202a8161414b565b6001600160a01b031660009081526011602052604090205460ff1690565b61219e33613154565b6121e1576040805162461bcd60e51b815260206004820152600f60248201526e4f4e4c595f474f5645524e414e434560881b604482015290519081900360640190fd5b6001600160a01b038116600081815260116020908152604091829020805460ff19169055815192835290517ffa49aecb996ea8d99950bb051552dfcc0b5460a0bb209867a1ed8067c32c21779281900390910190a150565b6000838152600660209081526040808320858452825280832084845290915281205483906122689082906135e5565b95945050505050565b680100000000000000015481565b6122876118de565b156122cb576040805162461bcd60e51b815260206004820152600f60248201526e29aa20aa22afa4a9afa32927ad22a760891b604482015290519081900360640190fd5b6122d48361376d565b612318576040805162461bcd60e51b815260206004820152601060248201526f2727aa2fa2a9219b9918afaa27a5a2a760811b604482015290519081900360640190fd5b6120418484838560016116c1565b8261233081613844565b6001600160a01b0316336001600160a01b031614612392576040805162461bcd60e51b815260206004820152601a6024820152794d49534d41544348494e475f535441524b5f4554485f4b45595360301b604482015290519081900360640190fd5b61239b836131c7565b6123e6576040805162461bcd60e51b81526020600482015260176024820152764e4f4e5f46554e4749424c455f41535345545f5459504560481b604482015290519081900360640190fd5b8260006123f4868386614298565b90506124013386836138a0565b7fe3e46ecf1138180bf93cba62a0b7e661d976a8ab3d40243f7b082667d8f500af86858761242f89866135e5565b60408051948552602085019390935283830191909152606083015260808201849052519081900360a00190a1505050505050565b61246c33613154565b6124af576040805162461bcd60e51b815260206004820152600f60248201526e4f4e4c595f474f5645524e414e434560881b604482015290519081900360640190fd5b6001600160a01b038116600081815260126020908152604091829020805460ff19169055815192835290517fb32f8aed6bedf93605e95bc99e0e229b8bbfcd0fe2e76a6748450d3e9522db469281900390910190a150565b600080828051906020012060001c9050600160fa1b6001600160f01b036040518060400160405280600981526020016826a4a72a20a126229d60b91b81525086846040516020018084805190602001908083835b6020831061257a5780518252601f19909201916020918201910161255b565b51815160209384036101000a60001901801990921691161790529201948552508381019290925250604080518084038301815292810190528151910120919091169190911795945050505050565b6224ea0081565b836125d981613844565b6001600160a01b0316336001600160a01b03161461263b576040805162461bcd60e51b815260206004820152601a6024820152794d49534d41544348494e475f535441524b5f4554485f4b45595360301b604482015290519081900360640190fd5b61264484613729565b61268a576040805162461bcd60e51b8152602060048201526012602482015271494e56414c49445f41535345545f5459504560701b604482015290519081900360640190fd5b60006126968585612047565b905060006126a5878386614298565b905080156126b9576126b933878784613b4a565b6126c28661376d565b15612716576040805188815260208101869052808201889052606081018790526080810184905290517ff00c0c1a754f6df7545d96a7e12aad552728b94ca6aa94f81e297bdbcf1dab9c9181900360a00190a15b7fcc00f2179d127845242252f3c3b6b238c5ed33c2e933179f09653cfb1cdee7ca87858888866127468c886135e5565b604080519687526020870195909552858501939093526060850191909152608084015260a083015260c08201849052519081900360e00190a150505050505050565b680100000000000000045481565b60405180606001604052806026815260200161565e6026913981565b6040805162461bcd60e51b81526020600482015260146024820152732aa729aaa82827a92a22a22fa32aa721aa24a7a760611b604482015290519081900360640190fd5b61280287878787612a0d565b61280e86848484612035565b50505050505050565b600061282285613844565b60008581526015602052604090205490915060ff1661287d576040805162461bcd60e51b8152602060048201526012602482015271494e56414c49445f41535345545f5459504560701b604482015290519081900360640190fd5b61288684613183565b6128d1576040805162461bcd60e51b81526020600482015260176024820152764e4f4e5f4d494e5441424c455f41535345545f5459504560481b604482015290519081900360640190fd5b60006129138585858080601f01602080910402602001604051908101604052809392919081815260200183838082843760009201919091525061250792505050565b6000878152600860209081526040808320848452909152902054909150612981576040805162461bcd60e51b815260206004820152601d60248201527f4e4f5f50454e44494e475f5749544844524157414c5f42414c414e4345000000604482015290519081900360640190fd5b6000868152600860209081526040808320848452909152812080549190556129ac86828588886143a5565b7f7e6e15df814c1a309a57686de672b2bedd128eacde35c5370c36d6840d4e9a9287876129d989856135e5565b604080519384526020840192909252828201526060820184905260808201859052519081900360a00190a150505050505050565b82612a53576040805162461bcd60e51b8152602060048201526011602482015270494e56414c49445f535441524b5f4b455960781b604482015290519081900360640190fd5b600167080000000000001160c01b018310612aa9576040805162461bcd60e51b8152602060048201526011602482015270494e56414c49445f535441524b5f4b455960781b604482015290519081900360640190fd5b6001600160a01b038416612afa576040805162461bcd60e51b8152602060048201526013602482015272494e56414c49445f4554485f4144445245535360681b604482015290519081900360640190fd5b6000838152601860205260409020546001600160a01b031615612b5c576040805162461bcd60e51b8152602060048201526015602482015274535441524b5f4b45595f554e415641494c41424c4560581b604482015290519081900360640190fd5b612b658361453e565b612baa576040805162461bcd60e51b8152602060048201526011602482015270494e56414c49445f535441524b5f4b455960781b604482015290519081900360640190fd5b60418114612bf3576040805162461bcd60e51b8152602060048201526011602482015270494e56414c49445f5349474e415455524560781b604482015290519081900360640190fd5b600084846040516020018080702ab9b2b92932b3b4b9ba3930ba34b7b71d60791b815250601101836001600160a01b031660601b815260140182815260200192505050604051602081830303815290604052805190602001209050606083838080601f01602080910402602001604051908101604052809392919081815260200183838082843760009201829052508451949550938593506040925082109050612c9957fe5b602001015160f81c60f81b60f81c90506000806020840151915060408401519050600060018685858560405160008152602001604052604051808581526020018460ff1681526020018381526020018281526020019450505050506020604051602081039080840390855afa158015612d16573d6000803e3d6000fd5b5050604051601f1901519150506001600160a01b03811615801590612d3f5750612d3f81611cf1565b612d84576040805162461bcd60e51b8152602060048201526011602482015270494e56414c49445f5349474e415455524560781b604482015290519081900360640190fd5b60008981526018602090815260409182902080546001600160a01b038e166001600160a01b0319909116811790915582519081529081018b9052338183015290517fcab1cf17c190e4e2195a7b8f7b362023246fa774390432b4704ab6b29d56b07b9181900360600190a150505050505050505050565b60008181526015602052604081205460ff16612e19575060016112fb565b5060009081526016602052604090205490565b600a81565b604081565b60008281526008602090815260408083208484529091528120548290612e5d9082906135e5565b949350505050565b60606040518060600160405280602c8152602001615611602c9139905090565b680100000000000000026020526000908152604090205481565b612ea833613154565b612eeb576040805162461bcd60e51b815260206004820152600f60248201526e4f4e4c595f474f5645524e414e434560881b604482015290519081900360640190fd5b6001600160a01b038116600081815260126020908152604091829020805460ff19166001179055815192835290517f7284e8b42a1333a4f23e858e513b3b28d2667a3531b7c1872cce3f7720a250469281900390910190a150565b60008181526015602052604090205460609060ff16612fac576040805162461bcd60e51b815260206004820152601960248201527f41535345545f545950455f4e4f545f5245474953544552454400000000000000604482015290519081900360640190fd5b60008281526014602090815260409182902080548351601f60026000196101006001861615020190931692909204918201849004840281018401909452808452909183018282801561303f5780601f106130145761010080835404028352916020019161303f565b820191906000526020600020905b81548152906001019060200180831161302257829003601f168201915b50505050509050919050565b8361305581613844565b6001600160a01b0316336001600160a01b0316146130b7576040805162461bcd60e51b815260206004820152601a6024820152794d49534d41544348494e475f535441524b5f4554485f4b45595360301b604482015290519081900360640190fd5b611b4d858584866125cf565b60006341917ff960e11b6130d6836145b1565b6001600160e01b0319161492915050565b6000806130f384612dfb565b90508083816130fe57fe5b0615613142576040805162461bcd60e51b815260206004820152600e60248201526d1253959053125117d05353d5539560921b604482015290519081900360640190fd5b80838161314b57fe5b04949350505050565b60008061315f6145c4565b6001600160a01b039390931660009081526020939093525050604090205460ff1690565b60008061318f836145b1565b90506001600160e01b031981166368646e2d60e01b148061152d57506001600160e01b03198116635c5c333960e11b14915050919050565b6000806131d3836145b1565b90506001600160e01b031981166341917ff960e11b148061320457506001600160e01b03198116630f47261b60e41b145b8061152d57506001600160e01b031981166368646e2d60e01b14915050919050565b60008481526006602090815260408083208684528252808320858452909152812054820182811015613292576040805162461bcd60e51b815260206004820152601060248201526f4445504f5349545f4f564552464c4f5760801b604482015290519081900360640190fd5b6000868152600660209081526040808320888452825280832087845290915290208190556132bf86614641565b80156132eb57506000868152600760209081526040808320888452825280832087845290915290205415155b15612268576000868152600760209081526040808320888452825280832087845290915281205595945050505050565b600061332783836135e5565b905061333283614667565b15613534578161334257506135e1565b600061334d8461467a565b905060008190506000816001600160a01b03166370a08231306040518263ffffffff1660e01b815260040180826001600160a01b0316815260200191505060206040518083038186803b1580156133a357600080fd5b505afa1580156133b7573d6000803e3d6000fd5b505050506040513d60208110156133cd57600080fd5b50516040805133602482015230604482015260648082018890528251808303909101815260849091019091526020810180516001600160e01b03166323b872dd60e01b1790529091506134296001600160a01b0385168261468d565b6000836001600160a01b03166370a08231306040518263ffffffff1660e01b815260040180826001600160a01b0316815260200191505060206040518083038186803b15801561347857600080fd5b505afa15801561348c573d6000803e3d6000fd5b505050506040513d60208110156134a257600080fd5b50519050828110156134e6576040805162461bcd60e51b81526020600482015260086024820152674f564552464c4f5760c01b604482015290519081900360640190fd5b858301811461352a576040805162461bcd60e51b815260206004820152601c60248201526000805160206155f1833981519152604482015290519081900360640190fd5b50505050506112d8565b61353d836130c3565b1561359b57803414613596576040805162461bcd60e51b815260206004820152601860248201527f494e434f52524543545f4445504f5349545f414d4f554e540000000000000000604482015290519081900360640190fd5b6112d8565b6040805162461bcd60e51b8152602060048201526016602482015275554e535550504f525445445f544f4b454e5f5459504560501b604482015290519081900360640190fd5b5050565b6000806135f184612dfb565b905080830291508281838161360257fe5b0414613655576040805162461bcd60e51b815260206004820152601760248201527f44455155414e54495a4154494f4e5f4f564552464c4f57000000000000000000604482015290519081900360640190fd5b5092915050565b60006136666145c4565b60018101549091506001600160a01b031633146136ca576040805162461bcd60e51b815260206004820152601760248201527f4f4e4c595f43414e4449444154455f474f5645524e4f52000000000000000000604482015290519081900360640190fd5b60018101546136e1906001600160a01b0316614879565b6001810180546001600160a01b03191690556040805133815290517fcfb473e6c03f9a29ddaf990e736fa3de5188a0bd85d684f5b6e164ebfbfff5d29181900360200190a150565b600080613735836145b1565b90506001600160e01b0319811663012b8bc960e11b148061152d57506001600160e01b03198116633348691d60e01b14915050919050565b600063012b8bc960e11b6130d6836145b1565b61378983613729565b6137d0576040805162461bcd60e51b815260206004820152601360248201527246554e4749424c455f41535345545f5459504560681b604482015290519081900360640190fd5b6137d98361376d565b156138335780600114613829576040805162461bcd60e51b8152602060048201526013602482015272494c4c4547414c5f4e46545f42414c414e434560681b604482015290519081900360640190fd5b61359683836148f9565b80156112d8576112d88383836149ac565b600061384f826114ef565b90506001600160a01b0381166112fb576040805162461bcd60e51b81526020600482015260116024820152701554d15497d553949151d254d511549151607a1b604482015290519081900360640190fd5b6001600160a01b0383166138ef576040805162461bcd60e51b81526020600482015260116024820152701253959053125117d49150d25412515395607a1b604482015290519081900360640190fd5b60006138fb83836135e5565b905061390683614667565b15613b06578161391657506112d8565b60006139218461467a565b905060008190506000816001600160a01b03166370a08231306040518263ffffffff1660e01b815260040180826001600160a01b0316815260200191505060206040518083038186803b15801561397757600080fd5b505afa15801561398b573d6000803e3d6000fd5b505050506040513d60208110156139a157600080fd5b5051604080516001600160a01b03808b16602483015260448083018990528351808403909101815260649092019092526020810180516001600160e01b031663a9059cbb60e01b1790529192506139fa9085168261468d565b6000836001600160a01b03166370a08231306040518263ffffffff1660e01b815260040180826001600160a01b0316815260200191505060206040518083038186803b158015613a4957600080fd5b505afa158015613a5d573d6000803e3d6000fd5b505050506040513d6020811015613a7357600080fd5b5051905082811115613ab8576040805162461bcd60e51b8152602060048201526009602482015268554e444552464c4f5760b81b604482015290519081900360640190fd5b8583038114613afc576040805162461bcd60e51b815260206004820152601c60248201526000805160206155f1833981519152604482015290519081900360640190fd5b5050505050612041565b613b0f836130c3565b1561359b5781613b1f57506112d8565b613b326001600160a01b03851682614cc2565b612041565b6000633348691d60e01b6130d6836145b1565b613b5383613729565b613b9a576040805162461bcd60e51b815260206004820152601360248201527246554e4749424c455f41535345545f5459504560681b604482015290519081900360640190fd5b613ba38361376d565b15613bfe5780600114613bf3576040805162461bcd60e51b8152602060048201526013602482015272494c4c4547414c5f4e46545f42414c414e434560681b604482015290519081900360640190fd5b613b32848484614d5e565b80156120415761204184848484614e63565b613c1933613154565b613c5c576040805162461bcd60e51b815260206004820152600f60248201526e4f4e4c595f474f5645524e414e434560881b604482015290519081900360640190fd5b6000613c666145c4565b6001810180546001600160a01b03191690556040519091507f7a8dc7dd7fffb43c4807438fa62729225156941e641fd877938f4edade3429f590600090a150565b613cb033612177565b613cf5576040805162461bcd60e51b815260206004820152601160248201527027a7262cafaa27a5a2a729afa0a226a4a760791b604482015290519081900360640190fd5b613cfe846112e8565b15613d50576040805162461bcd60e51b815260206004820152601860248201527f41535345545f414c52454144595f524547495354455245440000000000000000604482015290519081900360640190fd5b600167080000000000001160c01b018410613da7576040805162461bcd60e51b8152602060048201526012602482015271494e56414c49445f41535345545f5459504560701b604482015290519081900360640190fd5b60008111613dee576040805162461bcd60e51b815260206004820152600f60248201526e494e56414c49445f5155414e54554d60881b604482015290519081900360640190fd5b600160801b8110613e38576040805162461bcd60e51b815260206004820152600f60248201526e494e56414c49445f5155414e54554d60881b604482015290519081900360640190fd5b60006001600160fa1b0384848460405160200180848480828437919091019283525050604080518083038152602092830190915280519101209290921692505050848114613ec2576040805162461bcd60e51b8152602060048201526012602482015271494e56414c49445f41535345545f5459504560701b604482015290519081900360640190fd5b613f0184848080601f01602080910402602001604051908101604052809392919081815260200183838082843760009201919091525061515092505050565b613f4084848080601f0160208091040260200160405190810160405280939291908181526020018383808284376000920191909152506152cc92505050565b15613f905781600114613f90576040805162461bcd60e51b8152602060048201526013602482015272494e56414c49445f4e46545f5155414e54554d60681b604482015290519081900360640190fd5b6000858152601560209081526040808320805460ff1916600117905560149091529020613fbe90858561555d565b508160166000878152602001908152602001600020819055507f7a0efbc885500f3b4a895231945be4520e4c0ba5ef7274a225a0272c81ccbcb78585858560405180858152602001806020018381526020018281038252858582818152602001925080828437600083820152604051601f909101601f191690920182900397509095505050505050a15050505050565b61405733613154565b61409a576040805162461bcd60e51b815260206004820152600f60248201526e4f4e4c595f474f5645524e414e434560881b604482015290519081900360640190fd5b60006140a46145c4565b90506140af82613154565b156140f4576040805162461bcd60e51b815260206004820152601060248201526f20a62922a0a22cafa3a7ab22a92727a960811b604482015290519081900360640190fd5b6001810180546001600160a01b0384166001600160a01b0319909116811790915560408051918252517f6166272c8d3f5f579082f2827532732f97195007983bb5b83ac12c56700b01a69181900360200190a15050565b61415433613154565b614197576040805162461bcd60e51b815260206004820152600f60248201526e4f4e4c595f474f5645524e414e434560881b604482015290519081900360640190fd5b336001600160a01b03821614156141ec576040805162461bcd60e51b8152602060048201526014602482015273474f5645524e4f525f53454c465f52454d4f564560601b604482015290519081900360640190fd5b60006141f66145c4565b905061420182613154565b614241576040805162461bcd60e51b815260206004820152600c60248201526b2727aa2fa3a7ab22a92727a960a11b604482015290519081900360640190fd5b6001600160a01b03821660008181526020838152604091829020805460ff19169055815192835290517fd75f94825e770b8b512be8e74759e252ad00e102e38f50cce2f7c6f868a295999281900390910190a15050565b6000838152600760209081526040808320858452825280832084845290915281205480614303576040805162461bcd60e51b815260206004820152601460248201527311115413d4d25517d393d517d0d05390d153115160621b604482015290519081900360640190fd5b6202a3008181019081101561431457fe5b8042101561435a576040805162461bcd60e51b815260206004820152600e60248201526d11115413d4d25517d313d0d2d15160921b604482015290519081900360640190fd5b50505060008381526006602090815260408083208584528252808320848452825280832080549084905595835260078252808320948352938152838220928252919091529081205590565b6001600160a01b0383166143f4576040805162461bcd60e51b81526020600482015260116024820152701253959053125117d49150d25412515395607a1b604482015290519081900360640190fd5b6143fd85613183565b614448576040805162461bcd60e51b81526020600482015260176024820152764e4f4e5f4d494e5441424c455f41535345545f5459504560481b604482015290519081900360640190fd5b60008411614493576040805162461bcd60e51b81526020600482015260136024820152721253959053125117d352539517d05353d55395606a1b604482015290519081900360640190fd5b600061449f86866135e5565b905060006144ac8761467a565b905061280e8583868660405160240180856001600160a01b0316815260200184815260200180602001828103825284848281815260200192508082843760008184015260408051601f19601f9093018316909401848103909201845252506020810180516319ee6e3f60e01b6001600160e01b039091161790526001600160a01b0389169650945061468d9350505050565b600080600167080000000000001160c01b0183600167080000000000001160c01b0185860909905061152d600167080000000000001160c01b017f06f21413efbe40de150e596d72f7a8c5609ad26c15c915c1f4cdfcb99cee9e89600167080000000000001160c01b0186850808615310565b6000611aa06145bf83612f46565b615330565b60008060405180606001604052806026815260200161565e602691396040518082805190602001908083835b6020831061460f5780518252601f1990920191602091820191016145f0565b51815160209384036101000a600019018019909216911617905292019485525060405193849003019092209392505050565b600061464c826114ef565b6001600160a01b0316336001600160a01b0316149050919050565b6000630f47261b60e41b6130d6836145b1565b6000611aa061468883612f46565b615341565b61469682615348565b6146db576040805162461bcd60e51b81526020600482015260116024820152704241445f544f4b454e5f4144445245535360781b604482015290519081900360640190fd5b60006060836001600160a01b0316836040518082805190602001908083835b602083106147195780518252601f1990920191602091820191016146fa565b6001836020036101000a0380198251168184511680821785525050505050509050019150506000604051808303816000865af19150503d806000811461477b576040519150601f19603f3d011682016040523d82523d6000602084013e614780565b606091505b50915091508181906148105760405162461bcd60e51b81526004018080602001828103825283818151815260200191508051906020019080838360005b838110156147d55781810151838201526020016147bd565b50505050905090810190601f1680156148025780820380516001836020036101000a031916815260200191505b509250505060405180910390fd5b508051156120415780806020019051602081101561482d57600080fd5b5051612041576040805162461bcd60e51b81526020600482015260166024820152751513d2d15397d3d4115490551253d397d1905253115160521b604482015290519081900360640190fd5b61488281613154565b156148c7576040805162461bcd60e51b815260206004820152601060248201526f20a62922a0a22cafa3a7ab22a92727a960811b604482015290519081900360640190fd5b60006148d16145c4565b6001600160a01b0390921660009081526020929092525060409020805460ff19166001179055565b6149028261376d565b614946576040805162461bcd60e51b815260206004820152601060248201526f2727aa2fa2a9219b9918afaa27a5a2a760811b604482015290519081900360640190fd5b60006149518361467a565b6040805133602482015230604482015260648082018690528251808303909101815260849091019091526020810180516001600160e01b0316632142170760e11b1790529091506112d8906001600160a01b0383169061468d565b6149b583613b37565b6149fa576040805162461bcd60e51b81526020600482015260116024820152702727aa2fa2a92198989a9aafaa27a5a2a760791b604482015290519081900360640190fd5b80614a04576112d8565b6000614a1084836135e5565b90506000614a1d8561467a565b60408051627eeac760e11b815230600482015260248101879052905191925082916000916001600160a01b0384169162fdd58e91604480820192602092909190829003018186803b158015614a7157600080fd5b505afa158015614a85573d6000803e3d6000fd5b505050506040513d6020811015614a9b57600080fd5b81019080805190602001909291905050509050614bb063f242432a60e01b333089886040518060200160405280600081525060405160240180866001600160a01b03168152602001856001600160a01b0316815260200184815260200183815260200180602001828103825283818151815260200191508051906020019080838360005b83811015614b37578181015183820152602001614b1f565b50505050905090810190601f168015614b645780820380516001836020036101000a031916815260200191505b5060408051601f198184030181529190526020810180516001600160e01b03166001600160e01b0319909a169990991790985250506001600160a01b038a169594505061468d92505050565b6000826001600160a01b031662fdd58e30896040518363ffffffff1660e01b815260040180836001600160a01b031681526020018281526020019250505060206040518083038186803b158015614c0657600080fd5b505afa158015614c1a573d6000803e3d6000fd5b505050506040513d6020811015614c3057600080fd5b5051905081811015614c74576040805162461bcd60e51b81526020600482015260086024820152674f564552464c4f5760c01b604482015290519081900360640190fd5b8482018114614cb8576040805162461bcd60e51b815260206004820152601c60248201526000805160206155f1833981519152604482015290519081900360640190fd5b5050505050505050565b6040516000906001600160a01b0384169083908381818185875af1925050503d8060008114614d0d576040519150601f19603f3d011682016040523d82523d6000602084013e614d12565b606091505b50509050806112d8576040805162461bcd60e51b815260206004820152601360248201527211551217d514905394d1915497d19052531151606a1b604482015290519081900360640190fd5b6001600160a01b038316614dad576040805162461bcd60e51b81526020600482015260116024820152701253959053125117d49150d25412515395607a1b604482015290519081900360640190fd5b614db68261376d565b614dfa576040805162461bcd60e51b815260206004820152601060248201526f2727aa2fa2a9219b9918afaa27a5a2a760811b604482015290519081900360640190fd5b6000614e058361467a565b604080513060248201526001600160a01b03808816604483015260648083018790528351808403909101815260849092019092526020810180516001600160e01b0316632142170760e11b179052919250612041919083169061468d565b6001600160a01b038416614eb2576040805162461bcd60e51b81526020600482015260116024820152701253959053125117d49150d25412515395607a1b604482015290519081900360640190fd5b614ebb83613b37565b614f00576040805162461bcd60e51b81526020600482015260116024820152702727aa2fa2a92198989a9aafaa27a5a2a760791b604482015290519081900360640190fd5b80614f0a57612041565b6000614f1684836135e5565b90506000614f238561467a565b60408051627eeac760e11b815230600482015260248101879052905191925082916000916001600160a01b0384169162fdd58e91604480820192602092909190829003018186803b158015614f7757600080fd5b505afa158015614f8b573d6000803e3d6000fd5b505050506040513d6020811015614fa157600080fd5b8101908080519060200190929190505050905061503c63f242432a60e01b308a89886040518060200160405280600081525060405160240180866001600160a01b03168152602001856001600160a01b03168152602001848152602001838152602001806020018281038252838181518152602001915080519060200190808383600083811015614b37578181015183820152602001614b1f565b6000826001600160a01b031662fdd58e30896040518363ffffffff1660e01b815260040180836001600160a01b031681526020018281526020019250505060206040518083038186803b15801561509257600080fd5b505afa1580156150a6573d6000803e3d6000fd5b505050506040513d60208110156150bc57600080fd5b5051905081811115615101576040805162461bcd60e51b8152602060048201526009602482015268554e444552464c4f5760b81b604482015290519081900360640190fd5b8482038114615145576040805162461bcd60e51b815260206004820152601c60248201526000805160206155f1833981519152604482015290519081900360640190fd5b505050505050505050565b600061515b82615330565b90506151668161534e565b6151b0576040805162461bcd60e51b8152602060048201526016602482015275554e535550504f525445445f544f4b454e5f5459504560501b604482015290519081900360640190fd5b6001600160e01b031981166341917ff960e11b141561521b578151600414615216576040805162461bcd60e51b8152602060048201526014602482015273494e56414c49445f41535345545f535452494e4760601b604482015290519081900360640190fd5b6135e1565b8151602414615268576040805162461bcd60e51b8152602060048201526014602482015273494e56414c49445f41535345545f535452494e4760601b604482015290519081900360640190fd5b600061527383615341565b9050615287816001600160a01b0316615348565b6112d8576040805162461bcd60e51b81526020600482015260116024820152704241445f544f4b454e5f4144445245535360781b604482015290519081900360640190fd5b6000806152d883615330565b90506001600160e01b0319811663012b8bc960e11b148061152d57506001600160e01b03198116635c5c333960e11b14915050919050565b60006153278267080000000000001160bf1b6153ed565b60011492915050565b602001516001600160e01b03191690565b6024015190565b3b151590565b60006001600160e01b031982166341917ff960e11b148061537f57506001600160e01b03198216630f47261b60e41b145b8061539a57506001600160e01b0319821663012b8bc960e11b145b806153b557506001600160e01b031982166368646e2d60e01b145b806153d057506001600160e01b03198216635c5c333960e11b145b80611aa05750506001600160e01b031916633348691d60e01b1490565b600080606060056001600160a01b031660208060208888600167080000000000001160c01b016040516020018087815260200186815260200185815260200184815260200183815260200182815260200196505050505050506040516020818303038152906040526040518082805190602001908083835b602083106154845780518252601f199092019160209182019101615465565b6001836020036101000a038019825116818451168082178552505050505050905001915050600060405180830381855afa9150503d80600081146154e4576040519150601f19603f3d011682016040523d82523d6000602084013e6154e9565b606091505b509150915081819061553c5760405162461bcd60e51b81526020600482018181528351602484015283519092839260449091019190850190808383600083156147d55781810151838201526020016147bd565b5080806020019051602081101561555257600080fd5b505195945050505050565b828054600181600116156101000203166002900490600052602060002090601f016020900481019282601f1061559e5782800160ff198235161785556155cb565b828001600101855582156155cb579182015b828111156155cb5782358255916020019190600101906155b0565b506155d79291506155db565b5090565b5b808211156155d757600081556001016155dc56fe494e434f52524543545f414d4f554e545f5452414e5346455252454400000000537461726b576172655f50657270657475616c546f6b656e73416e6452616d70696e6756325f323032325f3241535345545f545950455f444f45535f4e4f545f54414b455f544f4b454e5f4944537461726b45782e4d61696e2e323031392e476f7665726e6f7273496e666f726d6174696f6ea2646970667358221220a0e0574a0bb3c87b19debe73550433882c2bb69a8a047f5d2ba1ae66360316a264736f6c634300060c0033",
    "linkReferences": {}
  },
  "methodIdentifiers": {
    "DEPOSIT_CANCEL_DELAY()": "77e84e0d",
    "FREEZE_GRACE_PERIOD()": "00717542",
    "MAIN_GOVERNANCE_INFO_TAG()": "c23b60ef",
    "MAX_FORCED_ACTIONS_REQS_PER_BLOCK()": "e30a5cff",
    "MAX_VERIFIER_COUNT()": "e6de6282",
    "UNFREEZE_DELAY()": "993f3639",
    "VERIFIER_REMOVAL_DELAY()": "b7663112",
    "calculateAssetIdWithTokenId(uint256,uint256)": "a1cc5e13",
    "calculateMintableAssetId(uint256,bytes)": "b12773fb",
    "configurationDelay()": "c1a85130",
    "configurationHash(uint256)": "f2011f66",
    "deposit(uint256,uint256,uint256)": "00aeef8a",
    "deposit(uint256,uint256,uint256,uint256)": "2505c3d9",
    "depositCancel(uint256,uint256,uint256)": "7df7dc04",
    "depositERC1155(uint256,uint256,uint256,uint256,uint256)": "49325bac",
    "depositERC20(uint256,uint256,uint256,uint256)": "9ed17084",
    "depositEth(uint256,uint256,uint256)": "6ce5d957",
    "depositNft(uint256,uint256,uint256,uint256)": "ae1cdde6",
    "depositNftReclaim(uint256,uint256,uint256,uint256)": "fcb05822",
    "depositReclaim(uint256,uint256,uint256)": "ae873816",
    "depositWithTokenId(uint256,uint256,uint256,uint256,uint256)": "29e411ac",
    "depositWithTokenIdReclaim(uint256,uint256,uint256,uint256)": "be2b1105",
    "getAssetInfo(uint256)": "f637d950",
    "getCancellationRequest(uint256,uint256,uint256)": "333ac20b",
    "getDepositBalance(uint256,uint256,uint256)": "abf98fe1",
    "getEthKey(uint256)": "1dbd1da7",
    "getQuantizedDepositBalance(uint256,uint256,uint256)": "4e8912da",
    "getQuantum(uint256)": "dd7202d8",
    "getSystemAssetType()": "27b66a4d",
    "getWithdrawalBalance(uint256,uint256)": "ec3161b0",
    "globalConfigurationHash()": "adac3e15",
    "identify()": "eeb72866",
    "initialize(bytes)": "439fab91",
    "initializerSize()": "3cc660ad",
    "isAssetRegistered(uint256)": "049f5ade",
    "isFrozen()": "33eeb147",
    "isTokenAdmin(address)": "a2bdde3d",
    "isUserAdmin(address)": "74d523a8",
    "mainAcceptGovernance()": "28700a15",
    "mainCancelNomination()": "72eb3688",
    "mainIsGovernor(address)": "45f5cd97",
    "mainNominateNewGovernor(address)": "8c4bce1c",
    "mainRemoveGovernor(address)": "a1cc921e",
    "onERC721Received(address,address,uint256,bytes)": "150b7a02",
    "registerAndDepositERC20(address,uint256,bytes,uint256,uint256,uint256)": "d5280589",
    "registerAndDepositEth(address,uint256,bytes,uint256,uint256)": "3ccfc8ed",
    "registerSystemAssetType(uint256,bytes)": "7fbf9ba9",
    "registerToken(uint256,bytes)": "c8b1031a",
    "registerToken(uint256,bytes,uint256)": "d88d8b38",
    "registerTokenAdmin(address)": "0b3a2d21",
    "registerUser(address,uint256,bytes)": "dd2414d4",
    "registerUserAdmin(address)": "f3e0c3fb",
    "unFreeze()": "7cf12b90",
    "unregisterTokenAdmin(address)": "a6fa6e90",
    "unregisterUserAdmin(address)": "b04b6179",
    "validatedSelectors()": "0ebdac03",
    "withdraw(uint256,uint256)": "441a3e70",
    "withdrawAndMint(uint256,uint256,bytes)": "d91443b7",
    "withdrawNft(uint256,uint256,uint256)": "019b417a",
    "withdrawWithTokenId(uint256,uint256,uint256)": "64d84842"
  },
  "id": 84
}