{
  "abi": [
    {
      "inputs": [],
      "name": "DEPOSIT_CANCEL_DELAY",
      "outputs": [
        {
          "internalType": "uint256",
          "name": "",
          "type": "uint256"
        }
      ],
      "stateMutability": "view",
      "type": "function"
    },
    {
      "inputs": [],
      "name": "FREEZE_GRACE_PERIOD",
      "outputs": [
        {
          "internalType": "uint256",
          "name": "",
          "type": "uint256"
        }
      ],
      "stateMutability": "view",
      "type": "function"
    },
    {
      "inputs": [],
      "name": "MAX_FORCED_ACTIONS_REQS_PER_BLOCK",
      "outputs": [
        {
          "internalType": "uint256",
          "name": "",
          "type": "uint256"
        }
      ],
      "stateMutability": "view",
      "type": "function"
    },
    {
      "inputs": [],
      "name": "MAX_VERIFIER_COUNT",
      "outputs": [
        {
          "internalType": "uint256",
          "name": "",
          "type": "uint256"
        }
      ],
      "stateMutability": "view",
      "type": "function"
    },
    {
      "inputs": [],
      "name": "UNFREEZE_DELAY",
      "outputs": [
        {
          "internalType": "uint256",
          "name": "",
          "type": "uint256"
        }
      ],
      "stateMutability": "view",
      "type": "function"
    },
    {
      "inputs": [],
      "name": "VERIFIER_REMOVAL_DELAY",
      "outputs": [
        {
          "internalType": "uint256",
          "name": "",
          "type": "uint256"
        }
      ],
      "stateMutability": "view",
      "type": "function"
    },
    {
      "inputs": [],
      "name": "defaultVaultWithdrawalLock",
      "outputs": [
        {
          "internalType": "uint256",
          "name": "",
          "type": "uint256"
        }
      ],
      "stateMutability": "view",
      "type": "function"
    },
    {
      "inputs": [],
      "name": "getActionCount",
      "outputs": [
        {
          "internalType": "uint256",
          "name": "",
          "type": "uint256"
        }
      ],
      "stateMutability": "view",
      "type": "function"
    },
    {
      "inputs": [
        {
          "internalType": "uint256",
          "name": "actionIndex",
          "type": "uint256"
        }
      ],
      "name": "getActionHashByIndex",
      "outputs": [
        {
          "internalType": "bytes32",
          "name": "",
          "type": "bytes32"
        }
      ],
      "stateMutability": "view",
      "type": "function"
    },
    {
      "inputs": [
        {
          "internalType": "uint256",
          "name": "ownerKey",
          "type": "uint256"
        },
        {
          "internalType": "uint256",
          "name": "vaultId",
          "type": "uint256"
        }
      ],
      "name": "getFullWithdrawalRequest",
      "outputs": [
        {
          "internalType": "uint256",
          "name": "",
          "type": "uint256"
        }
      ],
      "stateMutability": "view",
      "type": "function"
    },
    {
      "inputs": [],
      "name": "orderRegistryAddress",
      "outputs": [
        {
          "internalType": "address",
          "name": "",
          "type": "address"
        }
      ],
      "stateMutability": "view",
      "type": "function"
    }
  ],
  "bytecode": {
    "object": "0x608060405234801561001057600080fd5b506103a5806100206000396000f3fe608060405234801561001057600080fd5b50600436106100a85760003560e01c8063993f363911610071578063993f3639146101175780639c6a28371461011f578063a45d784114610143578063b76631121461014b578063e30a5cff14610153578063e6de62821461015b576100a8565b8062717542146100ad578063296e2f37146100c75780635e586cd1146100ea5780635eecd2181461010757806377e84e0d1461010f575b600080fd5b6100b5610163565b60408051918252519081900360200190f35b6100b5600480360360408110156100dd57600080fd5b508035906020013561016a565b6100b56004803603602081101561010057600080fd5b5035610191565b6100b5610201565b6100b5610207565b6100b561020e565b610127610216565b604080516001600160a01b039092168252519081900360200190f35b6100b561022d565b6100b561023b565b6100b5610242565b6100b5610247565b62093a8081565b60006022600061017a858561024c565b815260200190815260200160002054905092915050565b60245460009082106101e2576040805162461bcd60e51b815260206004820152601560248201527408286a8929e9cbe929c888ab0bea89e9ebe90928e9605b1b604482015290519081900360640190fd5b602482815481106101ef57fe5b90600052602060002001549050919050565b60245490565b6202a30081565b6301e1338081565b68010000000000000004546001600160a01b031681565b680100000000000000035481565b6224ea0081565b600a81565b604081565b60006102a66040518060400160405280600f81526020016e1195531317d5d2551211149055d053608a1b815250848460405160200180838152602001828152602001925050506040516020818303038152906040526102ad565b9392505050565b600082826040516020018083805190602001908083835b602083106102e35780518252601f1990920191602091820191016102c4565b51815160209384036101000a600019018019909216911617905285519190930192850191508083835b6020831061032b5780518252601f19909201916020918201910161030c565b6001836020036101000a038019825116818451168082178552505050505050905001925050506040516020818303038152906040528051906020012090509291505056fea264697066735822122075c8ba5be6a1807930e65e05b7053389aff076d4165454b83402df1da921ceaf64736f6c634300060c0033",
    "linkReferences": {}
  },
  "methodIdentifiers": {
    "DEPOSIT_CANCEL_DELAY()": "77e84e0d",
    "FREEZE_GRACE_PERIOD()": "00717542",
    "MAX_FORCED_ACTIONS_REQS_PER_BLOCK()": "e30a5cff",
    "MAX_VERIFIER_COUNT()": "e6de6282",
    "UNFREEZE_DELAY()": "993f3639",
    "VERIFIER_REMOVAL_DELAY()": "b7663112",
    "defaultVaultWithdrawalLock()": "a45d7841",
    "getActionCount()": "5eecd218",
    "getActionHashByIndex(uint256)": "5e586cd1",
    "getFullWithdrawalRequest(uint256,uint256)": "296e2f37",
    "orderRegistryAddress()": "9c6a2837"
  },
  "id": 95
}