{
  "abi": [
    {
      "inputs": [],
      "name": "defaultVaultWithdrawalLock",
      "outputs": [
        {
          "internalType": "uint256",
          "name": "",
          "type": "uint256"
        }
      ],
      "stateMutability": "view",
      "type": "function"
    },
    {
      "inputs": [],
      "name": "orderRegistryAddress",
      "outputs": [
        {
          "internalType": "address",
          "name": "",
          "type": "address"
        }
      ],
      "stateMutability": "view",
      "type": "function"
    }
  ],
  "bytecode": {
    "object": "0x608060405234801561001057600080fd5b5060cc8061001f6000396000f3fe6080604052348015600f57600080fd5b506004361060325760003560e01c80639c6a2837146037578063a45d7841146059575b600080fd5b603d6071565b604080516001600160a01b039092168252519081900360200190f35b605f6088565b60408051918252519081900360200190f35b68010000000000000004546001600160a01b031681565b68010000000000000003548156fea2646970667358221220210303185df47053d4312d4a22365acf9197003a950ea693789a619d13ee706d64736f6c634300060c0033",
    "linkReferences": {}
  },
  "methodIdentifiers": {
    "defaultVaultWithdrawalLock()": "a45d7841",
    "orderRegistryAddress()": "9c6a2837"
  },
  "id": 91
}