{
  "abi": [
    {
      "inputs": [],
      "name": "DEPOSIT_CANCEL_DELAY",
      "outputs": [
        {
          "internalType": "uint256",
          "name": "",
          "type": "uint256"
        }
      ],
      "stateMutability": "view",
      "type": "function"
    },
    {
      "inputs": [],
      "name": "FREEZE_GRACE_PERIOD",
      "outputs": [
        {
          "internalType": "uint256",
          "name": "",
          "type": "uint256"
        }
      ],
      "stateMutability": "view",
      "type": "function"
    },
    {
      "inputs": [],
      "name": "MAX_FORCED_ACTIONS_REQS_PER_BLOCK",
      "outputs": [
        {
          "internalType": "uint256",
          "name": "",
          "type": "uint256"
        }
      ],
      "stateMutability": "view",
      "type": "function"
    },
    {
      "inputs": [],
      "name": "MAX_VERIFIER_COUNT",
      "outputs": [
        {
          "internalType": "uint256",
          "name": "",
          "type": "uint256"
        }
      ],
      "stateMutability": "view",
      "type": "function"
    },
    {
      "inputs": [],
      "name": "UNFREEZE_DELAY",
      "outputs": [
        {
          "internalType": "uint256",
          "name": "",
          "type": "uint256"
        }
      ],
      "stateMutability": "view",
      "type": "function"
    },
    {
      "inputs": [],
      "name": "VERIFIER_REMOVAL_DELAY",
      "outputs": [
        {
          "internalType": "uint256",
          "name": "",
          "type": "uint256"
        }
      ],
      "stateMutability": "view",
      "type": "function"
    },
    {
      "inputs": [],
      "name": "configurationDelay",
      "outputs": [
        {
          "internalType": "uint256",
          "name": "",
          "type": "uint256"
        }
      ],
      "stateMutability": "view",
      "type": "function"
    },
    {
      "inputs": [
        {
          "internalType": "uint256",
          "name": "",
          "type": "uint256"
        }
      ],
      "name": "configurationHash",
      "outputs": [
        {
          "internalType": "bytes32",
          "name": "",
          "type": "bytes32"
        }
      ],
      "stateMutability": "view",
      "type": "function"
    },
    {
      "inputs": [],
      "name": "getActionCount",
      "outputs": [
        {
          "internalType": "uint256",
          "name": "",
          "type": "uint256"
        }
      ],
      "stateMutability": "view",
      "type": "function"
    },
    {
      "inputs": [
        {
          "internalType": "uint256",
          "name": "actionIndex",
          "type": "uint256"
        }
      ],
      "name": "getActionHashByIndex",
      "outputs": [
        {
          "internalType": "bytes32",
          "name": "",
          "type": "bytes32"
        }
      ],
      "stateMutability": "view",
      "type": "function"
    },
    {
      "inputs": [
        {
          "internalType": "uint256",
          "name": "starkKeyA",
          "type": "uint256"
        },
        {
          "internalType": "uint256",
          "name": "starkKeyB",
          "type": "uint256"
        },
        {
          "internalType": "uint256",
          "name": "vaultIdA",
          "type": "uint256"
        },
        {
          "internalType": "uint256",
          "name": "vaultIdB",
          "type": "uint256"
        },
        {
          "internalType": "uint256",
          "name": "collateralAssetId",
          "type": "uint256"
        },
        {
          "internalType": "uint256",
          "name": "syntheticAssetId",
          "type": "uint256"
        },
        {
          "internalType": "uint256",
          "name": "amountCollateral",
          "type": "uint256"
        },
        {
          "internalType": "uint256",
          "name": "amountSynthetic",
          "type": "uint256"
        },
        {
          "internalType": "bool",
          "name": "aIsBuyingSynthetic",
          "type": "bool"
        },
        {
          "internalType": "uint256",
          "name": "nonce",
          "type": "uint256"
        }
      ],
      "name": "getForcedTradeRequest",
      "outputs": [
        {
          "internalType": "uint256",
          "name": "",
          "type": "uint256"
        }
      ],
      "stateMutability": "view",
      "type": "function"
    },
    {
      "inputs": [],
      "name": "globalConfigurationHash",
      "outputs": [
        {
          "internalType": "bytes32",
          "name": "",
          "type": "bytes32"
        }
      ],
      "stateMutability": "view",
      "type": "function"
    }
  ],
  "bytecode": {
    "object": "0x608060405234801561001057600080fd5b50610449806100206000396000f3fe608060405234801561001057600080fd5b50600436106100b35760003560e01c8063b766311211610071578063b76631121461010f578063c1a8513014610117578063e30a5cff1461011f578063e6de628214610127578063f00cec4b1461012f578063f2011f6614610187576100b3565b8062717542146100b85780635e586cd1146100d25780635eecd218146100ef57806377e84e0d146100f7578063993f3639146100ff578063adac3e1514610107575b600080fd5b6100c06101a4565b60408051918252519081900360200190f35b6100c0600480360360208110156100e857600080fd5b50356101ab565b6100c061021b565b6100c0610221565b6100c0610228565b6100c0610230565b6100c061023e565b6100c0610245565b6100c0610253565b6100c0610258565b6100c0600480360361014081101561014657600080fd5b5080359060208101359060408101359060608101359060808101359060a08101359060c08101359060e081013590610100810135151590610120013561025d565b6100c06004803603602081101561019d57600080fd5b5035610294565b62093a8081565b60245460009082106101fc576040805162461bcd60e51b815260206004820152601560248201527408286a8929e9cbe929c888ab0bea89e9ebe90928e9605b1b604482015290519081900360640190fd5b6024828154811061020957fe5b90600052602060002001549050919050565b60245490565b6202a30081565b6301e1338081565b680100000000000000015481565b6224ea0081565b680100000000000000045481565b600a81565b604081565b6000602260006102758d8d8d8d8d8d8d8d8d8d6102ae565b81526020019081526020016000205490509a9950505050505050505050565b680100000000000000026020526000908152604090205481565b604080518082018252600c81526b464f524345445f545241444560a01b60208083019190915282519081018d90528083018c9052606081018b9052608081018a905260a0810189905260c0810188905260e08101879052610100810186905284151560f81b610120820152610121808201859052835180830390910181526101419091019092526000916103429190610351565b9b9a5050505050505050505050565b600082826040516020018083805190602001908083835b602083106103875780518252601f199092019160209182019101610368565b51815160209384036101000a600019018019909216911617905285519190930192850191508083835b602083106103cf5780518252601f1990920191602091820191016103b0565b6001836020036101000a038019825116818451168082178552505050505050905001925050506040516020818303038152906040528051906020012090509291505056fea2646970667358221220f39ab05ed3483fa17b5ba0b6b54f440910103bdf0f14ca820e67728387f106ba64736f6c634300060c0033",
    "linkReferences": {}
  },
  "methodIdentifiers": {
    "DEPOSIT_CANCEL_DELAY()": "77e84e0d",
    "FREEZE_GRACE_PERIOD()": "00717542",
    "MAX_FORCED_ACTIONS_REQS_PER_BLOCK()": "e30a5cff",
    "MAX_VERIFIER_COUNT()": "e6de6282",
    "UNFREEZE_DELAY()": "993f3639",
    "VERIFIER_REMOVAL_DELAY()": "b7663112",
    "configurationDelay()": "c1a85130",
    "configurationHash(uint256)": "f2011f66",
    "getActionCount()": "5eecd218",
    "getActionHashByIndex(uint256)": "5e586cd1",
    "getForcedTradeRequest(uint256,uint256,uint256,uint256,uint256,uint256,uint256,uint256,bool,uint256)": "f00cec4b",
    "globalConfigurationHash()": "adac3e15"
  },
  "id": 75
}