{
  "abi": [
    {
      "anonymous": false,
      "inputs": [
        {
          "indexed": false,
          "internalType": "address",
          "name": "acceptedGovernor",
          "type": "address"
        }
      ],
      "name": "LogNewGovernorAccepted",
      "type": "event"
    },
    {
      "anonymous": false,
      "inputs": [
        {
          "indexed": false,
          "internalType": "address",
          "name": "nominatedGovernor",
          "type": "address"
        }
      ],
      "name": "LogNominatedGovernor",
      "type": "event"
    },
    {
      "anonymous": false,
      "inputs": [],
      "name": "LogNominationCancelled",
      "type": "event"
    },
    {
      "anonymous": false,
      "inputs": [
        {
          "indexed": false,
          "internalType": "address",
          "name": "removedGovernor",
          "type": "address"
        }
      ],
      "name": "LogRemovedGovernor",
      "type": "event"
    },
    {
      "inputs": [],
      "name": "MAIN_GOVERNANCE_INFO_TAG",
      "outputs": [
        {
          "internalType": "string",
          "name": "",
          "type": "string"
        }
      ],
      "stateMutability": "view",
      "type": "function"
    },
    {
      "inputs": [],
      "name": "mainAcceptGovernance",
      "outputs": [],
      "stateMutability": "nonpayable",
      "type": "function"
    },
    {
      "inputs": [],
      "name": "mainCancelNomination",
      "outputs": [],
      "stateMutability": "nonpayable",
      "type": "function"
    },
    {
      "inputs": [
        {
          "internalType": "address",
          "name": "testGovernor",
          "type": "address"
        }
      ],
      "name": "mainIsGovernor",
      "outputs": [
        {
          "internalType": "bool",
          "name": "",
          "type": "bool"
        }
      ],
      "stateMutability": "view",
      "type": "function"
    },
    {
      "inputs": [
        {
          "internalType": "address",
          "name": "newGovernor",
          "type": "address"
        }
      ],
      "name": "mainNominateNewGovernor",
      "outputs": [],
      "stateMutability": "nonpayable",
      "type": "function"
    },
    {
      "inputs": [
        {
          "internalType": "address",
          "name": "governorForRemoval",
          "type": "address"
        }
      ],
      "name": "mainRemoveGovernor",
      "outputs": [],
      "stateMutability": "nonpayable",
      "type": "function"
    }
  ],
  "bytecode": {
    "object": "0x608060405234801561001057600080fd5b50610706806100206000396000f3fe608060405234801561001057600080fd5b50600436106100625760003560e01c806328700a151461006757806345f5cd971461007157806372eb3688146100ab5780638c4bce1c146100b3578063a1cc921e146100d9578063c23b60ef146100ff575b600080fd5b61006f61017c565b005b6100976004803603602081101561008757600080fd5b50356001600160a01b0316610186565b604080519115158252519081900360200190f35b61006f610197565b61006f600480360360208110156100c957600080fd5b50356001600160a01b031661019f565b61006f600480360360208110156100ef57600080fd5b50356001600160a01b03166101ab565b6101076101b4565b6040805160208082528351818301528351919283929083019185019080838360005b83811015610141578181015183820152602001610129565b50505050905090810190601f16801561016e5780820380516001836020036101000a031916815260200191505b509250505060405180910390f35b6101846101d0565b565b60006101918261029d565b92915050565b6101846102cc565b6101a881610363565b50565b6101a881610460565b6040518060600160405280602681526020016106ab6026913981565b60006101da6105ad565b60018101549091506001600160a01b0316331461023e576040805162461bcd60e51b815260206004820152601760248201527f4f4e4c595f43414e4449444154455f474f5645524e4f52000000000000000000604482015290519081900360640190fd5b6001810154610255906001600160a01b031661062a565b6001810180546001600160a01b03191690556040805133815290517fcfb473e6c03f9a29ddaf990e736fa3de5188a0bd85d684f5b6e164ebfbfff5d29181900360200190a150565b6000806102a86105ad565b6001600160a01b039390931660009081526020939093525050604090205460ff1690565b6102d53361029d565b610318576040805162461bcd60e51b815260206004820152600f60248201526e4f4e4c595f474f5645524e414e434560881b604482015290519081900360640190fd5b60006103226105ad565b6001810180546001600160a01b03191690556040519091507f7a8dc7dd7fffb43c4807438fa62729225156941e641fd877938f4edade3429f590600090a150565b61036c3361029d565b6103af576040805162461bcd60e51b815260206004820152600f60248201526e4f4e4c595f474f5645524e414e434560881b604482015290519081900360640190fd5b60006103b96105ad565b90506103c48261029d565b15610409576040805162461bcd60e51b815260206004820152601060248201526f20a62922a0a22cafa3a7ab22a92727a960811b604482015290519081900360640190fd5b6001810180546001600160a01b0384166001600160a01b0319909116811790915560408051918252517f6166272c8d3f5f579082f2827532732f97195007983bb5b83ac12c56700b01a69181900360200190a15050565b6104693361029d565b6104ac576040805162461bcd60e51b815260206004820152600f60248201526e4f4e4c595f474f5645524e414e434560881b604482015290519081900360640190fd5b336001600160a01b0382161415610501576040805162461bcd60e51b8152602060048201526014602482015273474f5645524e4f525f53454c465f52454d4f564560601b604482015290519081900360640190fd5b600061050b6105ad565b90506105168261029d565b610556576040805162461bcd60e51b815260206004820152600c60248201526b2727aa2fa3a7ab22a92727a960a11b604482015290519081900360640190fd5b6001600160a01b03821660008181526020838152604091829020805460ff19169055815192835290517fd75f94825e770b8b512be8e74759e252ad00e102e38f50cce2f7c6f868a295999281900390910190a15050565b6000806040518060600160405280602681526020016106ab602691396040518082805190602001908083835b602083106105f85780518252601f1990920191602091820191016105d9565b51815160209384036101000a600019018019909216911617905292019485525060405193849003019092209392505050565b6106338161029d565b15610678576040805162461bcd60e51b815260206004820152601060248201526f20a62922a0a22cafa3a7ab22a92727a960811b604482015290519081900360640190fd5b60006106826105ad565b6001600160a01b0390921660009081526020929092525060409020805460ff1916600117905556fe537461726b45782e4d61696e2e323031392e476f7665726e6f7273496e666f726d6174696f6ea264697066735822122077c133735faeade879be9428739705ef832cbfe7fe8a12ec4c9bcffa39dd6ca164736f6c634300060c0033",
    "linkReferences": {}
  },
  "methodIdentifiers": {
    "MAIN_GOVERNANCE_INFO_TAG()": "c23b60ef",
    "mainAcceptGovernance()": "28700a15",
    "mainCancelNomination()": "72eb3688",
    "mainIsGovernor(address)": "45f5cd97",
    "mainNominateNewGovernor(address)": "8c4bce1c",
    "mainRemoveGovernor(address)": "a1cc921e"
  },
  "id": 15
}