{
  "abi": [
    {
      "inputs": [],
      "name": "UPGRADE_DELAY_SLOT",
      "outputs": [
        {
          "internalType": "bytes32",
          "name": "",
          "type": "bytes32"
        }
      ],
      "stateMutability": "view",
      "type": "function"
    }
  ],
  "bytecode": {
    "object": "0x6080604052348015600f57600080fd5b50609f8061001e6000396000f3fe6080604052348015600f57600080fd5b506004361060285760003560e01c806320cea94d14602d575b600080fd5b60336045565b60408051918252519081900360200190f35b7fc21dbb3089fcb2c4f4c6a67854ab4db2b0f233ea4b21b21f912d52d18fc5db1f8156fea26469706673582212205b8233f15776af2c1729f9b1be7b3debe1ba70b669029170485b47fc012fa21164736f6c634300060c0033",
    "linkReferences": {}
  },
  "methodIdentifiers": {
    "UPGRADE_DELAY_SLOT()": "20cea94d"
  },
  "id": 114
}