{
  "abi": [
    {
      "anonymous": false,
      "inputs": [
        {
          "indexed": false,
          "internalType": "uint256",
          "name": "assetId",
          "type": "uint256"
        },
        {
          "indexed": false,
          "internalType": "bytes32",
          "name": "configHash",
          "type": "bytes32"
        }
      ],
      "name": "LogAssetConfigurationApplied",
      "type": "event"
    },
    {
      "anonymous": false,
      "inputs": [
        {
          "indexed": false,
          "internalType": "bytes",
          "name": "data",
          "type": "bytes"
        }
      ],
      "name": "LogExternalInitialize",
      "type": "event"
    },
    {
      "anonymous": false,
      "inputs": [
        {
          "indexed": false,
          "internalType": "bytes32",
          "name": "configHash",
          "type": "bytes32"
        }
      ],
      "name": "LogGlobalConfigurationApplied",
      "type": "event"
    },
    {
      "inputs": [],
      "name": "DEPOSIT_CANCEL_DELAY",
      "outputs": [
        {
          "internalType": "uint256",
          "name": "",
          "type": "uint256"
        }
      ],
      "stateMutability": "view",
      "type": "function"
    },
    {
      "inputs": [],
      "name": "FREEZE_GRACE_PERIOD",
      "outputs": [
        {
          "internalType": "uint256",
          "name": "",
          "type": "uint256"
        }
      ],
      "stateMutability": "view",
      "type": "function"
    },
    {
      "inputs": [],
      "name": "MAX_FORCED_ACTIONS_REQS_PER_BLOCK",
      "outputs": [
        {
          "internalType": "uint256",
          "name": "",
          "type": "uint256"
        }
      ],
      "stateMutability": "view",
      "type": "function"
    },
    {
      "inputs": [],
      "name": "MAX_VERIFIER_COUNT",
      "outputs": [
        {
          "internalType": "uint256",
          "name": "",
          "type": "uint256"
        }
      ],
      "stateMutability": "view",
      "type": "function"
    },
    {
      "inputs": [],
      "name": "UNFREEZE_DELAY",
      "outputs": [
        {
          "internalType": "uint256",
          "name": "",
          "type": "uint256"
        }
      ],
      "stateMutability": "view",
      "type": "function"
    },
    {
      "inputs": [],
      "name": "VERIFIER_REMOVAL_DELAY",
      "outputs": [
        {
          "internalType": "uint256",
          "name": "",
          "type": "uint256"
        }
      ],
      "stateMutability": "view",
      "type": "function"
    },
    {
      "inputs": [],
      "name": "configurationDelay",
      "outputs": [
        {
          "internalType": "uint256",
          "name": "",
          "type": "uint256"
        }
      ],
      "stateMutability": "view",
      "type": "function"
    },
    {
      "inputs": [
        {
          "internalType": "uint256",
          "name": "",
          "type": "uint256"
        }
      ],
      "name": "configurationHash",
      "outputs": [
        {
          "internalType": "bytes32",
          "name": "",
          "type": "bytes32"
        }
      ],
      "stateMutability": "view",
      "type": "function"
    },
    {
      "inputs": [],
      "name": "globalConfigurationHash",
      "outputs": [
        {
          "internalType": "bytes32",
          "name": "",
          "type": "bytes32"
        }
      ],
      "stateMutability": "view",
      "type": "function"
    },
    {
      "inputs": [
        {
          "internalType": "bytes",
          "name": "data",
          "type": "bytes"
        }
      ],
      "name": "initialize",
      "outputs": [],
      "stateMutability": "nonpayable",
      "type": "function"
    }
  ],
  "bytecode": {
    "object": "0x608060405234801561001057600080fd5b50610487806100206000396000f3fe608060405234801561001057600080fd5b506004361061009d5760003560e01c8063b766311211610066578063b766311214610146578063c1a851301461014e578063e30a5cff14610156578063e6de62821461015e578063f2011f66146101665761009d565b8062717542146100a2578063439fab91146100bc57806377e84e0d1461012e578063993f363914610136578063adac3e151461013e575b600080fd5b6100aa610183565b60408051918252519081900360200190f35b61012c600480360360208110156100d257600080fd5b8101906020810181356401000000008111156100ed57600080fd5b8201836020820111156100ff57600080fd5b8035906020019184600183028401116401000000008311171561012157600080fd5b50909250905061018a565b005b6100aa6103da565b6100aa6103e1565b6100aa6103e9565b6100aa6103f7565b6100aa6103fe565b6100aa61040c565b6100aa610411565b6100aa6004803603602081101561017c57600080fd5b5035610416565b62093a8081565b60408106156101ca5760405162461bcd60e51b81526004018080602001828103825260218152602001806104316021913960400191505060405180910390fd5b604080516020601f840181900481028201810183528382526000199284049160609086868085840183828082843760009201829052509394505050505b83811015610371578183018051602090910151600167080000000000001160c01b018110610272576040805162461bcd60e51b81526020600482015260136024820152720929cac82989288be869e9c8c928ebe9082a69606b1b604482015290519081900360640190fd5b868214156102bf57680100000000000000018190556040805182815290517f215e2cbb35cc7dd3f085fdb4ede08d32f4619001c73f5b10419389e7949c28ba9181900360200190a1610360565b600160781b821061030a576040805162461bcd60e51b815260206004820152601060248201526f1253959053125117d054d4d15517d25160821b604482015290519081900360640190fd5b6000828152680100000000000000026020908152604091829020839055815184815290810183905281517f617a24590fcf7d5a2650aa9c10572915cb4bf853b1ef135cc1918460946a7a2f929181900390910190a15b505060409290920191600101610207565b507fcd1400d214c673d845a60be61e4392df27be94360484e7da79f75c0222550615868660405180806020018281038252848482818152602001925080828437600083820152604051601f909101601f19169092018290039550909350505050a1505050505050565b6202a30081565b6301e1338081565b680100000000000000015481565b6224ea0081565b680100000000000000045481565b600a81565b604081565b68010000000000000002602052600090815260409020548156fe4e4f545f574f5244535f50414952535f444154415f4c454e4754485f4552524f52a2646970667358221220d2a2f03ce1e2d7bf708456ff4712587579464b311bfa5631f90abb8cd78c896064736f6c634300060c0033",
    "linkReferences": {}
  },
  "methodIdentifiers": {
    "DEPOSIT_CANCEL_DELAY()": "77e84e0d",
    "FREEZE_GRACE_PERIOD()": "00717542",
    "MAX_FORCED_ACTIONS_REQS_PER_BLOCK()": "e30a5cff",
    "MAX_VERIFIER_COUNT()": "e6de6282",
    "UNFREEZE_DELAY()": "993f3639",
    "VERIFIER_REMOVAL_DELAY()": "b7663112",
    "configurationDelay()": "c1a85130",
    "configurationHash(uint256)": "f2011f66",
    "globalConfigurationHash()": "adac3e15",
    "initialize(bytes)": "439fab91"
  },
  "id": 120
}