{
  "abi": [
    {
      "stateMutability": "payable",
      "type": "fallback"
    },
    {
      "inputs": [],
      "name": "VERSION",
      "outputs": [
        {
          "internalType": "string",
          "name": "",
          "type": "string"
        }
      ],
      "stateMutability": "view",
      "type": "function"
    },
    {
      "inputs": [],
      "name": "configurationDelay",
      "outputs": [
        {
          "internalType": "uint256",
          "name": "",
          "type": "uint256"
        }
      ],
      "stateMutability": "view",
      "type": "function"
    },
    {
      "inputs": [
        {
          "internalType": "uint256",
          "name": "",
          "type": "uint256"
        }
      ],
      "name": "configurationHash",
      "outputs": [
        {
          "internalType": "bytes32",
          "name": "",
          "type": "bytes32"
        }
      ],
      "stateMutability": "view",
      "type": "function"
    },
    {
      "inputs": [
        {
          "internalType": "bytes4",
          "name": "selector",
          "type": "bytes4"
        }
      ],
      "name": "getSubContract",
      "outputs": [
        {
          "internalType": "address",
          "name": "",
          "type": "address"
        }
      ],
      "stateMutability": "view",
      "type": "function"
    },
    {
      "inputs": [],
      "name": "globalConfigurationHash",
      "outputs": [
        {
          "internalType": "bytes32",
          "name": "",
          "type": "bytes32"
        }
      ],
      "stateMutability": "view",
      "type": "function"
    },
    {
      "inputs": [
        {
          "internalType": "bytes4",
          "name": "selector",
          "type": "bytes4"
        }
      ],
      "name": "handlingContractId",
      "outputs": [
        {
          "internalType": "string",
          "name": "id",
          "type": "string"
        }
      ],
      "stateMutability": "pure",
      "type": "function"
    },
    {
      "inputs": [
        {
          "internalType": "bytes",
          "name": "data",
          "type": "bytes"
        }
      ],
      "name": "initialize",
      "outputs": [],
      "stateMutability": "nonpayable",
      "type": "function"
    },
    {
      "stateMutability": "payable",
      "type": "receive"
    }
  ],
  "bytecode": {
    "object": "0x60a060405234801561001057600080fd5b5030606081901b6080526115176100316000398061038452506115176000f3fe6080604052600436106100745760003560e01c8063c1a851301161004e578063c1a8513014610254578063d4e878e814610269578063f2011f6614610312578063ffa1ad741461033c576100c6565b80632f9014b41461015e578063439fab91146101ae578063adac3e151461022d576100c6565b366100c6576040805162461bcd60e51b815260206004820181905260248201527f434f4e54524143545f4e4f545f45585045435445445f544f5f52454345495645604482015290519081900360640190fd5b60006100dd6000356001600160e01b031916610351565b90506001600160a01b03811661013a576040805162461bcd60e51b815260206004820152601860248201527f4e4f5f434f4e54524143545f464f525f46554e4354494f4e0000000000000000604482015290519081900360640190fd5b3660008037600080366000845af43d6000803e808015610159573d6000f35b3d6000fd5b34801561016a57600080fd5b506101926004803603602081101561018157600080fd5b50356001600160e01b031916610351565b604080516001600160a01b039092168252519081900360200190f35b3480156101ba57600080fd5b5061022b600480360360208110156101d157600080fd5b8101906020810181356401000000008111156101ec57600080fd5b8201836020820111156101fe57600080fd5b8035906020019184600183028401116401000000008311171561022057600080fd5b509092509050610382565b005b34801561023957600080fd5b506102426109d3565b60408051918252519081900360200190f35b34801561026057600080fd5b506102426109e1565b34801561027557600080fd5b5061029d6004803603602081101561028c57600080fd5b50356001600160e01b0319166109ef565b6040805160208082528351818301528351919283929083019185019080838360005b838110156102d75781810151838201526020016102bf565b50505050905090810190601f1680156103045780820380516001836020036101000a031916815260200191505b509250505060405180910390f35b34801561031e57600080fd5b506102426004803603602081101561033557600080fd5b5035610a0e565b34801561034857600080fd5b5061029d610a28565b6000601e600061036084610a49565b81526020810191909152604001600020546001600160a01b031690505b919050565b7f00000000000000000000000000000000000000000000000000000000000000006001600160a01b03163014156103f9576040805162461bcd60e51b81526020600482015260166024820152751112549150d517d0d0531317d11254d0531313d5d15160521b604482015290519081900360640190fd5b6000610403610ac2565b9050600f811115610454576040805162461bcd60e51b8152602060048201526016602482015275544f4f5f4d414e595f5355425f434f4e54524143545360501b604482015290519081900360640190fd5b600060206001830102808410156104b2576040805162461bcd60e51b815260206004820152601a60248201527f5355425f434f4e5452414354535f4e4f545f50524f5649444544000000000000604482015290519081900360640190fd5b80840360015b84811161050f5760006104d7602080840290600019850102898b611444565b60208110156104e557600080fd5b50356001600160a01b031690506104fc8282610ac7565b6105068282610ea7565b506001016104b8565b50600061052283601f198101888a611444565b602081101561053057600080fd5b50356001600160a01b03169050801561056257610558816105538886818c611444565b610ed5565b50505050506109cf565b816105715750505050506109cf565b6001600160a01b0381161561058257fe5b61058a6110e3565b60015b8581116109745760006105ac6020808402906000198501028a8c611444565b60208110156105ba57600080fd5b506040805160048152602481018252602081018051633cc660ad60e01b6001600160e01b039091161781529151815193356001600160a01b03169450600093606093869392918291908083835b602083106106265780518252601f199092019160209182019101610607565b6001836020036101000a038019825116818451168082178552505050505050905001915050600060405180830381855af49150503d8060008114610686576040519150601f19603f3d011682016040523d82523d6000602084013e61068b565b606091505b509150915081819061071b5760405162461bcd60e51b81526004018080602001828103825283818151815260200191508051906020019080838360005b838110156106e05781810151838201526020016106c8565b50505050905090810190601f16801561070d5780820380516001836020036101000a031916815260200191505b509250505060405180910390fd5b50600081806020019051602081101561073357600080fd5b5051905086811115610787576040805162461bcd60e51b8152602060048201526018602482015277494e56414c49445f494e495449414c495a45525f53495a4560401b604482015290519081900360640190fd5b86818a0111156107d9576040805162461bcd60e51b8152602060048201526018602482015277494e56414c49445f494e495449414c495a45525f53495a4560401b604482015290519081900360640190fd5b806107e7575050505061096c565b836001600160a01b031663439fab9160e01b8d8d8b90858d019261080d93929190611444565b6040516020602482019081526044820183905290819060640184848082843760008382015260408051601f909201601f1990811690940182810390940182529283526020810180516001600160e01b03166001600160e01b0319909916989098178852915182519297909650869550935090915081905083835b602083106108a65780518252601f199092019160209182019101610887565b6001836020036101000a038019825116818451168082178552505050505050905001915050600060405180830381855af49150503d8060008114610906576040519150601f19603f3d011682016040523d82523d6000602084013e61090b565b606091505b509093509150818361095e5760405162461bcd60e51b81526020600482018181528351602484015283519092839260449091019190850190808383600083156106e05781810151838201526020016106c8565b509788019796909601955050505b60010161058d565b508382146109c9576040805162461bcd60e51b815260206004820152601a60248201527f4d49534d41544348494e475f494e49545f444154415f53495a45000000000000604482015290519081900360640190fd5b50505050505b5050565b680100000000000000015481565b680100000000000000045481565b606060006109fc83610a49565b9050610a078161121d565b9392505050565b680100000000000000026020526000908152604090205481565b604051806040016040528060058152602001640322e302e360dc1b81525081565b60008082610a55611337565b60405160200180836001600160e01b0319168152600401828152602001925050506040516020818303038152906040528051906020012060001c60ff16905060006101008260040281610aa457fe5b06905080610ab5600684901c61133e565b600f911c16949350505050565b600490565b6060816001600160a01b031663eeb728666040518163ffffffff1660e01b815260040160006040518083038186803b158015610b0257600080fd5b505afa158015610b16573d6000803e3d6000fd5b505050506040513d6000823e601f3d908101601f191682016040526020811015610b3f57600080fd5b8101908080516040519392919084640100000000821115610b5f57600080fd5b908301906020820185811115610b7457600080fd5b8251640100000000811182820188101715610b8e57600080fd5b82525081516020918201929091019080838360005b83811015610bbb578181015183820152602001610ba3565b50505050905090810190601f168015610be85780820380516001836020036101000a031916815260200191505b5060405250505090506000610bfc8461121d565b6040516020018082805190602001908083835b60208310610c2e5780518252601f199092019160209182019101610c0f565b6001836020036101000a038019825116818451168082178552505050505050905001915050604051602081830303815290604052805190602001209050816040516020018082805190602001908083835b60208310610c9e5780518252601f199092019160209182019101610c7f565b6001836020036101000a038019825116818451168082178552505050505050905001915050604051602081830303815290604052805190602001208114610d165760405162461bcd60e51b81526004018080602001828103825260228152602001806114996022913960400191505060405180910390fd5b6060836001600160a01b0316630ebdac036040518163ffffffff1660e01b815260040160006040518083038186803b158015610d5157600080fd5b505afa158015610d65573d6000803e3d6000fd5b505050506040513d6000823e601f3d908101601f191682016040526020811015610d8e57600080fd5b8101908080516040519392919084640100000000821115610dae57600080fd5b908301906020820185811115610dc357600080fd5b8251866020820283011164010000000082111715610de057600080fd5b82525081516020918201928201910280838360005b83811015610e0d578181015183820152602001610df5565b50505050905001604052505050905060005b8151811015610e9f5785610e45838381518110610e3857fe5b6020026020010151610a49565b14610e97576040805162461bcd60e51b815260206004820152601b60248201527f494e434f4e53495354454e545f444953504154434845525f4d41500000000000604482015290519081900360640190fd5b600101610e1f565b505050505050565b6000918252601e602052604090912080546001600160a01b0319166001600160a01b03909216919091179055565b610ee7836001600160a01b031661143e565b610f29576040805162461bcd60e51b815260206004820152600e60248201526d1393d517d057d0d3d395149050d560921b604482015290519081900360640190fd5b60006060846001600160a01b031663439fab9160e01b85856040516024018080602001828103825284848281815260200192508082843760008382015260408051601f909201601f1990811690940182810390940182529283526020810180516001600160e01b03166001600160e01b0319909916989098178852915182519297909650869550935090915081905083835b60208310610fda5780518252601f199092019160209182019101610fbb565b6001836020036101000a038019825116818451168082178552505050505050905001915050600060405180830381855af49150503d806000811461103a576040519150601f19603f3d011682016040523d82523d6000602084013e61103f565b606091505b50915091508181906110925760405162461bcd60e51b81526020600482018181528351602484015283519092839260449091019190850190808383600083156106e05781810151838201526020016106c8565b508051819015610e9f5760405162461bcd60e51b81526020600482018181528351602484015283519092839260449091019190850190808383600083156106e05781810151838201526020016106c8565b60408051808201909152601681527512539255125053125690551253d397d09313d0d2d15160521b602082015268010000000000000003548190156111695760405162461bcd60e51b81526020600482018181528351602484015283519092839260449091019190850190808383600083156106e05781810151838201526020016106c8565b5068010000000000000001548190156111c35760405162461bcd60e51b81526020600482018181528351602484015283519092839260449091019190850190808383600083156106e05781810151838201526020016106c8565b5068010000000000000000548190156109cf5760405162461bcd60e51b81526020600482018181528351602484015283519092839260449091019190850190808383600083156106e05781810151838201526020016106c8565b60608160011415611262575060408051808201909152601d81527f537461726b576172655f416c6c5665726966696572735f323032325f32000000602082015261037d565b816002141561128b576040518060600160405280602c815260200161146d602c9139905061037d565b81600314156112ce575060408051808201909152601f81527f537461726b576172655f50657270657475616c53746174655f323032325f3200602082015261037d565b81600414156112f7576040518060600160405280602781526020016114bb60279139905061037d565b6040805162461bcd60e51b815260206004820152601060248201526f0aa9c8ab0a08a86a88a88be929c888ab60831b604482015290519081900360640190fd5b6205556c90565b60008161136c57507f212410000000020202204000200000002002201001110000200300000100000061037d565b816001141561139b57507e1000320301002000200220003033000010002030000200100303000010020261037d565b81600214156113cb57507f320000200031000004002200001000000010001343020203310030020000030261037d565b81600314156113fb57507f110310301022000010200000040032003103010002300000400030200000000061037d565b6040805162461bcd60e51b81526020600482015260136024820152722120a22fa4a22c2fa6a0a82fa9a2a1aa24a7a760691b604482015290519081900360640190fd5b3b151590565b60008085851115611453578182fd5b8386111561145f578182fd5b505082019391909203915056fe537461726b576172655f50657270657475616c546f6b656e73416e6452616d70696e6756325f323032325f324d4953504c414345445f494e4445585f4f525f4241445f434f4e54524143545f4944537461726b576172655f50657270657475616c466f72636564416374696f6e735f323032325f32a2646970667358221220728979787e41c8b0c556970ca3b13831a6095316a11cd15919a751e825c9eacc64736f6c634300060c0033",
    "linkReferences": {}
  },
  "methodIdentifiers": {
    "VERSION()": "ffa1ad74",
    "configurationDelay()": "c1a85130",
    "configurationHash(uint256)": "f2011f66",
    "getSubContract(bytes4)": "2f9014b4",
    "globalConfigurationHash()": "adac3e15",
    "handlingContractId(bytes4)": "d4e878e8",
    "initialize(bytes)": "439fab91"
  },
  "id": 68
}