{
  "abi": [
    {
      "anonymous": false,
      "inputs": [
        {
          "indexed": false,
          "internalType": "bytes",
          "name": "data",
          "type": "bytes"
        }
      ],
      "name": "LogExternalInitialize",
      "type": "event"
    },
    {
      "inputs": [],
      "name": "DEPOSIT_CANCEL_DELAY",
      "outputs": [
        {
          "internalType": "uint256",
          "name": "",
          "type": "uint256"
        }
      ],
      "stateMutability": "view",
      "type": "function"
    },
    {
      "inputs": [],
      "name": "FREEZE_GRACE_PERIOD",
      "outputs": [
        {
          "internalType": "uint256",
          "name": "",
          "type": "uint256"
        }
      ],
      "stateMutability": "view",
      "type": "function"
    },
    {
      "inputs": [],
      "name": "MAX_FORCED_ACTIONS_REQS_PER_BLOCK",
      "outputs": [
        {
          "internalType": "uint256",
          "name": "",
          "type": "uint256"
        }
      ],
      "stateMutability": "view",
      "type": "function"
    },
    {
      "inputs": [],
      "name": "MAX_VERIFIER_COUNT",
      "outputs": [
        {
          "internalType": "uint256",
          "name": "",
          "type": "uint256"
        }
      ],
      "stateMutability": "view",
      "type": "function"
    },
    {
      "inputs": [],
      "name": "UNFREEZE_DELAY",
      "outputs": [
        {
          "internalType": "uint256",
          "name": "",
          "type": "uint256"
        }
      ],
      "stateMutability": "view",
      "type": "function"
    },
    {
      "inputs": [],
      "name": "VERIFIER_REMOVAL_DELAY",
      "outputs": [
        {
          "internalType": "uint256",
          "name": "",
          "type": "uint256"
        }
      ],
      "stateMutability": "view",
      "type": "function"
    },
    {
      "inputs": [
        {
          "internalType": "bytes",
          "name": "data",
          "type": "bytes"
        }
      ],
      "name": "initialize",
      "outputs": [],
      "stateMutability": "nonpayable",
      "type": "function"
    }
  ],
  "bytecode": {
    "object": "0x608060405234801561001057600080fd5b50610683806100206000396000f3fe608060405234801561001057600080fd5b506004361061007c5760003560e01c8063993f36391161005b578063993f363914610115578063b76631121461011d578063e30a5cff14610125578063e6de62821461012d5761007c565b806271754214610081578063439fab911461009b57806377e84e0d1461010d575b600080fd5b610089610135565b60408051918252519081900360200190f35b61010b600480360360208110156100b157600080fd5b8101906020810181356401000000008111156100cc57600080fd5b8201836020820111156100de57600080fd5b8035906020019184600183028401116401000000008311171561010057600080fd5b50909250905061013c565b005b61008961025e565b610089610265565b61008961026d565b610089610274565b610089610279565b62093a8081565b60808114610188576040805162461bcd60e51b8152602060048201526014602482015273554e45585045435445445f444154415f53495a4560601b604482015290519081900360640190fd5b6000806000808585608081101561019e57600080fd5b506001600160a01b038135811695506020820135945060408201351692506060013590506101ce60196000610613565b6101da601b6000610613565b6101e860198560408661027e565b6101f6601b8360408461027e565b7fcd1400d214c673d845a60be61e4392df27be94360484e7da79f75c0222550615868660405180806020018281038252848482818152602001925080828437600083820152604051601f909101601f19169092018290039550909350505050a1505050505050565b6202a30081565b6301e1338081565b6224ea0081565b600a81565b604081565b836102916001600160a01b0385166105ae565b6102d9576040805162461bcd60e51b8152602060048201526014602482015273105111149154d4d7d393d517d0d3d395149050d560621b604482015290519081900360640190fd5b6000846001600160a01b031663eeb728666040518163ffffffff1660e01b815260040160006040518083038186803b15801561031457600080fd5b505afa158015610328573d6000803e3d6000fd5b505050506040513d6000823e601f3d908101601f19168201604052602081101561035157600080fd5b810190808051604051939291908464010000000082111561037157600080fd5b90830190602082018581111561038657600080fd5b82516401000000008111828201881017156103a057600080fd5b82525081516020918201929091019080838360005b838110156103cd5781810151838201526020016103b5565b50505050905090810190601f1680156103fa5780820380516001836020036101000a031916815260200191505b506040525050506040516020018082805190602001908083835b602083106104335780518252601f199092019160209182019101610414565b6001836020036101000a0380198251168184511680821785525050505050509050019150506040516020818303038152906040528051906020012090508281146104c4576040805162461bcd60e51b815260206004820152601e60248201527f554e45585045435445445f434f4e54524143545f4944454e5449464945520000604482015290519081900360640190fd5b81548411610511576040805162461bcd60e51b8152602060048201526015602482015274434841494e5f41545f4d41585f434150414349545960581b604482015290519081900360640190fd5b60001961051e83876105b4565b14610567576040805162461bcd60e51b8152602060048201526014602482015273454e5452595f414c52454144595f45584953545360601b604482015290519081900360640190fd5b50508354600181810186556000868152602080822090930180546001600160a01b039097166001600160a01b03199097168717905594855290940190935250604081205550565b3b151590565b8154600090815b8181101561060557836001600160a01b03168582815481106105d957fe5b6000918252602090912001546001600160a01b031614156105fd57915061060d9050565b6001016105bb565b506000199150505b92915050565b50805460008255906000526020600020908101906106319190610634565b50565b5b808211156106495760008155600101610635565b509056fea264697066735822122042b3c6e5eefd6f29669c875ab5bb406b72bf2fe6a917f13408563ac4835842e864736f6c634300060c0033",
    "linkReferences": {}
  },
  "methodIdentifiers": {
    "DEPOSIT_CANCEL_DELAY()": "77e84e0d",
    "FREEZE_GRACE_PERIOD()": "00717542",
    "MAX_FORCED_ACTIONS_REQS_PER_BLOCK()": "e30a5cff",
    "MAX_VERIFIER_COUNT()": "e6de6282",
    "UNFREEZE_DELAY()": "993f3639",
    "VERIFIER_REMOVAL_DELAY()": "b7663112",
    "initialize(bytes)": "439fab91"
  },
  "id": 115
}