{
  "abi": [
    {
      "anonymous": false,
      "inputs": [
        {
          "indexed": false,
          "internalType": "uint256",
          "name": "assetId",
          "type": "uint256"
        },
        {
          "indexed": false,
          "internalType": "bytes32",
          "name": "configHash",
          "type": "bytes32"
        }
      ],
      "name": "LogAssetConfigurationApplied",
      "type": "event"
    },
    {
      "anonymous": false,
      "inputs": [
        {
          "indexed": false,
          "internalType": "uint256",
          "name": "assetId",
          "type": "uint256"
        },
        {
          "indexed": false,
          "internalType": "bytes32",
          "name": "configHash",
          "type": "bytes32"
        }
      ],
      "name": "LogAssetConfigurationRegistered",
      "type": "event"
    },
    {
      "anonymous": false,
      "inputs": [
        {
          "indexed": false,
          "internalType": "uint256",
          "name": "assetId",
          "type": "uint256"
        },
        {
          "indexed": false,
          "internalType": "bytes32",
          "name": "configHash",
          "type": "bytes32"
        }
      ],
      "name": "LogAssetConfigurationRemoved",
      "type": "event"
    },
    {
      "anonymous": false,
      "inputs": [
        {
          "indexed": false,
          "internalType": "uint256",
          "name": "ownerKey",
          "type": "uint256"
        },
        {
          "indexed": false,
          "internalType": "uint256",
          "name": "assetId",
          "type": "uint256"
        },
        {
          "indexed": false,
          "internalType": "uint256",
          "name": "quantizedAmount",
          "type": "uint256"
        }
      ],
      "name": "LogAssetWithdrawalAllowed",
      "type": "event"
    },
    {
      "anonymous": false,
      "inputs": [],
      "name": "LogFrozen",
      "type": "event"
    },
    {
      "anonymous": false,
      "inputs": [
        {
          "indexed": false,
          "internalType": "bytes32",
          "name": "configHash",
          "type": "bytes32"
        }
      ],
      "name": "LogGlobalConfigurationApplied",
      "type": "event"
    },
    {
      "anonymous": false,
      "inputs": [
        {
          "indexed": false,
          "internalType": "bytes32",
          "name": "configHash",
          "type": "bytes32"
        }
      ],
      "name": "LogGlobalConfigurationRegistered",
      "type": "event"
    },
    {
      "anonymous": false,
      "inputs": [
        {
          "indexed": false,
          "internalType": "bytes32",
          "name": "configHash",
          "type": "bytes32"
        }
      ],
      "name": "LogGlobalConfigurationRemoved",
      "type": "event"
    },
    {
      "anonymous": false,
      "inputs": [
        {
          "indexed": false,
          "internalType": "uint256",
          "name": "ownerKey",
          "type": "uint256"
        },
        {
          "indexed": false,
          "internalType": "uint256",
          "name": "assetId",
          "type": "uint256"
        },
        {
          "indexed": false,
          "internalType": "uint256",
          "name": "quantizedAmount",
          "type": "uint256"
        }
      ],
      "name": "LogMintableWithdrawalAllowed",
      "type": "event"
    },
    {
      "anonymous": false,
      "inputs": [
        {
          "indexed": false,
          "internalType": "address",
          "name": "acceptedGovernor",
          "type": "address"
        }
      ],
      "name": "LogNewGovernorAccepted",
      "type": "event"
    },
    {
      "anonymous": false,
      "inputs": [
        {
          "indexed": false,
          "internalType": "uint256",
          "name": "ownerKey",
          "type": "uint256"
        },
        {
          "indexed": false,
          "internalType": "uint256",
          "name": "assetId",
          "type": "uint256"
        }
      ],
      "name": "LogNftWithdrawalAllowed",
      "type": "event"
    },
    {
      "anonymous": false,
      "inputs": [
        {
          "indexed": false,
          "internalType": "address",
          "name": "nominatedGovernor",
          "type": "address"
        }
      ],
      "name": "LogNominatedGovernor",
      "type": "event"
    },
    {
      "anonymous": false,
      "inputs": [],
      "name": "LogNominationCancelled",
      "type": "event"
    },
    {
      "anonymous": false,
      "inputs": [
        {
          "indexed": false,
          "internalType": "address",
          "name": "operator",
          "type": "address"
        }
      ],
      "name": "LogOperatorAdded",
      "type": "event"
    },
    {
      "anonymous": false,
      "inputs": [
        {
          "indexed": false,
          "internalType": "address",
          "name": "operator",
          "type": "address"
        }
      ],
      "name": "LogOperatorRemoved",
      "type": "event"
    },
    {
      "anonymous": false,
      "inputs": [
        {
          "indexed": false,
          "internalType": "address",
          "name": "removedGovernor",
          "type": "address"
        }
      ],
      "name": "LogRemovedGovernor",
      "type": "event"
    },
    {
      "anonymous": false,
      "inputs": [
        {
          "indexed": false,
          "internalType": "bytes32",
          "name": "stateTransitionFact",
          "type": "bytes32"
        }
      ],
      "name": "LogStateTransitionFact",
      "type": "event"
    },
    {
      "anonymous": false,
      "inputs": [],
      "name": "LogUnFrozen",
      "type": "event"
    },
    {
      "anonymous": false,
      "inputs": [
        {
          "indexed": false,
          "internalType": "uint256",
          "name": "sequenceNumber",
          "type": "uint256"
        },
        {
          "indexed": false,
          "internalType": "uint256",
          "name": "batchId",
          "type": "uint256"
        }
      ],
      "name": "LogUpdateState",
      "type": "event"
    },
    {
      "anonymous": false,
      "inputs": [
        {
          "indexed": false,
          "internalType": "uint256",
          "name": "ownerKey",
          "type": "uint256"
        },
        {
          "indexed": false,
          "internalType": "uint256",
          "name": "assetType",
          "type": "uint256"
        },
        {
          "indexed": false,
          "internalType": "uint256",
          "name": "nonQuantizedAmount",
          "type": "uint256"
        },
        {
          "indexed": false,
          "internalType": "uint256",
          "name": "quantizedAmount",
          "type": "uint256"
        }
      ],
      "name": "LogWithdrawalAllowed",
      "type": "event"
    },
    {
      "inputs": [],
      "name": "DEPOSIT_CANCEL_DELAY",
      "outputs": [
        {
          "internalType": "uint256",
          "name": "",
          "type": "uint256"
        }
      ],
      "stateMutability": "view",
      "type": "function"
    },
    {
      "inputs": [],
      "name": "FREEZE_GRACE_PERIOD",
      "outputs": [
        {
          "internalType": "uint256",
          "name": "",
          "type": "uint256"
        }
      ],
      "stateMutability": "view",
      "type": "function"
    },
    {
      "inputs": [],
      "name": "MAIN_GOVERNANCE_INFO_TAG",
      "outputs": [
        {
          "internalType": "string",
          "name": "",
          "type": "string"
        }
      ],
      "stateMutability": "view",
      "type": "function"
    },
    {
      "inputs": [],
      "name": "MAX_FORCED_ACTIONS_REQS_PER_BLOCK",
      "outputs": [
        {
          "internalType": "uint256",
          "name": "",
          "type": "uint256"
        }
      ],
      "stateMutability": "view",
      "type": "function"
    },
    {
      "inputs": [],
      "name": "MAX_VERIFIER_COUNT",
      "outputs": [
        {
          "internalType": "uint256",
          "name": "",
          "type": "uint256"
        }
      ],
      "stateMutability": "view",
      "type": "function"
    },
    {
      "inputs": [],
      "name": "UNFREEZE_DELAY",
      "outputs": [
        {
          "internalType": "uint256",
          "name": "",
          "type": "uint256"
        }
      ],
      "stateMutability": "view",
      "type": "function"
    },
    {
      "inputs": [],
      "name": "VERIFIER_REMOVAL_DELAY",
      "outputs": [
        {
          "internalType": "uint256",
          "name": "",
          "type": "uint256"
        }
      ],
      "stateMutability": "view",
      "type": "function"
    },
    {
      "inputs": [
        {
          "internalType": "uint256",
          "name": "assetId",
          "type": "uint256"
        },
        {
          "internalType": "bytes32",
          "name": "configHash",
          "type": "bytes32"
        }
      ],
      "name": "applyAssetConfigurationChange",
      "outputs": [],
      "stateMutability": "nonpayable",
      "type": "function"
    },
    {
      "inputs": [
        {
          "internalType": "bytes32",
          "name": "configHash",
          "type": "bytes32"
        }
      ],
      "name": "applyGlobalConfigurationChange",
      "outputs": [],
      "stateMutability": "nonpayable",
      "type": "function"
    },
    {
      "inputs": [],
      "name": "configurationDelay",
      "outputs": [
        {
          "internalType": "uint256",
          "name": "",
          "type": "uint256"
        }
      ],
      "stateMutability": "view",
      "type": "function"
    },
    {
      "inputs": [
        {
          "internalType": "uint256",
          "name": "",
          "type": "uint256"
        }
      ],
      "name": "configurationHash",
      "outputs": [
        {
          "internalType": "bytes32",
          "name": "",
          "type": "bytes32"
        }
      ],
      "stateMutability": "view",
      "type": "function"
    },
    {
      "inputs": [
        {
          "internalType": "uint256",
          "name": "starkKey",
          "type": "uint256"
        },
        {
          "internalType": "uint256",
          "name": "vaultId",
          "type": "uint256"
        },
        {
          "internalType": "uint256",
          "name": "quantizedAmount",
          "type": "uint256"
        }
      ],
      "name": "escape",
      "outputs": [],
      "stateMutability": "nonpayable",
      "type": "function"
    },
    {
      "inputs": [],
      "name": "getActionCount",
      "outputs": [
        {
          "internalType": "uint256",
          "name": "",
          "type": "uint256"
        }
      ],
      "stateMutability": "view",
      "type": "function"
    },
    {
      "inputs": [
        {
          "internalType": "uint256",
          "name": "actionIndex",
          "type": "uint256"
        }
      ],
      "name": "getActionHashByIndex",
      "outputs": [
        {
          "internalType": "bytes32",
          "name": "",
          "type": "bytes32"
        }
      ],
      "stateMutability": "view",
      "type": "function"
    },
    {
      "inputs": [
        {
          "internalType": "uint256",
          "name": "starkKeyA",
          "type": "uint256"
        },
        {
          "internalType": "uint256",
          "name": "starkKeyB",
          "type": "uint256"
        },
        {
          "internalType": "uint256",
          "name": "vaultIdA",
          "type": "uint256"
        },
        {
          "internalType": "uint256",
          "name": "vaultIdB",
          "type": "uint256"
        },
        {
          "internalType": "uint256",
          "name": "collateralAssetId",
          "type": "uint256"
        },
        {
          "internalType": "uint256",
          "name": "syntheticAssetId",
          "type": "uint256"
        },
        {
          "internalType": "uint256",
          "name": "amountCollateral",
          "type": "uint256"
        },
        {
          "internalType": "uint256",
          "name": "amountSynthetic",
          "type": "uint256"
        },
        {
          "internalType": "bool",
          "name": "aIsBuyingSynthetic",
          "type": "bool"
        },
        {
          "internalType": "uint256",
          "name": "nonce",
          "type": "uint256"
        }
      ],
      "name": "getForcedTradeRequest",
      "outputs": [
        {
          "internalType": "uint256",
          "name": "",
          "type": "uint256"
        }
      ],
      "stateMutability": "view",
      "type": "function"
    },
    {
      "inputs": [
        {
          "internalType": "uint256",
          "name": "starkKey",
          "type": "uint256"
        },
        {
          "internalType": "uint256",
          "name": "vaultId",
          "type": "uint256"
        },
        {
          "internalType": "uint256",
          "name": "quantizedAmount",
          "type": "uint256"
        }
      ],
      "name": "getForcedWithdrawalRequest",
      "outputs": [
        {
          "internalType": "uint256",
          "name": "",
          "type": "uint256"
        }
      ],
      "stateMutability": "view",
      "type": "function"
    },
    {
      "inputs": [],
      "name": "getGlobalConfigCode",
      "outputs": [
        {
          "internalType": "uint256",
          "name": "",
          "type": "uint256"
        }
      ],
      "stateMutability": "view",
      "type": "function"
    },
    {
      "inputs": [],
      "name": "getLastBatchId",
      "outputs": [
        {
          "internalType": "uint256",
          "name": "",
          "type": "uint256"
        }
      ],
      "stateMutability": "view",
      "type": "function"
    },
    {
      "inputs": [],
      "name": "getOrderRoot",
      "outputs": [
        {
          "internalType": "uint256",
          "name": "",
          "type": "uint256"
        }
      ],
      "stateMutability": "view",
      "type": "function"
    },
    {
      "inputs": [],
      "name": "getOrderTreeHeight",
      "outputs": [
        {
          "internalType": "uint256",
          "name": "",
          "type": "uint256"
        }
      ],
      "stateMutability": "view",
      "type": "function"
    },
    {
      "inputs": [
        {
          "internalType": "uint256",
          "name": "presumedAssetType",
          "type": "uint256"
        }
      ],
      "name": "getQuantum",
      "outputs": [
        {
          "internalType": "uint256",
          "name": "quantum",
          "type": "uint256"
        }
      ],
      "stateMutability": "view",
      "type": "function"
    },
    {
      "inputs": [],
      "name": "getRollupTreeHeight",
      "outputs": [
        {
          "internalType": "uint256",
          "name": "",
          "type": "uint256"
        }
      ],
      "stateMutability": "view",
      "type": "function"
    },
    {
      "inputs": [],
      "name": "getRollupVaultRoot",
      "outputs": [
        {
          "internalType": "uint256",
          "name": "",
          "type": "uint256"
        }
      ],
      "stateMutability": "view",
      "type": "function"
    },
    {
      "inputs": [],
      "name": "getSequenceNumber",
      "outputs": [
        {
          "internalType": "uint256",
          "name": "",
          "type": "uint256"
        }
      ],
      "stateMutability": "view",
      "type": "function"
    },
    {
      "inputs": [],
      "name": "getValidiumTreeHeight",
      "outputs": [
        {
          "internalType": "uint256",
          "name": "",
          "type": "uint256"
        }
      ],
      "stateMutability": "view",
      "type": "function"
    },
    {
      "inputs": [],
      "name": "getValidiumVaultRoot",
      "outputs": [
        {
          "internalType": "uint256",
          "name": "",
          "type": "uint256"
        }
      ],
      "stateMutability": "view",
      "type": "function"
    },
    {
      "inputs": [],
      "name": "globalConfigurationHash",
      "outputs": [
        {
          "internalType": "bytes32",
          "name": "",
          "type": "bytes32"
        }
      ],
      "stateMutability": "view",
      "type": "function"
    },
    {
      "inputs": [],
      "name": "identify",
      "outputs": [
        {
          "internalType": "string",
          "name": "",
          "type": "string"
        }
      ],
      "stateMutability": "pure",
      "type": "function"
    },
    {
      "inputs": [
        {
          "internalType": "bytes",
          "name": "data",
          "type": "bytes"
        }
      ],
      "name": "initialize",
      "outputs": [],
      "stateMutability": "nonpayable",
      "type": "function"
    },
    {
      "inputs": [],
      "name": "initializerSize",
      "outputs": [
        {
          "internalType": "uint256",
          "name": "",
          "type": "uint256"
        }
      ],
      "stateMutability": "view",
      "type": "function"
    },
    {
      "inputs": [],
      "name": "isFrozen",
      "outputs": [
        {
          "internalType": "bool",
          "name": "",
          "type": "bool"
        }
      ],
      "stateMutability": "view",
      "type": "function"
    },
    {
      "inputs": [
        {
          "internalType": "address",
          "name": "testedOperator",
          "type": "address"
        }
      ],
      "name": "isOperator",
      "outputs": [
        {
          "internalType": "bool",
          "name": "",
          "type": "bool"
        }
      ],
      "stateMutability": "view",
      "type": "function"
    },
    {
      "inputs": [],
      "name": "mainAcceptGovernance",
      "outputs": [],
      "stateMutability": "nonpayable",
      "type": "function"
    },
    {
      "inputs": [],
      "name": "mainCancelNomination",
      "outputs": [],
      "stateMutability": "nonpayable",
      "type": "function"
    },
    {
      "inputs": [
        {
          "internalType": "address",
          "name": "testGovernor",
          "type": "address"
        }
      ],
      "name": "mainIsGovernor",
      "outputs": [
        {
          "internalType": "bool",
          "name": "",
          "type": "bool"
        }
      ],
      "stateMutability": "view",
      "type": "function"
    },
    {
      "inputs": [
        {
          "internalType": "address",
          "name": "newGovernor",
          "type": "address"
        }
      ],
      "name": "mainNominateNewGovernor",
      "outputs": [],
      "stateMutability": "nonpayable",
      "type": "function"
    },
    {
      "inputs": [
        {
          "internalType": "address",
          "name": "governorForRemoval",
          "type": "address"
        }
      ],
      "name": "mainRemoveGovernor",
      "outputs": [],
      "stateMutability": "nonpayable",
      "type": "function"
    },
    {
      "inputs": [
        {
          "internalType": "uint256",
          "name": "assetId",
          "type": "uint256"
        },
        {
          "internalType": "bytes32",
          "name": "configHash",
          "type": "bytes32"
        }
      ],
      "name": "registerAssetConfigurationChange",
      "outputs": [],
      "stateMutability": "nonpayable",
      "type": "function"
    },
    {
      "inputs": [
        {
          "internalType": "bytes32",
          "name": "configHash",
          "type": "bytes32"
        }
      ],
      "name": "registerGlobalConfigurationChange",
      "outputs": [],
      "stateMutability": "nonpayable",
      "type": "function"
    },
    {
      "inputs": [
        {
          "internalType": "address",
          "name": "newOperator",
          "type": "address"
        }
      ],
      "name": "registerOperator",
      "outputs": [],
      "stateMutability": "nonpayable",
      "type": "function"
    },
    {
      "inputs": [
        {
          "internalType": "uint256",
          "name": "assetId",
          "type": "uint256"
        },
        {
          "internalType": "bytes32",
          "name": "configHash",
          "type": "bytes32"
        }
      ],
      "name": "removeAssetConfigurationChange",
      "outputs": [],
      "stateMutability": "nonpayable",
      "type": "function"
    },
    {
      "inputs": [
        {
          "internalType": "bytes32",
          "name": "configHash",
          "type": "bytes32"
        }
      ],
      "name": "removeGlobalConfigurationChange",
      "outputs": [],
      "stateMutability": "nonpayable",
      "type": "function"
    },
    {
      "inputs": [],
      "name": "unFreeze",
      "outputs": [],
      "stateMutability": "nonpayable",
      "type": "function"
    },
    {
      "inputs": [
        {
          "internalType": "address",
          "name": "removedOperator",
          "type": "address"
        }
      ],
      "name": "unregisterOperator",
      "outputs": [],
      "stateMutability": "nonpayable",
      "type": "function"
    },
    {
      "inputs": [
        {
          "internalType": "uint256[]",
          "name": "programOutput",
          "type": "uint256[]"
        },
        {
          "internalType": "uint256[]",
          "name": "applicationData",
          "type": "uint256[]"
        }
      ],
      "name": "updateState",
      "outputs": [],
      "stateMutability": "nonpayable",
      "type": "function"
    },
    {
      "inputs": [],
      "name": "validatedSelectors",
      "outputs": [
        {
          "internalType": "bytes4[]",
          "name": "selectors",
          "type": "bytes4[]"
        }
      ],
      "stateMutability": "pure",
      "type": "function"
    }
  ],
  "bytecode": {
    "object": "0x608060405234801561001057600080fd5b50613d72806100206000396000f3fe608060405234801561001057600080fd5b50600436106102895760003560e01c806380f235b01161015c578063b7663112116100ce578063e6de628211610087578063e6de62821461076c578063e9aa2d6b14610774578063eeb728661461077c578063f00cec4b14610784578063f2011f66146107dc578063fc86484a146107f957610289565b8063b7663112146106b2578063bb7c3d32146106ba578063c1a85130146106c2578063c23b60ef146106ca578063dd7202d814610747578063e30a5cff1461076457610289565b8063993f363911610120578063993f3639146106195780639bd4f229146106215780639f8a504414610644578063a1cc921e14610661578063ad54846714610687578063adac3e15146106aa57610289565b806380f235b0146105a057806381b47796146105bd5780638c4bce1c146105c55780638ed31439146105eb57806396115bc2146105f357610289565b806342af35fd116102005780635eecd218116101b95780635eecd218146105525780636d70f7ae1461055a57806372eb36881461058057806377e84e0d146105885780637cf12b90146105905780637e9da4c51461059857610289565b806342af35fd146103d3578063439fab91146103db57806345f5cd9714610449578063515535e81461046f578063538f9406146104775780635e586cd11461053557610289565b806328700a151161025257806328700a151461035057806333eeb14714610358578063366a2670146103745780633682a4501461039d5780633a8cc4fc146103c35780633cc660ad146103cb57610289565b80627175421461028e5780630dded952146102a85780630ebdac03146102b05780631829057714610308578063260e96dd14610327575b600080fd5b61029661081c565b60408051918252519081900360200190f35b610296610823565b6102b8610829565b60408051602080825283518183015283519192839290830191858101910280838360005b838110156102f45781810151838201526020016102dc565b505050509050019250505060405180910390f35b6103256004803603602081101561031e57600080fd5b50356108dd565b005b6102966004803603606081101561033d57600080fd5b50803590602081013590604001356109ef565b610325610a18565b610360610a22565b604080519115158252519081900360200190f35b6103256004803603606081101561038a57600080fd5b5080359060208101359060400135610a32565b610325600480360360208110156103b357600080fd5b50356001600160a01b0316610c13565b610296610cc7565b610296610ccd565b610296610cd3565b610325600480360360208110156103f157600080fd5b810190602081018135600160201b81111561040b57600080fd5b82018360208201111561041d57600080fd5b803590602001918460018302840111600160201b8311171561043e57600080fd5b509092509050610cd9565b6103606004803603602081101561045f57600080fd5b50356001600160a01b0316610fa8565b610296610fbb565b6103256004803603604081101561048d57600080fd5b810190602081018135600160201b8111156104a757600080fd5b8201836020820111156104b957600080fd5b803590602001918460208302840111600160201b831117156104da57600080fd5b919390929091602081019035600160201b8111156104f757600080fd5b82018360208201111561050957600080fd5b803590602001918460208302840111600160201b8311171561052a57600080fd5b509092509050610fc1565b6102966004803603602081101561054b57600080fd5b503561143d565b6102966114ad565b6103606004803603602081101561057057600080fd5b50356001600160a01b03166114b3565b6103256114e0565b6102966114e8565b6103256114ef565b610296611633565b610325600480360360208110156105b657600080fd5b5035611639565b61029661179c565b610325600480360360208110156105db57600080fd5b50356001600160a01b03166117a2565b6102966117ae565b6103256004803603602081101561060957600080fd5b50356001600160a01b03166117b4565b610296611868565b6103256004803603604081101561063757600080fd5b5080359060200135611870565b6103256004803603602081101561065a57600080fd5b50356119e5565b6103256004803603602081101561067757600080fd5b50356001600160a01b0316611b0b565b6103256004803603604081101561069d57600080fd5b5080359060200135611b14565b610296611c89565b610296611c97565b610296611c9e565b610296611ca4565b6106d2611cb2565b6040805160208082528351818301528351919283929083019185019080838360005b8381101561070c5781810151838201526020016106f4565b50505050905090810190601f1680156107395780820380516001836020036101000a031916815260200191505b509250505060405180910390f35b6102966004803603602081101561075d57600080fd5b5035611cce565b610296611cff565b610296611d04565b610296611d09565b6106d2611d0f565b610296600480360361014081101561079b57600080fd5b5080359060208101359060408101359060608101359060808101359060a08101359060c08101359060e0810135906101008101351515906101200135611d46565b610296600480360360208110156107f257600080fd5b5035611d7d565b6103256004803603604081101561080f57600080fd5b5080359060200135611d97565b62093a8081565b600f5490565b60408051600180825281830190925260609190600090826020808301908036833750508151919450506001820191630366a26760e41b91859190811061086b57fe5b6001600160e01b0319909216602092830291909101909101528082146108d8576040805162461bcd60e51b815260206004820181905260248201527f494e434f52524543545f53454c4543544f52535f41525241595f4c454e475448604482015290519081900360640190fd5b505090565b6108e633611ead565b610929576040805162461bcd60e51b815260206004820152600f60248201526e4f4e4c595f474f5645524e414e434560881b604482015290519081900360640190fd5b604080516000196020808301919091528183018490528251808303840181526060909201835281519181019190912060008181526023909252919020546109a5576040805162461bcd60e51b815260206004820152601c6024820152600080516020613c1d833981519152604482015290519081900360640190fd5b600081815260236020908152604080832092909255815184815291517f21e13101b7a52038b3abfab6f17d3a3d091c620b978b98c9de7f3aa91e7ac0639281900390910190a15050565b600060226000610a00868686611edc565b81526020019081526020016000205490509392505050565b610a20611f48565b565b600454600160a01b900460ff1690565b610a3a610a22565b610a7e576040805162461bcd60e51b815260206004820152601060248201526f29aa20aa22afa727aa2fa32927ad22a760811b604482015290519081900360640190fd5b60008281526009602052604090205460ff1615610ad8576040805162461bcd60e51b81526020600482015260136024820152721154d0d0541157d053149150511657d554d151606a1b604482015290519081900360640190fd5b600082815260096020908152604091829020805460ff19166001908117909155600a8054909101905568010000000000000003548251808301879052808401859052606081019190915260808082018690528351808303909101815260a08201808552815191840191909120600454636a93856760e01b90925260a4830181905293516001600160a01b03909116928392636a9385679260c48083019392829003018186803b158015610b8a57600080fd5b505afa158015610b9e573d6000803e3d6000fd5b505050506040513d6020811015610bb457600080fd5b5051610bfc576040805162461bcd60e51b815260206004820152601260248201527122a9a1a0a822afa620a1a5a9afa82927a7a360711b604482015290519081900360640190fd5b610c0c85600160401b5485612015565b5050505050565b610c1c33611ead565b610c5f576040805162461bcd60e51b815260206004820152600f60248201526e4f4e4c595f474f5645524e414e434560881b604482015290519081900360640190fd5b6001610c69612237565b6001600160a01b03831660008181526020928352604090819020805460ff191694151594909417909355825190815291517f50a18c352ee1c02ffe058e15c2eb6e58be387c81e73cc1e17035286e54c19a579281900390910190a150565b600d5490565b61018090565b600c5490565b680100000000000000035415610d32576040805162461bcd60e51b815260206004820152601960248201527814d510551157d053149150511657d253925512505312569151603a1b604482015290519081900360640190fd5b600019600052680100000000000000026020527f2c5bd237f717a902f05528dc77f82cade6aa0a080972f06685282ae7786cdd4b5415610db5576040805162461bcd60e51b815260206004820152601960248201527814d510551157d053149150511657d253925512505312569151603a1b604482015290519081900360640190fd5b6101808114610e0b576040805162461bcd60e51b815260206004820152601c60248201527f494e434f52524543545f494e49545f444154415f53495a455f33383400000000604482015290519081900360640190fd5b600080606084846060811015610e2057600080fd5b6001600160a01b0382351691602081013591810190606081016040820135600160201b811115610e4f57600080fd5b820183602082011115610e6157600080fd5b803590602001918460208302840111600160201b83111715610e8257600080fd5b919080806020026020016040519081016040528093929190818152602001838360200280828437600092019190915250979a50959850909650610ecb955061223c945050505050565b610ed560006122be565b610edd6122cb565b610f408260001983600081518110610ef157fe5b602002602001015184600281518110610f0657fe5b602002602001015160001986600181518110610f1e57fe5b602002602001015187600381518110610f3357fe5b6020026020010151612329565b8060405160200180828051906020019060200280838360005b83811015610f71578181015183820152602001610f59565b50505050905001915050604051602081830303815290604052805190602001206801000000000000000381905550610c0c83612349565b6000610fb382611ead565b90505b919050565b601d5490565b610fc9610a22565b1561100d576040805162461bcd60e51b815260206004820152600f60248201526e29aa20aa22afa4a9afa32927ad22a760891b604482015290519081900360640190fd5b611016336114b3565b611057576040805162461bcd60e51b815260206004820152600d60248201526c27a7262cafa7a822a920aa27a960991b604482015290519081900360640190fd5b61105f613b1c565b611069858561236b565b9050602060020a816101000151106110b25760405162461bcd60e51b8152600401808060200182810382526025815260200180613cbf6025913960400191505060405180910390fd5b62093a8042038160e0015111611106576040805162461bcd60e51b815260206004820152601460248201527314d654d5115357d512535157d3d555111055115160621b604482015290519081900360640190fd5b61384042018160e0015110611158576040805162461bcd60e51b815260206004820152601360248201527214d654d5115357d512535157d2539590531251606a1b604482015290519081900360640190fd5b610e104204816101000151116111b5576040805162461bcd60e51b815260206004820152601760248201527f42415443485f54494d455354414d505f45585049524544000000000000000000604482015290519081900360640190fd5b6111c08585836126b5565b608081015160608201516000916111db918101908789613b99565b6040516020018083836020028082843780830192505050925050506040516020818303038152906040528051906020012090506801000000000000000354811461126c576040805162461bcd60e51b815260206004820152601d60248201527f494e56414c49445f50524556494f55535f5348415245445f5354415445000000604482015290519081900360640190fd5b601d548484600181811061127c57fe5b90506020020135146112d5576040805162461bcd60e51b815260206004820152601760248201527f57524f4e475f50524556494f55535f42415443485f4944000000000000000000604482015290519081900360640190fd5b6101a082015160020185101561131c5760405162461bcd60e51b8152600401808060200182810382526033815260200180613bea6033913960400191505060405180910390fd5b6000611379611331600119880183898b613b99565b60408051808201909152808b8b600119810181811061134c57fe5b9050602002013581526020018b8b60018e8e90500381811061136a57fe5b90506020020135815250612834565b6040805182815290519192507f9866f8ddfe70bb512b2f2b28b49d4017c43f7ba775f1a20c61c13eea8cdac111919081900360200190a16114276019826040518060400160405280601d81526020017f4e4f5f53544154455f5452414e534954494f4e5f5645524946494552530000008152506040518060400160405280601981526020017f4e4f5f53544154455f5452414e534954494f4e5f50524f4f46000000000000008152506128bf565b6114348787858888612a37565b50505050505050565b602454600090821061148e576040805162461bcd60e51b815260206004820152601560248201527408286a8929e9cbe929c888ab0bea89e9ebe90928e9605b1b604482015290519081900360640190fd5b6024828154811061149b57fe5b90600052602060002001549050919050565b60245490565b60006114bd612237565b6001600160a01b0392909216600090815260209290925250604090205460ff1690565b610a20612b1a565b6202a30081565b6114f7610a22565b61153b576040805162461bcd60e51b815260206004820152601060248201526f29aa20aa22afa727aa2fa32927ad22a760811b604482015290519081900360640190fd5b61154433611ead565b611587576040805162461bcd60e51b815260206004820152600f60248201526e4f4e4c595f474f5645524e414e434560881b604482015290519081900360640190fd5b6005544210156115de576040805162461bcd60e51b815260206004820152601860248201527f554e465245455a455f4e4f545f414c4c4f5745445f5945540000000000000000604482015290519081900360640190fd5b6004805460ff60a01b19169055600d805460019081019091556025805482019055600f805490910190556040517f07017fe9180629cfffba412f65a9affcf9a121de02294179f5c058f881dcc9f890600090a1565b60105490565b61164233611ead565b611685576040805162461bcd60e51b815260206004820152600f60248201526e4f4e4c595f474f5645524e414e434560881b604482015290519081900360640190fd5b6040805160001960208083019190915281830184905282518083038401815260609092018352815191810191909120600081815260239092529190205480611702576040805162461bcd60e51b815260206004820152601c6024820152600080516020613c1d833981519152604482015290519081900360640190fd5b42811115611757576040805162461bcd60e51b815260206004820152601c60248201527f434f4e46494755524154494f4e5f4e4f545f454e41424c455f59455400000000604482015290519081900360640190fd5b680100000000000000018390556040805184815290517f215e2cbb35cc7dd3f085fdb4ede08d32f4619001c73f5b10419389e7949c28ba9181900360200190a1505050565b60265490565b6117ab81612bb1565b50565b60255490565b6117bd33611ead565b611800576040805162461bcd60e51b815260206004820152600f60248201526e4f4e4c595f474f5645524e414e434560881b604482015290519081900360640190fd5b600061180a612237565b6001600160a01b03831660008181526020928352604090819020805460ff191694151594909417909355825190815291517fec5f6c3a91a1efb1f9a308bb33c6e9e66bf9090fad0732f127dfdbf516d0625d9281900390910190a150565b6301e1338081565b61187933611ead565b6118bc576040805162461bcd60e51b815260206004820152600f60248201526e4f4e4c595f474f5645524e414e434560881b604482015290519081900360640190fd5b60408051602080820185905281830184905282518083038401815260609092018352815191810191909120600081815260239092529190205480611935576040805162461bcd60e51b815260206004820152601c6024820152600080516020613c1d833981519152604482015290519081900360640190fd5b4281111561198a576040805162461bcd60e51b815260206004820152601c60248201527f434f4e46494755524154494f4e5f4e4f545f454e41424c455f59455400000000604482015290519081900360640190fd5b6000848152680100000000000000026020908152604091829020859055815186815290810185905281517f617a24590fcf7d5a2650aa9c10572915cb4bf853b1ef135cc1918460946a7a2f929181900390910190a150505050565b6119ee33611ead565b611a31576040805162461bcd60e51b815260206004820152600f60248201526e4f4e4c595f474f5645524e414e434560881b604482015290519081900360640190fd5b600167080000000000001160c01b018110611a89576040805162461bcd60e51b81526020600482015260136024820152720929cac82989288be869e9c8c928ebe9082a69606b1b604482015290519081900360640190fd5b6040805160001960208083019190915281830184905282518083038401815260608301808552815191830191909120680100000000000000045460008281526023909452928590204290930190925584905291517ffae91148d75f3789f216345abe08b5415e0e727d51cab9f4e41efc23f71193f79181900360800190a15050565b6117ab81612cae565b611b1d33611ead565b611b60576040805162461bcd60e51b815260206004820152600f60248201526e4f4e4c595f474f5645524e414e434560881b604482015290519081900360640190fd5b600160781b8210611bab576040805162461bcd60e51b815260206004820152601060248201526f1253959053125117d054d4d15517d25160821b604482015290519081900360640190fd5b600167080000000000001160c01b018110611c03576040805162461bcd60e51b81526020600482015260136024820152720929cac82989288be869e9c8c928ebe9082a69606b1b604482015290519081900360640190fd5b6040805160208082018590528183018490528251808303840181526060830180855281519183019190912068010000000000000004546000828152602390945292859020429093019092558590526080820184905291517ffbe49fc520438bdf956c8964ba0394d2da4fa3f34686e826a2ded762fa687c2d9181900360a00190a1505050565b680100000000000000015481565b6224ea0081565b600e5490565b680100000000000000045481565b604051806060016040528060268152602001613c3d6026913981565b60008181526015602052604081205460ff16611cec57506001610fb6565b5060009081526016602052604090205490565b600a81565b604081565b60275490565b60408051808201909152601f81527f537461726b576172655f50657270657475616c53746174655f323032325f3200602082015290565b600060226000611d5e8d8d8d8d8d8d8d8d8d8d612dfb565b81526020019081526020016000205490509a9950505050505050505050565b680100000000000000026020526000908152604090205481565b611da033611ead565b611de3576040805162461bcd60e51b815260206004820152600f60248201526e4f4e4c595f474f5645524e414e434560881b604482015290519081900360640190fd5b604080516020808201859052818301849052825180830384018152606090920183528151918101919091206000818152602390925291902054611e5b576040805162461bcd60e51b815260206004820152601c6024820152600080516020613c1d833981519152604482015290519081900360640190fd5b600081815260236020908152604080832092909255815185815290810184905281517fbedb78be82c75282d73923c8287b6b3e3ef57379cdc69f7fbd3d227a9969b48e929181900390910190a1505050565b600080611eb8612e9e565b6001600160a01b039390931660009081526020939093525050604090205460ff1690565b6000611f40604051806040016040528060118152602001701193d490d15117d5d2551211149055d053607a1b815250858585604051602001808481526020018381526020018281526020019350505050604051602081830303815290604052612f1b565b949350505050565b6000611f52612e9e565b60018101549091506001600160a01b03163314611fb6576040805162461bcd60e51b815260206004820152601760248201527f4f4e4c595f43414e4449444154455f474f5645524e4f52000000000000000000604482015290519081900360640190fd5b6001810154611fcd906001600160a01b0316612fdd565b6001810180546001600160a01b03191690556040805133815290517fcfb473e6c03f9a29ddaf990e736fa3de5188a0bd85d684f5b6e164ebfbfff5d29181900360200190a150565b600083815260086020908152604080832085845290915290205481018181101561207c576040805162461bcd60e51b81526020600482015260136024820152725749544844524157414c5f4f564552464c4f5760681b604482015290519081900360640190fd5b600084815260086020908152604080832086845282528083208490556015909152902054839060ff1615612100577f03c10a82c955f7bcd0c934147fb39cafca947a4294425b1751d884c8ac95428785826120d7848761305d565b6040805193845260208401929092528282015260608201869052519081900360800190a1610c0c565b600160fa1b6001600160f01b0385161784141561215c57604080518681526020810186905280820185905290517f2acce0cedb29dc4927e6c891b57ef5bc8858eea4bf52787ea94873aebd4aeca09181900360600190a1610c0c565b6001600160fa1b03841684146121ac576040805162461bcd60e51b815260206004820152601060248201526f1253959053125117d054d4d15517d25160821b604482015290519081900360640190fd5b600182116121f057604080518681526020810186905281517ff07608f26256bce78d87220cfc0e7b1cc69b48e55104bfa591b2818161386627929181900390910190a15b604080518681526020810186905280820185905290517fd31f59c968eb53320f624721416cf88605da9aadbaa723405e52affe9de4b07f9181900360600190a15050505050565b601390565b6000612246612e9e565b6001810154909150600160a01b900460ff16156122a0576040805162461bcd60e51b81526020600482015260136024820152721053149150511657d253925512505312569151606a1b604482015290519081900360640190fd5b60018101805460ff60a01b1916600160a01b1790556117ab33612fdd565b6801000000000000000455565b60016122d5612237565b3360008181526020928352604090819020805460ff191694151594909417909355825190815291517f50a18c352ee1c02ffe058e15c2eb6e58be387c81e73cc1e17035286e54c19a579281900390910190a1565b600c96909655600d94909455602592909255600f55600e55602655601055565b600480546001600160a01b0319166001600160a01b0392909216919091179055565b612373613b1c565b60088210156123b35760405162461bcd60e51b8152600401808060200182810382526033815260200180613bea6033913960400191505060405180910390fd5b6123bb613b1c565b838360008181106123c857fe5b6020029190910135825250838360018181106123e057fe5b60209081029290920135918301829052506201000011612447576040805162461bcd60e51b815260206004820152601860248201527f494c4c4547414c5f4e554d4245525f4f465f4153534554530000000000000000604482015290519081900360640190fd5b600260408201819052602082015181029081019060030184101561249c5760405162461bcd60e51b8152600401808060200182810382526029815260200180613c966029913960400191505060405180910390fd5b8484828060010193508181106124ae57fe5b602002919091013560608401819052608084018390529190910190506001810184101561250c5760405162461bcd60e51b8152600401808060200182810382526026815260200180613d176026913960400191505060405180910390fd5b84848280600101935081811061251e57fe5b602002919091013560a0840181905260c084018390529190910190506002810184101561257c5760405162461bcd60e51b8152600401808060200182810382526025815260200180613bc56025913960400191505060405180910390fd5b84846001830381811061258b57fe5b602002919091013560e0840152506001810190859085908181106125ab57fe5b6020029190910135610100840152506001810190859085908181106125cc57fe5b602002919091013561012084018190526101408401839052600302909101600181019150859085908181106125fd57fe5b60200291909101356101608401525060018101908590859081811061261e57fe5b6020029190910135610180840152506101a082018190526101608201510160018101908590859081811061264e57fe5b60200291909101356101c084018190526101e084018390529190910160020190508381146126ad5760405162461bcd60e51b8152600401808060200182810382526033815260200180613c636033913960400191505060405180910390fd5b509392505050565b6801000000000000000154612711576040805162461bcd60e51b815260206004820152601c60248201527f474c4f42414c5f434f4e46494755524154494f4e5f4e4f545f53455400000000604482015290519081900360640190fd5b8051680100000000000000015414612770576040805162461bcd60e51b815260206004820152601d60248201527f474c4f42414c5f434f4e46494755524154494f4e5f4d49534d41544348000000604482015290519081900360640190fd5b604081015160005b8260200151811015610c0c57600085858481811061279257fe5b90506020020135905060008686600186018181106127ac57fe5b6000858152680100000000000000026020908152604090912054910292909201359250508114612823576040805162461bcd60e51b815260206004820152601c60248201527f41535345545f434f4e46494755524154494f4e5f4d49534d4154434800000000604482015290519081900360640190fd5b505060029190910190600101612778565b600080848490509050600085856040516020018083836020028082843760408051601f199490920182810394909401825283815281516020928301208b518c840151848701929092528286018b905260608601529098016080808501919091528851808503909101815260a09093019097525080519501949094206001019450505050509392505050565b83548490838161294d5760405162461bcd60e51b81526004018080602001828103825283818151815260200191508051906020019080838360005b838110156129125781810151838201526020016128fa565b50505050905090810190601f16801561293f5780820380516001836020036101000a031916815260200191505b509250505060405180910390fd5b5060005b818110156114345782818154811061296557fe5b6000918252602091829020015460408051636a93856760e01b8152600481018a905290516001600160a01b0390921692636a93856792602480840193829003018186803b1580156129b557600080fd5b505afa1580156129c9573d6000803e3d6000fd5b505050506040513d60208110156129df57600080fd5b50518490612a2e5760405162461bcd60e51b81526020600482018181528351602484015283519092839260449091019190850190808383600083156129125781810151838201526020016128fa565b50600101612951565b60c083015160a0840151612a5091908101908688613b99565b604051602001808383602002808284376040805191909301818103601f1901825290925250805160209091012068010000000000000003555050600c8054600101905550600082828281612aa057fe5b90506020020135905080601d81905550612abd86868686866130d4565b612aca8686868686613296565b612ad586868661363d565b600c54604080519182526020820183905280517f2672b53d25204094519f7b0fba8d2b5cd0cc1e426f49554c89461cdb9dcec08f9281900390910190a1505050505050565b612b2333611ead565b612b66576040805162461bcd60e51b815260206004820152600f60248201526e4f4e4c595f474f5645524e414e434560881b604482015290519081900360640190fd5b6000612b70612e9e565b6001810180546001600160a01b03191690556040519091507f7a8dc7dd7fffb43c4807438fa62729225156941e641fd877938f4edade3429f590600090a150565b612bba33611ead565b612bfd576040805162461bcd60e51b815260206004820152600f60248201526e4f4e4c595f474f5645524e414e434560881b604482015290519081900360640190fd5b6000612c07612e9e565b9050612c1282611ead565b15612c57576040805162461bcd60e51b815260206004820152601060248201526f20a62922a0a22cafa3a7ab22a92727a960811b604482015290519081900360640190fd5b6001810180546001600160a01b0384166001600160a01b0319909116811790915560408051918252517f6166272c8d3f5f579082f2827532732f97195007983bb5b83ac12c56700b01a69181900360200190a15050565b612cb733611ead565b612cfa576040805162461bcd60e51b815260206004820152600f60248201526e4f4e4c595f474f5645524e414e434560881b604482015290519081900360640190fd5b336001600160a01b0382161415612d4f576040805162461bcd60e51b8152602060048201526014602482015273474f5645524e4f525f53454c465f52454d4f564560601b604482015290519081900360640190fd5b6000612d59612e9e565b9050612d6482611ead565b612da4576040805162461bcd60e51b815260206004820152600c60248201526b2727aa2fa3a7ab22a92727a960a11b604482015290519081900360640190fd5b6001600160a01b03821660008181526020838152604091829020805460ff19169055815192835290517fd75f94825e770b8b512be8e74759e252ad00e102e38f50cce2f7c6f868a295999281900390910190a15050565b604080518082018252600c81526b464f524345445f545241444560a01b60208083019190915282519081018d90528083018c9052606081018b9052608081018a905260a0810189905260c0810188905260e08101879052610100810186905284151560f81b61012082015261012180820185905283518083039091018152610141909101909252600091612e8f9190612f1b565b9b9a5050505050505050505050565b600080604051806060016040528060268152602001613c3d602691396040518082805190602001908083835b60208310612ee95780518252601f199092019160209182019101612eca565b51815160209384036101000a600019018019909216911617905292019485525060405193849003019092209392505050565b600082826040516020018083805190602001908083835b60208310612f515780518252601f199092019160209182019101612f32565b51815160209384036101000a600019018019909216911617905285519190930192850191508083835b60208310612f995780518252601f199092019160209182019101612f7a565b6001836020036101000a0380198251168184511680821785525050505050509050019250505060405160208183030381529060405280519060200120905092915050565b612fe681611ead565b1561302b576040805162461bcd60e51b815260206004820152601060248201526f20a62922a0a22cafa3a7ab22a92727a960811b604482015290519081900360640190fd5b6000613035612e9e565b6001600160a01b0390921660009081526020929092525060409020805460ff19166001179055565b60008061306984611cce565b905080830291508281838161307a57fe5b04146130cd576040805162461bcd60e51b815260206004820152601760248201527f44455155414e54495a4154494f4e5f4f564552464c4f57000000000000000000604482015290519081900360640190fd5b5092915050565b600160401b54600167080000000000001160c01b018110613130576040805162461bcd60e51b81526020600482015260116024820152704173736574206964203e3d205052494d4560781b604482015290519081900360640190fd5b61014084015160005b85610120015181101561328c57600088888481811061315457fe5b905060200201359050600089896001860181811061316e57fe5b90506020020135905060008a8a6002870181811061318857fe5b9050602002013590506802000000000000000081106131e5576040805162461bcd60e51b815260206004820152601460248201527324b63632b3b0b6102130b630b731b2902234b33360611b604482015290519081900360640190fd5b67ffffffffffffffff198101600167080000000000001160c01b018410613248576040805162461bcd60e51b8152602060048201526012602482015271537461726b206b6579203e3d205052494d4560701b604482015290519081900360640190fd5b60008113156132625761325d8484898461376d565b613279565b600081121561327957613279848883600003613808565b5050506003929092019150600101613139565b5050505050505050565b60028110156132e1576040805162461bcd60e51b815260206004820152601260248201527110541417d110551057d513d3d7d4d213d49560721b604482015290519081900360640190fd5b826101c00151828260028181106132f457fe5b9050602002013514613345576040805162461bcd60e51b815260206004820152601560248201527409cbe869e9c8892a8929e9ca6be9a92a69a82a8869605b1b604482015290519081900360640190fd5b6002836101c001510260030182829050101561339c576040805162461bcd60e51b81526020600482015260116024820152704241445f4150505f444154415f53495a4560781b604482015290519081900360640190fd5b6101e0830151600360005b856101c0015181101561328c5760008585848181106133c257fe5b90506020020135905060008686856001018181106133dc57fe5b9050602002013560001b905060008a8a878181106133f657fe5b9050602002013590506001600160fa1b03838360405160200180836001600160a01b031660601b8152601401828152602001925050506040516020818303038152906040528051906020012060001c16811461348f576040805162461bcd60e51b815260206004820152601360248201527221b7b73234ba34b7b71036b4b9b6b0ba31b41760691b604482015290519081900360640190fd5b60408051602480820185905282518083039091018152604490910182526020810180516001600160e01b0316636a93856760e01b178152915181516000936060936001600160a01b038916939092909182918083835b602083106135045780518252601f1990920191602091820191016134e5565b6001836020036101000a038019825116818451168082178552505050505050905001915050600060405180830381855afa9150503d8060008114613564576040519150601f19603f3d011682016040523d82523d6000602084013e613569565b606091505b509150915081801561357c575080516020145b6135cd576040805162461bcd60e51b815260206004820152601a60248201527f4241445f464143545f52454749535452595f434f4e5452414354000000000000604482015290519081900360640190fd5b8080602001905160208110156135e257600080fd5b505161361f5760405162461bcd60e51b8152600401808060200182810382526033815260200180613ce46033913960400191505060405180910390fd5b600188019750600287019650505050505080806001019150506133a7565b6101a081015160005b82610180015181101561371657600085858480600101955081811061366757fe5b90506020020135600181111561367957fe5b9050600081600181111561368957fe5b14156136a15761369a868685613818565b925061370d565b60018160018111156136af57fe5b14156136c05761369a868685613886565b6040805162461bcd60e51b815260206004820152601a60248201527f554e4b4e4f574e5f464f524345445f414354494f4e5f54595045000000000000604482015290519081900360640190fd5b50600101613646565b5080826101600151836101a001510114613767576040805162461bcd60e51b815260206004820152600d60248201526c0a692b48abe9a92a69a82a8869609b1b604482015290519081900360640190fd5b50505050565b600084815260066020908152604080832085845282528083208684529091529020548111156137da576040805162461bcd60e51b815260206004820152601460248201527311115413d4d25517d25394d551919250d251539560621b604482015290519081900360640190fd5b6000938452600660209081526040808620938652928152828520938552929092529091208054919091039055565b613813838383612015565b505050565b60008084848480600101955081811061382d57fe5b905060200201359050600085858580600101965081811061384a57fe5b905060200201359050600086868680600101975081811061386757fe5b90506020020135905061387b8383836139b8565b509295945050505050565b60008084848480600101955081811061389b57fe5b90506020020135905060008585858060010196508181106138b857fe5b90506020020135905060008686868060010197508181106138d557fe5b90506020020135905060008787878060010198508181106138f257fe5b905060200201359050600088888880600101995081811061390f57fe5b9050602002013590506000898989806001019a5081811061392c57fe5b90506020020135905060008a8a8a806001019b5081811061394957fe5b90506020020135905060008b8b8b806001019c5081811061396657fe5b9050602002013560001415905060008c8c8c806001019d5081811061398757fe5b9050602002013590506139a789898989600160401b548a8a8a8a8a613a32565b50989b9a5050505050505050505050565b60006139c5848484611edc565b600081815260226020526040902054909150613a1e576040805162461bcd60e51b81526020600482015260136024820152722727a72fa2ac24a9aa24a723afa0a1aa24a7a760691b604482015290519081900360640190fd5b600090815260226020526040812055505050565b6000613a468b8b8b8b8b8b8b8b8b8b612dfb565b6000818152602260205260409020549091506000191415613aa7576040805162461bcd60e51b81526020600482015260166024820152751050d51253d397d053149150511657d0d3115054915160521b604482015290519081900360640190fd5b600081815260226020526040902054613afd576040805162461bcd60e51b81526020600482015260136024820152722727a72fa2ac24a9aa24a723afa0a1aa24a7a760691b604482015290519081900360640190fd5b6000908152602260205260409020600019905550505050505050505050565b604051806102000160405280600081526020016000815260200160008152602001600081526020016000815260200160008152602001600081526020016000815260200160008152602001600081526020016000815260200160008152602001600081526020016000815260200160008152602001600081525090565b60008085851115613ba8578182fd5b83861115613bb4578182fd5b505060208302019391909203915056fe70726f6772616d4f757470757420696e76616c69642073697a6520286e657753746174652970726f6772616d4f757470757420646f6573206e6f7420636f6e7461696e20616c6c207265717569726564206669656c64732e434f4e46494755524154494f4e5f4e4f545f5245475349544552454400000000537461726b45782e4d61696e2e323031392e476f7665726e6f7273496e666f726d6174696f6e70726f6772616d4f757470757420696e76616c69642073697a6520286d6f64732f666f726365642f636f6e646974696f6e732970726f6772616d4f757470757420696e76616c69642073697a6520286e4173736574436f6e6669672945787069726174696f6e2074696d657374616d70206973206f7574206f662072616e67652e436f6e646974696f6e20666f722074686520636f6e646974696f6e616c207472616e7366657220776173206e6f74206d65742e70726f6772616d4f757470757420696e76616c69642073697a65202870726576537461746529a2646970667358221220128abb1cc2657aa1c8782b229ab189164690974449e8cdc81ffbb939c509456b64736f6c634300060c0033",
    "linkReferences": {}
  },
  "methodIdentifiers": {
    "DEPOSIT_CANCEL_DELAY()": "77e84e0d",
    "FREEZE_GRACE_PERIOD()": "00717542",
    "MAIN_GOVERNANCE_INFO_TAG()": "c23b60ef",
    "MAX_FORCED_ACTIONS_REQS_PER_BLOCK()": "e30a5cff",
    "MAX_VERIFIER_COUNT()": "e6de6282",
    "UNFREEZE_DELAY()": "993f3639",
    "VERIFIER_REMOVAL_DELAY()": "b7663112",
    "applyAssetConfigurationChange(uint256,bytes32)": "9bd4f229",
    "applyGlobalConfigurationChange(bytes32)": "80f235b0",
    "configurationDelay()": "c1a85130",
    "configurationHash(uint256)": "f2011f66",
    "escape(uint256,uint256,uint256)": "366a2670",
    "getActionCount()": "5eecd218",
    "getActionHashByIndex(uint256)": "5e586cd1",
    "getForcedTradeRequest(uint256,uint256,uint256,uint256,uint256,uint256,uint256,uint256,bool,uint256)": "f00cec4b",
    "getForcedWithdrawalRequest(uint256,uint256,uint256)": "260e96dd",
    "getGlobalConfigCode()": "e9aa2d6b",
    "getLastBatchId()": "515535e8",
    "getOrderRoot()": "0dded952",
    "getOrderTreeHeight()": "7e9da4c5",
    "getQuantum(uint256)": "dd7202d8",
    "getRollupTreeHeight()": "81b47796",
    "getRollupVaultRoot()": "8ed31439",
    "getSequenceNumber()": "42af35fd",
    "getValidiumTreeHeight()": "bb7c3d32",
    "getValidiumVaultRoot()": "3a8cc4fc",
    "globalConfigurationHash()": "adac3e15",
    "identify()": "eeb72866",
    "initialize(bytes)": "439fab91",
    "initializerSize()": "3cc660ad",
    "isFrozen()": "33eeb147",
    "isOperator(address)": "6d70f7ae",
    "mainAcceptGovernance()": "28700a15",
    "mainCancelNomination()": "72eb3688",
    "mainIsGovernor(address)": "45f5cd97",
    "mainNominateNewGovernor(address)": "8c4bce1c",
    "mainRemoveGovernor(address)": "a1cc921e",
    "registerAssetConfigurationChange(uint256,bytes32)": "ad548467",
    "registerGlobalConfigurationChange(bytes32)": "9f8a5044",
    "registerOperator(address)": "3682a450",
    "removeAssetConfigurationChange(uint256,bytes32)": "fc86484a",
    "removeGlobalConfigurationChange(bytes32)": "18290577",
    "unFreeze()": "7cf12b90",
    "unregisterOperator(address)": "96115bc2",
    "updateState(uint256[],uint256[])": "538f9406",
    "validatedSelectors()": "0ebdac03"
  },
  "id": 82
}