{
  "abi": [
    {
      "inputs": [
        {
          "internalType": "uint256",
          "name": "ownerKey",
          "type": "uint256"
        }
      ],
      "name": "getEthKey",
      "outputs": [
        {
          "internalType": "address",
          "name": "",
          "type": "address"
        }
      ],
      "stateMutability": "view",
      "type": "function"
    }
  ],
  "bytecode": {
    "object": "0x608060405234801561001057600080fd5b5060dc8061001f6000396000f3fe6080604052348015600f57600080fd5b506004361060285760003560e01c80631dbd1da714602d575b600080fd5b604760048036036020811015604157600080fd5b50356063565b604080516001600160a01b039092168252519081900360200190f35b6000818152601860205260408120546001600160a01b03168015608657905060a1565b6001600160a01b0383168314609b576000609d565b825b9150505b91905056fea2646970667358221220d2c25a1dca5190914fd41e40fda6d9e2e1f7edc9dc352ffb652136d8d57d62e464736f6c634300060c0033",
    "linkReferences": {}
  },
  "methodIdentifiers": {
    "getEthKey(uint256)": "1dbd1da7"
  },
  "id": 14
}