{
  "abi": [
    {
      "anonymous": false,
      "inputs": [
        {
          "indexed": false,
          "internalType": "uint256",
          "name": "ownerKey",
          "type": "uint256"
        },
        {
          "indexed": false,
          "internalType": "uint256",
          "name": "assetId",
          "type": "uint256"
        },
        {
          "indexed": false,
          "internalType": "uint256",
          "name": "quantizedAmount",
          "type": "uint256"
        }
      ],
      "name": "LogAssetWithdrawalAllowed",
      "type": "event"
    },
    {
      "anonymous": false,
      "inputs": [
        {
          "indexed": false,
          "internalType": "address",
          "name": "depositorEthKey",
          "type": "address"
        },
        {
          "indexed": false,
          "internalType": "uint256",
          "name": "starkKey",
          "type": "uint256"
        },
        {
          "indexed": false,
          "internalType": "uint256",
          "name": "vaultId",
          "type": "uint256"
        },
        {
          "indexed": false,
          "internalType": "uint256",
          "name": "assetType",
          "type": "uint256"
        },
        {
          "indexed": false,
          "internalType": "uint256",
          "name": "nonQuantizedAmount",
          "type": "uint256"
        },
        {
          "indexed": false,
          "internalType": "uint256",
          "name": "quantizedAmount",
          "type": "uint256"
        }
      ],
      "name": "LogDeposit",
      "type": "event"
    },
    {
      "anonymous": false,
      "inputs": [
        {
          "indexed": false,
          "internalType": "uint256",
          "name": "starkKey",
          "type": "uint256"
        },
        {
          "indexed": false,
          "internalType": "uint256",
          "name": "vaultId",
          "type": "uint256"
        },
        {
          "indexed": false,
          "internalType": "uint256",
          "name": "assetId",
          "type": "uint256"
        }
      ],
      "name": "LogDepositCancel",
      "type": "event"
    },
    {
      "anonymous": false,
      "inputs": [
        {
          "indexed": false,
          "internalType": "uint256",
          "name": "starkKey",
          "type": "uint256"
        },
        {
          "indexed": false,
          "internalType": "uint256",
          "name": "vaultId",
          "type": "uint256"
        },
        {
          "indexed": false,
          "internalType": "uint256",
          "name": "assetType",
          "type": "uint256"
        },
        {
          "indexed": false,
          "internalType": "uint256",
          "name": "nonQuantizedAmount",
          "type": "uint256"
        },
        {
          "indexed": false,
          "internalType": "uint256",
          "name": "quantizedAmount",
          "type": "uint256"
        }
      ],
      "name": "LogDepositCancelReclaimed",
      "type": "event"
    },
    {
      "anonymous": false,
      "inputs": [
        {
          "indexed": false,
          "internalType": "uint256",
          "name": "starkKey",
          "type": "uint256"
        },
        {
          "indexed": false,
          "internalType": "uint256",
          "name": "vaultId",
          "type": "uint256"
        },
        {
          "indexed": false,
          "internalType": "uint256",
          "name": "assetType",
          "type": "uint256"
        },
        {
          "indexed": false,
          "internalType": "uint256",
          "name": "tokenId",
          "type": "uint256"
        },
        {
          "indexed": false,
          "internalType": "uint256",
          "name": "assetId",
          "type": "uint256"
        }
      ],
      "name": "LogDepositNftCancelReclaimed",
      "type": "event"
    },
    {
      "anonymous": false,
      "inputs": [
        {
          "indexed": false,
          "internalType": "address",
          "name": "depositorEthKey",
          "type": "address"
        },
        {
          "indexed": false,
          "internalType": "uint256",
          "name": "starkKey",
          "type": "uint256"
        },
        {
          "indexed": false,
          "internalType": "uint256",
          "name": "vaultId",
          "type": "uint256"
        },
        {
          "indexed": false,
          "internalType": "uint256",
          "name": "assetType",
          "type": "uint256"
        },
        {
          "indexed": false,
          "internalType": "uint256",
          "name": "tokenId",
          "type": "uint256"
        },
        {
          "indexed": false,
          "internalType": "uint256",
          "name": "assetId",
          "type": "uint256"
        },
        {
          "indexed": false,
          "internalType": "uint256",
          "name": "nonQuantizedAmount",
          "type": "uint256"
        },
        {
          "indexed": false,
          "internalType": "uint256",
          "name": "quantizedAmount",
          "type": "uint256"
        }
      ],
      "name": "LogDepositWithTokenId",
      "type": "event"
    },
    {
      "anonymous": false,
      "inputs": [
        {
          "indexed": false,
          "internalType": "uint256",
          "name": "starkKey",
          "type": "uint256"
        },
        {
          "indexed": false,
          "internalType": "uint256",
          "name": "vaultId",
          "type": "uint256"
        },
        {
          "indexed": false,
          "internalType": "uint256",
          "name": "assetType",
          "type": "uint256"
        },
        {
          "indexed": false,
          "internalType": "uint256",
          "name": "tokenId",
          "type": "uint256"
        },
        {
          "indexed": false,
          "internalType": "uint256",
          "name": "assetId",
          "type": "uint256"
        },
        {
          "indexed": false,
          "internalType": "uint256",
          "name": "nonQuantizedAmount",
          "type": "uint256"
        },
        {
          "indexed": false,
          "internalType": "uint256",
          "name": "quantizedAmount",
          "type": "uint256"
        }
      ],
      "name": "LogDepositWithTokenIdCancelReclaimed",
      "type": "event"
    },
    {
      "anonymous": false,
      "inputs": [],
      "name": "LogFrozen",
      "type": "event"
    },
    {
      "anonymous": false,
      "inputs": [
        {
          "indexed": false,
          "internalType": "uint256",
          "name": "ownerKey",
          "type": "uint256"
        },
        {
          "indexed": false,
          "internalType": "uint256",
          "name": "assetType",
          "type": "uint256"
        },
        {
          "indexed": false,
          "internalType": "uint256",
          "name": "nonQuantizedAmount",
          "type": "uint256"
        },
        {
          "indexed": false,
          "internalType": "uint256",
          "name": "quantizedAmount",
          "type": "uint256"
        },
        {
          "indexed": false,
          "internalType": "uint256",
          "name": "assetId",
          "type": "uint256"
        }
      ],
      "name": "LogMintWithdrawalPerformed",
      "type": "event"
    },
    {
      "anonymous": false,
      "inputs": [
        {
          "indexed": false,
          "internalType": "uint256",
          "name": "ownerKey",
          "type": "uint256"
        },
        {
          "indexed": false,
          "internalType": "uint256",
          "name": "assetId",
          "type": "uint256"
        },
        {
          "indexed": false,
          "internalType": "uint256",
          "name": "quantizedAmount",
          "type": "uint256"
        }
      ],
      "name": "LogMintableWithdrawalAllowed",
      "type": "event"
    },
    {
      "anonymous": false,
      "inputs": [
        {
          "indexed": false,
          "internalType": "address",
          "name": "acceptedGovernor",
          "type": "address"
        }
      ],
      "name": "LogNewGovernorAccepted",
      "type": "event"
    },
    {
      "anonymous": false,
      "inputs": [
        {
          "indexed": false,
          "internalType": "address",
          "name": "depositorEthKey",
          "type": "address"
        },
        {
          "indexed": false,
          "internalType": "uint256",
          "name": "starkKey",
          "type": "uint256"
        },
        {
          "indexed": false,
          "internalType": "uint256",
          "name": "vaultId",
          "type": "uint256"
        },
        {
          "indexed": false,
          "internalType": "uint256",
          "name": "assetType",
          "type": "uint256"
        },
        {
          "indexed": false,
          "internalType": "uint256",
          "name": "tokenId",
          "type": "uint256"
        },
        {
          "indexed": false,
          "internalType": "uint256",
          "name": "assetId",
          "type": "uint256"
        }
      ],
      "name": "LogNftDeposit",
      "type": "event"
    },
    {
      "anonymous": false,
      "inputs": [
        {
          "indexed": false,
          "internalType": "uint256",
          "name": "ownerKey",
          "type": "uint256"
        },
        {
          "indexed": false,
          "internalType": "uint256",
          "name": "assetId",
          "type": "uint256"
        }
      ],
      "name": "LogNftWithdrawalAllowed",
      "type": "event"
    },
    {
      "anonymous": false,
      "inputs": [
        {
          "indexed": false,
          "internalType": "uint256",
          "name": "ownerKey",
          "type": "uint256"
        },
        {
          "indexed": false,
          "internalType": "uint256",
          "name": "assetType",
          "type": "uint256"
        },
        {
          "indexed": false,
          "internalType": "uint256",
          "name": "tokenId",
          "type": "uint256"
        },
        {
          "indexed": false,
          "internalType": "uint256",
          "name": "assetId",
          "type": "uint256"
        },
        {
          "indexed": false,
          "internalType": "address",
          "name": "recipient",
          "type": "address"
        }
      ],
      "name": "LogNftWithdrawalPerformed",
      "type": "event"
    },
    {
      "anonymous": false,
      "inputs": [
        {
          "indexed": false,
          "internalType": "address",
          "name": "nominatedGovernor",
          "type": "address"
        }
      ],
      "name": "LogNominatedGovernor",
      "type": "event"
    },
    {
      "anonymous": false,
      "inputs": [],
      "name": "LogNominationCancelled",
      "type": "event"
    },
    {
      "anonymous": false,
      "inputs": [
        {
          "indexed": false,
          "internalType": "address",
          "name": "removedGovernor",
          "type": "address"
        }
      ],
      "name": "LogRemovedGovernor",
      "type": "event"
    },
    {
      "anonymous": false,
      "inputs": [
        {
          "indexed": false,
          "internalType": "address",
          "name": "tokenAdmin",
          "type": "address"
        }
      ],
      "name": "LogTokenAdminAdded",
      "type": "event"
    },
    {
      "anonymous": false,
      "inputs": [
        {
          "indexed": false,
          "internalType": "address",
          "name": "tokenAdmin",
          "type": "address"
        }
      ],
      "name": "LogTokenAdminRemoved",
      "type": "event"
    },
    {
      "anonymous": false,
      "inputs": [
        {
          "indexed": false,
          "internalType": "uint256",
          "name": "assetType",
          "type": "uint256"
        },
        {
          "indexed": false,
          "internalType": "bytes",
          "name": "assetInfo",
          "type": "bytes"
        },
        {
          "indexed": false,
          "internalType": "uint256",
          "name": "quantum",
          "type": "uint256"
        }
      ],
      "name": "LogTokenRegistered",
      "type": "event"
    },
    {
      "anonymous": false,
      "inputs": [],
      "name": "LogUnFrozen",
      "type": "event"
    },
    {
      "anonymous": false,
      "inputs": [
        {
          "indexed": false,
          "internalType": "uint256",
          "name": "ownerKey",
          "type": "uint256"
        },
        {
          "indexed": false,
          "internalType": "uint256",
          "name": "assetType",
          "type": "uint256"
        },
        {
          "indexed": false,
          "internalType": "uint256",
          "name": "nonQuantizedAmount",
          "type": "uint256"
        },
        {
          "indexed": false,
          "internalType": "uint256",
          "name": "quantizedAmount",
          "type": "uint256"
        }
      ],
      "name": "LogWithdrawalAllowed",
      "type": "event"
    },
    {
      "anonymous": false,
      "inputs": [
        {
          "indexed": false,
          "internalType": "uint256",
          "name": "ownerKey",
          "type": "uint256"
        },
        {
          "indexed": false,
          "internalType": "uint256",
          "name": "assetType",
          "type": "uint256"
        },
        {
          "indexed": false,
          "internalType": "uint256",
          "name": "nonQuantizedAmount",
          "type": "uint256"
        },
        {
          "indexed": false,
          "internalType": "uint256",
          "name": "quantizedAmount",
          "type": "uint256"
        },
        {
          "indexed": false,
          "internalType": "address",
          "name": "recipient",
          "type": "address"
        }
      ],
      "name": "LogWithdrawalPerformed",
      "type": "event"
    },
    {
      "anonymous": false,
      "inputs": [
        {
          "indexed": false,
          "internalType": "uint256",
          "name": "ownerKey",
          "type": "uint256"
        },
        {
          "indexed": false,
          "internalType": "uint256",
          "name": "assetType",
          "type": "uint256"
        },
        {
          "indexed": false,
          "internalType": "uint256",
          "name": "tokenId",
          "type": "uint256"
        },
        {
          "indexed": false,
          "internalType": "uint256",
          "name": "assetId",
          "type": "uint256"
        },
        {
          "indexed": false,
          "internalType": "uint256",
          "name": "nonQuantizedAmount",
          "type": "uint256"
        },
        {
          "indexed": false,
          "internalType": "uint256",
          "name": "quantizedAmount",
          "type": "uint256"
        },
        {
          "indexed": false,
          "internalType": "address",
          "name": "recipient",
          "type": "address"
        }
      ],
      "name": "LogWithdrawalWithTokenIdPerformed",
      "type": "event"
    },
    {
      "inputs": [],
      "name": "DEPOSIT_CANCEL_DELAY",
      "outputs": [
        {
          "internalType": "uint256",
          "name": "",
          "type": "uint256"
        }
      ],
      "stateMutability": "view",
      "type": "function"
    },
    {
      "inputs": [],
      "name": "FREEZE_GRACE_PERIOD",
      "outputs": [
        {
          "internalType": "uint256",
          "name": "",
          "type": "uint256"
        }
      ],
      "stateMutability": "view",
      "type": "function"
    },
    {
      "inputs": [],
      "name": "MAIN_GOVERNANCE_INFO_TAG",
      "outputs": [
        {
          "internalType": "string",
          "name": "",
          "type": "string"
        }
      ],
      "stateMutability": "view",
      "type": "function"
    },
    {
      "inputs": [],
      "name": "MAX_FORCED_ACTIONS_REQS_PER_BLOCK",
      "outputs": [
        {
          "internalType": "uint256",
          "name": "",
          "type": "uint256"
        }
      ],
      "stateMutability": "view",
      "type": "function"
    },
    {
      "inputs": [],
      "name": "MAX_VERIFIER_COUNT",
      "outputs": [
        {
          "internalType": "uint256",
          "name": "",
          "type": "uint256"
        }
      ],
      "stateMutability": "view",
      "type": "function"
    },
    {
      "inputs": [],
      "name": "UNFREEZE_DELAY",
      "outputs": [
        {
          "internalType": "uint256",
          "name": "",
          "type": "uint256"
        }
      ],
      "stateMutability": "view",
      "type": "function"
    },
    {
      "inputs": [],
      "name": "VERIFIER_REMOVAL_DELAY",
      "outputs": [
        {
          "internalType": "uint256",
          "name": "",
          "type": "uint256"
        }
      ],
      "stateMutability": "view",
      "type": "function"
    },
    {
      "inputs": [
        {
          "internalType": "uint256",
          "name": "assetType",
          "type": "uint256"
        },
        {
          "internalType": "uint256",
          "name": "tokenId",
          "type": "uint256"
        }
      ],
      "name": "calculateAssetIdWithTokenId",
      "outputs": [
        {
          "internalType": "uint256",
          "name": "",
          "type": "uint256"
        }
      ],
      "stateMutability": "view",
      "type": "function"
    },
    {
      "inputs": [
        {
          "internalType": "uint256",
          "name": "assetType",
          "type": "uint256"
        },
        {
          "internalType": "bytes",
          "name": "mintingBlob",
          "type": "bytes"
        }
      ],
      "name": "calculateMintableAssetId",
      "outputs": [
        {
          "internalType": "uint256",
          "name": "assetId",
          "type": "uint256"
        }
      ],
      "stateMutability": "pure",
      "type": "function"
    },
    {
      "inputs": [],
      "name": "defaultVaultWithdrawalLock",
      "outputs": [
        {
          "internalType": "uint256",
          "name": "",
          "type": "uint256"
        }
      ],
      "stateMutability": "view",
      "type": "function"
    },
    {
      "inputs": [
        {
          "internalType": "uint256",
          "name": "starkKey",
          "type": "uint256"
        },
        {
          "internalType": "uint256",
          "name": "assetType",
          "type": "uint256"
        },
        {
          "internalType": "uint256",
          "name": "vaultId",
          "type": "uint256"
        }
      ],
      "name": "deposit",
      "outputs": [],
      "stateMutability": "payable",
      "type": "function"
    },
    {
      "inputs": [
        {
          "internalType": "uint256",
          "name": "starkKey",
          "type": "uint256"
        },
        {
          "internalType": "uint256",
          "name": "assetType",
          "type": "uint256"
        },
        {
          "internalType": "uint256",
          "name": "vaultId",
          "type": "uint256"
        },
        {
          "internalType": "uint256",
          "name": "quantizedAmount",
          "type": "uint256"
        }
      ],
      "name": "deposit",
      "outputs": [],
      "stateMutability": "nonpayable",
      "type": "function"
    },
    {
      "inputs": [
        {
          "internalType": "uint256",
          "name": "starkKey",
          "type": "uint256"
        },
        {
          "internalType": "uint256",
          "name": "assetId",
          "type": "uint256"
        },
        {
          "internalType": "uint256",
          "name": "vaultId",
          "type": "uint256"
        }
      ],
      "name": "depositCancel",
      "outputs": [],
      "stateMutability": "nonpayable",
      "type": "function"
    },
    {
      "inputs": [
        {
          "internalType": "uint256",
          "name": "starkKey",
          "type": "uint256"
        },
        {
          "internalType": "uint256",
          "name": "assetType",
          "type": "uint256"
        },
        {
          "internalType": "uint256",
          "name": "tokenId",
          "type": "uint256"
        },
        {
          "internalType": "uint256",
          "name": "vaultId",
          "type": "uint256"
        },
        {
          "internalType": "uint256",
          "name": "quantizedAmount",
          "type": "uint256"
        }
      ],
      "name": "depositERC1155",
      "outputs": [],
      "stateMutability": "nonpayable",
      "type": "function"
    },
    {
      "inputs": [
        {
          "internalType": "uint256",
          "name": "starkKey",
          "type": "uint256"
        },
        {
          "internalType": "uint256",
          "name": "assetType",
          "type": "uint256"
        },
        {
          "internalType": "uint256",
          "name": "vaultId",
          "type": "uint256"
        },
        {
          "internalType": "uint256",
          "name": "quantizedAmount",
          "type": "uint256"
        }
      ],
      "name": "depositERC20",
      "outputs": [],
      "stateMutability": "nonpayable",
      "type": "function"
    },
    {
      "inputs": [
        {
          "internalType": "uint256",
          "name": "starkKey",
          "type": "uint256"
        },
        {
          "internalType": "uint256",
          "name": "assetType",
          "type": "uint256"
        },
        {
          "internalType": "uint256",
          "name": "vaultId",
          "type": "uint256"
        }
      ],
      "name": "depositEth",
      "outputs": [],
      "stateMutability": "payable",
      "type": "function"
    },
    {
      "inputs": [
        {
          "internalType": "uint256",
          "name": "starkKey",
          "type": "uint256"
        },
        {
          "internalType": "uint256",
          "name": "assetType",
          "type": "uint256"
        },
        {
          "internalType": "uint256",
          "name": "vaultId",
          "type": "uint256"
        },
        {
          "internalType": "uint256",
          "name": "tokenId",
          "type": "uint256"
        }
      ],
      "name": "depositNft",
      "outputs": [],
      "stateMutability": "nonpayable",
      "type": "function"
    },
    {
      "inputs": [
        {
          "internalType": "uint256",
          "name": "starkKey",
          "type": "uint256"
        },
        {
          "internalType": "uint256",
          "name": "assetType",
          "type": "uint256"
        },
        {
          "internalType": "uint256",
          "name": "vaultId",
          "type": "uint256"
        },
        {
          "internalType": "uint256",
          "name": "tokenId",
          "type": "uint256"
        }
      ],
      "name": "depositNftReclaim",
      "outputs": [],
      "stateMutability": "nonpayable",
      "type": "function"
    },
    {
      "inputs": [
        {
          "internalType": "uint256",
          "name": "starkKey",
          "type": "uint256"
        },
        {
          "internalType": "uint256",
          "name": "assetType",
          "type": "uint256"
        },
        {
          "internalType": "uint256",
          "name": "vaultId",
          "type": "uint256"
        }
      ],
      "name": "depositReclaim",
      "outputs": [],
      "stateMutability": "nonpayable",
      "type": "function"
    },
    {
      "inputs": [
        {
          "internalType": "uint256",
          "name": "starkKey",
          "type": "uint256"
        },
        {
          "internalType": "uint256",
          "name": "assetType",
          "type": "uint256"
        },
        {
          "internalType": "uint256",
          "name": "tokenId",
          "type": "uint256"
        },
        {
          "internalType": "uint256",
          "name": "vaultId",
          "type": "uint256"
        },
        {
          "internalType": "uint256",
          "name": "quantizedAmount",
          "type": "uint256"
        }
      ],
      "name": "depositWithTokenId",
      "outputs": [],
      "stateMutability": "nonpayable",
      "type": "function"
    },
    {
      "inputs": [
        {
          "internalType": "uint256",
          "name": "starkKey",
          "type": "uint256"
        },
        {
          "internalType": "uint256",
          "name": "assetType",
          "type": "uint256"
        },
        {
          "internalType": "uint256",
          "name": "tokenId",
          "type": "uint256"
        },
        {
          "internalType": "uint256",
          "name": "vaultId",
          "type": "uint256"
        }
      ],
      "name": "depositWithTokenIdReclaim",
      "outputs": [],
      "stateMutability": "nonpayable",
      "type": "function"
    },
    {
      "inputs": [],
      "name": "getActionCount",
      "outputs": [
        {
          "internalType": "uint256",
          "name": "",
          "type": "uint256"
        }
      ],
      "stateMutability": "view",
      "type": "function"
    },
    {
      "inputs": [
        {
          "internalType": "uint256",
          "name": "actionIndex",
          "type": "uint256"
        }
      ],
      "name": "getActionHashByIndex",
      "outputs": [
        {
          "internalType": "bytes32",
          "name": "",
          "type": "bytes32"
        }
      ],
      "stateMutability": "view",
      "type": "function"
    },
    {
      "inputs": [
        {
          "internalType": "uint256",
          "name": "assetType",
          "type": "uint256"
        }
      ],
      "name": "getAssetInfo",
      "outputs": [
        {
          "internalType": "bytes",
          "name": "assetInfo",
          "type": "bytes"
        }
      ],
      "stateMutability": "view",
      "type": "function"
    },
    {
      "inputs": [
        {
          "internalType": "uint256",
          "name": "starkKey",
          "type": "uint256"
        },
        {
          "internalType": "uint256",
          "name": "assetId",
          "type": "uint256"
        },
        {
          "internalType": "uint256",
          "name": "vaultId",
          "type": "uint256"
        }
      ],
      "name": "getCancellationRequest",
      "outputs": [
        {
          "internalType": "uint256",
          "name": "request",
          "type": "uint256"
        }
      ],
      "stateMutability": "view",
      "type": "function"
    },
    {
      "inputs": [
        {
          "internalType": "uint256",
          "name": "starkKey",
          "type": "uint256"
        },
        {
          "internalType": "uint256",
          "name": "assetId",
          "type": "uint256"
        },
        {
          "internalType": "uint256",
          "name": "vaultId",
          "type": "uint256"
        }
      ],
      "name": "getDepositBalance",
      "outputs": [
        {
          "internalType": "uint256",
          "name": "",
          "type": "uint256"
        }
      ],
      "stateMutability": "view",
      "type": "function"
    },
    {
      "inputs": [
        {
          "internalType": "uint256",
          "name": "ownerKey",
          "type": "uint256"
        }
      ],
      "name": "getEthKey",
      "outputs": [
        {
          "internalType": "address",
          "name": "",
          "type": "address"
        }
      ],
      "stateMutability": "view",
      "type": "function"
    },
    {
      "inputs": [
        {
          "internalType": "uint256",
          "name": "ownerKey",
          "type": "uint256"
        },
        {
          "internalType": "uint256",
          "name": "vaultId",
          "type": "uint256"
        }
      ],
      "name": "getFullWithdrawalRequest",
      "outputs": [
        {
          "internalType": "uint256",
          "name": "",
          "type": "uint256"
        }
      ],
      "stateMutability": "view",
      "type": "function"
    },
    {
      "inputs": [
        {
          "internalType": "uint256",
          "name": "starkKey",
          "type": "uint256"
        },
        {
          "internalType": "uint256",
          "name": "assetId",
          "type": "uint256"
        },
        {
          "internalType": "uint256",
          "name": "vaultId",
          "type": "uint256"
        }
      ],
      "name": "getQuantizedDepositBalance",
      "outputs": [
        {
          "internalType": "uint256",
          "name": "",
          "type": "uint256"
        }
      ],
      "stateMutability": "view",
      "type": "function"
    },
    {
      "inputs": [
        {
          "internalType": "uint256",
          "name": "presumedAssetType",
          "type": "uint256"
        }
      ],
      "name": "getQuantum",
      "outputs": [
        {
          "internalType": "uint256",
          "name": "quantum",
          "type": "uint256"
        }
      ],
      "stateMutability": "view",
      "type": "function"
    },
    {
      "inputs": [
        {
          "internalType": "uint256",
          "name": "ownerKey",
          "type": "uint256"
        },
        {
          "internalType": "uint256",
          "name": "assetId",
          "type": "uint256"
        }
      ],
      "name": "getWithdrawalBalance",
      "outputs": [
        {
          "internalType": "uint256",
          "name": "",
          "type": "uint256"
        }
      ],
      "stateMutability": "view",
      "type": "function"
    },
    {
      "inputs": [],
      "name": "identify",
      "outputs": [
        {
          "internalType": "string",
          "name": "",
          "type": "string"
        }
      ],
      "stateMutability": "pure",
      "type": "function"
    },
    {
      "inputs": [
        {
          "internalType": "bytes",
          "name": "",
          "type": "bytes"
        }
      ],
      "name": "initialize",
      "outputs": [],
      "stateMutability": "nonpayable",
      "type": "function"
    },
    {
      "inputs": [],
      "name": "initializerSize",
      "outputs": [
        {
          "internalType": "uint256",
          "name": "",
          "type": "uint256"
        }
      ],
      "stateMutability": "view",
      "type": "function"
    },
    {
      "inputs": [
        {
          "internalType": "uint256",
          "name": "assetType",
          "type": "uint256"
        }
      ],
      "name": "isAssetRegistered",
      "outputs": [
        {
          "internalType": "bool",
          "name": "",
          "type": "bool"
        }
      ],
      "stateMutability": "view",
      "type": "function"
    },
    {
      "inputs": [],
      "name": "isFrozen",
      "outputs": [
        {
          "internalType": "bool",
          "name": "",
          "type": "bool"
        }
      ],
      "stateMutability": "view",
      "type": "function"
    },
    {
      "inputs": [
        {
          "internalType": "address",
          "name": "testedAdmin",
          "type": "address"
        }
      ],
      "name": "isTokenAdmin",
      "outputs": [
        {
          "internalType": "bool",
          "name": "",
          "type": "bool"
        }
      ],
      "stateMutability": "view",
      "type": "function"
    },
    {
      "inputs": [],
      "name": "mainAcceptGovernance",
      "outputs": [],
      "stateMutability": "nonpayable",
      "type": "function"
    },
    {
      "inputs": [],
      "name": "mainCancelNomination",
      "outputs": [],
      "stateMutability": "nonpayable",
      "type": "function"
    },
    {
      "inputs": [
        {
          "internalType": "address",
          "name": "testGovernor",
          "type": "address"
        }
      ],
      "name": "mainIsGovernor",
      "outputs": [
        {
          "internalType": "bool",
          "name": "",
          "type": "bool"
        }
      ],
      "stateMutability": "view",
      "type": "function"
    },
    {
      "inputs": [
        {
          "internalType": "address",
          "name": "newGovernor",
          "type": "address"
        }
      ],
      "name": "mainNominateNewGovernor",
      "outputs": [],
      "stateMutability": "nonpayable",
      "type": "function"
    },
    {
      "inputs": [
        {
          "internalType": "address",
          "name": "governorForRemoval",
          "type": "address"
        }
      ],
      "name": "mainRemoveGovernor",
      "outputs": [],
      "stateMutability": "nonpayable",
      "type": "function"
    },
    {
      "inputs": [
        {
          "internalType": "address",
          "name": "operator",
          "type": "address"
        },
        {
          "internalType": "address",
          "name": "",
          "type": "address"
        },
        {
          "internalType": "uint256[]",
          "name": "",
          "type": "uint256[]"
        },
        {
          "internalType": "uint256[]",
          "name": "",
          "type": "uint256[]"
        },
        {
          "internalType": "bytes",
          "name": "",
          "type": "bytes"
        }
      ],
      "name": "onERC1155BatchReceived",
      "outputs": [
        {
          "internalType": "bytes4",
          "name": "",
          "type": "bytes4"
        }
      ],
      "stateMutability": "nonpayable",
      "type": "function"
    },
    {
      "inputs": [
        {
          "internalType": "address",
          "name": "operator",
          "type": "address"
        },
        {
          "internalType": "address",
          "name": "",
          "type": "address"
        },
        {
          "internalType": "uint256",
          "name": "",
          "type": "uint256"
        },
        {
          "internalType": "uint256",
          "name": "",
          "type": "uint256"
        },
        {
          "internalType": "bytes",
          "name": "",
          "type": "bytes"
        }
      ],
      "name": "onERC1155Received",
      "outputs": [
        {
          "internalType": "bytes4",
          "name": "",
          "type": "bytes4"
        }
      ],
      "stateMutability": "nonpayable",
      "type": "function"
    },
    {
      "inputs": [
        {
          "internalType": "address",
          "name": "operator",
          "type": "address"
        },
        {
          "internalType": "address",
          "name": "",
          "type": "address"
        },
        {
          "internalType": "uint256",
          "name": "",
          "type": "uint256"
        },
        {
          "internalType": "bytes",
          "name": "",
          "type": "bytes"
        }
      ],
      "name": "onERC721Received",
      "outputs": [
        {
          "internalType": "bytes4",
          "name": "",
          "type": "bytes4"
        }
      ],
      "stateMutability": "nonpayable",
      "type": "function"
    },
    {
      "inputs": [],
      "name": "orderRegistryAddress",
      "outputs": [
        {
          "internalType": "address",
          "name": "",
          "type": "address"
        }
      ],
      "stateMutability": "view",
      "type": "function"
    },
    {
      "inputs": [
        {
          "internalType": "uint256",
          "name": "assetType",
          "type": "uint256"
        },
        {
          "internalType": "bytes",
          "name": "assetInfo",
          "type": "bytes"
        }
      ],
      "name": "registerToken",
      "outputs": [],
      "stateMutability": "nonpayable",
      "type": "function"
    },
    {
      "inputs": [
        {
          "internalType": "uint256",
          "name": "assetType",
          "type": "uint256"
        },
        {
          "internalType": "bytes",
          "name": "assetInfo",
          "type": "bytes"
        },
        {
          "internalType": "uint256",
          "name": "quantum",
          "type": "uint256"
        }
      ],
      "name": "registerToken",
      "outputs": [],
      "stateMutability": "nonpayable",
      "type": "function"
    },
    {
      "inputs": [
        {
          "internalType": "address",
          "name": "newAdmin",
          "type": "address"
        }
      ],
      "name": "registerTokenAdmin",
      "outputs": [],
      "stateMutability": "nonpayable",
      "type": "function"
    },
    {
      "inputs": [],
      "name": "unFreeze",
      "outputs": [],
      "stateMutability": "nonpayable",
      "type": "function"
    },
    {
      "inputs": [
        {
          "internalType": "address",
          "name": "oldAdmin",
          "type": "address"
        }
      ],
      "name": "unregisterTokenAdmin",
      "outputs": [],
      "stateMutability": "nonpayable",
      "type": "function"
    },
    {
      "inputs": [],
      "name": "validatedSelectors",
      "outputs": [
        {
          "internalType": "bytes4[]",
          "name": "selectors",
          "type": "bytes4[]"
        }
      ],
      "stateMutability": "pure",
      "type": "function"
    },
    {
      "inputs": [
        {
          "internalType": "uint256",
          "name": "ownerKey",
          "type": "uint256"
        },
        {
          "internalType": "uint256",
          "name": "assetType",
          "type": "uint256"
        }
      ],
      "name": "withdraw",
      "outputs": [],
      "stateMutability": "nonpayable",
      "type": "function"
    },
    {
      "inputs": [
        {
          "internalType": "uint256",
          "name": "ownerKey",
          "type": "uint256"
        },
        {
          "internalType": "uint256",
          "name": "assetType",
          "type": "uint256"
        },
        {
          "internalType": "bytes",
          "name": "mintingBlob",
          "type": "bytes"
        }
      ],
      "name": "withdrawAndMint",
      "outputs": [],
      "stateMutability": "nonpayable",
      "type": "function"
    },
    {
      "inputs": [
        {
          "internalType": "uint256",
          "name": "ownerKey",
          "type": "uint256"
        },
        {
          "internalType": "uint256",
          "name": "assetType",
          "type": "uint256"
        },
        {
          "internalType": "uint256",
          "name": "tokenId",
          "type": "uint256"
        }
      ],
      "name": "withdrawNft",
      "outputs": [],
      "stateMutability": "nonpayable",
      "type": "function"
    },
    {
      "inputs": [
        {
          "internalType": "uint256",
          "name": "ownerKey",
          "type": "uint256"
        },
        {
          "internalType": "uint256",
          "name": "assetType",
          "type": "uint256"
        },
        {
          "internalType": "uint256",
          "name": "tokenId",
          "type": "uint256"
        }
      ],
      "name": "withdrawWithTokenId",
      "outputs": [],
      "stateMutability": "nonpayable",
      "type": "function"
    }
  ],
  "bytecode": {
    "object": "0x608060405234801561001057600080fd5b50614f57806100206000396000f3fe6080604052600436106103695760003560e01c80638c4bce1c116101c6578063bc197c81116100f7578063e30a5cff11610095578063eeb728661161006f578063eeb7286614611022578063f23a6e6114611037578063f637d950146110d7578063fcb058221461110157610369565b8063e30a5cff14610fc8578063e6de628214610fdd578063ec3161b014610ff257610369565b8063c8b1031a116100d1578063c8b1031a14610e13578063d88d8b3814610e95578063d91443b714610f17578063dd7202d814610f9e57610369565b8063bc197c8114610c19578063be2b110514610d4d578063c23b60ef14610d8957610369565b8063a45d784111610164578063ae1cdde61161013e578063ae1cdde614610ada578063ae87381614610b16578063b12773fb14610b4c578063b766311214610c0457610369565b8063a45d784114610a5c578063a6fa6e9014610a71578063abf98fe114610aa457610369565b80639ed17084116101a05780639ed170841461098a578063a1cc5e13146109c6578063a1cc921e146109f6578063a2bdde3d14610a2957610369565b80638c4bce1c1461092d578063993f3639146109605780639c6a28371461097557610369565b80633cc660ad116102a05780635eecd2181161023e57806372eb36881161021857806372eb3688146108b857806377e84e0d146108cd5780637cf12b90146108e25780637df7dc04146108f757610369565b80635eecd2181461086d57806364d84842146108825780636ce5d9571461039557610369565b806345f5cd971161027a57806345f5cd971461079857806349325bac146107cb5780634e8912da1461080d5780635e586cd11461084357610369565b80633cc660ad146106d8578063439fab91146106ed578063441a3e701461076857610369565b80631dbd1da71161030d578063296e2f37116102e7578063296e2f371461061b57806329e411ac1461064b578063333ac20b1461068d57806333eeb147146106c357610369565b80631dbd1da7146105845780632505c3d9146105ca57806328700a151461060657610369565b8063049f5ade11610349578063049f5ade146103f65780630b3a2d21146104345780630ebdac0314610467578063150b7a02146104cc57610369565b80627175421461036e578062aeef8a14610395578063019b417a146103c0575b600080fd5b34801561037a57600080fd5b5061038361113d565b60408051918252519081900360200190f35b6103be600480360360608110156103ab57600080fd5b5080359060208101359060400135611144565b005b3480156103cc57600080fd5b506103be600480360360608110156103e357600080fd5b50803590602081013590604001356111ad565b34801561040257600080fd5b506104206004803603602081101561041957600080fd5b50356111b8565b604080519115158252519081900360200190f35b34801561044057600080fd5b506103be6004803603602081101561045757600080fd5b50356001600160a01b03166111d0565b34801561047357600080fd5b5061047c611277565b60408051602080825283518183015283519192839290830191858101910280838360005b838110156104b85781810151838201526020016104a0565b505050509050019250505060405180910390f35b3480156104d857600080fd5b50610567600480360360808110156104ef57600080fd5b6001600160a01b03823581169260208101359091169160408201359190810190608081016060820135600160201b81111561052957600080fd5b82018360208201111561053b57600080fd5b803590602001918460018302840111600160201b8311171561055c57600080fd5b509092509050611430565b604080516001600160e01b03199092168252519081900360200190f35b34801561059057600080fd5b506105ae600480360360208110156105a757600080fd5b503561145c565b604080516001600160a01b039092168252519081900360200190f35b3480156105d657600080fd5b506103be600480360360808110156105ed57600080fd5b50803590602081013590604081013590606001356114a1565b34801561061257600080fd5b506103be61161b565b34801561062757600080fd5b506103836004803603604081101561063e57600080fd5b5080359060200135611625565b34801561065757600080fd5b506103be600480360360a081101561066e57600080fd5b508035906020810135906040810135906060810135906080013561164c565b34801561069957600080fd5b50610383600480360360608110156106b057600080fd5b5080359060208101359060400135611845565b3480156106cf57600080fd5b50610420611869565b3480156106e457600080fd5b50610383611879565b3480156106f957600080fd5b506103be6004803603602081101561071057600080fd5b810190602081018135600160201b81111561072a57600080fd5b82018360208201111561073c57600080fd5b803590602001918460018302840111600160201b8311171561075d57600080fd5b50909250905061187e565b34801561077457600080fd5b506103be6004803603604081101561078b57600080fd5b50803590602001356118bd565b3480156107a457600080fd5b50610420600480360360208110156107bb57600080fd5b50356001600160a01b0316611a01565b3480156107d757600080fd5b506103be600480360360a08110156107ee57600080fd5b5080359060208101359060408101359060608101359060800135611a12565b34801561081957600080fd5b506103836004803603606081101561083057600080fd5b5080359060208101359060400135611ac0565b34801561084f57600080fd5b506103836004803603602081101561086657600080fd5b5035611ae4565b34801561087957600080fd5b50610383611b54565b34801561088e57600080fd5b506103be600480360360608110156108a557600080fd5b5080359060208101359060400135611b5a565b3480156108c457600080fd5b506103be611ccb565b3480156108d957600080fd5b50610383611cd3565b3480156108ee57600080fd5b506103be611cda565b34801561090357600080fd5b506103be6004803603606081101561091a57600080fd5b5080359060208101359060400135611e1e565b34801561093957600080fd5b506103be6004803603602081101561095057600080fd5b50356001600160a01b0316611ef2565b34801561096c57600080fd5b50610383611efe565b34801561098157600080fd5b506105ae611f06565b34801561099657600080fd5b506103be600480360360808110156109ad57600080fd5b5080359060208101359060408101359060600135611f1d565b3480156109d257600080fd5b50610383600480360360408110156109e957600080fd5b5080359060200135611f2f565b348015610a0257600080fd5b506103be60048036036020811015610a1957600080fd5b50356001600160a01b0316612056565b348015610a3557600080fd5b5061042060048036036020811015610a4c57600080fd5b50356001600160a01b031661205f565b348015610a6857600080fd5b5061038361207d565b348015610a7d57600080fd5b506103be60048036036020811015610a9457600080fd5b50356001600160a01b031661208b565b348015610ab057600080fd5b5061038360048036036060811015610ac757600080fd5b508035906020810135906040013561212f565b348015610ae657600080fd5b506103be60048036036080811015610afd57600080fd5b5080359060208101359060408101359060600135612167565b348015610b2257600080fd5b506103be60048036036060811015610b3957600080fd5b508035906020810135906040013561220e565b348015610b5857600080fd5b5061038360048036036040811015610b6f57600080fd5b81359190810190604081016020820135600160201b811115610b9057600080fd5b820183602082011115610ba257600080fd5b803590602001918460018302840111600160201b83111715610bc357600080fd5b91908080601f01602080910402602001604051908101604052809392919081815260200183838082843760009201919091525092955061234b945050505050565b348015610c1057600080fd5b5061038361240c565b348015610c2557600080fd5b50610567600480360360a0811015610c3c57600080fd5b6001600160a01b038235811692602081013590911691810190606081016040820135600160201b811115610c6f57600080fd5b820183602082011115610c8157600080fd5b803590602001918460208302840111600160201b83111715610ca257600080fd5b919390929091602081019035600160201b811115610cbf57600080fd5b820183602082011115610cd157600080fd5b803590602001918460208302840111600160201b83111715610cf257600080fd5b919390929091602081019035600160201b811115610d0f57600080fd5b820183602082011115610d2157600080fd5b803590602001918460018302840111600160201b83111715610d4257600080fd5b509092509050612413565b348015610d5957600080fd5b506103be60048036036080811015610d7057600080fd5b5080359060208101359060408101359060600135612442565b348015610d9557600080fd5b50610d9e6125fb565b6040805160208082528351818301528351919283929083019185019080838360005b83811015610dd8578181015183820152602001610dc0565b50505050905090810190601f168015610e055780820380516001836020036101000a031916815260200191505b509250505060405180910390f35b348015610e1f57600080fd5b506103be60048036036040811015610e3657600080fd5b81359190810190604081016020820135600160201b811115610e5757600080fd5b820183602082011115610e6957600080fd5b803590602001918460018302840111600160201b83111715610e8a57600080fd5b509092509050612617565b348015610ea157600080fd5b506103be60048036036060811015610eb857600080fd5b81359190810190604081016020820135600160201b811115610ed957600080fd5b820183602082011115610eeb57600080fd5b803590602001918460018302840111600160201b83111715610f0c57600080fd5b919350915035612620565b348015610f2357600080fd5b506103be60048036036060811015610f3a57600080fd5b813591602081013591810190606081016040820135600160201b811115610f6057600080fd5b820183602082011115610f7257600080fd5b803590602001918460018302840111600160201b83111715610f9357600080fd5b5090925090506129c7565b348015610faa57600080fd5b5061038360048036036020811015610fc157600080fd5b5035612bbd565b348015610fd457600080fd5b50610383612bee565b348015610fe957600080fd5b50610383612bf3565b348015610ffe57600080fd5b506103836004803603604081101561101557600080fd5b5080359060200135612bf8565b34801561102e57600080fd5b50610d9e612c27565b34801561104357600080fd5b50610567600480360360a081101561105a57600080fd5b6001600160a01b03823581169260208101359091169160408201359160608101359181019060a081016080820135600160201b81111561109957600080fd5b8201836020820111156110ab57600080fd5b803590602001918460018302840111600160201b831117156110cc57600080fd5b509092509050612c47565b3480156110e357600080fd5b50610d9e600480360360208110156110fa57600080fd5b5035612c74565b34801561110d57600080fd5b506103be6004803603608081101561112457600080fd5b5080359060208101359060408101359060600135612d79565b62093a8081565b61114d82612df1565b611193576040805162461bcd60e51b8152602060048201526012602482015271494e56414c49445f41535345545f5459504560701b604482015290519081900360640190fd5b6111a88383836111a38634612e15565b6114a1565b505050565b6111a8838383611b5a565b60008181526015602052604090205460ff165b919050565b6111d933612e82565b61121c576040805162461bcd60e51b815260206004820152600f60248201526e4f4e4c595f474f5645524e414e434560881b604482015290519081900360640190fd5b6001600160a01b038116600081815260116020908152604091829020805460ff19166001179055815192835290517f9085a9044aeb6daeeb5b4bf84af42b1a1613d4056f503c4e992b6396c16bd52f9281900390910190a150565b60408051600680825260e0820190925260609190600090826020820160c08036833750508151919450506001820191631f7df70160e21b9185919081106112ba57fe5b6001600160e01b0319909216602092830291909101909101528251600182019163be2b110560e01b9185919081106112ee57fe5b6001600160e01b031990921660209283029190910190910152825160018201916357439c0b60e11b91859190811061132257fe5b6001600160e01b03199092166020928302919091019091015282516001820191630441a3e760e41b91859190811061135657fe5b6001600160e01b0319909216602092830291909101909101528251600182019163d91443b760e01b91859190811061138a57fe5b6001600160e01b0319909216602092830291909101909101528251600182019163326c242160e11b9185919081106113be57fe5b6001600160e01b03199092166020928302919091019091015280821461142b576040805162461bcd60e51b815260206004820181905260248201527f494e434f52524543545f53454c4543544f52535f41525241595f4c454e475448604482015290519081900360640190fd5b505090565b60006001600160a01b0386163014611449576000611452565b630a85bd0160e11b5b9695505050505050565b6000818152601860205260408120546001600160a01b031680156114815790506111cb565b6001600160a01b038316831461149857600061149a565b825b9392505050565b6114a9611869565b156114ed576040805162461bcd60e51b815260206004820152600f60248201526e29aa20aa22afa4a9afa32927ad22a760891b604482015290519081900360640190fd5b6114f683612eb1565b1561153e576040805162461bcd60e51b81526020600482015260136024820152724d494e5441424c455f41535345545f5459504560681b604482015290519081900360640190fd5b61154783612ef5565b611592576040805162461bcd60e51b81526020600482015260176024820152764e4f4e5f46554e4749424c455f41535345545f5459504560481b604482015290519081900360640190fd5b8261159f85828585612f54565b506115aa8483613049565b7f06724742ccc8c330a39a641ef02a0b419bd09248360680bb38159b0a8c2635d6338685876115d98988613313565b604080516001600160a01b0390961686526020860194909452848401929092526060840152608083015260a08201859052519081900360c00190a15050505050565b61162361338a565b565b6000602260006116358585613457565b815260200190815260200160002054905092915050565b611654611869565b15611698576040805162461bcd60e51b815260206004820152600f60248201526e29aa20aa22afa4a9afa32927ad22a760891b604482015290519081900360640190fd5b6116a1846134b1565b6116e7576040805162461bcd60e51b8152602060048201526012602482015271494e56414c49445f41535345545f5459504560701b604482015290519081900360640190fd5b60006116f38585611f2f565b9050600061170387838686612f54565b905061170e866134f5565b156117b7576001811115611761576040805162461bcd60e51b81526020600482015260156024820152741253131151d05317d15490cdcc8c57d05353d55395605a1b604482015290519081900360640190fd5b6040805133815260208101899052808201869052606081018890526080810187905260a0810184905290517f0fcf2162832b2d6033d4d34d2f45a28d9cfee523f1899945bbdd32529cfda67b9181900360c00190a15b6117c2868685613508565b7fed94dc026fa9364c53bc0af51cde7f54f3109b3f31fceb26d01396d80e20453b3388868989876117f38d8b613313565b604080516001600160a01b0390981688526020880196909652868601949094526060860192909252608085015260a084015260c083015260e0820186905251908190036101000190a150505050505050565b60009283526007602090815260408085209385529281528284209184525290205490565b600454600160a01b900460ff1690565b600090565b6040805162461bcd60e51b815260206004820152600f60248201526e1393d517d253541311535153951151608a1b604482015290519081900360640190fd5b60006118c8836135cc565b90506118d382612eb1565b1561191b576040805162461bcd60e51b81526020600482015260136024820152724d494e5441424c455f41535345545f5459504560681b604482015290519081900360640190fd5b61192482612ef5565b61196f576040805162461bcd60e51b81526020600482015260176024820152764e4f4e5f46554e4749424c455f41535345545f5459504560481b604482015290519081900360640190fd5b600083815260086020908152604080832085845290915281208054919055829061199a838383613628565b7fb7477a7b93b2addc5272bbd7ad0986ef1c0d0bd265f26c3dc4bbe42727c2ac0c85856119c78785613313565b60408051938452602084019290925282820152606082018490526001600160a01b0386166080830152519081900360a00190a15050505050565b6000611a0c82612e82565b92915050565b611a1a611869565b15611a5e576040805162461bcd60e51b815260206004820152600f60248201526e29aa20aa22afa4a9afa32927ad22a760891b604482015290519081900360640190fd5b611a67846138bf565b611aac576040805162461bcd60e51b81526020600482015260116024820152702727aa2fa2a92198989a9aafaa27a5a2a760791b604482015290519081900360640190fd5b611ab9858585858561164c565b5050505050565b60009283526006602090815260408085209385529281528284209184525290205490565b6024546000908210611b35576040805162461bcd60e51b815260206004820152601560248201527408286a8929e9cbe929c888ab0bea89e9ebe90928e9605b1b604482015290519081900360640190fd5b60248281548110611b4257fe5b90600052602060002001549050919050565b60245490565b611b63826134b1565b611ba9576040805162461bcd60e51b8152602060048201526012602482015271494e56414c49445f41535345545f5459504560701b604482015290519081900360640190fd5b6000611bb58383611f2f565b90506000611bc2856135cc565b600086815260086020908152604080832086845290915281208054919055909150611bef828686846138d2565b611bf8856134f5565b15611c54576040805187815260208101879052808201869052606081018590526001600160a01b038416608082015290517fa5cfa8e2199ec5b8ca319288bcab72734207d30569756ee594a74b4df7abbf419181900360a00190a15b7fc6ba68235f3229e53f3a95cda25543ad54c0f6df2493a06c05fb930bea7966fe86868686611c838a87613313565b604080519586526020860194909452848401929092526060840152608083015260a082018490526001600160a01b03851660c0830152519081900360e00190a1505050505050565b611623613998565b6202a30081565b611ce2611869565b611d26576040805162461bcd60e51b815260206004820152601060248201526f29aa20aa22afa727aa2fa32927ad22a760811b604482015290519081900360640190fd5b611d2f33612e82565b611d72576040805162461bcd60e51b815260206004820152600f60248201526e4f4e4c595f474f5645524e414e434560881b604482015290519081900360640190fd5b600554421015611dc9576040805162461bcd60e51b815260206004820152601860248201527f554e465245455a455f4e4f545f414c4c4f5745445f5945540000000000000000604482015290519081900360640190fd5b6004805460ff60a01b19169055600d805460019081019091556025805482019055600f805490910190556040517f07017fe9180629cfffba412f65a9affcf9a121de02294179f5c058f881dcc9f890600090a1565b82611e28816135cc565b6001600160a01b0316336001600160a01b031614611e8a576040805162461bcd60e51b815260206004820152601a6024820152794d49534d41544348494e475f535441524b5f4554485f4b45595360301b604482015290519081900360640190fd5b60008481526007602090815260408083208684528252808320858452825291829020429055815186815290810184905280820185905290517f0bc1df35228095c37da66a6ffcc755ea79dfc437345685f618e05fafad6b445e9181900360600190a150505050565b611efb81613a2f565b50565b6301e1338081565b68010000000000000004546001600160a01b031681565b611f29848484846114a1565b50505050565b6000611f3a836134b1565b611f755760405162461bcd60e51b8152600401808060200182810382526021815260200180614eba6021913960400191505060405180910390fd5b6060611f80846134f5565b611faf576040518060400160405280600d81526020016c2727a72fa6a4a72a20a126229d60991b815250611fcd565b6040518060400160405280600481526020016327232a1d60e11b8152505b90506001600160fa1b038185856040516020018084805190602001908083835b6020831061200c5780518252601f199092019160209182019101611fed565b51815160209384036101000a600019018019909216911617905292019485525083810192909252506040805180840383018152928101905281519101209190911695945050505050565b611efb81613b2c565b6001600160a01b031660009081526011602052604090205460ff1690565b680100000000000000035481565b61209433612e82565b6120d7576040805162461bcd60e51b815260206004820152600f60248201526e4f4e4c595f474f5645524e414e434560881b604482015290519081900360640190fd5b6001600160a01b038116600081815260116020908152604091829020805460ff19169055815192835290517ffa49aecb996ea8d99950bb051552dfcc0b5460a0bb209867a1ed8067c32c21779281900390910190a150565b60008381526006602090815260408083208584528252808320848452909152812054839061215e908290613313565b95945050505050565b61216f611869565b156121b3576040805162461bcd60e51b815260206004820152600f60248201526e29aa20aa22afa4a9afa32927ad22a760891b604482015290519081900360640190fd5b6121bc836134f5565b612200576040805162461bcd60e51b815260206004820152601060248201526f2727aa2fa2a9219b9918afaa27a5a2a760811b604482015290519081900360640190fd5b611f2984848385600161164c565b82612218816135cc565b6001600160a01b0316336001600160a01b03161461227a576040805162461bcd60e51b815260206004820152601a6024820152794d49534d41544348494e475f535441524b5f4554485f4b45595360301b604482015290519081900360640190fd5b61228383612ef5565b6122ce576040805162461bcd60e51b81526020600482015260176024820152764e4f4e5f46554e4749424c455f41535345545f5459504560481b604482015290519081900360640190fd5b8260006122dc868386613c79565b90506122e9338683613628565b7fe3e46ecf1138180bf93cba62a0b7e661d976a8ab3d40243f7b082667d8f500af8685876123178986613313565b60408051948552602085019390935283830191909152606083015260808201849052519081900360a00190a1505050505050565b600080828051906020012060001c9050600160fa1b6001600160f01b036040518060400160405280600981526020016826a4a72a20a126229d60b91b81525086846040516020018084805190602001908083835b602083106123be5780518252601f19909201916020918201910161239f565b51815160209384036101000a60001901801990921691161790529201948552508381019290925250604080518084038301815292810190528151910120919091169190911795945050505050565b6224ea0081565b60006001600160a01b038916301461242c576000612435565b63bc197c8160e01b5b9998505050505050505050565b8361244c816135cc565b6001600160a01b0316336001600160a01b0316146124ae576040805162461bcd60e51b815260206004820152601a6024820152794d49534d41544348494e475f535441524b5f4554485f4b45595360301b604482015290519081900360640190fd5b6124b7846134b1565b6124fd576040805162461bcd60e51b8152602060048201526012602482015271494e56414c49445f41535345545f5459504560701b604482015290519081900360640190fd5b60006125098585611f2f565b90506000612518878386613c79565b9050801561252c5761252c338787846138d2565b612535866134f5565b15612589576040805188815260208101869052808201889052606081018790526080810184905290517ff00c0c1a754f6df7545d96a7e12aad552728b94ca6aa94f81e297bdbcf1dab9c9181900360a00190a15b7fcc00f2179d127845242252f3c3b6b238c5ed33c2e933179f09653cfb1cdee7ca87858888866125b98c88613313565b604080519687526020870195909552858501939093526060850191909152608084015260a083015260c08201849052519081900360e00190a150505050505050565b604051806060016040528060268152602001614edb6026913981565b6111a883838360015b6126293361205f565b61266e576040805162461bcd60e51b815260206004820152601160248201527027a7262cafaa27a5a2a729afa0a226a4a760791b604482015290519081900360640190fd5b612677846111b8565b156126c9576040805162461bcd60e51b815260206004820152601860248201527f41535345545f414c52454144595f524547495354455245440000000000000000604482015290519081900360640190fd5b600167080000000000001160c01b018410612720576040805162461bcd60e51b8152602060048201526012602482015271494e56414c49445f41535345545f5459504560701b604482015290519081900360640190fd5b60008111612767576040805162461bcd60e51b815260206004820152600f60248201526e494e56414c49445f5155414e54554d60881b604482015290519081900360640190fd5b600160801b81106127b1576040805162461bcd60e51b815260206004820152600f60248201526e494e56414c49445f5155414e54554d60881b604482015290519081900360640190fd5b60006001600160fa1b038484846040516020018084848082843791909101928352505060408051808303815260209283019091528051910120929092169250505084811461283b576040805162461bcd60e51b8152602060048201526012602482015271494e56414c49445f41535345545f5459504560701b604482015290519081900360640190fd5b61287a84848080601f016020809104026020016040519081016040528093929190818152602001838380828437600092019190915250613d8692505050565b6128b984848080601f016020809104026020016040519081016040528093929190818152602001838380828437600092019190915250613f0292505050565b156129095781600114612909576040805162461bcd60e51b8152602060048201526013602482015272494e56414c49445f4e46545f5155414e54554d60681b604482015290519081900360640190fd5b6000858152601560209081526040808320805460ff1916600117905560149091529020612937908585614e06565b508160166000878152602001908152602001600020819055507f7a0efbc885500f3b4a895231945be4520e4c0ba5ef7274a225a0272c81ccbcb78585858560405180858152602001806020018381526020018281038252858582818152602001925080828437600083820152604051601f909101601f191690920182900397509095505050505050a15050505050565b60006129d2856135cc565b60008581526015602052604090205490915060ff16612a2d576040805162461bcd60e51b8152602060048201526012602482015271494e56414c49445f41535345545f5459504560701b604482015290519081900360640190fd5b612a3684612eb1565b612a81576040805162461bcd60e51b81526020600482015260176024820152764e4f4e5f4d494e5441424c455f41535345545f5459504560481b604482015290519081900360640190fd5b6000612ac38585858080601f01602080910402602001604051908101604052809392919081815260200183838082843760009201919091525061234b92505050565b6000878152600860209081526040808320848452909152902054909150612b31576040805162461bcd60e51b815260206004820152601d60248201527f4e4f5f50454e44494e475f5749544844524157414c5f42414c414e4345000000604482015290519081900360640190fd5b600086815260086020908152604080832084845290915281208054919055612b5c8682858888613f46565b7f7e6e15df814c1a309a57686de672b2bedd128eacde35c5370c36d6840d4e9a928787612b898985613313565b604080519384526020840192909252828201526060820184905260808201859052519081900360a00190a150505050505050565b60008181526015602052604081205460ff16612bdb575060016111cb565b5060009081526016602052604090205490565b600a81565b604081565b60008281526008602090815260408083208484529091528120548290612c1f908290613313565b949350505050565b6060604051806060016040528060218152602001614f0160219139905090565b60006001600160a01b0387163014612c60576000612c69565b63f23a6e6160e01b5b979650505050505050565b60008181526015602052604090205460609060ff16612cda576040805162461bcd60e51b815260206004820152601960248201527f41535345545f545950455f4e4f545f5245474953544552454400000000000000604482015290519081900360640190fd5b60008281526014602090815260409182902080548351601f600260001961010060018616150201909316929092049182018490048402810184019094528084529091830182828015612d6d5780601f10612d4257610100808354040283529160200191612d6d565b820191906000526020600020905b815481529060010190602001808311612d5057829003601f168201915b50505050509050919050565b83612d83816135cc565b6001600160a01b0316336001600160a01b031614612de5576040805162461bcd60e51b815260206004820152601a6024820152794d49534d41544348494e475f535441524b5f4554485f4b45595360301b604482015290519081900360640190fd5b611ab985858486612442565b60006341917ff960e11b612e04836140e8565b6001600160e01b0319161492915050565b600080612e2184612bbd565b9050808381612e2c57fe5b0615612e70576040805162461bcd60e51b815260206004820152600e60248201526d1253959053125117d05353d5539560921b604482015290519081900360640190fd5b808381612e7957fe5b04949350505050565b600080612e8d6140fb565b6001600160a01b039390931660009081526020939093525050604090205460ff1690565b600080612ebd836140e8565b90506001600160e01b031981166368646e2d60e01b148061149a57506001600160e01b03198116635c5c333960e11b14915050919050565b600080612f01836140e8565b90506001600160e01b031981166341917ff960e11b1480612f3257506001600160e01b03198116630f47261b60e41b145b8061149a57506001600160e01b031981166368646e2d60e01b14915050919050565b60008481526006602090815260408083208684528252808320858452909152812054820182811015612fc0576040805162461bcd60e51b815260206004820152601060248201526f4445504f5349545f4f564552464c4f5760801b604482015290519081900360640190fd5b600086815260066020908152604080832088845282528083208784529091529020819055612fed86614178565b801561301957506000868152600760209081526040808320888452825280832087845290915290205415155b1561215e576000868152600760209081526040808320888452825280832087845290915281205595945050505050565b60006130558383613313565b90506130608361419e565b156132625781613070575061330f565b600061307b846141b1565b905060008190506000816001600160a01b03166370a08231306040518263ffffffff1660e01b815260040180826001600160a01b0316815260200191505060206040518083038186803b1580156130d157600080fd5b505afa1580156130e5573d6000803e3d6000fd5b505050506040513d60208110156130fb57600080fd5b50516040805133602482015230604482015260648082018890528251808303909101815260849091019091526020810180516001600160e01b03166323b872dd60e01b1790529091506131576001600160a01b038516826141c4565b6000836001600160a01b03166370a08231306040518263ffffffff1660e01b815260040180826001600160a01b0316815260200191505060206040518083038186803b1580156131a657600080fd5b505afa1580156131ba573d6000803e3d6000fd5b505050506040513d60208110156131d057600080fd5b5051905082811015613214576040805162461bcd60e51b81526020600482015260086024820152674f564552464c4f5760c01b604482015290519081900360640190fd5b8583018114613258576040805162461bcd60e51b815260206004820152601c6024820152600080516020614e9a833981519152604482015290519081900360640190fd5b50505050506111a8565b61326b83612df1565b156132c9578034146132c4576040805162461bcd60e51b815260206004820152601860248201527f494e434f52524543545f4445504f5349545f414d4f554e540000000000000000604482015290519081900360640190fd5b6111a8565b6040805162461bcd60e51b8152602060048201526016602482015275554e535550504f525445445f544f4b454e5f5459504560501b604482015290519081900360640190fd5b5050565b60008061331f84612bbd565b905080830291508281838161333057fe5b0414613383576040805162461bcd60e51b815260206004820152601760248201527f44455155414e54495a4154494f4e5f4f564552464c4f57000000000000000000604482015290519081900360640190fd5b5092915050565b60006133946140fb565b60018101549091506001600160a01b031633146133f8576040805162461bcd60e51b815260206004820152601760248201527f4f4e4c595f43414e4449444154455f474f5645524e4f52000000000000000000604482015290519081900360640190fd5b600181015461340f906001600160a01b03166143b0565b6001810180546001600160a01b03191690556040805133815290517fcfb473e6c03f9a29ddaf990e736fa3de5188a0bd85d684f5b6e164ebfbfff5d29181900360200190a150565b600061149a6040518060400160405280600f81526020016e1195531317d5d2551211149055d053608a1b81525084846040516020018083815260200182815260200192505050604051602081830303815290604052614430565b6000806134bd836140e8565b90506001600160e01b0319811663012b8bc960e11b148061149a57506001600160e01b03198116633348691d60e01b14915050919050565b600063012b8bc960e11b612e04836140e8565b613511836134b1565b613558576040805162461bcd60e51b815260206004820152601360248201527246554e4749424c455f41535345545f5459504560681b604482015290519081900360640190fd5b613561836134f5565b156135bb57806001146135b1576040805162461bcd60e51b8152602060048201526013602482015272494c4c4547414c5f4e46545f42414c414e434560681b604482015290519081900360640190fd5b6132c483836144f2565b80156111a8576111a88383836145a5565b60006135d78261145c565b90506001600160a01b0381166111cb576040805162461bcd60e51b81526020600482015260116024820152701554d15497d553949151d254d511549151607a1b604482015290519081900360640190fd5b6001600160a01b038316613677576040805162461bcd60e51b81526020600482015260116024820152701253959053125117d49150d25412515395607a1b604482015290519081900360640190fd5b60006136838383613313565b905061368e8361419e565b1561388e578161369e57506111a8565b60006136a9846141b1565b905060008190506000816001600160a01b03166370a08231306040518263ffffffff1660e01b815260040180826001600160a01b0316815260200191505060206040518083038186803b1580156136ff57600080fd5b505afa158015613713573d6000803e3d6000fd5b505050506040513d602081101561372957600080fd5b5051604080516001600160a01b03808b16602483015260448083018990528351808403909101815260649092019092526020810180516001600160e01b031663a9059cbb60e01b179052919250613782908516826141c4565b6000836001600160a01b03166370a08231306040518263ffffffff1660e01b815260040180826001600160a01b0316815260200191505060206040518083038186803b1580156137d157600080fd5b505afa1580156137e5573d6000803e3d6000fd5b505050506040513d60208110156137fb57600080fd5b5051905082811115613840576040805162461bcd60e51b8152602060048201526009602482015268554e444552464c4f5760b81b604482015290519081900360640190fd5b8583038114613884576040805162461bcd60e51b815260206004820152601c6024820152600080516020614e9a833981519152604482015290519081900360640190fd5b5050505050611f29565b61389783612df1565b156132c957816138a757506111a8565b6138ba6001600160a01b038516826148bb565b611f29565b6000633348691d60e01b612e04836140e8565b6138db836134b1565b613922576040805162461bcd60e51b815260206004820152601360248201527246554e4749424c455f41535345545f5459504560681b604482015290519081900360640190fd5b61392b836134f5565b15613986578060011461397b576040805162461bcd60e51b8152602060048201526013602482015272494c4c4547414c5f4e46545f42414c414e434560681b604482015290519081900360640190fd5b6138ba848484614957565b8015611f2957611f2984848484614a5c565b6139a133612e82565b6139e4576040805162461bcd60e51b815260206004820152600f60248201526e4f4e4c595f474f5645524e414e434560881b604482015290519081900360640190fd5b60006139ee6140fb565b6001810180546001600160a01b03191690556040519091507f7a8dc7dd7fffb43c4807438fa62729225156941e641fd877938f4edade3429f590600090a150565b613a3833612e82565b613a7b576040805162461bcd60e51b815260206004820152600f60248201526e4f4e4c595f474f5645524e414e434560881b604482015290519081900360640190fd5b6000613a856140fb565b9050613a9082612e82565b15613ad5576040805162461bcd60e51b815260206004820152601060248201526f20a62922a0a22cafa3a7ab22a92727a960811b604482015290519081900360640190fd5b6001810180546001600160a01b0384166001600160a01b0319909116811790915560408051918252517f6166272c8d3f5f579082f2827532732f97195007983bb5b83ac12c56700b01a69181900360200190a15050565b613b3533612e82565b613b78576040805162461bcd60e51b815260206004820152600f60248201526e4f4e4c595f474f5645524e414e434560881b604482015290519081900360640190fd5b336001600160a01b0382161415613bcd576040805162461bcd60e51b8152602060048201526014602482015273474f5645524e4f525f53454c465f52454d4f564560601b604482015290519081900360640190fd5b6000613bd76140fb565b9050613be282612e82565b613c22576040805162461bcd60e51b815260206004820152600c60248201526b2727aa2fa3a7ab22a92727a960a11b604482015290519081900360640190fd5b6001600160a01b03821660008181526020838152604091829020805460ff19169055815192835290517fd75f94825e770b8b512be8e74759e252ad00e102e38f50cce2f7c6f868a295999281900390910190a15050565b6000838152600760209081526040808320858452825280832084845290915281205480613ce4576040805162461bcd60e51b815260206004820152601460248201527311115413d4d25517d393d517d0d05390d153115160621b604482015290519081900360640190fd5b6202a30081810190811015613cf557fe5b80421015613d3b576040805162461bcd60e51b815260206004820152600e60248201526d11115413d4d25517d313d0d2d15160921b604482015290519081900360640190fd5b50505060008381526006602090815260408083208584528252808320848452825280832080549084905595835260078252808320948352938152838220928252919091529081205590565b6000613d9182614d49565b9050613d9c81614d5a565b613de6576040805162461bcd60e51b8152602060048201526016602482015275554e535550504f525445445f544f4b454e5f5459504560501b604482015290519081900360640190fd5b6001600160e01b031981166341917ff960e11b1415613e51578151600414613e4c576040805162461bcd60e51b8152602060048201526014602482015273494e56414c49445f41535345545f535452494e4760601b604482015290519081900360640190fd5b61330f565b8151602414613e9e576040805162461bcd60e51b8152602060048201526014602482015273494e56414c49445f41535345545f535452494e4760601b604482015290519081900360640190fd5b6000613ea983614df9565b9050613ebd816001600160a01b0316614e00565b6111a8576040805162461bcd60e51b81526020600482015260116024820152704241445f544f4b454e5f4144445245535360781b604482015290519081900360640190fd5b600080613f0e83614d49565b90506001600160e01b0319811663012b8bc960e11b148061149a57506001600160e01b03198116635c5c333960e11b14915050919050565b6001600160a01b038316613f95576040805162461bcd60e51b81526020600482015260116024820152701253959053125117d49150d25412515395607a1b604482015290519081900360640190fd5b613f9e85612eb1565b613fe9576040805162461bcd60e51b81526020600482015260176024820152764e4f4e5f4d494e5441424c455f41535345545f5459504560481b604482015290519081900360640190fd5b60008411614034576040805162461bcd60e51b81526020600482015260136024820152721253959053125117d352539517d05353d55395606a1b604482015290519081900360640190fd5b60006140408686613313565b9050600061404d876141b1565b90506140df8583868660405160240180856001600160a01b0316815260200184815260200180602001828103825284848281815260200192508082843760008184015260408051601f19601f9093018316909401848103909201845252506020810180516319ee6e3f60e01b6001600160e01b039091161790526001600160a01b038916965094506141c49350505050565b50505050505050565b6000611a0c6140f683612c74565b614d49565b600080604051806060016040528060268152602001614edb602691396040518082805190602001908083835b602083106141465780518252601f199092019160209182019101614127565b51815160209384036101000a600019018019909216911617905292019485525060405193849003019092209392505050565b60006141838261145c565b6001600160a01b0316336001600160a01b0316149050919050565b6000630f47261b60e41b612e04836140e8565b6000611a0c6141bf83612c74565b614df9565b6141cd82614e00565b614212576040805162461bcd60e51b81526020600482015260116024820152704241445f544f4b454e5f4144445245535360781b604482015290519081900360640190fd5b60006060836001600160a01b0316836040518082805190602001908083835b602083106142505780518252601f199092019160209182019101614231565b6001836020036101000a0380198251168184511680821785525050505050509050019150506000604051808303816000865af19150503d80600081146142b2576040519150601f19603f3d011682016040523d82523d6000602084013e6142b7565b606091505b50915091508181906143475760405162461bcd60e51b81526004018080602001828103825283818151815260200191508051906020019080838360005b8381101561430c5781810151838201526020016142f4565b50505050905090810190601f1680156143395780820380516001836020036101000a031916815260200191505b509250505060405180910390fd5b50805115611f295780806020019051602081101561436457600080fd5b5051611f29576040805162461bcd60e51b81526020600482015260166024820152751513d2d15397d3d4115490551253d397d1905253115160521b604482015290519081900360640190fd5b6143b981612e82565b156143fe576040805162461bcd60e51b815260206004820152601060248201526f20a62922a0a22cafa3a7ab22a92727a960811b604482015290519081900360640190fd5b60006144086140fb565b6001600160a01b0390921660009081526020929092525060409020805460ff19166001179055565b600082826040516020018083805190602001908083835b602083106144665780518252601f199092019160209182019101614447565b51815160209384036101000a600019018019909216911617905285519190930192850191508083835b602083106144ae5780518252601f19909201916020918201910161448f565b6001836020036101000a0380198251168184511680821785525050505050509050019250505060405160208183030381529060405280519060200120905092915050565b6144fb826134f5565b61453f576040805162461bcd60e51b815260206004820152601060248201526f2727aa2fa2a9219b9918afaa27a5a2a760811b604482015290519081900360640190fd5b600061454a836141b1565b6040805133602482015230604482015260648082018690528251808303909101815260849091019091526020810180516001600160e01b0316632142170760e11b1790529091506111a8906001600160a01b038316906141c4565b6145ae836138bf565b6145f3576040805162461bcd60e51b81526020600482015260116024820152702727aa2fa2a92198989a9aafaa27a5a2a760791b604482015290519081900360640190fd5b806145fd576111a8565b60006146098483613313565b90506000614616856141b1565b60408051627eeac760e11b815230600482015260248101879052905191925082916000916001600160a01b0384169162fdd58e91604480820192602092909190829003018186803b15801561466a57600080fd5b505afa15801561467e573d6000803e3d6000fd5b505050506040513d602081101561469457600080fd5b810190808051906020019092919050505090506147a963f242432a60e01b333089886040518060200160405280600081525060405160240180866001600160a01b03168152602001856001600160a01b0316815260200184815260200183815260200180602001828103825283818151815260200191508051906020019080838360005b83811015614730578181015183820152602001614718565b50505050905090810190601f16801561475d5780820380516001836020036101000a031916815260200191505b5060408051601f198184030181529190526020810180516001600160e01b03166001600160e01b0319909a169990991790985250506001600160a01b038a16959450506141c492505050565b6000826001600160a01b031662fdd58e30896040518363ffffffff1660e01b815260040180836001600160a01b031681526020018281526020019250505060206040518083038186803b1580156147ff57600080fd5b505afa158015614813573d6000803e3d6000fd5b505050506040513d602081101561482957600080fd5b505190508181101561486d576040805162461bcd60e51b81526020600482015260086024820152674f564552464c4f5760c01b604482015290519081900360640190fd5b84820181146148b1576040805162461bcd60e51b815260206004820152601c6024820152600080516020614e9a833981519152604482015290519081900360640190fd5b5050505050505050565b6040516000906001600160a01b0384169083908381818185875af1925050503d8060008114614906576040519150601f19603f3d011682016040523d82523d6000602084013e61490b565b606091505b50509050806111a8576040805162461bcd60e51b815260206004820152601360248201527211551217d514905394d1915497d19052531151606a1b604482015290519081900360640190fd5b6001600160a01b0383166149a6576040805162461bcd60e51b81526020600482015260116024820152701253959053125117d49150d25412515395607a1b604482015290519081900360640190fd5b6149af826134f5565b6149f3576040805162461bcd60e51b815260206004820152601060248201526f2727aa2fa2a9219b9918afaa27a5a2a760811b604482015290519081900360640190fd5b60006149fe836141b1565b604080513060248201526001600160a01b03808816604483015260648083018790528351808403909101815260849092019092526020810180516001600160e01b0316632142170760e11b179052919250611f2991908316906141c4565b6001600160a01b038416614aab576040805162461bcd60e51b81526020600482015260116024820152701253959053125117d49150d25412515395607a1b604482015290519081900360640190fd5b614ab4836138bf565b614af9576040805162461bcd60e51b81526020600482015260116024820152702727aa2fa2a92198989a9aafaa27a5a2a760791b604482015290519081900360640190fd5b80614b0357611f29565b6000614b0f8483613313565b90506000614b1c856141b1565b60408051627eeac760e11b815230600482015260248101879052905191925082916000916001600160a01b0384169162fdd58e91604480820192602092909190829003018186803b158015614b7057600080fd5b505afa158015614b84573d6000803e3d6000fd5b505050506040513d6020811015614b9a57600080fd5b81019080805190602001909291905050509050614c3563f242432a60e01b308a89886040518060200160405280600081525060405160240180866001600160a01b03168152602001856001600160a01b03168152602001848152602001838152602001806020018281038252838181518152602001915080519060200190808383600083811015614730578181015183820152602001614718565b6000826001600160a01b031662fdd58e30896040518363ffffffff1660e01b815260040180836001600160a01b031681526020018281526020019250505060206040518083038186803b158015614c8b57600080fd5b505afa158015614c9f573d6000803e3d6000fd5b505050506040513d6020811015614cb557600080fd5b5051905081811115614cfa576040805162461bcd60e51b8152602060048201526009602482015268554e444552464c4f5760b81b604482015290519081900360640190fd5b8482038114614d3e576040805162461bcd60e51b815260206004820152601c6024820152600080516020614e9a833981519152604482015290519081900360640190fd5b505050505050505050565b602001516001600160e01b03191690565b60006001600160e01b031982166341917ff960e11b1480614d8b57506001600160e01b03198216630f47261b60e41b145b80614da657506001600160e01b0319821663012b8bc960e11b145b80614dc157506001600160e01b031982166368646e2d60e01b145b80614ddc57506001600160e01b03198216635c5c333960e11b145b80611a0c5750506001600160e01b031916633348691d60e01b1490565b6024015190565b3b151590565b828054600181600116156101000203166002900490600052602060002090601f016020900481019282601f10614e475782800160ff19823516178555614e74565b82800160010185558215614e74579182015b82811115614e74578235825591602001919060010190614e59565b50614e80929150614e84565b5090565b5b80821115614e805760008155600101614e8556fe494e434f52524543545f414d4f554e545f5452414e534645525245440000000041535345545f545950455f444f45535f4e4f545f54414b455f544f4b454e5f4944537461726b45782e4d61696e2e323031392e476f7665726e6f7273496e666f726d6174696f6e537461726b576172655f546f6b656e73416e6452616d70696e675f323032325f32a2646970667358221220f625bdef55b5a6e9f2073fe98fc8f6d5270ace9f5d6fc6be6302065e3131fda964736f6c634300060c0033",
    "linkReferences": {}
  },
  "methodIdentifiers": {
    "DEPOSIT_CANCEL_DELAY()": "77e84e0d",
    "FREEZE_GRACE_PERIOD()": "00717542",
    "MAIN_GOVERNANCE_INFO_TAG()": "c23b60ef",
    "MAX_FORCED_ACTIONS_REQS_PER_BLOCK()": "e30a5cff",
    "MAX_VERIFIER_COUNT()": "e6de6282",
    "UNFREEZE_DELAY()": "993f3639",
    "VERIFIER_REMOVAL_DELAY()": "b7663112",
    "calculateAssetIdWithTokenId(uint256,uint256)": "a1cc5e13",
    "calculateMintableAssetId(uint256,bytes)": "b12773fb",
    "defaultVaultWithdrawalLock()": "a45d7841",
    "deposit(uint256,uint256,uint256)": "00aeef8a",
    "deposit(uint256,uint256,uint256,uint256)": "2505c3d9",
    "depositCancel(uint256,uint256,uint256)": "7df7dc04",
    "depositERC1155(uint256,uint256,uint256,uint256,uint256)": "49325bac",
    "depositERC20(uint256,uint256,uint256,uint256)": "9ed17084",
    "depositEth(uint256,uint256,uint256)": "6ce5d957",
    "depositNft(uint256,uint256,uint256,uint256)": "ae1cdde6",
    "depositNftReclaim(uint256,uint256,uint256,uint256)": "fcb05822",
    "depositReclaim(uint256,uint256,uint256)": "ae873816",
    "depositWithTokenId(uint256,uint256,uint256,uint256,uint256)": "29e411ac",
    "depositWithTokenIdReclaim(uint256,uint256,uint256,uint256)": "be2b1105",
    "getActionCount()": "5eecd218",
    "getActionHashByIndex(uint256)": "5e586cd1",
    "getAssetInfo(uint256)": "f637d950",
    "getCancellationRequest(uint256,uint256,uint256)": "333ac20b",
    "getDepositBalance(uint256,uint256,uint256)": "abf98fe1",
    "getEthKey(uint256)": "1dbd1da7",
    "getFullWithdrawalRequest(uint256,uint256)": "296e2f37",
    "getQuantizedDepositBalance(uint256,uint256,uint256)": "4e8912da",
    "getQuantum(uint256)": "dd7202d8",
    "getWithdrawalBalance(uint256,uint256)": "ec3161b0",
    "identify()": "eeb72866",
    "initialize(bytes)": "439fab91",
    "initializerSize()": "3cc660ad",
    "isAssetRegistered(uint256)": "049f5ade",
    "isFrozen()": "33eeb147",
    "isTokenAdmin(address)": "a2bdde3d",
    "mainAcceptGovernance()": "28700a15",
    "mainCancelNomination()": "72eb3688",
    "mainIsGovernor(address)": "45f5cd97",
    "mainNominateNewGovernor(address)": "8c4bce1c",
    "mainRemoveGovernor(address)": "a1cc921e",
    "onERC1155BatchReceived(address,address,uint256[],uint256[],bytes)": "bc197c81",
    "onERC1155Received(address,address,uint256,uint256,bytes)": "f23a6e61",
    "onERC721Received(address,address,uint256,bytes)": "150b7a02",
    "orderRegistryAddress()": "9c6a2837",
    "registerToken(uint256,bytes)": "c8b1031a",
    "registerToken(uint256,bytes,uint256)": "d88d8b38",
    "registerTokenAdmin(address)": "0b3a2d21",
    "unFreeze()": "7cf12b90",
    "unregisterTokenAdmin(address)": "a6fa6e90",
    "validatedSelectors()": "0ebdac03",
    "withdraw(uint256,uint256)": "441a3e70",
    "withdrawAndMint(uint256,uint256,bytes)": "d91443b7",
    "withdrawNft(uint256,uint256,uint256)": "019b417a",
    "withdrawWithTokenId(uint256,uint256,uint256)": "64d84842"
  },
  "id": 103
}