{
  "abi": [
    {
      "inputs": [],
      "name": "configurationDelay",
      "outputs": [
        {
          "internalType": "uint256",
          "name": "",
          "type": "uint256"
        }
      ],
      "stateMutability": "view",
      "type": "function"
    },
    {
      "inputs": [
        {
          "internalType": "uint256",
          "name": "",
          "type": "uint256"
        }
      ],
      "name": "configurationHash",
      "outputs": [
        {
          "internalType": "bytes32",
          "name": "",
          "type": "bytes32"
        }
      ],
      "stateMutability": "view",
      "type": "function"
    },
    {
      "inputs": [],
      "name": "globalConfigurationHash",
      "outputs": [
        {
          "internalType": "bytes32",
          "name": "",
          "type": "bytes32"
        }
      ],
      "stateMutability": "view",
      "type": "function"
    }
  ],
  "bytecode": {
    "object": "0x608060405234801561001057600080fd5b5060e58061001f6000396000f3fe6080604052348015600f57600080fd5b5060043610603c5760003560e01c8063adac3e15146041578063c1a85130146059578063f2011f6614605f575b600080fd5b60476079565b60408051918252519081900360200190f35b60476087565b604760048036036020811015607357600080fd5b50356095565b680100000000000000015481565b680100000000000000045481565b68010000000000000002602052600090815260409020548156fea26469706673582212206407c252c3ffcf2e318d39778d346101616a947ef950cf7f026eb882f61a0d9264736f6c634300060c0033",
    "linkReferences": {}
  },
  "methodIdentifiers": {
    "configurationDelay()": "c1a85130",
    "configurationHash(uint256)": "f2011f66",
    "globalConfigurationHash()": "adac3e15"
  },
  "id": 72
}