{
  "abi": [
    {
      "inputs": [
        {
          "internalType": "contract IQueryableFactRegistry",
          "name": "gpsStatementContract",
          "type": "address"
        },
        {
          "internalType": "uint256",
          "name": "programHash_",
          "type": "uint256"
        }
      ],
      "stateMutability": "nonpayable",
      "type": "constructor"
    },
    {
      "inputs": [],
      "name": "gpsContract",
      "outputs": [
        {
          "internalType": "contract IQueryableFactRegistry",
          "name": "",
          "type": "address"
        }
      ],
      "stateMutability": "view",
      "type": "function"
    },
    {
      "inputs": [],
      "name": "hasRegisteredFact",
      "outputs": [
        {
          "internalType": "bool",
          "name": "",
          "type": "bool"
        }
      ],
      "stateMutability": "view",
      "type": "function"
    },
    {
      "inputs": [],
      "name": "identify",
      "outputs": [
        {
          "internalType": "string",
          "name": "",
          "type": "string"
        }
      ],
      "stateMutability": "pure",
      "type": "function"
    },
    {
      "inputs": [
        {
          "internalType": "bytes32",
          "name": "fact",
          "type": "bytes32"
        }
      ],
      "name": "isValid",
      "outputs": [
        {
          "internalType": "bool",
          "name": "",
          "type": "bool"
        }
      ],
      "stateMutability": "view",
      "type": "function"
    },
    {
      "inputs": [],
      "name": "programHash",
      "outputs": [
        {
          "internalType": "uint256",
          "name": "",
          "type": "uint256"
        }
      ],
      "stateMutability": "view",
      "type": "function"
    }
  ],
  "bytecode": {
    "object": "0x608060405234801561001057600080fd5b506040516103763803806103768339818101604052604081101561003357600080fd5b508051602090910151600080546001600160a01b0319166001600160a01b0390931692909217825560015561030890819061006e90396000f3fe608060405234801561001057600080fd5b50600436106100575760003560e01c806351447a721461005c5780636a938567146100805780638a9bf090146100b1578063d6354e15146100cb578063eeb72866146100d3575b600080fd5b610064610150565b604080516001600160a01b039092168252519081900360200190f35b61009d6004803603602081101561009657600080fd5b503561015f565b604080519115158252519081900360200190f35b6100b9610205565b60408051918252519081900360200190f35b61009d61020b565b6100db61028b565b6040805160208082528351818301528351919283929083019185019080838360005b838110156101155781810151838201526020016100fd565b50505050905090810190601f1680156101425780820380516001836020036101000a031916815260200191505b509250505060405180910390f35b6000546001600160a01b031681565b600080546001546040805160208082019390935280820186905281518082038301815260608201808452815191850191909120636a93856760e01b909152606482015290516001600160a01b0390931692636a93856792608480840193919291829003018186803b1580156101d357600080fd5b505afa1580156101e7573d6000803e3d6000fd5b505050506040513d60208110156101fd57600080fd5b505192915050565b60015481565b60008060009054906101000a90046001600160a01b03166001600160a01b031663d6354e156040518163ffffffff1660e01b815260040160206040518083038186803b15801561025a57600080fd5b505afa15801561026e573d6000803e3d6000fd5b505050506040513d602081101561028457600080fd5b5051905090565b60606040518060600160405280602781526020016102ac6027913990509056fe537461726b576172655f477073466163745265676973747279416461707465725f323032305f31a26469706673582212201358925e6f57123afb27f786bf02e9728cd2dcb13d0c38d346f52c69778672ee64736f6c634300060c0033",
    "linkReferences": {}
  },
  "methodIdentifiers": {
    "gpsContract()": "51447a72",
    "hasRegisteredFact()": "d6354e15",
    "identify()": "eeb72866",
    "isValid(bytes32)": "6a938567",
    "programHash()": "8a9bf090"
  },
  "id": 13
}