{
  "abi": [
    {
      "stateMutability": "payable",
      "type": "fallback"
    },
    {
      "inputs": [],
      "name": "VERSION",
      "outputs": [
        {
          "internalType": "string",
          "name": "",
          "type": "string"
        }
      ],
      "stateMutability": "view",
      "type": "function"
    },
    {
      "inputs": [
        {
          "internalType": "bytes4",
          "name": "selector",
          "type": "bytes4"
        }
      ],
      "name": "getSubContract",
      "outputs": [
        {
          "internalType": "address",
          "name": "",
          "type": "address"
        }
      ],
      "stateMutability": "view",
      "type": "function"
    },
    {
      "inputs": [
        {
          "internalType": "bytes4",
          "name": "selector",
          "type": "bytes4"
        }
      ],
      "name": "handlingContractId",
      "outputs": [
        {
          "internalType": "string",
          "name": "id",
          "type": "string"
        }
      ],
      "stateMutability": "pure",
      "type": "function"
    },
    {
      "inputs": [
        {
          "internalType": "bytes",
          "name": "data",
          "type": "bytes"
        }
      ],
      "name": "initialize",
      "outputs": [],
      "stateMutability": "nonpayable",
      "type": "function"
    },
    {
      "stateMutability": "payable",
      "type": "receive"
    }
  ],
  "bytecode": {
    "object": "0x60a060405234801561001057600080fd5b5030606081901b608052611597610031600039806102ed52506115976000f3fe6080604052600436106100435760003560e01c80632f9014b41461012d578063439fab911461017d578063d4e878e8146101fc578063ffa1ad74146102a557610095565b36610095576040805162461bcd60e51b815260206004820181905260248201527f434f4e54524143545f4e4f545f45585045435445445f544f5f52454345495645604482015290519081900360640190fd5b60006100ac6000356001600160e01b0319166102ba565b90506001600160a01b038116610109576040805162461bcd60e51b815260206004820152601860248201527f4e4f5f434f4e54524143545f464f525f46554e4354494f4e0000000000000000604482015290519081900360640190fd5b3660008037600080366000845af43d6000803e808015610128573d6000f35b3d6000fd5b34801561013957600080fd5b506101616004803603602081101561015057600080fd5b50356001600160e01b0319166102ba565b604080516001600160a01b039092168252519081900360200190f35b34801561018957600080fd5b506101fa600480360360208110156101a057600080fd5b8101906020810181356401000000008111156101bb57600080fd5b8201836020820111156101cd57600080fd5b803590602001918460018302840111640100000000831117156101ef57600080fd5b5090925090506102eb565b005b34801561020857600080fd5b506102306004803603602081101561021f57600080fd5b50356001600160e01b03191661093c565b6040805160208082528351818301528351919283929083019185019080838360005b8381101561026a578181015183820152602001610252565b50505050905090810190601f1680156102975780820380516001836020036101000a031916815260200191505b509250505060405180910390f35b3480156102b157600080fd5b5061023061095b565b6000601e60006102c98461097c565b81526020810191909152604001600020546001600160a01b031690505b919050565b7f00000000000000000000000000000000000000000000000000000000000000006001600160a01b0316301415610362576040805162461bcd60e51b81526020600482015260166024820152751112549150d517d0d0531317d11254d0531313d5d15160521b604482015290519081900360640190fd5b600061036c6109f5565b9050600f8111156103bd576040805162461bcd60e51b8152602060048201526016602482015275544f4f5f4d414e595f5355425f434f4e54524143545360501b604482015290519081900360640190fd5b6000602060018301028084101561041b576040805162461bcd60e51b815260206004820152601a60248201527f5355425f434f4e5452414354535f4e4f545f50524f5649444544000000000000604482015290519081900360640190fd5b80840360015b848111610478576000610440602080840290600019850102898b6114f6565b602081101561044e57600080fd5b50356001600160a01b0316905061046582826109fa565b61046f8282610dda565b50600101610421565b50600061048b83601f198101888a6114f6565b602081101561049957600080fd5b50356001600160a01b0316905080156104cb576104c1816104bc8886818c6114f6565b610e08565b5050505050610938565b816104da575050505050610938565b6001600160a01b038116156104eb57fe5b6104f3611016565b60015b8581116108dd5760006105156020808402906000198501028a8c6114f6565b602081101561052357600080fd5b506040805160048152602481018252602081018051633cc660ad60e01b6001600160e01b039091161781529151815193356001600160a01b03169450600093606093869392918291908083835b6020831061058f5780518252601f199092019160209182019101610570565b6001836020036101000a038019825116818451168082178552505050505050905001915050600060405180830381855af49150503d80600081146105ef576040519150601f19603f3d011682016040523d82523d6000602084013e6105f4565b606091505b50915091508181906106845760405162461bcd60e51b81526004018080602001828103825283818151815260200191508051906020019080838360005b83811015610649578181015183820152602001610631565b50505050905090810190601f1680156106765780820380516001836020036101000a031916815260200191505b509250505060405180910390fd5b50600081806020019051602081101561069c57600080fd5b50519050868111156106f0576040805162461bcd60e51b8152602060048201526018602482015277494e56414c49445f494e495449414c495a45525f53495a4560401b604482015290519081900360640190fd5b86818a011115610742576040805162461bcd60e51b8152602060048201526018602482015277494e56414c49445f494e495449414c495a45525f53495a4560401b604482015290519081900360640190fd5b8061075057505050506108d5565b836001600160a01b031663439fab9160e01b8d8d8b90858d0192610776939291906114f6565b6040516020602482019081526044820183905290819060640184848082843760008382015260408051601f909201601f1990811690940182810390940182529283526020810180516001600160e01b03166001600160e01b0319909916989098178852915182519297909650869550935090915081905083835b6020831061080f5780518252601f1990920191602091820191016107f0565b6001836020036101000a038019825116818451168082178552505050505050905001915050600060405180830381855af49150503d806000811461086f576040519150601f19603f3d011682016040523d82523d6000602084013e610874565b606091505b50909350915081836108c75760405162461bcd60e51b8152602060048201818152835160248401528351909283926044909101919085019080838360008315610649578181015183820152602001610631565b509788019796909601955050505b6001016104f6565b50838214610932576040805162461bcd60e51b815260206004820152601a60248201527f4d49534d41544348494e475f494e49545f444154415f53495a45000000000000604482015290519081900360640190fd5b50505050505b5050565b606060006109498361097c565b90506109548161122e565b9392505050565b60405180604001604052806005815260200164342e352e3160d81b81525081565b600080826109886113e8565b60405160200180836001600160e01b0319168152600401828152602001925050506040516020818303038152906040528051906020012060001c60ff169050600061010082600402816109d757fe5b069050806109e8600684901c6113ef565b600f911c16949350505050565b600690565b6060816001600160a01b031663eeb728666040518163ffffffff1660e01b815260040160006040518083038186803b158015610a3557600080fd5b505afa158015610a49573d6000803e3d6000fd5b505050506040513d6000823e601f3d908101601f191682016040526020811015610a7257600080fd5b8101908080516040519392919084640100000000821115610a9257600080fd5b908301906020820185811115610aa757600080fd5b8251640100000000811182820188101715610ac157600080fd5b82525081516020918201929091019080838360005b83811015610aee578181015183820152602001610ad6565b50505050905090810190601f168015610b1b5780820380516001836020036101000a031916815260200191505b5060405250505090506000610b2f8461122e565b6040516020018082805190602001908083835b60208310610b615780518252601f199092019160209182019101610b42565b6001836020036101000a038019825116818451168082178552505050505050905001915050604051602081830303815290604052805190602001209050816040516020018082805190602001908083835b60208310610bd15780518252601f199092019160209182019101610bb2565b6001836020036101000a038019825116818451168082178552505050505050905001915050604051602081830303815290604052805190602001208114610c495760405162461bcd60e51b815260040180806020018281038252602281526020018061151f6022913960400191505060405180910390fd5b6060836001600160a01b0316630ebdac036040518163ffffffff1660e01b815260040160006040518083038186803b158015610c8457600080fd5b505afa158015610c98573d6000803e3d6000fd5b505050506040513d6000823e601f3d908101601f191682016040526020811015610cc157600080fd5b8101908080516040519392919084640100000000821115610ce157600080fd5b908301906020820185811115610cf657600080fd5b8251866020820283011164010000000082111715610d1357600080fd5b82525081516020918201928201910280838360005b83811015610d40578181015183820152602001610d28565b50505050905001604052505050905060005b8151811015610dd25785610d78838381518110610d6b57fe5b602002602001015161097c565b14610dca576040805162461bcd60e51b815260206004820152601b60248201527f494e434f4e53495354454e545f444953504154434845525f4d41500000000000604482015290519081900360640190fd5b600101610d52565b505050505050565b6000918252601e602052604090912080546001600160a01b0319166001600160a01b03909216919091179055565b610e1a836001600160a01b03166114f0565b610e5c576040805162461bcd60e51b815260206004820152600e60248201526d1393d517d057d0d3d395149050d560921b604482015290519081900360640190fd5b60006060846001600160a01b031663439fab9160e01b85856040516024018080602001828103825284848281815260200192508082843760008382015260408051601f909201601f1990811690940182810390940182529283526020810180516001600160e01b03166001600160e01b0319909916989098178852915182519297909650869550935090915081905083835b60208310610f0d5780518252601f199092019160209182019101610eee565b6001836020036101000a038019825116818451168082178552505050505050905001915050600060405180830381855af49150503d8060008114610f6d576040519150601f19603f3d011682016040523d82523d6000602084013e610f72565b606091505b5091509150818190610fc55760405162461bcd60e51b8152602060048201818152835160248401528351909283926044909101919085019080838360008315610649578181015183820152602001610631565b508051819015610dd25760405162461bcd60e51b8152602060048201818152835160248401528351909283926044909101919085019080838360008315610649578181015183820152602001610631565b60408051808201909152601681527512539255125053125690551253d397d09313d0d2d15160521b6020820152600d548190156110945760405162461bcd60e51b8152602060048201818152835160248401528351909283926044909101919085019080838360008315610649578181015183820152602001610631565b50600e548190156110e65760405162461bcd60e51b8152602060048201818152835160248401528351909283926044909101919085019080838360008315610649578181015183820152602001610631565b506025548190156111385760405162461bcd60e51b8152602060048201818152835160248401528351909283926044909101919085019080838360008315610649578181015183820152602001610631565b5060265481901561118a5760405162461bcd60e51b8152602060048201818152835160248401528351909283926044909101919085019080838360008315610649578181015183820152602001610631565b50600f548190156111dc5760405162461bcd60e51b8152602060048201818152835160248401528351909283926044909101919085019080838360008315610649578181015183820152602001610631565b506010548190156109385760405162461bcd60e51b8152602060048201818152835160248401528351909283926044909101919085019080838360008315610649578181015183820152602001610631565b60608160011415611273575060408051808201909152601d81527f537461726b576172655f416c6c5665726966696572735f323032325f3200000060208201526102e6565b816002141561129c576040518060600160405280602181526020016115416021913990506102e6565b81600314156112df575060408051808201909152601d81527f537461726b576172655f537461726b457853746174655f323032325f3500000060208201526102e6565b8160041415611322575060408051808201909152601e81527f537461726b576172655f466f72636564416374696f6e735f323032325f33000060208201526102e6565b8160051415611365575060408051808201909152601e81527f537461726b576172655f4f6e636861696e5661756c74735f323032325f32000060208201526102e6565b81600614156113a8575060408051808201909152601b81527f537461726b576172655f50726f78795574696c735f323032325f32000000000060208201526102e6565b6040805162461bcd60e51b815260206004820152601060248201526f0aa9c8ab0a08a86a88a88be929c888ab60831b604482015290519081900360640190fd5b62174e7690565b60008161141d57507f20105011000000100500000025110000002200054100302002002000005520106102e6565b816001141561144d57507f30000300050000500200120030000106043000000024205010030000100003006102e6565b816002141561147d57507f10031120300021300002001000200003202020010200010010000402002000206102e6565b81600314156114ad57507f20000000500000120000131000020020020320500200020200020500002010036102e6565b6040805162461bcd60e51b81526020600482015260136024820152722120a22fa4a22c2fa6a0a82fa9a2a1aa24a7a760691b604482015290519081900360640190fd5b3b151590565b60008085851115611505578182fd5b83861115611511578182fd5b505082019391909203915056fe4d4953504c414345445f494e4445585f4f525f4241445f434f4e54524143545f4944537461726b576172655f546f6b656e73416e6452616d70696e675f323032325f32a26469706673582212206f220fb82d0e9165172de03cd324044ddfa4de46dab589bea05bf2acf4d4bc9f64736f6c634300060c0033",
    "linkReferences": {}
  },
  "methodIdentifiers": {
    "VERSION()": "ffa1ad74",
    "getSubContract(bytes4)": "2f9014b4",
    "handlingContractId(bytes4)": "d4e878e8",
    "initialize(bytes)": "439fab91"
  },
  "id": 87
}