{
  "abi": [
    {
      "anonymous": false,
      "inputs": [
        {
          "indexed": false,
          "internalType": "address",
          "name": "userAddress",
          "type": "address"
        },
        {
          "indexed": false,
          "internalType": "address",
          "name": "exchangeAddress",
          "type": "address"
        },
        {
          "indexed": false,
          "internalType": "uint256",
          "name": "tokenIdSell",
          "type": "uint256"
        },
        {
          "indexed": false,
          "internalType": "uint256",
          "name": "tokenIdBuy",
          "type": "uint256"
        },
        {
          "indexed": false,
          "internalType": "uint256",
          "name": "tokenIdFee",
          "type": "uint256"
        },
        {
          "indexed": false,
          "internalType": "uint256",
          "name": "amountSell",
          "type": "uint256"
        },
        {
          "indexed": false,
          "internalType": "uint256",
          "name": "amountBuy",
          "type": "uint256"
        },
        {
          "indexed": false,
          "internalType": "uint256",
          "name": "amountFee",
          "type": "uint256"
        },
        {
          "indexed": false,
          "internalType": "uint256",
          "name": "vaultIdSell",
          "type": "uint256"
        },
        {
          "indexed": false,
          "internalType": "uint256",
          "name": "vaultIdBuy",
          "type": "uint256"
        },
        {
          "indexed": false,
          "internalType": "uint256",
          "name": "vaultIdFee",
          "type": "uint256"
        },
        {
          "indexed": false,
          "internalType": "uint256",
          "name": "nonce",
          "type": "uint256"
        },
        {
          "indexed": false,
          "internalType": "uint256",
          "name": "expirationTimestamp",
          "type": "uint256"
        }
      ],
      "name": "LogL1LimitOrderRegistered",
      "type": "event"
    },
    {
      "anonymous": false,
      "inputs": [
        {
          "indexed": false,
          "internalType": "address",
          "name": "from",
          "type": "address"
        },
        {
          "indexed": false,
          "internalType": "address",
          "name": "to",
          "type": "address"
        },
        {
          "indexed": false,
          "internalType": "bytes32",
          "name": "msgHash",
          "type": "bytes32"
        }
      ],
      "name": "LogMsgRegistered",
      "type": "event"
    },
    {
      "inputs": [
        {
          "internalType": "uint256",
          "name": "tokenIdSell",
          "type": "uint256"
        },
        {
          "internalType": "uint256",
          "name": "tokenIdBuy",
          "type": "uint256"
        },
        {
          "internalType": "uint256",
          "name": "tokenIdFee",
          "type": "uint256"
        },
        {
          "internalType": "uint256",
          "name": "amountSell",
          "type": "uint256"
        },
        {
          "internalType": "uint256",
          "name": "amountBuy",
          "type": "uint256"
        },
        {
          "internalType": "uint256",
          "name": "amountFee",
          "type": "uint256"
        },
        {
          "internalType": "uint256",
          "name": "vaultIdSell",
          "type": "uint256"
        },
        {
          "internalType": "uint256",
          "name": "vaultIdBuy",
          "type": "uint256"
        },
        {
          "internalType": "uint256",
          "name": "vaultIdFee",
          "type": "uint256"
        },
        {
          "internalType": "uint256",
          "name": "nonce",
          "type": "uint256"
        },
        {
          "internalType": "uint256",
          "name": "expirationTimestamp",
          "type": "uint256"
        }
      ],
      "name": "calcL1LimitOrderHash",
      "outputs": [
        {
          "internalType": "bytes32",
          "name": "",
          "type": "bytes32"
        }
      ],
      "stateMutability": "pure",
      "type": "function"
    },
    {
      "inputs": [],
      "name": "hasRegisteredFact",
      "outputs": [
        {
          "internalType": "bool",
          "name": "",
          "type": "bool"
        }
      ],
      "stateMutability": "view",
      "type": "function"
    },
    {
      "inputs": [],
      "name": "identify",
      "outputs": [
        {
          "internalType": "string",
          "name": "",
          "type": "string"
        }
      ],
      "stateMutability": "pure",
      "type": "function"
    },
    {
      "inputs": [
        {
          "internalType": "address",
          "name": "from",
          "type": "address"
        },
        {
          "internalType": "address",
          "name": "to",
          "type": "address"
        },
        {
          "internalType": "bytes32",
          "name": "messageHash",
          "type": "bytes32"
        }
      ],
      "name": "isMessageRegistered",
      "outputs": [
        {
          "internalType": "bool",
          "name": "",
          "type": "bool"
        }
      ],
      "stateMutability": "view",
      "type": "function"
    },
    {
      "inputs": [
        {
          "internalType": "bytes32",
          "name": "fact",
          "type": "bytes32"
        }
      ],
      "name": "isValid",
      "outputs": [
        {
          "internalType": "bool",
          "name": "",
          "type": "bool"
        }
      ],
      "stateMutability": "view",
      "type": "function"
    },
    {
      "inputs": [
        {
          "internalType": "address",
          "name": "exchangeAddress",
          "type": "address"
        },
        {
          "internalType": "uint256",
          "name": "tokenIdSell",
          "type": "uint256"
        },
        {
          "internalType": "uint256",
          "name": "tokenIdBuy",
          "type": "uint256"
        },
        {
          "internalType": "uint256",
          "name": "tokenIdFee",
          "type": "uint256"
        },
        {
          "internalType": "uint256",
          "name": "amountSell",
          "type": "uint256"
        },
        {
          "internalType": "uint256",
          "name": "amountBuy",
          "type": "uint256"
        },
        {
          "internalType": "uint256",
          "name": "amountFee",
          "type": "uint256"
        },
        {
          "internalType": "uint256",
          "name": "vaultIdSell",
          "type": "uint256"
        },
        {
          "internalType": "uint256",
          "name": "vaultIdBuy",
          "type": "uint256"
        },
        {
          "internalType": "uint256",
          "name": "vaultIdFee",
          "type": "uint256"
        },
        {
          "internalType": "uint256",
          "name": "nonce",
          "type": "uint256"
        },
        {
          "internalType": "uint256",
          "name": "expirationTimestamp",
          "type": "uint256"
        }
      ],
      "name": "registerLimitOrder",
      "outputs": [],
      "stateMutability": "nonpayable",
      "type": "function"
    },
    {
      "inputs": [
        {
          "internalType": "address",
          "name": "to",
          "type": "address"
        },
        {
          "internalType": "bytes32",
          "name": "messageHash",
          "type": "bytes32"
        }
      ],
      "name": "registerMessage",
      "outputs": [],
      "stateMutability": "nonpayable",
      "type": "function"
    }
  ],
  "bytecode": {
    "object": "0x608060405234801561001057600080fd5b50610605806100206000396000f3fe608060405234801561001057600080fd5b506004361061007d5760003560e01c8063586fbad51161005b578063586fbad5146101675780636a938567146101d6578063d6354e15146101f3578063eeb72866146101fb5761007d565b80631898f47b14610082578063426315ba146100f157806354351f121461011d575b600080fd5b6100ef600480360361018081101561009957600080fd5b506001600160a01b038135169060208101359060408101359060608101359060808101359060a08101359060c08101359060e0810135906101008101359061012081013590610140810135906101600135610278565b005b6100ef6004803603604081101561010757600080fd5b506001600160a01b03813516906020013561033c565b6101536004803603606081101561013357600080fd5b506001600160a01b038135811691602081013590911690604001356103e5565b604080519115158252519081900360200190f35b6101c4600480360361016081101561017e57600080fd5b5080359060208101359060408101359060608101359060808101359060a08101359060c08101359060e0810135906101008101359061012081013590610140013561044b565b60408051918252519081900360200190f35b610153600480360360208110156101ec57600080fd5b5035610535565b610153610546565b61020361054f565b6040805160208082528351818301528351919283929083019185019080838360005b8381101561023d578181015183820152602001610225565b50505050905090810190601f16801561026a5780820380516001836020036101000a031916815260200191505b509250505060405180910390f35b600061028d8c8c8c8c8c8c8c8c8c8c8c61044b565b90506102998d8261033c565b604080513381526001600160a01b038f1660208201528082018e9052606081018d9052608081018c905260a081018b905260c081018a905260e081018990526101008101889052610120810187905261014081018690526101608101859052610180810184905290517f7f0bd0a16021c205b63f2604730537cd852ba61d30e3a7f5a1249cfcdc64ecda918190036101a00190a150505050505050505050505050565b600033838360405160200180846001600160a01b031660601b8152601401836001600160a01b031660601b8152601401828152602001935050505060405160208183030381529060405280519060200120905061039881610586565b604080513381526001600160a01b038516602082015280820184905290517f2eba3e57d193131a2cf179bbc814231639303814580222749ec25adde2cb9f389181900360600190a1505050565b60008084848460405160200180846001600160a01b031660601b8152601401836001600160a01b031660601b81526014018281526020019350505050604051602081830303815290604052805190602001209050610442816105ba565b95945050505050565b6040805160a080820183528d825260208281018e90528284018d90526fffffffffffffffff00000000000000008c851b1667ffffffffffffffff8c811691909101851b8b821601821b63ffffffff8881169190910160608601819052680300000000000000008a841601871b8c841601871b928b1692909201831b9087160160111b6080850181905294516000959194919391920190819083908083838a5b838110156105025781810151838201526020016104ea565b5050505090500191505060405160208183030381529060405280519060200120925050509b9a5050505050505050505050565b6000610540826105ba565b92915050565b60015460ff1690565b60408051808201909152601e81527f537461726b576172655f4f7264657252656769737472795f323032315f310000602082015290565b6000818152602081905260409020805460ff191660019081179091555460ff166105b7576001805460ff1916811790555b50565b60009081526020819052604090205460ff169056fea26469706673582212203f2cd9441a1dd8f427e96e4ccc2041b7e42bb3f233737b39287de95fd309dd3064736f6c634300060c0033",
    "linkReferences": {}
  },
  "methodIdentifiers": {
    "calcL1LimitOrderHash(uint256,uint256,uint256,uint256,uint256,uint256,uint256,uint256,uint256,uint256,uint256)": "586fbad5",
    "hasRegisteredFact()": "d6354e15",
    "identify()": "eeb72866",
    "isMessageRegistered(address,address,bytes32)": "54351f12",
    "isValid(bytes32)": "6a938567",
    "registerLimitOrder(address,uint256,uint256,uint256,uint256,uint256,uint256,uint256,uint256,uint256,uint256,uint256)": "1898f47b",
    "registerMessage(address,bytes32)": "426315ba"
  },
  "id": 90
}