{
  "abi": [
    {
      "anonymous": false,
      "inputs": [
        {
          "indexed": false,
          "internalType": "address",
          "name": "from",
          "type": "address"
        },
        {
          "indexed": false,
          "internalType": "address",
          "name": "to",
          "type": "address"
        },
        {
          "indexed": false,
          "internalType": "bytes32",
          "name": "msgHash",
          "type": "bytes32"
        }
      ],
      "name": "LogMsgRegistered",
      "type": "event"
    },
    {
      "inputs": [],
      "name": "hasRegisteredFact",
      "outputs": [
        {
          "internalType": "bool",
          "name": "",
          "type": "bool"
        }
      ],
      "stateMutability": "view",
      "type": "function"
    },
    {
      "inputs": [],
      "name": "identify",
      "outputs": [
        {
          "internalType": "string",
          "name": "",
          "type": "string"
        }
      ],
      "stateMutability": "pure",
      "type": "function"
    },
    {
      "inputs": [
        {
          "internalType": "address",
          "name": "from",
          "type": "address"
        },
        {
          "internalType": "address",
          "name": "to",
          "type": "address"
        },
        {
          "internalType": "bytes32",
          "name": "messageHash",
          "type": "bytes32"
        }
      ],
      "name": "isMessageRegistered",
      "outputs": [
        {
          "internalType": "bool",
          "name": "",
          "type": "bool"
        }
      ],
      "stateMutability": "view",
      "type": "function"
    },
    {
      "inputs": [
        {
          "internalType": "bytes32",
          "name": "fact",
          "type": "bytes32"
        }
      ],
      "name": "isValid",
      "outputs": [
        {
          "internalType": "bool",
          "name": "",
          "type": "bool"
        }
      ],
      "stateMutability": "view",
      "type": "function"
    },
    {
      "inputs": [
        {
          "internalType": "address",
          "name": "to",
          "type": "address"
        },
        {
          "internalType": "bytes32",
          "name": "messageHash",
          "type": "bytes32"
        }
      ],
      "name": "registerMessage",
      "outputs": [],
      "stateMutability": "nonpayable",
      "type": "function"
    }
  ],
  "bytecode": {
    "object": "0x608060405234801561001057600080fd5b50610355806100206000396000f3fe608060405234801561001057600080fd5b50600436106100575760003560e01c8063426315ba1461005c57806354351f121461008a5780636a938567146100d4578063d6354e15146100f1578063eeb72866146100f9575b600080fd5b6100886004803603604081101561007257600080fd5b506001600160a01b038135169060200135610176565b005b6100c0600480360360608110156100a057600080fd5b506001600160a01b0381358116916020810135909116906040013561021f565b604080519115158252519081900360200190f35b6100c0600480360360208110156100ea57600080fd5b5035610285565b6100c0610296565b61010161029f565b6040805160208082528351818301528351919283929083019185019080838360005b8381101561013b578181015183820152602001610123565b50505050905090810190601f1680156101685780820380516001836020036101000a031916815260200191505b509250505060405180910390f35b600033838360405160200180846001600160a01b031660601b8152601401836001600160a01b031660601b815260140182815260200193505050506040516020818303038152906040528051906020012090506101d2816102d6565b604080513381526001600160a01b038516602082015280820184905290517f2eba3e57d193131a2cf179bbc814231639303814580222749ec25adde2cb9f389181900360600190a1505050565b60008084848460405160200180846001600160a01b031660601b8152601401836001600160a01b031660601b8152601401828152602001935050505060405160208183030381529060405280519060200120905061027c8161030a565b95945050505050565b60006102908261030a565b92915050565b60015460ff1690565b6040805180820190915260208082527f537461726b576172655f4d65737361676552656769737472795f323032315f319082015290565b6000818152602081905260409020805460ff191660019081179091555460ff16610307576001805460ff1916811790555b50565b60009081526020819052604090205460ff169056fea26469706673582212201b2f45519f2f6dafbc3115e9a444a28cfba02f8c07678e4d0a6e80fa7055d2c264736f6c634300060c0033",
    "linkReferences": {}
  },
  "methodIdentifiers": {
    "hasRegisteredFact()": "d6354e15",
    "identify()": "eeb72866",
    "isMessageRegistered(address,address,bytes32)": "54351f12",
    "isValid(bytes32)": "6a938567",
    "registerMessage(address,bytes32)": "426315ba"
  },
  "id": 17
}