{
  "abi": [
    {
      "inputs": [
        {
          "internalType": "address[]",
          "name": "committeeMembers",
          "type": "address[]"
        },
        {
          "internalType": "uint256",
          "name": "numSignaturesRequired",
          "type": "uint256"
        }
      ],
      "stateMutability": "nonpayable",
      "type": "constructor"
    },
    {
      "inputs": [],
      "name": "hasRegisteredFact",
      "outputs": [
        {
          "internalType": "bool",
          "name": "",
          "type": "bool"
        }
      ],
      "stateMutability": "view",
      "type": "function"
    },
    {
      "inputs": [],
      "name": "identify",
      "outputs": [
        {
          "internalType": "string",
          "name": "",
          "type": "string"
        }
      ],
      "stateMutability": "pure",
      "type": "function"
    },
    {
      "inputs": [
        {
          "internalType": "address",
          "name": "",
          "type": "address"
        }
      ],
      "name": "isMember",
      "outputs": [
        {
          "internalType": "bool",
          "name": "",
          "type": "bool"
        }
      ],
      "stateMutability": "view",
      "type": "function"
    },
    {
      "inputs": [
        {
          "internalType": "bytes32",
          "name": "fact",
          "type": "bytes32"
        }
      ],
      "name": "isValid",
      "outputs": [
        {
          "internalType": "bool",
          "name": "",
          "type": "bool"
        }
      ],
      "stateMutability": "view",
      "type": "function"
    },
    {
      "inputs": [],
      "name": "signaturesRequired",
      "outputs": [
        {
          "internalType": "uint256",
          "name": "",
          "type": "uint256"
        }
      ],
      "stateMutability": "view",
      "type": "function"
    },
    {
      "inputs": [
        {
          "internalType": "bytes32",
          "name": "claimHash",
          "type": "bytes32"
        },
        {
          "internalType": "bytes",
          "name": "availabilityProofs",
          "type": "bytes"
        }
      ],
      "name": "verifyAvailabilityProof",
      "outputs": [],
      "stateMutability": "nonpayable",
      "type": "function"
    }
  ],
  "bytecode": {
    "object": "0x608060405234801561001057600080fd5b506040516107eb3803806107eb8339818101604052604081101561003357600080fd5b810190808051604051939291908464010000000082111561005357600080fd5b90830190602082018581111561006857600080fd5b825186602082028301116401000000008211171561008557600080fd5b82525081516020918201928201910280838360005b838110156100b257818101518382015260200161009a565b5050505091909101604052506020015191505080610117576040805162461bcd60e51b815260206004820152601660248201527f4e4f5f52455155495245445f5349474e41545552455300000000000000000000604482015290519081900360640190fd5b815181111561016d576040805162461bcd60e51b815260206004820152601c60248201527f544f4f5f4d414e595f52455155495245445f5349474e41545552455300000000604482015290519081900360640190fd5b60005b8251811015610280576003600084838151811061018957fe5b6020908102919091018101516001600160a01b031682528101919091526040016000205460ff161580156101e3575060006001600160a01b03168382815181106101cf57fe5b60200260200101516001600160a01b031614155b610234576040805162461bcd60e51b815260206004820152601c60248201527f4e4f4e5f554e495155455f434f4d4d49545445455f4d454d4245525300000000604482015290519081900360640190fd5b60016003600085848151811061024657fe5b6020908102919091018101516001600160a01b03168252810191909152604001600020805460ff1916911515919091179055600101610170565b5060025550610557806102946000396000f3fe608060405234801561001057600080fd5b50600436106100625760003560e01c8063504f7f6f146100675780636a938567146100e0578063a230c52414610111578063ce757d2914610137578063d6354e1514610151578063eeb7286614610159575b600080fd5b6100de6004803603604081101561007d57600080fd5b8135919081019060408101602082013564010000000081111561009f57600080fd5b8201836020820111156100b157600080fd5b803590602001918460018302840111640100000000831117156100d357600080fd5b5090925090506101d6565b005b6100fd600480360360208110156100f657600080fd5b503561041f565b604080519115158252519081900360200190f35b6100fd6004803603602081101561012757600080fd5b50356001600160a01b0316610430565b61013f610445565b60408051918252519081900360200190f35b6100fd61044b565b610161610454565b6040805160208082528351818301528351919283929083019185019080838360005b8381101561019b578181015183820152602001610183565b50505050905090810190601f1680156101c85780820380516001836020036101000a031916815260200191505b509250505060405180910390f35b60025460410281101561021a5760405162461bcd60e51b81526004018080602001828103825260218152602001806104dd6021913960400191505060405180910390fd5b60008060005b60025481101561040e57600061026d86868080601f01602080910402602001604051908101604052809392919081815260200183838082843760009201919091525088925061048b915050565b905060006102b487878080601f016020809104026020016040519081016040528093929190818152602001838380828437600092019190915250505060208801905061048b565b905060008787876040018181106102c757fe5b9050013560f81c60f81b60f81c9050604186019550600060018a83868660405160008152602001604052604051808581526020018460ff1681526020018381526020018281526020019450505050506020604051602081039080840390855afa158015610338573d6000803e3d6000fd5b505060408051601f1901516001600160a01b03811660009081526003602052919091205490925060ff16905061039f5760405162461bcd60e51b81526004018080602001828103825260248152602001806104fe6024913960400191505060405180910390fd5b856001600160a01b0316816001600160a01b0316116103fd576040805162461bcd60e51b81526020600482015260156024820152744e4f4e5f534f525445445f5349474e41545552455360581b604482015290519081900360640190fd5b945050600190920191506102209050565b5061041885610493565b5050505050565b600061042a826104c7565b92915050565b60036020526000908152604090205460ff1681565b60025481565b60015460ff1690565b60408051808201909152601a81527f537461726b576172655f436f6d6d69747465655f323032325f32000000000000602082015290565b016020015190565b6000818152602081905260409020805460ff191660019081179091555460ff166104c4576001805460ff1916811790555b50565b60009081526020819052604090205460ff169056fe494e56414c49445f415641494c4142494c4954595f50524f4f465f4c454e475448415641494c4142494c4954595f50524f5645525f4e4f545f494e5f434f4d4d4954544545a2646970667358221220e4fa0dc54f192ec82c18cfb3dbafcffc4e5ba072d2122d3da88d38ba33fad0d464736f6c634300060c0033",
    "linkReferences": {}
  },
  "methodIdentifiers": {
    "hasRegisteredFact()": "d6354e15",
    "identify()": "eeb72866",
    "isMember(address)": "a230c524",
    "isValid(bytes32)": "6a938567",
    "signaturesRequired()": "ce757d29",
    "verifyAvailabilityProof(bytes32,bytes)": "504f7f6f"
  },
  "id": 0
}