{
  "abi": [
    {
      "inputs": [
        {
          "internalType": "address[63]",
          "name": "tables",
          "type": "address[63]"
        }
      ],
      "stateMutability": "nonpayable",
      "type": "constructor"
    },
    {
      "anonymous": false,
      "inputs": [
        {
          "indexed": false,
          "internalType": "uint256",
          "name": "publicKey",
          "type": "uint256"
        },
        {
          "indexed": false,
          "internalType": "int256",
          "name": "withdrawalAmount",
          "type": "int256"
        },
        {
          "indexed": false,
          "internalType": "bytes32",
          "name": "sharedStateHash",
          "type": "bytes32"
        },
        {
          "indexed": false,
          "internalType": "uint256",
          "name": "positionId",
          "type": "uint256"
        }
      ],
      "name": "LogEscapeVerified",
      "type": "event"
    },
    {
      "inputs": [],
      "name": "hasRegisteredFact",
      "outputs": [
        {
          "internalType": "bool",
          "name": "",
          "type": "bool"
        }
      ],
      "stateMutability": "view",
      "type": "function"
    },
    {
      "inputs": [],
      "name": "identify",
      "outputs": [
        {
          "internalType": "string",
          "name": "",
          "type": "string"
        }
      ],
      "stateMutability": "pure",
      "type": "function"
    },
    {
      "inputs": [
        {
          "internalType": "bytes32",
          "name": "fact",
          "type": "bytes32"
        }
      ],
      "name": "isValid",
      "outputs": [
        {
          "internalType": "bool",
          "name": "",
          "type": "bool"
        }
      ],
      "stateMutability": "view",
      "type": "function"
    },
    {
      "inputs": [
        {
          "internalType": "uint256[]",
          "name": "merkleProof",
          "type": "uint256[]"
        },
        {
          "internalType": "uint256",
          "name": "nAssets",
          "type": "uint256"
        },
        {
          "internalType": "uint256[]",
          "name": "sharedState",
          "type": "uint256[]"
        }
      ],
      "name": "verifyEscape",
      "outputs": [],
      "stateMutability": "nonpayable",
      "type": "function"
    }
  ],
  "bytecode": {
    "object": "0x608060405234801561001057600080fd5b50604051610ecc380380610ecc83398181016040526107e081101561003457600080fd5b5080610043600082603f61004b565b5050506100c2565b82603f8101928215610093579160200282015b8281111561009357825182546001600160a01b0319166001600160a01b0390911617825560209092019160019091019061005e565b5061009f9291506100a3565b5090565b5b8082111561009f5780546001600160a01b03191681556001016100a4565b610dfb806100d16000396000f3fe608060405234801561001057600080fd5b506004361061004c5760003560e01c80636a93856714610051578063d0c5405714610082578063d6354e151461014a578063eeb7286614610152575b600080fd5b61006e6004803603602081101561006757600080fd5b50356101cf565b604080519115158252519081900360200190f35b6101486004803603606081101561009857600080fd5b8101906020810181356401000000008111156100b357600080fd5b8201836020820111156100c557600080fd5b803590602001918460208302840111640100000000831117156100e757600080fd5b9193909282359260408101906020013564010000000081111561010957600080fd5b82018360208201111561011b57600080fd5b8035906020019184602083028401116401000000008311171561013d57600080fd5b5090925090506101e0565b005b61006e6104a4565b61015a6104ad565b6040805160208082528351818301528351919283929083019185019080838360005b8381101561019457818101518382015260200161017c565b50505050905090810190601f1680156101c15780820380516001836020036101000a031916815260200191505b509250505060405180910390f35b60006101da826104cd565b92915050565b600060606102228787808060200260200160405190810160405280939291908181526020018383602002808284376000920191909152508992506104e2915050565b91509150600060206102678387878080602002602001604051908101604052809392919081815260200183836020028082843760009201919091525061063292505050565b8351911d915060026001198901908104918203906004908b908b9081811061028b57fe5b90506020020135901c878760008181106102a157fe5b90506020020135146102e45760405162461bcd60e51b815260040180806020018281038252603d815260200180610cd9603d913960400191505060405180910390fd5b80878760018181106102f257fe5b90506020020135146103355760405162461bcd60e51b815260040180806020018281038252603f815260200180610d16603f913960400191505060405180910390fd5b600083136103745760405162461bcd60e51b8152600401808060200182810382526023815260200180610d556023913960400191505060405180910390fd5b600087876040516020018083836020028082843780830192505050925050506040516020818303038152906040528051906020012090506000858a815181106103b957fe5b60209081029190910181015160408051828152928301889052828101859052606083018a9052519092507f37a0572848114e81e49af27488e37a0944e66191652859725ed3e64c210ec1c79181900360800190a160008186848a6040516020018085815260200184815260200183815260200182815260200194505050505060405160208183030381529060405280519060200120905061048c8d8d8080602002602001604051908101604052809392919081815260200183836020028082843760009201919091525061083692505050565b61049581610c06565b50505050505050505050505050565b60405460ff1690565b6060604051806060016040528060288152602001610d9e60289139905090565b6000908152603f602052604090205460ff1690565b600060606008846000815181106104f557fe5b6020026020010151901c60001461053d5760405162461bcd60e51b8152600401808060200182810382526026815260200180610d786026913960400191505060405180910390fd5b600283018067ffffffffffffffff8111801561055857600080fd5b50604051908082528060200260200182016040528015610582578160200160208202803683370190505b509150600060088660018851038151811061059957fe5b6020026020010151901c90506001826001901b0381166000146105ed5760405162461bcd60e51b8152600401808060200182810382526029815260200180610cb06029913960400191505060405180910390fd5b8181901c93506020830160208451028101603f88015b818310156106265780516001600160fc1b03168352602090920191604001610603565b50505050509250929050565b6000806000808560018751038151811061064857fe5b6020908102919091010151865161ffff82169450909150601082901c9060028501146106b3576040805162461bcd60e51b81526020600482015260156024820152742130b210373ab6b132b91037b31030b9b9b2ba399760591b604482015290519081900360640190fd5b6801000000000000000081106106ff576040805162461bcd60e51b815260206004820152600c60248201526b2130b2103130b630b731b29760a11b604482015290519081900360640190fd5b8551677fffffffffffffff1990910160201b9250600591506000908690600490811061072757fe5b60200260200101519050600081600202830190506000816002019050600088600183038151811061075457fe5b60209081029190910101519050600281028201896000805b8a81101561081b5760008e828151811061078257fe5b60209081029190910101519050608081901c67ffffffffffffffff604083901c8116908316677fffffffffffffff19016107be83888f8e610c3a565b9c5081878e600101815181106107d057fe5b6020026020010151038102860395506107eb83888c8b610c3a565b9950868a600101815181106107fc57fe5b602002602001015181028e019d5050505050808060010191505061076c565b5063ffffffff1916979097019b9a5050505050505050505050565b80516004811015610881576040805162461bcd60e51b815260206004820152601060248201526f283937b7b3103a37b79039b437b93a1760811b604482015290519081900360640190fd5b6101928111156108ca576040805162461bcd60e51b815260206004820152600f60248201526e283937b7b3103a37b7903637b7339760891b604482015290519081900360640190fd5b6001811615610920576040805162461bcd60e51b815260206004820152601a60248201527f50726f6f66206c656e677468206d757374206265206576656e2e000000000000604482015290519081900360640190fd5b6000600260011983010490506000600884600185038151811061093f57fe5b6020026020010151901c90508160020a8110610999576040805162461bcd60e51b81526020600482015260146024820152733737b232a4b23c103737ba1034b7103a3932b29760611b604482015290519081900360640190fd5b60018116156109e7576040805162461bcd60e51b81526020600482015260156024820152743737b232a4b23c1036bab9ba1031329032bb32b71760591b604482015290519081900360640190fd5b6040820260208501610a13565b62461bcd60e51b60005260206004528160245280604452816044016000fd5b805160041c6001600160fc1b03601f8301511667080000000000001160c01b8082118184111715610a6957610a6960187f42616420737461726b4b6579206f7220617373657449642e00000000000000006109f4565b8592506040519150603f8502820160005b603f811015610aa7578687820285018883890184545afa610a9f573d6000803e3d6000fd5b600101610a7a565b506000806000600167080000000000001160c01b015b89841015610bf65786840180516020820151918c01945060019350905b86851015610b4b57845160208601518585038586838309850886848309915086828708878182098889898b03860183098a8c8c87880909089350888a8209905088818309995088898a888409868c030185098a8c88098b030896505087818409965050505050508b85019450610ada565b50604085019450848a015160041c6001600160fc1b03601f87018c0151168881118983111715610b9657610b966013722b30b63ab29037baba1037b3103930b733b29760691b6109f4565b60019a8b1c9a8b1615610ba7578091505b5083610bc657610bc6600b6a30ad1034b9903d32b9379760a91b6109f4565b82848209820315610bef57610bef60106f2130b21026b2b935b632903830ba341760811b6109f4565b5050610abd565b5050505050505050505050505050565b6000818152603f602052604090819020805460ff191660011790555460ff16610c37576040805460ff191660011790555b50565b815b84848281518110610c4957fe5b602002602001015114610ca757600201818110610ca2576040805162461bcd60e51b815260206004820152601260248201527130b9b9b2ba24b2103737ba103337bab7321760711b604482015290519081900360640190fd5b610c3c565b94935050505056fe6d65726b6c6550726f6f6620697320696e636f6e73697374656e742077697468206e4173736574732e6d65726b6c6550726f6f6620697320696e636f6e73697374656e7420776974682074686520726f6f7420696e207468652073686172656453746174652e6d65726b6c6550726f6f6620697320696e636f6e73697374656e742077697468207468652068656967687420696e207468652073686172656453746174652e5769746864726177616c20616d6f756e74206d75737420626520706f7369746976652e506f736974696f6e20686173682d636861696e206d757374207374617274207769746820302e537461726b576172655f50657270657475616c45736361706556657269666965725f323032315f32a2646970667358221220791b7b34737c671bde809174b5bd309dfb66477c342feb797672811c4aac3e0d64736f6c634300060c0033",
    "linkReferences": {}
  },
  "methodIdentifiers": {
    "hasRegisteredFact()": "d6354e15",
    "identify()": "eeb72866",
    "isValid(bytes32)": "6a938567",
    "verifyEscape(uint256[],uint256,uint256[])": "d0c54057"
  },
  "id": 70
}