{
  "abi": [
    {
      "inputs": [],
      "name": "DEPOSIT_CANCEL_DELAY",
      "outputs": [
        {
          "internalType": "uint256",
          "name": "",
          "type": "uint256"
        }
      ],
      "stateMutability": "view",
      "type": "function"
    },
    {
      "inputs": [],
      "name": "FREEZE_GRACE_PERIOD",
      "outputs": [
        {
          "internalType": "uint256",
          "name": "",
          "type": "uint256"
        }
      ],
      "stateMutability": "view",
      "type": "function"
    },
    {
      "inputs": [],
      "name": "MAX_FORCED_ACTIONS_REQS_PER_BLOCK",
      "outputs": [
        {
          "internalType": "uint256",
          "name": "",
          "type": "uint256"
        }
      ],
      "stateMutability": "view",
      "type": "function"
    },
    {
      "inputs": [],
      "name": "MAX_VERIFIER_COUNT",
      "outputs": [
        {
          "internalType": "uint256",
          "name": "",
          "type": "uint256"
        }
      ],
      "stateMutability": "view",
      "type": "function"
    },
    {
      "inputs": [],
      "name": "UNFREEZE_DELAY",
      "outputs": [
        {
          "internalType": "uint256",
          "name": "",
          "type": "uint256"
        }
      ],
      "stateMutability": "view",
      "type": "function"
    },
    {
      "inputs": [],
      "name": "VERIFIER_REMOVAL_DELAY",
      "outputs": [
        {
          "internalType": "uint256",
          "name": "",
          "type": "uint256"
        }
      ],
      "stateMutability": "view",
      "type": "function"
    },
    {
      "inputs": [],
      "name": "getActionCount",
      "outputs": [
        {
          "internalType": "uint256",
          "name": "",
          "type": "uint256"
        }
      ],
      "stateMutability": "view",
      "type": "function"
    },
    {
      "inputs": [
        {
          "internalType": "uint256",
          "name": "actionIndex",
          "type": "uint256"
        }
      ],
      "name": "getActionHashByIndex",
      "outputs": [
        {
          "internalType": "bytes32",
          "name": "",
          "type": "bytes32"
        }
      ],
      "stateMutability": "view",
      "type": "function"
    }
  ],
  "bytecode": {
    "object": "0x608060405234801561001057600080fd5b506101c6806100206000396000f3fe608060405234801561001057600080fd5b50600436106100875760003560e01c8063993f36391161005b578063993f3639146100d3578063b7663112146100db578063e30a5cff146100e3578063e6de6282146100eb57610087565b80627175421461008c5780635e586cd1146100a65780635eecd218146100c357806377e84e0d146100cb575b600080fd5b6100946100f3565b60408051918252519081900360200190f35b610094600480360360208110156100bc57600080fd5b50356100fa565b61009461016a565b610094610170565b610094610177565b61009461017f565b610094610186565b61009461018b565b62093a8081565b602454600090821061014b576040805162461bcd60e51b815260206004820152601560248201527408286a8929e9cbe929c888ab0bea89e9ebe90928e9605b1b604482015290519081900360640190fd5b6024828154811061015857fe5b90600052602060002001549050919050565b60245490565b6202a30081565b6301e1338081565b6224ea0081565b600a81565b60408156fea2646970667358221220d62c17ecbc1a09958b285f73e5ef3c877300bcfb9a580bcb3e63a2a92ac6105064736f6c634300060c0033",
    "linkReferences": {}
  },
  "methodIdentifiers": {
    "DEPOSIT_CANCEL_DELAY()": "77e84e0d",
    "FREEZE_GRACE_PERIOD()": "00717542",
    "MAX_FORCED_ACTIONS_REQS_PER_BLOCK()": "e30a5cff",
    "MAX_VERIFIER_COUNT()": "e6de6282",
    "UNFREEZE_DELAY()": "993f3639",
    "VERIFIER_REMOVAL_DELAY()": "b7663112",
    "getActionCount()": "5eecd218",
    "getActionHashByIndex(uint256)": "5e586cd1"
  },
  "id": 1
}