{
  "abi": [
    {
      "anonymous": false,
      "inputs": [
        {
          "indexed": false,
          "internalType": "bytes32",
          "name": "factHash",
          "type": "bytes32"
        },
        {
          "indexed": false,
          "internalType": "uint256",
          "name": "memoryHash",
          "type": "uint256"
        },
        {
          "indexed": false,
          "internalType": "uint256",
          "name": "prod",
          "type": "uint256"
        }
      ],
      "name": "LogMemoryPageFactContinuous",
      "type": "event"
    },
    {
      "anonymous": false,
      "inputs": [
        {
          "indexed": false,
          "internalType": "bytes32",
          "name": "factHash",
          "type": "bytes32"
        },
        {
          "indexed": false,
          "internalType": "uint256",
          "name": "memoryHash",
          "type": "uint256"
        },
        {
          "indexed": false,
          "internalType": "uint256",
          "name": "prod",
          "type": "uint256"
        }
      ],
      "name": "LogMemoryPageFactRegular",
      "type": "event"
    },
    {
      "inputs": [],
      "name": "hasRegisteredFact",
      "outputs": [
        {
          "internalType": "bool",
          "name": "",
          "type": "bool"
        }
      ],
      "stateMutability": "view",
      "type": "function"
    },
    {
      "inputs": [
        {
          "internalType": "bytes32",
          "name": "fact",
          "type": "bytes32"
        }
      ],
      "name": "isValid",
      "outputs": [
        {
          "internalType": "bool",
          "name": "",
          "type": "bool"
        }
      ],
      "stateMutability": "view",
      "type": "function"
    },
    {
      "inputs": [
        {
          "internalType": "uint256",
          "name": "startAddr",
          "type": "uint256"
        },
        {
          "internalType": "uint256[]",
          "name": "values",
          "type": "uint256[]"
        },
        {
          "internalType": "uint256",
          "name": "z",
          "type": "uint256"
        },
        {
          "internalType": "uint256",
          "name": "alpha",
          "type": "uint256"
        },
        {
          "internalType": "uint256",
          "name": "prime",
          "type": "uint256"
        }
      ],
      "name": "registerContinuousMemoryPage",
      "outputs": [
        {
          "internalType": "bytes32",
          "name": "factHash",
          "type": "bytes32"
        },
        {
          "internalType": "uint256",
          "name": "memoryHash",
          "type": "uint256"
        },
        {
          "internalType": "uint256",
          "name": "prod",
          "type": "uint256"
        }
      ],
      "stateMutability": "nonpayable",
      "type": "function"
    },
    {
      "inputs": [
        {
          "internalType": "uint256[]",
          "name": "memoryPairs",
          "type": "uint256[]"
        },
        {
          "internalType": "uint256",
          "name": "z",
          "type": "uint256"
        },
        {
          "internalType": "uint256",
          "name": "alpha",
          "type": "uint256"
        },
        {
          "internalType": "uint256",
          "name": "prime",
          "type": "uint256"
        }
      ],
      "name": "registerRegularMemoryPage",
      "outputs": [
        {
          "internalType": "bytes32",
          "name": "factHash",
          "type": "bytes32"
        },
        {
          "internalType": "uint256",
          "name": "memoryHash",
          "type": "uint256"
        },
        {
          "internalType": "uint256",
          "name": "prod",
          "type": "uint256"
        }
      ],
      "stateMutability": "nonpayable",
      "type": "function"
    }
  ],
  "bytecode": {
    "object": "0x608060405234801561001057600080fd5b506108a5806100206000396000f3fe608060405234801561001057600080fd5b506004361061004c5760003560e01c8063405a6362146100515780635578ceae146100eb5780636a938567146101a0578063d6354e15146101d1575b600080fd5b6100cd6004803603608081101561006757600080fd5b81019060208101813564010000000081111561008257600080fd5b82018360208201111561009457600080fd5b803590602001918460208302840111640100000000831117156100b657600080fd5b9193509150803590602081013590604001356101d9565b60408051938452602084019290925282820152519081900360600190f35b6100cd600480360360a081101561010157600080fd5b8135919081019060408101602082013564010000000081111561012357600080fd5b82018360208201111561013557600080fd5b8035906020019184602083028401116401000000008311171561015757600080fd5b91908080602002602001604051908101604052809392919081815260200183836020028082843760009201919091525092955050823593505050602081013590604001356103a4565b6101bd600480360360208110156101b657600080fd5b50356106ef565b604080519115158252519081900360200190f35b6101bd610700565b6000808062100000871061022e576040805162461bcd60e51b81526020600482015260176024820152762a37b79036b0b73c9036b2b6b7b93c903b30b63ab2b99760491b604482015290519081900360640190fd5b600287061561026e5760405162461bcd60e51b81526004018080602001828103825260218152602001806108176021913960400191505060405180910390fd5b8386106102b8576040805162461bcd60e51b815260206004820152601360248201527224b73b30b634b2103b30b63ab29037b3103d1760691b604482015290519081900360640190fd5b838510610306576040805162461bcd60e51b815260206004820152601760248201527624b73b30b634b2103b30b63ab29037b31030b63834309760491b604482015290519081900360640190fd5b6103478888808060200260200160405190810160405280939291908181526020018383602002808284376000920191909152508a9250899150889050610709565b6040805184815260208101849052808201839052905193965091945092507f98fd0d40bd3e226c28fb29ff2d386bd8f9e19f2f8436441e6b854651d3b687b3919081900360600190a1610399836107cd565b955095509592505050565b6000806000621000008751106103fb576040805162461bcd60e51b81526020600482015260176024820152762a37b79036b0b73c9036b2b6b7b93c903b30b63ab2b99760491b604482015290519081900360640190fd5b600160fe1b841061043d5760405162461bcd60e51b81526004018080602001828103825260388152602001806108386038913960400191505060405180910390fd5b838610610487576040805162461bcd60e51b815260206004820152601360248201527224b73b30b634b2103b30b63ab29037b3103d1760691b604482015290519081900360640190fd5b8385106104d5576040805162461bcd60e51b815260206004820152601760248201527624b73b30b634b2103b30b63ab29037b31030b63834309760491b604482015290519081900360640190fd5b68010000000000000000881080156104ec57508388105b61053d576040805162461bcd60e51b815260206004820152601b60248201527f496e76616c69642076616c7565206f66207374617274416464722e0000000000604482015290519081900360640190fd5b5085516001906020880187860386900660078b018b84015b808210156105fd578889848b8d602089015109600686030101858c8e89510960078703010109870995508889848b8d606089015109600486030101858c8e60408a01510960058703010109870995508889848b8d60a089015109600286030101858c8e60808a01510960038703010109870995508889848b8d60e089015109850101858c8e60c08a015109600187030101098709955061010084019350600882019150610555565b6007820391505b808210156106315788898b8651098308925088838a038c0187099550602084019350600182019150610604565b50505060208083028a820120604080516001818501528082018a905260608101869052608081018c905260a081018b905260c0810187905260e081018390526101008082018f905282518083039091018152610120820180845281519190950120938490526101408101839052610160810187905290519297509095507fb8b9c39aeba1cfd98c38dfeebe11c2f7e02b334cbe9f05f22b442a5d9c1ea0c592508190036101800190a16106e3846107cd565b50955095509592505050565b60006106fa82610801565b92915050565b60015460ff1690565b600080600080600288518161071a57fe5b0490506001915060208801604082028101815b818110156107545787888a60208401510982510888818a038c01870995505060400161072d565b5050816040028120935050600085828989868860006040516020018089815260200188815260200187815260200186815260200185815260200184815260200183815260200182815260200198505050505050505050604051602081830303815290604052805190602001209350509450945094915050565b6000818152602081905260409020805460ff191660019081179091555460ff166107fe576001805460ff1916811790555b50565b60009081526020819052604090205460ff169056fe53697a65206f66206d656d6f72795061697273206d757374206265206576656e2e7072696d6520697320746f6f2062696720666f7220746865206f7074696d697a6174696f6e7320696e20746869732066756e6374696f6e2ea26469706673582212201a39f9eb2da3c565e24c62178d34d338756ebfb6ea2ca07fecabc5d7d55c31b764736f6c634300060c0033",
    "linkReferences": {}
  },
  "methodIdentifiers": {
    "hasRegisteredFact()": "d6354e15",
    "isValid(bytes32)": "6a938567",
    "registerContinuousMemoryPage(uint256,uint256[],uint256,uint256,uint256)": "5578ceae",
    "registerRegularMemoryPage(uint256[],uint256,uint256,uint256)": "405a6362"
  },
  "id": 28
}