{
  "abi": [
    {
      "anonymous": false,
      "inputs": [
        {
          "indexed": true,
          "internalType": "address",
          "name": "implementation",
          "type": "address"
        },
        {
          "indexed": false,
          "internalType": "uint256",
          "name": "updatedActivationTime",
          "type": "uint256"
        }
      ],
      "name": "ImplementationActivationRescheduled",
      "type": "event"
    },
    {
      "anonymous": false,
      "inputs": [
        {
          "indexed": false,
          "internalType": "address",
          "name": "acceptedGovernor",
          "type": "address"
        }
      ],
      "name": "LogNewGovernorAccepted",
      "type": "event"
    },
    {
      "anonymous": false,
      "inputs": [
        {
          "indexed": false,
          "internalType": "address",
          "name": "nominatedGovernor",
          "type": "address"
        }
      ],
      "name": "LogNominatedGovernor",
      "type": "event"
    },
    {
      "anonymous": false,
      "inputs": [],
      "name": "LogNominationCancelled",
      "type": "event"
    },
    {
      "anonymous": false,
      "inputs": [
        {
          "indexed": false,
          "internalType": "address",
          "name": "removedGovernor",
          "type": "address"
        }
      ],
      "name": "LogRemovedGovernor",
      "type": "event"
    },
    {
      "inputs": [],
      "name": "PROXY_GOVERNANCE_TAG",
      "outputs": [
        {
          "internalType": "string",
          "name": "",
          "type": "string"
        }
      ],
      "stateMutability": "view",
      "type": "function"
    },
    {
      "inputs": [],
      "name": "UPGRADE_DELAY_SLOT",
      "outputs": [
        {
          "internalType": "bytes32",
          "name": "",
          "type": "bytes32"
        }
      ],
      "stateMutability": "view",
      "type": "function"
    },
    {
      "inputs": [],
      "name": "identify",
      "outputs": [
        {
          "internalType": "string",
          "name": "",
          "type": "string"
        }
      ],
      "stateMutability": "pure",
      "type": "function"
    },
    {
      "inputs": [
        {
          "internalType": "bytes",
          "name": "",
          "type": "bytes"
        }
      ],
      "name": "initialize",
      "outputs": [],
      "stateMutability": "nonpayable",
      "type": "function"
    },
    {
      "inputs": [],
      "name": "initializerSize",
      "outputs": [
        {
          "internalType": "uint256",
          "name": "",
          "type": "uint256"
        }
      ],
      "stateMutability": "view",
      "type": "function"
    },
    {
      "inputs": [],
      "name": "proxyAcceptGovernance",
      "outputs": [],
      "stateMutability": "nonpayable",
      "type": "function"
    },
    {
      "inputs": [],
      "name": "proxyCancelNomination",
      "outputs": [],
      "stateMutability": "nonpayable",
      "type": "function"
    },
    {
      "inputs": [
        {
          "internalType": "address",
          "name": "testGovernor",
          "type": "address"
        }
      ],
      "name": "proxyIsGovernor",
      "outputs": [
        {
          "internalType": "bool",
          "name": "",
          "type": "bool"
        }
      ],
      "stateMutability": "view",
      "type": "function"
    },
    {
      "inputs": [
        {
          "internalType": "address",
          "name": "newGovernor",
          "type": "address"
        }
      ],
      "name": "proxyNominateNewGovernor",
      "outputs": [],
      "stateMutability": "nonpayable",
      "type": "function"
    },
    {
      "inputs": [
        {
          "internalType": "address",
          "name": "governorForRemoval",
          "type": "address"
        }
      ],
      "name": "proxyRemoveGovernor",
      "outputs": [],
      "stateMutability": "nonpayable",
      "type": "function"
    },
    {
      "inputs": [
        {
          "internalType": "address",
          "name": "implementation",
          "type": "address"
        },
        {
          "internalType": "bytes",
          "name": "data",
          "type": "bytes"
        },
        {
          "internalType": "bool",
          "name": "finalize",
          "type": "bool"
        }
      ],
      "name": "updateImplementationActivationTime",
      "outputs": [],
      "stateMutability": "nonpayable",
      "type": "function"
    },
    {
      "inputs": [],
      "name": "validatedSelectors",
      "outputs": [
        {
          "internalType": "bytes4[]",
          "name": "selectors",
          "type": "bytes4[]"
        }
      ],
      "stateMutability": "pure",
      "type": "function"
    }
  ],
  "bytecode": {
    "object": "0x608060405234801561001057600080fd5b50610bf6806100206000396000f3fe608060405234801561001057600080fd5b50600436106100b45760003560e01c806356f36dbf1161007157806356f36dbf1461024d5780636684b1d6146102ca5780638757653f146102d2578063b449ea5d146102f8578063eeb7286614610332578063f9bcdde41461033a576100b4565b806302a93fae146100b95780630ebdac031461013d57806312f16e6d1461019557806320cea94d146101bb5780633cc660ad146101d5578063439fab91146101dd575b600080fd5b61013b600480360360608110156100cf57600080fd5b6001600160a01b0382351691908101906040810160208201356401000000008111156100fa57600080fd5b82018360208201111561010c57600080fd5b8035906020019184600183028401116401000000008311171561012e57600080fd5b9193509150351515610342565b005b610145610595565b60408051602080825283518183015283519192839290830191858101910280838360005b83811015610181578181015183820152602001610169565b505050509050019250505060405180910390f35b61013b600480360360208110156101ab57600080fd5b50356001600160a01b03166105a7565b6101c36105b3565b60408051918252519081900360200190f35b6101c36105d7565b61013b600480360360208110156101f357600080fd5b81019060208101813564010000000081111561020e57600080fd5b82018360208201111561022057600080fd5b8035906020019184600183028401116401000000008311171561024257600080fd5b5090925090506105dc565b61025561061b565b6040805160208082528351818301528351919283929083019185019080838360005b8381101561028f578181015183820152602001610277565b50505050905090810190601f1680156102bc5780820380516001836020036101000a031916815260200191505b509250505060405180910390f35b61013b610637565b61013b600480360360208110156102e857600080fd5b50356001600160a01b0316610641565b61031e6004803603602081101561030e57600080fd5b50356001600160a01b031661064a565b604080519115158252519081900360200190f35b61025561065b565b61013b610692565b61034b3361069a565b61038e576040805162461bcd60e51b815260206004820152600f60248201526e4f4e4c595f474f5645524e414e434560881b604482015290519081900360640190fd5b60006103986106c9565b420190506000848484604051602001808060200183151581526020018281038252858582818152602001925080828437600081840152601f19601f8201169050808301925050509450505050506040516020818303038152906040528051906020012090508060016000886001600160a01b03166001600160a01b031681526020019081526020016000205414610476576040805162461bcd60e51b815260206004820152601a60248201527f494d504c454d454e544154494f4e5f4e4f545f50454e44494e47000000000000604482015290519081900360640190fd5b6000868152600260205260409020548690806104d9576040805162461bcd60e51b815260206004820152601a60248201527f494d504c454d454e544154494f4e5f4e4f545f50454e44494e47000000000000604482015290519081900360640190fd5b4262ed4e00018110610532576040805162461bcd60e51b815260206004820152601f60248201527f494e56414c49445f50454e44494e475f41435449564154494f4e5f54494d4500604482015290519081900360640190fd5b8084101561058b57600082815260026020908152604091829020869055815186815291516001600160a01b038b16927fdda7b7d1f8141bd98b4378ee60e6231f89598ca02949a9d0550904dc96efeeb792908290030190a25b5050505050505050565b60408051600081526020810190915290565b6105b0816106ee565b50565b7fc21dbb3089fcb2c4f4c6a67854ab4db2b0f233ea4b21b21f912d52d18fc5db1f81565b600090565b6040805162461bcd60e51b815260206004820152600f60248201526e1393d517d253541311535153951151608a1b604482015290519081900360640190fd5b604051806060016040528060278152602001610b9a6027913981565b61063f61083b565b565b6105b081610908565b60006106558261069a565b92915050565b60408051808201909152601b81527f537461726b576172655f50726f78795574696c735f323032325f320000000000602082015290565b61063f610a05565b6000806106a5610a9c565b6001600160a01b039390931660009081526020939093525050604090205460ff1690565b7fc21dbb3089fcb2c4f4c6a67854ab4db2b0f233ea4b21b21f912d52d18fc5db1f5490565b6106f73361069a565b61073a576040805162461bcd60e51b815260206004820152600f60248201526e4f4e4c595f474f5645524e414e434560881b604482015290519081900360640190fd5b336001600160a01b038216141561078f576040805162461bcd60e51b8152602060048201526014602482015273474f5645524e4f525f53454c465f52454d4f564560601b604482015290519081900360640190fd5b6000610799610a9c565b90506107a48261069a565b6107e4576040805162461bcd60e51b815260206004820152600c60248201526b2727aa2fa3a7ab22a92727a960a11b604482015290519081900360640190fd5b6001600160a01b03821660008181526020838152604091829020805460ff19169055815192835290517fd75f94825e770b8b512be8e74759e252ad00e102e38f50cce2f7c6f868a295999281900390910190a15050565b6000610845610a9c565b60018101549091506001600160a01b031633146108a9576040805162461bcd60e51b815260206004820152601760248201527f4f4e4c595f43414e4449444154455f474f5645524e4f52000000000000000000604482015290519081900360640190fd5b60018101546108c0906001600160a01b0316610b19565b6001810180546001600160a01b03191690556040805133815290517fcfb473e6c03f9a29ddaf990e736fa3de5188a0bd85d684f5b6e164ebfbfff5d29181900360200190a150565b6109113361069a565b610954576040805162461bcd60e51b815260206004820152600f60248201526e4f4e4c595f474f5645524e414e434560881b604482015290519081900360640190fd5b600061095e610a9c565b90506109698261069a565b156109ae576040805162461bcd60e51b815260206004820152601060248201526f20a62922a0a22cafa3a7ab22a92727a960811b604482015290519081900360640190fd5b6001810180546001600160a01b0384166001600160a01b0319909116811790915560408051918252517f6166272c8d3f5f579082f2827532732f97195007983bb5b83ac12c56700b01a69181900360200190a15050565b610a0e3361069a565b610a51576040805162461bcd60e51b815260206004820152600f60248201526e4f4e4c595f474f5645524e414e434560881b604482015290519081900360640190fd5b6000610a5b610a9c565b6001810180546001600160a01b03191690556040519091507f7a8dc7dd7fffb43c4807438fa62729225156941e641fd877938f4edade3429f590600090a150565b600080604051806060016040528060278152602001610b9a602791396040518082805190602001908083835b60208310610ae75780518252601f199092019160209182019101610ac8565b51815160209384036101000a600019018019909216911617905292019485525060405193849003019092209392505050565b610b228161069a565b15610b67576040805162461bcd60e51b815260206004820152601060248201526f20a62922a0a22cafa3a7ab22a92727a960811b604482015290519081900360640190fd5b6000610b71610a9c565b6001600160a01b0390921660009081526020929092525060409020805460ff1916600117905556fe537461726b45782e50726f78792e323031392e476f7665726e6f7273496e666f726d6174696f6ea2646970667358221220a9778a50cd3d4b6ea0e0b0845ef697d0431e0da4815df8350a45c3ddc7a1c92864736f6c634300060c0033",
    "linkReferences": {}
  },
  "methodIdentifiers": {
    "PROXY_GOVERNANCE_TAG()": "56f36dbf",
    "UPGRADE_DELAY_SLOT()": "20cea94d",
    "identify()": "eeb72866",
    "initialize(bytes)": "439fab91",
    "initializerSize()": "3cc660ad",
    "proxyAcceptGovernance()": "6684b1d6",
    "proxyCancelNomination()": "f9bcdde4",
    "proxyIsGovernor(address)": "b449ea5d",
    "proxyNominateNewGovernor(address)": "8757653f",
    "proxyRemoveGovernor(address)": "12f16e6d",
    "updateImplementationActivationTime(address,bytes,bool)": "02a93fae",
    "validatedSelectors()": "0ebdac03"
  },
  "id": 101
}