{
  "abi": [
    {
      "anonymous": false,
      "inputs": [
        {
          "indexed": false,
          "internalType": "uint256",
          "name": "starkKeyA",
          "type": "uint256"
        },
        {
          "indexed": false,
          "internalType": "uint256",
          "name": "starkKeyB",
          "type": "uint256"
        },
        {
          "indexed": false,
          "internalType": "uint256",
          "name": "vaultIdA",
          "type": "uint256"
        },
        {
          "indexed": false,
          "internalType": "uint256",
          "name": "vaultIdB",
          "type": "uint256"
        },
        {
          "indexed": false,
          "internalType": "uint256",
          "name": "collateralAssetId",
          "type": "uint256"
        },
        {
          "indexed": false,
          "internalType": "uint256",
          "name": "syntheticAssetId",
          "type": "uint256"
        },
        {
          "indexed": false,
          "internalType": "uint256",
          "name": "amountCollateral",
          "type": "uint256"
        },
        {
          "indexed": false,
          "internalType": "uint256",
          "name": "amountSynthetic",
          "type": "uint256"
        },
        {
          "indexed": false,
          "internalType": "bool",
          "name": "aIsBuyingSynthetic",
          "type": "bool"
        },
        {
          "indexed": false,
          "internalType": "uint256",
          "name": "nonce",
          "type": "uint256"
        }
      ],
      "name": "LogForcedTradeRequest",
      "type": "event"
    },
    {
      "anonymous": false,
      "inputs": [
        {
          "indexed": false,
          "internalType": "uint256",
          "name": "starkKey",
          "type": "uint256"
        },
        {
          "indexed": false,
          "internalType": "uint256",
          "name": "vaultId",
          "type": "uint256"
        },
        {
          "indexed": false,
          "internalType": "uint256",
          "name": "quantizedAmount",
          "type": "uint256"
        }
      ],
      "name": "LogForcedWithdrawalRequest",
      "type": "event"
    },
    {
      "anonymous": false,
      "inputs": [],
      "name": "LogFrozen",
      "type": "event"
    },
    {
      "anonymous": false,
      "inputs": [
        {
          "indexed": false,
          "internalType": "address",
          "name": "acceptedGovernor",
          "type": "address"
        }
      ],
      "name": "LogNewGovernorAccepted",
      "type": "event"
    },
    {
      "anonymous": false,
      "inputs": [
        {
          "indexed": false,
          "internalType": "address",
          "name": "nominatedGovernor",
          "type": "address"
        }
      ],
      "name": "LogNominatedGovernor",
      "type": "event"
    },
    {
      "anonymous": false,
      "inputs": [],
      "name": "LogNominationCancelled",
      "type": "event"
    },
    {
      "anonymous": false,
      "inputs": [
        {
          "indexed": false,
          "internalType": "address",
          "name": "removedGovernor",
          "type": "address"
        }
      ],
      "name": "LogRemovedGovernor",
      "type": "event"
    },
    {
      "anonymous": false,
      "inputs": [],
      "name": "LogUnFrozen",
      "type": "event"
    },
    {
      "anonymous": false,
      "inputs": [
        {
          "indexed": false,
          "internalType": "address",
          "name": "ethKey",
          "type": "address"
        },
        {
          "indexed": false,
          "internalType": "uint256",
          "name": "starkKey",
          "type": "uint256"
        },
        {
          "indexed": false,
          "internalType": "address",
          "name": "sender",
          "type": "address"
        }
      ],
      "name": "LogUserRegistered",
      "type": "event"
    },
    {
      "inputs": [],
      "name": "DEPOSIT_CANCEL_DELAY",
      "outputs": [
        {
          "internalType": "uint256",
          "name": "",
          "type": "uint256"
        }
      ],
      "stateMutability": "view",
      "type": "function"
    },
    {
      "inputs": [],
      "name": "FREEZE_GRACE_PERIOD",
      "outputs": [
        {
          "internalType": "uint256",
          "name": "",
          "type": "uint256"
        }
      ],
      "stateMutability": "view",
      "type": "function"
    },
    {
      "inputs": [],
      "name": "MAIN_GOVERNANCE_INFO_TAG",
      "outputs": [
        {
          "internalType": "string",
          "name": "",
          "type": "string"
        }
      ],
      "stateMutability": "view",
      "type": "function"
    },
    {
      "inputs": [],
      "name": "MAX_FORCED_ACTIONS_REQS_PER_BLOCK",
      "outputs": [
        {
          "internalType": "uint256",
          "name": "",
          "type": "uint256"
        }
      ],
      "stateMutability": "view",
      "type": "function"
    },
    {
      "inputs": [],
      "name": "MAX_VERIFIER_COUNT",
      "outputs": [
        {
          "internalType": "uint256",
          "name": "",
          "type": "uint256"
        }
      ],
      "stateMutability": "view",
      "type": "function"
    },
    {
      "inputs": [],
      "name": "UNFREEZE_DELAY",
      "outputs": [
        {
          "internalType": "uint256",
          "name": "",
          "type": "uint256"
        }
      ],
      "stateMutability": "view",
      "type": "function"
    },
    {
      "inputs": [],
      "name": "VERIFIER_REMOVAL_DELAY",
      "outputs": [
        {
          "internalType": "uint256",
          "name": "",
          "type": "uint256"
        }
      ],
      "stateMutability": "view",
      "type": "function"
    },
    {
      "inputs": [],
      "name": "configurationDelay",
      "outputs": [
        {
          "internalType": "uint256",
          "name": "",
          "type": "uint256"
        }
      ],
      "stateMutability": "view",
      "type": "function"
    },
    {
      "inputs": [
        {
          "internalType": "uint256",
          "name": "",
          "type": "uint256"
        }
      ],
      "name": "configurationHash",
      "outputs": [
        {
          "internalType": "bytes32",
          "name": "",
          "type": "bytes32"
        }
      ],
      "stateMutability": "view",
      "type": "function"
    },
    {
      "inputs": [
        {
          "internalType": "uint256",
          "name": "starkKeyA",
          "type": "uint256"
        },
        {
          "internalType": "uint256",
          "name": "starkKeyB",
          "type": "uint256"
        },
        {
          "internalType": "uint256",
          "name": "vaultIdA",
          "type": "uint256"
        },
        {
          "internalType": "uint256",
          "name": "vaultIdB",
          "type": "uint256"
        },
        {
          "internalType": "uint256",
          "name": "collateralAssetId",
          "type": "uint256"
        },
        {
          "internalType": "uint256",
          "name": "syntheticAssetId",
          "type": "uint256"
        },
        {
          "internalType": "uint256",
          "name": "amountCollateral",
          "type": "uint256"
        },
        {
          "internalType": "uint256",
          "name": "amountSynthetic",
          "type": "uint256"
        },
        {
          "internalType": "bool",
          "name": "aIsBuyingSynthetic",
          "type": "bool"
        },
        {
          "internalType": "uint256",
          "name": "submissionExpirationTime",
          "type": "uint256"
        },
        {
          "internalType": "uint256",
          "name": "nonce",
          "type": "uint256"
        },
        {
          "internalType": "bytes",
          "name": "signature",
          "type": "bytes"
        },
        {
          "internalType": "bool",
          "name": "premiumCost",
          "type": "bool"
        }
      ],
      "name": "forcedTradeRequest",
      "outputs": [],
      "stateMutability": "nonpayable",
      "type": "function"
    },
    {
      "inputs": [
        {
          "internalType": "uint256",
          "name": "starkKey",
          "type": "uint256"
        },
        {
          "internalType": "uint256",
          "name": "vaultId",
          "type": "uint256"
        },
        {
          "internalType": "uint256",
          "name": "quantizedAmount",
          "type": "uint256"
        },
        {
          "internalType": "bool",
          "name": "premiumCost",
          "type": "bool"
        }
      ],
      "name": "forcedWithdrawalRequest",
      "outputs": [],
      "stateMutability": "nonpayable",
      "type": "function"
    },
    {
      "inputs": [
        {
          "internalType": "uint256",
          "name": "starkKeyA",
          "type": "uint256"
        },
        {
          "internalType": "uint256",
          "name": "starkKeyB",
          "type": "uint256"
        },
        {
          "internalType": "uint256",
          "name": "vaultIdA",
          "type": "uint256"
        },
        {
          "internalType": "uint256",
          "name": "vaultIdB",
          "type": "uint256"
        },
        {
          "internalType": "uint256",
          "name": "collateralAssetId",
          "type": "uint256"
        },
        {
          "internalType": "uint256",
          "name": "syntheticAssetId",
          "type": "uint256"
        },
        {
          "internalType": "uint256",
          "name": "amountCollateral",
          "type": "uint256"
        },
        {
          "internalType": "uint256",
          "name": "amountSynthetic",
          "type": "uint256"
        },
        {
          "internalType": "bool",
          "name": "aIsBuyingSynthetic",
          "type": "bool"
        },
        {
          "internalType": "uint256",
          "name": "nonce",
          "type": "uint256"
        }
      ],
      "name": "freezeRequest",
      "outputs": [],
      "stateMutability": "nonpayable",
      "type": "function"
    },
    {
      "inputs": [
        {
          "internalType": "uint256",
          "name": "starkKey",
          "type": "uint256"
        },
        {
          "internalType": "uint256",
          "name": "vaultId",
          "type": "uint256"
        },
        {
          "internalType": "uint256",
          "name": "quantizedAmount",
          "type": "uint256"
        }
      ],
      "name": "freezeRequest",
      "outputs": [],
      "stateMutability": "nonpayable",
      "type": "function"
    },
    {
      "inputs": [],
      "name": "getActionCount",
      "outputs": [
        {
          "internalType": "uint256",
          "name": "",
          "type": "uint256"
        }
      ],
      "stateMutability": "view",
      "type": "function"
    },
    {
      "inputs": [
        {
          "internalType": "uint256",
          "name": "actionIndex",
          "type": "uint256"
        }
      ],
      "name": "getActionHashByIndex",
      "outputs": [
        {
          "internalType": "bytes32",
          "name": "",
          "type": "bytes32"
        }
      ],
      "stateMutability": "view",
      "type": "function"
    },
    {
      "inputs": [
        {
          "internalType": "uint256",
          "name": "ownerKey",
          "type": "uint256"
        }
      ],
      "name": "getEthKey",
      "outputs": [
        {
          "internalType": "address",
          "name": "",
          "type": "address"
        }
      ],
      "stateMutability": "view",
      "type": "function"
    },
    {
      "inputs": [
        {
          "internalType": "uint256",
          "name": "starkKeyA",
          "type": "uint256"
        },
        {
          "internalType": "uint256",
          "name": "starkKeyB",
          "type": "uint256"
        },
        {
          "internalType": "uint256",
          "name": "vaultIdA",
          "type": "uint256"
        },
        {
          "internalType": "uint256",
          "name": "vaultIdB",
          "type": "uint256"
        },
        {
          "internalType": "uint256",
          "name": "collateralAssetId",
          "type": "uint256"
        },
        {
          "internalType": "uint256",
          "name": "syntheticAssetId",
          "type": "uint256"
        },
        {
          "internalType": "uint256",
          "name": "amountCollateral",
          "type": "uint256"
        },
        {
          "internalType": "uint256",
          "name": "amountSynthetic",
          "type": "uint256"
        },
        {
          "internalType": "bool",
          "name": "aIsBuyingSynthetic",
          "type": "bool"
        },
        {
          "internalType": "uint256",
          "name": "nonce",
          "type": "uint256"
        }
      ],
      "name": "getForcedTradeRequest",
      "outputs": [
        {
          "internalType": "uint256",
          "name": "",
          "type": "uint256"
        }
      ],
      "stateMutability": "view",
      "type": "function"
    },
    {
      "inputs": [
        {
          "internalType": "uint256",
          "name": "starkKey",
          "type": "uint256"
        },
        {
          "internalType": "uint256",
          "name": "vaultId",
          "type": "uint256"
        },
        {
          "internalType": "uint256",
          "name": "quantizedAmount",
          "type": "uint256"
        }
      ],
      "name": "getForcedWithdrawalRequest",
      "outputs": [
        {
          "internalType": "uint256",
          "name": "",
          "type": "uint256"
        }
      ],
      "stateMutability": "view",
      "type": "function"
    },
    {
      "inputs": [],
      "name": "globalConfigurationHash",
      "outputs": [
        {
          "internalType": "bytes32",
          "name": "",
          "type": "bytes32"
        }
      ],
      "stateMutability": "view",
      "type": "function"
    },
    {
      "inputs": [],
      "name": "identify",
      "outputs": [
        {
          "internalType": "string",
          "name": "",
          "type": "string"
        }
      ],
      "stateMutability": "pure",
      "type": "function"
    },
    {
      "inputs": [
        {
          "internalType": "bytes",
          "name": "",
          "type": "bytes"
        }
      ],
      "name": "initialize",
      "outputs": [],
      "stateMutability": "nonpayable",
      "type": "function"
    },
    {
      "inputs": [],
      "name": "initializerSize",
      "outputs": [
        {
          "internalType": "uint256",
          "name": "",
          "type": "uint256"
        }
      ],
      "stateMutability": "view",
      "type": "function"
    },
    {
      "inputs": [],
      "name": "isFrozen",
      "outputs": [
        {
          "internalType": "bool",
          "name": "",
          "type": "bool"
        }
      ],
      "stateMutability": "view",
      "type": "function"
    },
    {
      "inputs": [],
      "name": "mainAcceptGovernance",
      "outputs": [],
      "stateMutability": "nonpayable",
      "type": "function"
    },
    {
      "inputs": [],
      "name": "mainCancelNomination",
      "outputs": [],
      "stateMutability": "nonpayable",
      "type": "function"
    },
    {
      "inputs": [
        {
          "internalType": "address",
          "name": "testGovernor",
          "type": "address"
        }
      ],
      "name": "mainIsGovernor",
      "outputs": [
        {
          "internalType": "bool",
          "name": "",
          "type": "bool"
        }
      ],
      "stateMutability": "view",
      "type": "function"
    },
    {
      "inputs": [
        {
          "internalType": "address",
          "name": "newGovernor",
          "type": "address"
        }
      ],
      "name": "mainNominateNewGovernor",
      "outputs": [],
      "stateMutability": "nonpayable",
      "type": "function"
    },
    {
      "inputs": [
        {
          "internalType": "address",
          "name": "governorForRemoval",
          "type": "address"
        }
      ],
      "name": "mainRemoveGovernor",
      "outputs": [],
      "stateMutability": "nonpayable",
      "type": "function"
    },
    {
      "inputs": [
        {
          "internalType": "address",
          "name": "ethKey",
          "type": "address"
        },
        {
          "internalType": "uint256",
          "name": "starkKey",
          "type": "uint256"
        },
        {
          "internalType": "bytes",
          "name": "starkSignature",
          "type": "bytes"
        }
      ],
      "name": "registerEthAddress",
      "outputs": [],
      "stateMutability": "nonpayable",
      "type": "function"
    },
    {
      "inputs": [
        {
          "internalType": "uint256",
          "name": "starkKey",
          "type": "uint256"
        },
        {
          "internalType": "bytes",
          "name": "starkSignature",
          "type": "bytes"
        }
      ],
      "name": "registerSender",
      "outputs": [],
      "stateMutability": "nonpayable",
      "type": "function"
    },
    {
      "inputs": [],
      "name": "unFreeze",
      "outputs": [],
      "stateMutability": "nonpayable",
      "type": "function"
    },
    {
      "inputs": [],
      "name": "validatedSelectors",
      "outputs": [
        {
          "internalType": "bytes4[]",
          "name": "selectors",
          "type": "bytes4[]"
        }
      ],
      "stateMutability": "pure",
      "type": "function"
    }
  ],
  "bytecode": {
    "object": "0x608060405234801561001057600080fd5b506130d0806100206000396000f3fe608060405234801561001057600080fd5b50600436106101ef5760003560e01c80637cf12b901161010f578063bea84187116100a2578063e6de628211610071578063e6de62821461071d578063eeb7286614610725578063f00cec4b1461072d578063f2011f6614610785576101ef565b8063bea841871461060d578063c1a8513014610690578063c23b60ef14610698578063e30a5cff14610715576101ef565b8063a1cc921e116100de578063a1cc921e146105a6578063adac3e15146105cc578063af1437a3146105d4578063b766311214610605576101ef565b80637cf12b90146104fb57806386aeb445146105035780638c4bce1c14610578578063993f36391461059e576101ef565b80633cc660ad116101875780635eecd218116101565780635eecd218146104ba57806372eb3688146104c257806375d4eefd146104ca57806377e84e0d146104f3576101ef565b80633cc660ad14610401578063439fab911461040957806345f5cd97146104775780635e586cd11461049d576101ef565b806328700a15116101c357806328700a15146102c85780632ecb8162146102d25780633153a3861461038d57806333eeb147146103e5576101ef565b8062717542146101f45780630ebdac031461020e5780631dbd1da714610266578063260e96dd1461029f575b600080fd5b6101fc6107a2565b60408051918252519081900360200190f35b6102166107a9565b60408051602080825283518183015283519192839290830191858101910280838360005b8381101561025257818101518382015260200161023a565b505050509050019250505060405180910390f35b6102836004803603602081101561027c57600080fd5b503561092e565b604080516001600160a01b039092168252519081900360200190f35b6101fc600480360360608110156102b557600080fd5b5080359060208101359060400135610975565b6102d061099e565b005b6102d060048036036101a08110156102e957600080fd5b81359160208101359160408201359160608101359160808201359160a08101359160c08201359160e0810135916101008201351515916101208101359161014082013591908101906101808101610160820135600160201b81111561034d57600080fd5b82018360208201111561035f57600080fd5b803590602001918460018302840111600160201b8311171561038057600080fd5b91935091503515156109a8565b6102d060048036036101408110156103a457600080fd5b5080359060208101359060408101359060608101359060808101359060a08101359060c08101359060e0810135906101008101351515906101200135610ea1565b6103ed610fad565b604080519115158252519081900360200190f35b6101fc610fbd565b6102d06004803603602081101561041f57600080fd5b810190602081018135600160201b81111561043957600080fd5b82018360208201111561044b57600080fd5b803590602001918460018302840111600160201b8311171561046c57600080fd5b509092509050610fc2565b6103ed6004803603602081101561048d57600080fd5b50356001600160a01b0316611001565b6101fc600480360360208110156104b357600080fd5b5035611012565b6101fc611082565b6102d0611088565b6102d0600480360360608110156104e057600080fd5b5080359060208101359060400135611090565b6101fc611148565b6102d061114f565b6102d06004803603604081101561051957600080fd5b81359190810190604081016020820135600160201b81111561053a57600080fd5b82018360208201111561054c57600080fd5b803590602001918460018302840111600160201b8311171561056d57600080fd5b509092509050611293565b6102d06004803603602081101561058e57600080fd5b50356001600160a01b03166112a4565b6101fc6112b0565b6102d0600480360360208110156105bc57600080fd5b50356001600160a01b03166112b8565b6101fc6112c1565b6102d0600480360360808110156105ea57600080fd5b508035906020810135906040810135906060013515156112cf565b6101fc6114c9565b6102d06004803603606081101561062357600080fd5b6001600160a01b0382351691602081013591810190606081016040820135600160201b81111561065257600080fd5b82018360208201111561066457600080fd5b803590602001918460018302840111600160201b8311171561068557600080fd5b5090925090506114d0565b6101fc611819565b6106a0611827565b6040805160208082528351818301528351919283929083019185019080838360005b838110156106da5781810151838201526020016106c2565b50505050905090810190601f1680156107075780820380516001836020036101000a031916815260200191505b509250505060405180910390f35b6101fc611843565b6101fc611848565b6106a061184d565b6101fc600480360361014081101561074457600080fd5b5080359060208101359060408101359060608101359060808101359060a08101359060c08101359060e081013590610100810135151590610120013561186d565b6101fc6004803603602081101561079b57600080fd5b50356118a4565b62093a8081565b60408051600580825260c0820190925260609190600090826020820160a08036833750508151919450506001820191631765c0b160e11b9185919081106107ec57fe5b6001600160e01b031990921660209283029190910190910152825160018201916318a9d1c360e11b91859190811061082057fe5b6001600160e01b0319909216602092830291909101909101528251600182019163af1437a360e01b91859190811061085457fe5b6001600160e01b031990921660209283029190910190910152825160018201916375d4eefd60e01b91859190811061088857fe5b6001600160e01b0319909216602092830291909101909101528251600182019163bea8418760e01b9185919081106108bc57fe5b6001600160e01b031990921660209283029190910190910152808214610929576040805162461bcd60e51b815260206004820181905260248201527f494e434f52524543545f53454c4543544f52535f41525241595f4c454e475448604482015290519081900360640190fd5b505090565b6000818152601860205260408120546001600160a01b03168015610953579050610970565b6001600160a01b038316831461096a57600061096c565b825b9150505b919050565b6000602260006109868686866118be565b81526020019081526020016000205490509392505050565b6109a661192a565b565b6109b0610fad565b156109f4576040805162461bcd60e51b815260206004820152600f60248201526e29aa20aa22afa4a9afa32927ad22a760891b604482015290519081900360640190fd5b8d6109fe816119f7565b6001600160a01b0316336001600160a01b031614610a63576040805162461bcd60e51b815260206004820152601a60248201527f4d49534d41544348494e475f535441524b5f4554485f4b455953000000000000604482015290519081900360640190fd5b600160401b8d10610aa9576040805162461bcd60e51b8152602060048201526018602482015260008051602061300e833981519152604482015290519081900360640190fd5b600160401b8c10610aef576040805162461bcd60e51b8152602060048201526018602482015260008051602061300e833981519152604482015290519081900360640190fd5b8b8d1415610b37576040805162461bcd60e51b815260206004820152601060248201526f4944454e544943414c5f5641554c545360801b604482015290519081900360640190fd5b600160401b548b14610b90576040805162461bcd60e51b815260206004820152601960248201527f53595354454d5f41535345545f4e4f545f494e5f545241444500000000000000604482015290519081900360640190fd5b8a610bd9576040805162461bcd60e51b815260206004820152601460248201527314d654d5115357d054d4d15517d393d517d4d15560621b604482015290519081900360640190fd5b898b1415610c21576040805162461bcd60e51b815260206004820152601060248201526f4944454e544943414c5f41535345545360801b604482015290519081900360640190fd5b60008a8152680100000000000000026020526040902054610c79576040805162461bcd60e51b815260206004820152600d60248201526c155392d393d5d397d054d4d155609a1b604482015290519081900360640190fd5b600160401b8910610cc2576040805162461bcd60e51b815260206004820152600e60248201526d1253131151d05317d05353d5539560921b604482015290519081900360640190fd5b600160401b8810610d0b576040805162461bcd60e51b815260206004820152600e60248201526d1253131151d05317d05353d5539560921b604482015290519081900360640190fd5b6001601160c01b01600160fb1b018510610d62576040805162461bcd60e51b8152602060048201526013602482015272494e56414c49445f4e4f4e43455f56414c554560681b604482015290519081900360640190fd5b610e104204861015610db2576040805162461bcd60e51b8152602060048201526014602482015273149154555154d517d512535157d156141254915160621b604482015290519081900360640190fd5b610dc58f8f8f8f8f8f8f8f8f8e8c611a53565b610e0f8f8f8f8f8f8f8f8f8f8f8f8f8f8080601f016020809104026020016040519081016040528093929190818152602001838380828437600092019190915250611adb92505050565b7f79acb9227c98b68d7628d2c99a7719926eff77e8c2275f6ffe7cf255b32772be8f8f8f8f8f8f8f8f8f8e604051808b81526020018a815260200189815260200188815260200187815260200186815260200185815260200184815260200183151581526020018281526020019a505050505050505050505060405180910390a1505050505050505050505050505050565b610ea9610fad565b15610eed576040805162461bcd60e51b815260206004820152600f60248201526e29aa20aa22afa4a9afa32927ad22a760891b604482015290519081900360640190fd5b600160401b8810610f33576040805162461bcd60e51b8152602060048201526018602482015260008051602061300e833981519152604482015290519081900360640190fd5b600160401b8710610f79576040805162461bcd60e51b8152602060048201526018602482015260008051602061300e833981519152604482015290519081900360640190fd5b6000610f8d8b8b8b8b8b8b8b8b8b8b61186d565b9050610f9881611c80565b610fa0611d7d565b5050505050505050505050565b600454600160a01b900460ff1690565b600090565b6040805162461bcd60e51b815260206004820152600f60248201526e1393d517d253541311535153951151608a1b604482015290519081900360640190fd5b600061100c82611e11565b92915050565b6024546000908210611063576040805162461bcd60e51b815260206004820152601560248201527408286a8929e9cbe929c888ab0bea89e9ebe90928e9605b1b604482015290519081900360640190fd5b6024828154811061107057fe5b90600052602060002001549050919050565b60245490565b6109a6611e40565b611098610fad565b156110dc576040805162461bcd60e51b815260206004820152600f60248201526e29aa20aa22afa4a9afa32927ad22a760891b604482015290519081900360640190fd5b600160401b8210611122576040805162461bcd60e51b8152602060048201526018602482015260008051602061300e833981519152604482015290519081900360640190fd5b600061112f848484610975565b905061113a81611c80565b611142611d7d565b50505050565b6202a30081565b611157610fad565b61119b576040805162461bcd60e51b815260206004820152601060248201526f29aa20aa22afa727aa2fa32927ad22a760811b604482015290519081900360640190fd5b6111a433611e11565b6111e7576040805162461bcd60e51b815260206004820152600f60248201526e4f4e4c595f474f5645524e414e434560881b604482015290519081900360640190fd5b60055442101561123e576040805162461bcd60e51b815260206004820152601860248201527f554e465245455a455f4e4f545f414c4c4f5745445f5945540000000000000000604482015290519081900360640190fd5b6004805460ff60a01b19169055600d805460019081019091556025805482019055600f805490910190556040517f07017fe9180629cfffba412f65a9affcf9a121de02294179f5c058f881dcc9f890600090a1565b61129f338484846114d0565b505050565b6112ad81611ed7565b50565b6301e1338081565b6112ad81611fd4565b680100000000000000015481565b6112d7610fad565b1561131b576040805162461bcd60e51b815260206004820152600f60248201526e29aa20aa22afa4a9afa32927ad22a760891b604482015290519081900360640190fd5b83611325816119f7565b6001600160a01b0316336001600160a01b03161461138a576040805162461bcd60e51b815260206004820152601a60248201527f4d49534d41544348494e475f535441524b5f4554485f4b455953000000000000604482015290519081900360640190fd5b600160401b84106113d0576040805162461bcd60e51b8152602060048201526018602482015260008051602061300e833981519152604482015290519081900360640190fd5b600160401b8310611419576040805162461bcd60e51b815260206004820152600e60248201526d1253131151d05317d05353d5539560921b604482015290519081900360640190fd5b611424858585610975565b15611476576040805162461bcd60e51b815260206004820152601760248201527f524551554553545f414c52454144595f50454e44494e47000000000000000000604482015290519081900360640190fd5b61148285858585612121565b604080518681526020810186905280820185905290517f5f3a3d7d7c2b8cc20fa315d7504580e81d5f74ea46e1b3dc2985281df08e204d9181900360600190a15050505050565b6224ea0081565b82611516576040805162461bcd60e51b8152602060048201526011602482015270494e56414c49445f535441524b5f4b455960781b604482015290519081900360640190fd5b6001601160c01b01600160fb1b01831061156b576040805162461bcd60e51b8152602060048201526011602482015270494e56414c49445f535441524b5f4b455960781b604482015290519081900360640190fd5b6001600160a01b0384166115bc576040805162461bcd60e51b8152602060048201526013602482015272494e56414c49445f4554485f4144445245535360681b604482015290519081900360640190fd5b6000838152601860205260409020546001600160a01b03161561161e576040805162461bcd60e51b8152602060048201526015602482015274535441524b5f4b45595f554e415641494c41424c4560581b604482015290519081900360640190fd5b61162783612135565b61166c576040805162461bcd60e51b8152602060048201526011602482015270494e56414c49445f535441524b5f4b455960781b604482015290519081900360640190fd5b606081146116c1576040805162461bcd60e51b815260206004820152601e60248201527f494e56414c49445f535441524b5f5349474e41545552455f4c454e4754480000604482015290519081900360640190fd5b606082828080601f0160208091040260200160405190810160405280939291908181526020018383808284376000920182905250845194955093849350839250602086019150606081101561171557600080fd5b5080516020808301516040938401518451702ab9b2b92932b3b4b9ba3930ba34b7b71d60791b8185015260608e901b6bffffffffffffffffffffffff1916603182015260458082018e90528651808303909101815260659091019095528451949092019390932091955091935090915060008051602061302e83398151915290066117a38185858b866121a4565b60008881526018602090815260409182902080546001600160a01b038d166001600160a01b0319909116811790915582519081529081018a9052338183015290517fcab1cf17c190e4e2195a7b8f7b362023246fa774390432b4704ab6b29d56b07b9181900360600190a1505050505050505050565b680100000000000000045481565b60405180606001604052806026815260200161304e6026913981565b600a81565b604081565b606060405180606001604052806027815260200161307460279139905090565b6000602260006118858d8d8d8d8d8d8d8d8d8d61251b565b81526020019081526020016000205490509a9950505050505050505050565b680100000000000000026020526000908152604090205481565b6000611922604051806040016040528060118152602001701193d490d15117d5d2551211149055d053607a1b8152508585856040516020018084815260200183815260200182815260200193505050506040516020818303038152906040526125be565b949350505050565b6000611934612680565b60018101549091506001600160a01b03163314611998576040805162461bcd60e51b815260206004820152601760248201527f4f4e4c595f43414e4449444154455f474f5645524e4f52000000000000000000604482015290519081900360640190fd5b60018101546119af906001600160a01b03166126fd565b6001810180546001600160a01b03191690556040805133815290517fcfb473e6c03f9a29ddaf990e736fa3de5188a0bd85d684f5b6e164ebfbfff5d29181900360200190a150565b6000611a028261092e565b90506001600160a01b038116610970576040805162461bcd60e51b81526020600482015260116024820152701554d15497d553949151d254d511549151607a1b604482015290519081900360640190fd5b6000611a678c8c8c8c8c8c8c8c8c8c61251b565b60008181526022602052604090205490915015611ac3576040805162461bcd60e51b81526020600482015260156024820152741193d490d15117d51490511157d491541310565151605a1b604482015290519081900360640190fd5b611acd818361277d565b505050505050505050505050565b6000611aef8d8d8d8d8d8d8d8d8d8c61251b565b60408051602080820184905281830188905282518083038401815260609092018352815191012084519293509160009182918691908110611b2c57fe5b602001015160f81c60f81b60f81c9050600080602087015191506040870151905060018584848460405160008152602001604052604051808581526020018460ff1681526020018381526020018281526020019450505050506020604051602081039080840390855afa158015611ba7573d6000803e3d6000fd5b5050506020604051035193505050506000611bc18f61092e565b90506001600160a01b038116611c14576040805162461bcd60e51b81526020600482015260136024820152721554d15497d097d553949151d254d511549151606a1b604482015290519081900360640190fd5b806001600160a01b0316826001600160a01b031614611c6e576040805162461bcd60e51b8152602060048201526011602482015270494e56414c49445f5349474e415455524560781b604482015290519081900360640190fd5b50505050505050505050505050505050565b80611cd2576040805162461bcd60e51b815260206004820152601960248201527f464f524345445f414354494f4e5f554e52455155455354454400000000000000604482015290519081900360640190fd5b62093a8081810190811015611ce357fe5b80421015611d30576040805162461bcd60e51b8152602060048201526015602482015274464f524345445f414354494f4e5f50454e44494e4760581b604482015290519081900360640190fd5b6005548111611d79576040805162461bcd60e51b815260206004820152601060248201526f149151949151569157d055151153541560821b604482015290519081900360640190fd5b5050565b611d85610fad565b15611dc9576040805162461bcd60e51b815260206004820152600f60248201526e29aa20aa22afa4a9afa32927ad22a760891b604482015290519081900360640190fd5b426301e13380016005556004805460ff60a01b1916600160a01b1790556040517ff5b8e6419478ab140eb98026ab5bd607038cb0ac4d4dad5b1fc0848dfd203d1f90600090a1565b600080611e1c612680565b6001600160a01b039390931660009081526020939093525050604090205460ff1690565b611e4933611e11565b611e8c576040805162461bcd60e51b815260206004820152600f60248201526e4f4e4c595f474f5645524e414e434560881b604482015290519081900360640190fd5b6000611e96612680565b6001810180546001600160a01b03191690556040519091507f7a8dc7dd7fffb43c4807438fa62729225156941e641fd877938f4edade3429f590600090a150565b611ee033611e11565b611f23576040805162461bcd60e51b815260206004820152600f60248201526e4f4e4c595f474f5645524e414e434560881b604482015290519081900360640190fd5b6000611f2d612680565b9050611f3882611e11565b15611f7d576040805162461bcd60e51b815260206004820152601060248201526f20a62922a0a22cafa3a7ab22a92727a960811b604482015290519081900360640190fd5b6001810180546001600160a01b0384166001600160a01b0319909116811790915560408051918252517f6166272c8d3f5f579082f2827532732f97195007983bb5b83ac12c56700b01a69181900360200190a15050565b611fdd33611e11565b612020576040805162461bcd60e51b815260206004820152600f60248201526e4f4e4c595f474f5645524e414e434560881b604482015290519081900360640190fd5b336001600160a01b0382161415612075576040805162461bcd60e51b8152602060048201526014602482015273474f5645524e4f525f53454c465f52454d4f564560601b604482015290519081900360640190fd5b600061207f612680565b905061208a82611e11565b6120ca576040805162461bcd60e51b815260206004820152600c60248201526b2727aa2fa3a7ab22a92727a960a11b604482015290519081900360640190fd5b6001600160a01b03821660008181526020838152604091829020805460ff19169055815192835290517fd75f94825e770b8b512be8e74759e252ad00e102e38f50cce2f7c6f868a295999281900390910190a15050565b61114261212f8585856118be565b8261277d565b6000806001601160c01b01600160fb1b01836001601160c01b01600160fb1b0185860909905061096c6001601160c01b01600160fb1b017f06f21413efbe40de150e596d72f7a8c5609ad26c15c915c1f4cdfcb99cee9e896001601160c01b01600160fb1b018685080861285c565b8460008051602061302e8339815191528106146121ff576040805162461bcd60e51b81526020600482015260146024820152736d736748617368206f7574206f662072616e676560601b604482015290519081900360640190fd5b8260011115801561221d575060008051602061302e83398151915283105b61225f576040805162461bcd60e51b815260206004820152600e60248201526d73206f7574206f662072616e676560901b604482015290519081900360640190fd5b60006122798460008051602061302e83398151915261287c565b90508460011115801561228f5750600160fb1b85105b6122d1576040805162461bcd60e51b815260206004820152600e60248201526d72206f7574206f662072616e676560901b604482015290519081900360640190fd5b806001111580156122e55750600160fb1b81105b612327576040805162461bcd60e51b815260206004820152600e60248201526d77206f7574206f662072616e676560901b604482015290519081900360640190fd5b60006001601160c01b01600160fb1b01846001601160c01b01600160fb1b0186870909905060006001601160c01b01600160fb1b0184850990506001601160c01b01600160fb1b017f06f21413efbe40de150e596d72f7a8c5609ad26c15c915c1f4cdfcb99cee9e896001601160c01b01600160fb1b018785080881146123e9576040805162461bcd60e51b8152602060048201526011602482015270494e56414c49445f535441524b5f4b455960781b604482015290519081900360640190fd5b506000905080808061244b8a7f01ef15c18599971b7beced415a40f0c7deacfd9b0d1819e03d723d8bc943cfca7e5668060aa49730b7be4801df46ec62de53ecd11abe43a32873000c36e8dc1f60016001601160c01b01600160fb1b01612928565b909250905060008061246e8b8a8a60016001601160c01b01600160fb1b01612928565b909250905061248f8484848460016001601160c01b01600160fb1b01612962565b9096509450600093506124b992508691508590508460016001601160c01b01600160fb1b01612928565b509050878114612510576040805162461bcd60e51b815260206004820152601760248201527f494e56414c49445f535441524b5f5349474e4154555245000000000000000000604482015290519081900360640190fd5b505050505050505050565b604080518082018252600c81526b464f524345445f545241444560a01b60208083019190915282519081018d90528083018c9052606081018b9052608081018a905260a0810189905260c0810188905260e08101879052610100810186905284151560f81b610120820152610121808201859052835180830390910181526101419091019092526000916125af91906125be565b9b9a5050505050505050505050565b600082826040516020018083805190602001908083835b602083106125f45780518252601f1990920191602091820191016125d5565b51815160209384036101000a600019018019909216911617905285519190930192850191508083835b6020831061263c5780518252601f19909201916020918201910161261d565b6001836020036101000a0380198251168184511680821785525050505050509050019250505060405160208183030381529060405280519060200120905092915050565b60008060405180606001604052806026815260200161304e602691396040518082805190602001908083835b602083106126cb5780518252601f1990920191602091820191016126ac565b51815160209384036101000a600019018019909216911617905292019485525060405193849003019092209392505050565b61270681611e11565b1561274b576040805162461bcd60e51b815260206004820152601060248201526f20a62922a0a22cafa3a7ab22a92727a960811b604482015290519081900360640190fd5b6000612755612680565b6001600160a01b0390921660009081526020929092525060409020805460ff19166001179055565b801561279e5760005b61528981101561279857600101612786565b50612819565b43600090815260216020526040902054600a11612802576040805162461bcd60e51b815260206004820152601e60248201527f4d41585f52455155455354535f5045525f424c4f434b5f524541434845440000604482015290519081900360640190fd5b436000908152602160205260409020805460010190555b5060008181526022602052604081204290556024805460018101825591527f7cd332d19b93bcabe3cce7ca0c18a052f57e5fd03b4758a09f30f5ddc4b22ec40155565b60006128738267080000000000001160bf1b6129e2565b60011492915050565b6000821580159061288d5750818314155b801561289857508115155b6128da576040805162461bcd60e51b815260206004820152600e60248201526d24b73b30b634b210373ab6b132b960911b604482015290519081900360640190fd5b6000600183825b861561291d578682816128f057fe5b0490508286806128fc57fe5b878061290457fe5b85840988038608828902909303979094509192506128e1565b509195945050505050565b600080600080600061293f8a8a8a60018b8b612b8e565b92509250925061295183838389612c05565b945094505050509550959350505050565b6000806000806000888b14156129aa57858061297a57fe5b888b0861299057600080945094505050506129d7565b61299e8b8b60018a8a612c5c565b919450925090506129c3565b6129bb8b8b60018c8c60018c612d72565b919450925090505b6129cf83838389612c05565b945094505050505b965096945050505050565b600080606060056001600160a01b0316602080602088886001601160c01b01600160fb1b016040516020018087815260200186815260200185815260200184815260200183815260200182815260200196505050505050506040516020818303038152906040526040518082805190602001908083835b60208310612a785780518252601f199092019160209182019101612a59565b6001836020036101000a038019825116818451168082178552505050505050905001915050600060405180830381855afa9150503d8060008114612ad8576040519150601f19603f3d011682016040523d82523d6000602084013e612add565b606091505b5091509150818190612b6d5760405162461bcd60e51b81526004018080602001828103825283818151815260200191508051906020019080838360005b83811015612b32578181015183820152602001612b1a565b50505050905090810190601f168015612b5f5780820380516001836020036101000a031916815260200191505b509250505060405180910390fd5b50808060200190516020811015612b8357600080fd5b505195945050505050565b6000808088612ba4575086915085905084612bf9565b8860008060015b8315612bf0576001841615612bd157612bc98383838f8f8f8e612d72565b919450925090505b600284049350612be48c8c8c8c8c612c5c565b919d509b509950612bab565b91955093509150505b96509650969350505050565b6000806000612c14858561287c565b905060008480612c2057fe5b828309905060008580612c2f57fe5b828a09905060008680612c3e57fe5b8780612c4657fe5b8486098a09919a91995090975050505050505050565b6000808085612c72575086915085905084612d67565b60008480612c7c57fe5b898a09905060008580612c8b57fe5b898a09905060008680612c9a57fe5b898a09905060008780612ca957fe5b8880612cb157fe5b848e09600409905060008880612cc357fe5b8980612ccb57fe5b8a80612cd357fe5b8586098c098a80612ce057fe5b876003090890508880612cef57fe5b8980612cf757fe5b8384088a038a80612d0457fe5b8384090894508880612d1257fe5b8980612d1a57fe5b8a80612d2257fe5b8687096008098a038a80612d3257fe5b8b80612d3a57fe5b888d03860884090893508880612d4c57fe5b8980612d5457fe5b8c8e096002099497509295509293505050505b955095509592505050565b6000808089158015612d82575088155b15612d94575085915084905083612fe2565b86158015612da0575085155b15612db2575088915087905086612fe2565b612dba612fef565b8480612dc257fe5b898a0981528480612dcf57fe5b81518a0960208201528480612de057fe5b86870960408201528480612df057fe5b6040820151870960608201526040805160808101909152808680612e1057fe5b60408401518e0981526020018680612e2457fe5b60608401518d0981526020018680612e3857fe5b83518b0981526020018680612e4957fe5b60208401518a09905260408101518151919250141580612e7157506060810151602082015114155b612ec2576040805162461bcd60e51b815260206004820152601e60248201527f557365206a6163446f75626c652066756e6374696f6e20696e73746561640000604482015290519081900360640190fd5b612eca612fef565b8580612ed257fe5b82516040840151908803900881528580612ee857fe5b60208301516060840151908803900860208201528580612f0457fe5b8151800960408201528580612f1557fe5b8151604083015109606082015260008680612f2c57fe5b606083015188038880612f3b57fe5b602085015180090890508680612f4d57fe5b8780612f5557fe5b8880612f5d57fe5b604085015186510960020988038208905060008780612f7857fe5b8880612f8057fe5b838a038a80612f8b57fe5b60408701518851090860208501510990508780612fa457fe5b8880612fac57fe5b606085015160208701510989038208905060008880612fc757fe5b8980612fcf57fe5b8b8f098551099297509095509093505050505b9750975097945050505050565b6040518060800160405280600490602082028036833750919291505056fe4f55545f4f465f52414e47455f504f534954494f4e5f494400000000000000000800000000000010ffffffffffffffffb781126dcae7b2321e66a241adc64d2f537461726b45782e4d61696e2e323031392e476f7665726e6f7273496e666f726d6174696f6e537461726b576172655f50657270657475616c466f72636564416374696f6e735f323032325f32a26469706673582212201d4045b39856994f886f7c5e2f1d2331a231a72b7ea8b1513d2b8ffe8d36af0764736f6c634300060c0033",
    "linkReferences": {}
  },
  "methodIdentifiers": {
    "DEPOSIT_CANCEL_DELAY()": "77e84e0d",
    "FREEZE_GRACE_PERIOD()": "00717542",
    "MAIN_GOVERNANCE_INFO_TAG()": "c23b60ef",
    "MAX_FORCED_ACTIONS_REQS_PER_BLOCK()": "e30a5cff",
    "MAX_VERIFIER_COUNT()": "e6de6282",
    "UNFREEZE_DELAY()": "993f3639",
    "VERIFIER_REMOVAL_DELAY()": "b7663112",
    "configurationDelay()": "c1a85130",
    "configurationHash(uint256)": "f2011f66",
    "forcedTradeRequest(uint256,uint256,uint256,uint256,uint256,uint256,uint256,uint256,bool,uint256,uint256,bytes,bool)": "2ecb8162",
    "forcedWithdrawalRequest(uint256,uint256,uint256,bool)": "af1437a3",
    "freezeRequest(uint256,uint256,uint256)": "75d4eefd",
    "freezeRequest(uint256,uint256,uint256,uint256,uint256,uint256,uint256,uint256,bool,uint256)": "3153a386",
    "getActionCount()": "5eecd218",
    "getActionHashByIndex(uint256)": "5e586cd1",
    "getEthKey(uint256)": "1dbd1da7",
    "getForcedTradeRequest(uint256,uint256,uint256,uint256,uint256,uint256,uint256,uint256,bool,uint256)": "f00cec4b",
    "getForcedWithdrawalRequest(uint256,uint256,uint256)": "260e96dd",
    "globalConfigurationHash()": "adac3e15",
    "identify()": "eeb72866",
    "initialize(bytes)": "439fab91",
    "initializerSize()": "3cc660ad",
    "isFrozen()": "33eeb147",
    "mainAcceptGovernance()": "28700a15",
    "mainCancelNomination()": "72eb3688",
    "mainIsGovernor(address)": "45f5cd97",
    "mainNominateNewGovernor(address)": "8c4bce1c",
    "mainRemoveGovernor(address)": "a1cc921e",
    "registerEthAddress(address,uint256,bytes)": "bea84187",
    "registerSender(uint256,bytes)": "86aeb445",
    "unFreeze()": "7cf12b90",
    "validatedSelectors()": "0ebdac03"
  },
  "id": 81
}