{
  "abi": [
    {
      "anonymous": false,
      "inputs": [
        {
          "indexed": false,
          "internalType": "uint256",
          "name": "ownerKey",
          "type": "uint256"
        },
        {
          "indexed": false,
          "internalType": "uint256",
          "name": "assetId",
          "type": "uint256"
        },
        {
          "indexed": false,
          "internalType": "uint256",
          "name": "quantizedAmount",
          "type": "uint256"
        }
      ],
      "name": "LogAssetWithdrawalAllowed",
      "type": "event"
    },
    {
      "anonymous": false,
      "inputs": [
        {
          "indexed": false,
          "internalType": "address",
          "name": "depositorEthKey",
          "type": "address"
        },
        {
          "indexed": false,
          "internalType": "uint256",
          "name": "starkKey",
          "type": "uint256"
        },
        {
          "indexed": false,
          "internalType": "uint256",
          "name": "vaultId",
          "type": "uint256"
        },
        {
          "indexed": false,
          "internalType": "uint256",
          "name": "assetType",
          "type": "uint256"
        },
        {
          "indexed": false,
          "internalType": "uint256",
          "name": "nonQuantizedAmount",
          "type": "uint256"
        },
        {
          "indexed": false,
          "internalType": "uint256",
          "name": "quantizedAmount",
          "type": "uint256"
        }
      ],
      "name": "LogDeposit",
      "type": "event"
    },
    {
      "anonymous": false,
      "inputs": [
        {
          "indexed": false,
          "internalType": "uint256",
          "name": "starkKey",
          "type": "uint256"
        },
        {
          "indexed": false,
          "internalType": "uint256",
          "name": "vaultId",
          "type": "uint256"
        },
        {
          "indexed": false,
          "internalType": "uint256",
          "name": "assetId",
          "type": "uint256"
        }
      ],
      "name": "LogDepositCancel",
      "type": "event"
    },
    {
      "anonymous": false,
      "inputs": [
        {
          "indexed": false,
          "internalType": "uint256",
          "name": "starkKey",
          "type": "uint256"
        },
        {
          "indexed": false,
          "internalType": "uint256",
          "name": "vaultId",
          "type": "uint256"
        },
        {
          "indexed": false,
          "internalType": "uint256",
          "name": "assetType",
          "type": "uint256"
        },
        {
          "indexed": false,
          "internalType": "uint256",
          "name": "nonQuantizedAmount",
          "type": "uint256"
        },
        {
          "indexed": false,
          "internalType": "uint256",
          "name": "quantizedAmount",
          "type": "uint256"
        }
      ],
      "name": "LogDepositCancelReclaimed",
      "type": "event"
    },
    {
      "anonymous": false,
      "inputs": [
        {
          "indexed": false,
          "internalType": "uint256",
          "name": "starkKey",
          "type": "uint256"
        },
        {
          "indexed": false,
          "internalType": "uint256",
          "name": "vaultId",
          "type": "uint256"
        },
        {
          "indexed": false,
          "internalType": "uint256",
          "name": "assetType",
          "type": "uint256"
        },
        {
          "indexed": false,
          "internalType": "uint256",
          "name": "tokenId",
          "type": "uint256"
        },
        {
          "indexed": false,
          "internalType": "uint256",
          "name": "assetId",
          "type": "uint256"
        }
      ],
      "name": "LogDepositNftCancelReclaimed",
      "type": "event"
    },
    {
      "anonymous": false,
      "inputs": [
        {
          "indexed": false,
          "internalType": "address",
          "name": "depositorEthKey",
          "type": "address"
        },
        {
          "indexed": false,
          "internalType": "uint256",
          "name": "starkKey",
          "type": "uint256"
        },
        {
          "indexed": false,
          "internalType": "uint256",
          "name": "vaultId",
          "type": "uint256"
        },
        {
          "indexed": false,
          "internalType": "uint256",
          "name": "assetType",
          "type": "uint256"
        },
        {
          "indexed": false,
          "internalType": "uint256",
          "name": "tokenId",
          "type": "uint256"
        },
        {
          "indexed": false,
          "internalType": "uint256",
          "name": "assetId",
          "type": "uint256"
        },
        {
          "indexed": false,
          "internalType": "uint256",
          "name": "nonQuantizedAmount",
          "type": "uint256"
        },
        {
          "indexed": false,
          "internalType": "uint256",
          "name": "quantizedAmount",
          "type": "uint256"
        }
      ],
      "name": "LogDepositWithTokenId",
      "type": "event"
    },
    {
      "anonymous": false,
      "inputs": [
        {
          "indexed": false,
          "internalType": "uint256",
          "name": "starkKey",
          "type": "uint256"
        },
        {
          "indexed": false,
          "internalType": "uint256",
          "name": "vaultId",
          "type": "uint256"
        },
        {
          "indexed": false,
          "internalType": "uint256",
          "name": "assetType",
          "type": "uint256"
        },
        {
          "indexed": false,
          "internalType": "uint256",
          "name": "tokenId",
          "type": "uint256"
        },
        {
          "indexed": false,
          "internalType": "uint256",
          "name": "assetId",
          "type": "uint256"
        },
        {
          "indexed": false,
          "internalType": "uint256",
          "name": "nonQuantizedAmount",
          "type": "uint256"
        },
        {
          "indexed": false,
          "internalType": "uint256",
          "name": "quantizedAmount",
          "type": "uint256"
        }
      ],
      "name": "LogDepositWithTokenIdCancelReclaimed",
      "type": "event"
    },
    {
      "anonymous": false,
      "inputs": [],
      "name": "LogFrozen",
      "type": "event"
    },
    {
      "anonymous": false,
      "inputs": [
        {
          "indexed": false,
          "internalType": "uint256",
          "name": "ownerKey",
          "type": "uint256"
        },
        {
          "indexed": false,
          "internalType": "uint256",
          "name": "assetType",
          "type": "uint256"
        },
        {
          "indexed": false,
          "internalType": "uint256",
          "name": "nonQuantizedAmount",
          "type": "uint256"
        },
        {
          "indexed": false,
          "internalType": "uint256",
          "name": "quantizedAmount",
          "type": "uint256"
        },
        {
          "indexed": false,
          "internalType": "uint256",
          "name": "assetId",
          "type": "uint256"
        }
      ],
      "name": "LogMintWithdrawalPerformed",
      "type": "event"
    },
    {
      "anonymous": false,
      "inputs": [
        {
          "indexed": false,
          "internalType": "uint256",
          "name": "ownerKey",
          "type": "uint256"
        },
        {
          "indexed": false,
          "internalType": "uint256",
          "name": "assetId",
          "type": "uint256"
        },
        {
          "indexed": false,
          "internalType": "uint256",
          "name": "quantizedAmount",
          "type": "uint256"
        }
      ],
      "name": "LogMintableWithdrawalAllowed",
      "type": "event"
    },
    {
      "anonymous": false,
      "inputs": [
        {
          "indexed": false,
          "internalType": "address",
          "name": "acceptedGovernor",
          "type": "address"
        }
      ],
      "name": "LogNewGovernorAccepted",
      "type": "event"
    },
    {
      "anonymous": false,
      "inputs": [
        {
          "indexed": false,
          "internalType": "address",
          "name": "depositorEthKey",
          "type": "address"
        },
        {
          "indexed": false,
          "internalType": "uint256",
          "name": "starkKey",
          "type": "uint256"
        },
        {
          "indexed": false,
          "internalType": "uint256",
          "name": "vaultId",
          "type": "uint256"
        },
        {
          "indexed": false,
          "internalType": "uint256",
          "name": "assetType",
          "type": "uint256"
        },
        {
          "indexed": false,
          "internalType": "uint256",
          "name": "tokenId",
          "type": "uint256"
        },
        {
          "indexed": false,
          "internalType": "uint256",
          "name": "assetId",
          "type": "uint256"
        }
      ],
      "name": "LogNftDeposit",
      "type": "event"
    },
    {
      "anonymous": false,
      "inputs": [
        {
          "indexed": false,
          "internalType": "uint256",
          "name": "ownerKey",
          "type": "uint256"
        },
        {
          "indexed": false,
          "internalType": "uint256",
          "name": "assetId",
          "type": "uint256"
        }
      ],
      "name": "LogNftWithdrawalAllowed",
      "type": "event"
    },
    {
      "anonymous": false,
      "inputs": [
        {
          "indexed": false,
          "internalType": "uint256",
          "name": "ownerKey",
          "type": "uint256"
        },
        {
          "indexed": false,
          "internalType": "uint256",
          "name": "assetType",
          "type": "uint256"
        },
        {
          "indexed": false,
          "internalType": "uint256",
          "name": "tokenId",
          "type": "uint256"
        },
        {
          "indexed": false,
          "internalType": "uint256",
          "name": "assetId",
          "type": "uint256"
        },
        {
          "indexed": false,
          "internalType": "address",
          "name": "recipient",
          "type": "address"
        }
      ],
      "name": "LogNftWithdrawalPerformed",
      "type": "event"
    },
    {
      "anonymous": false,
      "inputs": [
        {
          "indexed": false,
          "internalType": "address",
          "name": "nominatedGovernor",
          "type": "address"
        }
      ],
      "name": "LogNominatedGovernor",
      "type": "event"
    },
    {
      "anonymous": false,
      "inputs": [],
      "name": "LogNominationCancelled",
      "type": "event"
    },
    {
      "anonymous": false,
      "inputs": [
        {
          "indexed": false,
          "internalType": "address",
          "name": "removedGovernor",
          "type": "address"
        }
      ],
      "name": "LogRemovedGovernor",
      "type": "event"
    },
    {
      "anonymous": false,
      "inputs": [
        {
          "indexed": false,
          "internalType": "uint256",
          "name": "assetType",
          "type": "uint256"
        }
      ],
      "name": "LogSystemAssetType",
      "type": "event"
    },
    {
      "anonymous": false,
      "inputs": [
        {
          "indexed": false,
          "internalType": "address",
          "name": "tokenAdmin",
          "type": "address"
        }
      ],
      "name": "LogTokenAdminAdded",
      "type": "event"
    },
    {
      "anonymous": false,
      "inputs": [
        {
          "indexed": false,
          "internalType": "address",
          "name": "tokenAdmin",
          "type": "address"
        }
      ],
      "name": "LogTokenAdminRemoved",
      "type": "event"
    },
    {
      "anonymous": false,
      "inputs": [
        {
          "indexed": false,
          "internalType": "uint256",
          "name": "assetType",
          "type": "uint256"
        },
        {
          "indexed": false,
          "internalType": "bytes",
          "name": "assetInfo",
          "type": "bytes"
        },
        {
          "indexed": false,
          "internalType": "uint256",
          "name": "quantum",
          "type": "uint256"
        }
      ],
      "name": "LogTokenRegistered",
      "type": "event"
    },
    {
      "anonymous": false,
      "inputs": [],
      "name": "LogUnFrozen",
      "type": "event"
    },
    {
      "anonymous": false,
      "inputs": [
        {
          "indexed": false,
          "internalType": "uint256",
          "name": "ownerKey",
          "type": "uint256"
        },
        {
          "indexed": false,
          "internalType": "uint256",
          "name": "assetType",
          "type": "uint256"
        },
        {
          "indexed": false,
          "internalType": "uint256",
          "name": "nonQuantizedAmount",
          "type": "uint256"
        },
        {
          "indexed": false,
          "internalType": "uint256",
          "name": "quantizedAmount",
          "type": "uint256"
        }
      ],
      "name": "LogWithdrawalAllowed",
      "type": "event"
    },
    {
      "anonymous": false,
      "inputs": [
        {
          "indexed": false,
          "internalType": "uint256",
          "name": "ownerKey",
          "type": "uint256"
        },
        {
          "indexed": false,
          "internalType": "uint256",
          "name": "assetType",
          "type": "uint256"
        },
        {
          "indexed": false,
          "internalType": "uint256",
          "name": "nonQuantizedAmount",
          "type": "uint256"
        },
        {
          "indexed": false,
          "internalType": "uint256",
          "name": "quantizedAmount",
          "type": "uint256"
        },
        {
          "indexed": false,
          "internalType": "address",
          "name": "recipient",
          "type": "address"
        }
      ],
      "name": "LogWithdrawalPerformed",
      "type": "event"
    },
    {
      "anonymous": false,
      "inputs": [
        {
          "indexed": false,
          "internalType": "uint256",
          "name": "ownerKey",
          "type": "uint256"
        },
        {
          "indexed": false,
          "internalType": "uint256",
          "name": "assetType",
          "type": "uint256"
        },
        {
          "indexed": false,
          "internalType": "uint256",
          "name": "tokenId",
          "type": "uint256"
        },
        {
          "indexed": false,
          "internalType": "uint256",
          "name": "assetId",
          "type": "uint256"
        },
        {
          "indexed": false,
          "internalType": "uint256",
          "name": "nonQuantizedAmount",
          "type": "uint256"
        },
        {
          "indexed": false,
          "internalType": "uint256",
          "name": "quantizedAmount",
          "type": "uint256"
        },
        {
          "indexed": false,
          "internalType": "address",
          "name": "recipient",
          "type": "address"
        }
      ],
      "name": "LogWithdrawalWithTokenIdPerformed",
      "type": "event"
    },
    {
      "inputs": [],
      "name": "DEPOSIT_CANCEL_DELAY",
      "outputs": [
        {
          "internalType": "uint256",
          "name": "",
          "type": "uint256"
        }
      ],
      "stateMutability": "view",
      "type": "function"
    },
    {
      "inputs": [],
      "name": "FREEZE_GRACE_PERIOD",
      "outputs": [
        {
          "internalType": "uint256",
          "name": "",
          "type": "uint256"
        }
      ],
      "stateMutability": "view",
      "type": "function"
    },
    {
      "inputs": [],
      "name": "MAIN_GOVERNANCE_INFO_TAG",
      "outputs": [
        {
          "internalType": "string",
          "name": "",
          "type": "string"
        }
      ],
      "stateMutability": "view",
      "type": "function"
    },
    {
      "inputs": [],
      "name": "MAX_FORCED_ACTIONS_REQS_PER_BLOCK",
      "outputs": [
        {
          "internalType": "uint256",
          "name": "",
          "type": "uint256"
        }
      ],
      "stateMutability": "view",
      "type": "function"
    },
    {
      "inputs": [],
      "name": "MAX_VERIFIER_COUNT",
      "outputs": [
        {
          "internalType": "uint256",
          "name": "",
          "type": "uint256"
        }
      ],
      "stateMutability": "view",
      "type": "function"
    },
    {
      "inputs": [],
      "name": "UNFREEZE_DELAY",
      "outputs": [
        {
          "internalType": "uint256",
          "name": "",
          "type": "uint256"
        }
      ],
      "stateMutability": "view",
      "type": "function"
    },
    {
      "inputs": [],
      "name": "VERIFIER_REMOVAL_DELAY",
      "outputs": [
        {
          "internalType": "uint256",
          "name": "",
          "type": "uint256"
        }
      ],
      "stateMutability": "view",
      "type": "function"
    },
    {
      "inputs": [
        {
          "internalType": "uint256",
          "name": "assetType",
          "type": "uint256"
        },
        {
          "internalType": "uint256",
          "name": "tokenId",
          "type": "uint256"
        }
      ],
      "name": "calculateAssetIdWithTokenId",
      "outputs": [
        {
          "internalType": "uint256",
          "name": "",
          "type": "uint256"
        }
      ],
      "stateMutability": "view",
      "type": "function"
    },
    {
      "inputs": [
        {
          "internalType": "uint256",
          "name": "assetType",
          "type": "uint256"
        },
        {
          "internalType": "bytes",
          "name": "mintingBlob",
          "type": "bytes"
        }
      ],
      "name": "calculateMintableAssetId",
      "outputs": [
        {
          "internalType": "uint256",
          "name": "assetId",
          "type": "uint256"
        }
      ],
      "stateMutability": "pure",
      "type": "function"
    },
    {
      "inputs": [],
      "name": "configurationDelay",
      "outputs": [
        {
          "internalType": "uint256",
          "name": "",
          "type": "uint256"
        }
      ],
      "stateMutability": "view",
      "type": "function"
    },
    {
      "inputs": [
        {
          "internalType": "uint256",
          "name": "",
          "type": "uint256"
        }
      ],
      "name": "configurationHash",
      "outputs": [
        {
          "internalType": "bytes32",
          "name": "",
          "type": "bytes32"
        }
      ],
      "stateMutability": "view",
      "type": "function"
    },
    {
      "inputs": [
        {
          "internalType": "uint256",
          "name": "starkKey",
          "type": "uint256"
        },
        {
          "internalType": "uint256",
          "name": "assetType",
          "type": "uint256"
        },
        {
          "internalType": "uint256",
          "name": "vaultId",
          "type": "uint256"
        }
      ],
      "name": "deposit",
      "outputs": [],
      "stateMutability": "payable",
      "type": "function"
    },
    {
      "inputs": [
        {
          "internalType": "uint256",
          "name": "starkKey",
          "type": "uint256"
        },
        {
          "internalType": "uint256",
          "name": "assetType",
          "type": "uint256"
        },
        {
          "internalType": "uint256",
          "name": "vaultId",
          "type": "uint256"
        },
        {
          "internalType": "uint256",
          "name": "quantizedAmount",
          "type": "uint256"
        }
      ],
      "name": "deposit",
      "outputs": [],
      "stateMutability": "nonpayable",
      "type": "function"
    },
    {
      "inputs": [
        {
          "internalType": "uint256",
          "name": "starkKey",
          "type": "uint256"
        },
        {
          "internalType": "uint256",
          "name": "assetId",
          "type": "uint256"
        },
        {
          "internalType": "uint256",
          "name": "vaultId",
          "type": "uint256"
        }
      ],
      "name": "depositCancel",
      "outputs": [],
      "stateMutability": "nonpayable",
      "type": "function"
    },
    {
      "inputs": [
        {
          "internalType": "uint256",
          "name": "starkKey",
          "type": "uint256"
        },
        {
          "internalType": "uint256",
          "name": "assetType",
          "type": "uint256"
        },
        {
          "internalType": "uint256",
          "name": "tokenId",
          "type": "uint256"
        },
        {
          "internalType": "uint256",
          "name": "vaultId",
          "type": "uint256"
        },
        {
          "internalType": "uint256",
          "name": "quantizedAmount",
          "type": "uint256"
        }
      ],
      "name": "depositERC1155",
      "outputs": [],
      "stateMutability": "nonpayable",
      "type": "function"
    },
    {
      "inputs": [
        {
          "internalType": "uint256",
          "name": "starkKey",
          "type": "uint256"
        },
        {
          "internalType": "uint256",
          "name": "assetType",
          "type": "uint256"
        },
        {
          "internalType": "uint256",
          "name": "vaultId",
          "type": "uint256"
        },
        {
          "internalType": "uint256",
          "name": "quantizedAmount",
          "type": "uint256"
        }
      ],
      "name": "depositERC20",
      "outputs": [],
      "stateMutability": "nonpayable",
      "type": "function"
    },
    {
      "inputs": [
        {
          "internalType": "uint256",
          "name": "starkKey",
          "type": "uint256"
        },
        {
          "internalType": "uint256",
          "name": "assetType",
          "type": "uint256"
        },
        {
          "internalType": "uint256",
          "name": "vaultId",
          "type": "uint256"
        }
      ],
      "name": "depositEth",
      "outputs": [],
      "stateMutability": "payable",
      "type": "function"
    },
    {
      "inputs": [
        {
          "internalType": "uint256",
          "name": "starkKey",
          "type": "uint256"
        },
        {
          "internalType": "uint256",
          "name": "assetType",
          "type": "uint256"
        },
        {
          "internalType": "uint256",
          "name": "vaultId",
          "type": "uint256"
        },
        {
          "internalType": "uint256",
          "name": "tokenId",
          "type": "uint256"
        }
      ],
      "name": "depositNft",
      "outputs": [],
      "stateMutability": "nonpayable",
      "type": "function"
    },
    {
      "inputs": [
        {
          "internalType": "uint256",
          "name": "starkKey",
          "type": "uint256"
        },
        {
          "internalType": "uint256",
          "name": "assetType",
          "type": "uint256"
        },
        {
          "internalType": "uint256",
          "name": "vaultId",
          "type": "uint256"
        },
        {
          "internalType": "uint256",
          "name": "tokenId",
          "type": "uint256"
        }
      ],
      "name": "depositNftReclaim",
      "outputs": [],
      "stateMutability": "nonpayable",
      "type": "function"
    },
    {
      "inputs": [
        {
          "internalType": "uint256",
          "name": "starkKey",
          "type": "uint256"
        },
        {
          "internalType": "uint256",
          "name": "assetType",
          "type": "uint256"
        },
        {
          "internalType": "uint256",
          "name": "vaultId",
          "type": "uint256"
        }
      ],
      "name": "depositReclaim",
      "outputs": [],
      "stateMutability": "nonpayable",
      "type": "function"
    },
    {
      "inputs": [
        {
          "internalType": "uint256",
          "name": "starkKey",
          "type": "uint256"
        },
        {
          "internalType": "uint256",
          "name": "assetType",
          "type": "uint256"
        },
        {
          "internalType": "uint256",
          "name": "tokenId",
          "type": "uint256"
        },
        {
          "internalType": "uint256",
          "name": "vaultId",
          "type": "uint256"
        },
        {
          "internalType": "uint256",
          "name": "quantizedAmount",
          "type": "uint256"
        }
      ],
      "name": "depositWithTokenId",
      "outputs": [],
      "stateMutability": "nonpayable",
      "type": "function"
    },
    {
      "inputs": [
        {
          "internalType": "uint256",
          "name": "starkKey",
          "type": "uint256"
        },
        {
          "internalType": "uint256",
          "name": "assetType",
          "type": "uint256"
        },
        {
          "internalType": "uint256",
          "name": "tokenId",
          "type": "uint256"
        },
        {
          "internalType": "uint256",
          "name": "vaultId",
          "type": "uint256"
        }
      ],
      "name": "depositWithTokenIdReclaim",
      "outputs": [],
      "stateMutability": "nonpayable",
      "type": "function"
    },
    {
      "inputs": [
        {
          "internalType": "uint256",
          "name": "assetType",
          "type": "uint256"
        }
      ],
      "name": "getAssetInfo",
      "outputs": [
        {
          "internalType": "bytes",
          "name": "assetInfo",
          "type": "bytes"
        }
      ],
      "stateMutability": "view",
      "type": "function"
    },
    {
      "inputs": [
        {
          "internalType": "uint256",
          "name": "starkKey",
          "type": "uint256"
        },
        {
          "internalType": "uint256",
          "name": "assetId",
          "type": "uint256"
        },
        {
          "internalType": "uint256",
          "name": "vaultId",
          "type": "uint256"
        }
      ],
      "name": "getCancellationRequest",
      "outputs": [
        {
          "internalType": "uint256",
          "name": "request",
          "type": "uint256"
        }
      ],
      "stateMutability": "view",
      "type": "function"
    },
    {
      "inputs": [
        {
          "internalType": "uint256",
          "name": "starkKey",
          "type": "uint256"
        },
        {
          "internalType": "uint256",
          "name": "assetId",
          "type": "uint256"
        },
        {
          "internalType": "uint256",
          "name": "vaultId",
          "type": "uint256"
        }
      ],
      "name": "getDepositBalance",
      "outputs": [
        {
          "internalType": "uint256",
          "name": "",
          "type": "uint256"
        }
      ],
      "stateMutability": "view",
      "type": "function"
    },
    {
      "inputs": [
        {
          "internalType": "uint256",
          "name": "ownerKey",
          "type": "uint256"
        }
      ],
      "name": "getEthKey",
      "outputs": [
        {
          "internalType": "address",
          "name": "",
          "type": "address"
        }
      ],
      "stateMutability": "view",
      "type": "function"
    },
    {
      "inputs": [
        {
          "internalType": "uint256",
          "name": "starkKey",
          "type": "uint256"
        },
        {
          "internalType": "uint256",
          "name": "assetId",
          "type": "uint256"
        },
        {
          "internalType": "uint256",
          "name": "vaultId",
          "type": "uint256"
        }
      ],
      "name": "getQuantizedDepositBalance",
      "outputs": [
        {
          "internalType": "uint256",
          "name": "",
          "type": "uint256"
        }
      ],
      "stateMutability": "view",
      "type": "function"
    },
    {
      "inputs": [
        {
          "internalType": "uint256",
          "name": "presumedAssetType",
          "type": "uint256"
        }
      ],
      "name": "getQuantum",
      "outputs": [
        {
          "internalType": "uint256",
          "name": "quantum",
          "type": "uint256"
        }
      ],
      "stateMutability": "view",
      "type": "function"
    },
    {
      "inputs": [],
      "name": "getSystemAssetType",
      "outputs": [
        {
          "internalType": "uint256",
          "name": "",
          "type": "uint256"
        }
      ],
      "stateMutability": "view",
      "type": "function"
    },
    {
      "inputs": [
        {
          "internalType": "uint256",
          "name": "ownerKey",
          "type": "uint256"
        },
        {
          "internalType": "uint256",
          "name": "assetId",
          "type": "uint256"
        }
      ],
      "name": "getWithdrawalBalance",
      "outputs": [
        {
          "internalType": "uint256",
          "name": "",
          "type": "uint256"
        }
      ],
      "stateMutability": "view",
      "type": "function"
    },
    {
      "inputs": [],
      "name": "globalConfigurationHash",
      "outputs": [
        {
          "internalType": "bytes32",
          "name": "",
          "type": "bytes32"
        }
      ],
      "stateMutability": "view",
      "type": "function"
    },
    {
      "inputs": [],
      "name": "identify",
      "outputs": [
        {
          "internalType": "string",
          "name": "",
          "type": "string"
        }
      ],
      "stateMutability": "pure",
      "type": "function"
    },
    {
      "inputs": [
        {
          "internalType": "bytes",
          "name": "",
          "type": "bytes"
        }
      ],
      "name": "initialize",
      "outputs": [],
      "stateMutability": "nonpayable",
      "type": "function"
    },
    {
      "inputs": [],
      "name": "initializerSize",
      "outputs": [
        {
          "internalType": "uint256",
          "name": "",
          "type": "uint256"
        }
      ],
      "stateMutability": "view",
      "type": "function"
    },
    {
      "inputs": [
        {
          "internalType": "uint256",
          "name": "assetType",
          "type": "uint256"
        }
      ],
      "name": "isAssetRegistered",
      "outputs": [
        {
          "internalType": "bool",
          "name": "",
          "type": "bool"
        }
      ],
      "stateMutability": "view",
      "type": "function"
    },
    {
      "inputs": [],
      "name": "isFrozen",
      "outputs": [
        {
          "internalType": "bool",
          "name": "",
          "type": "bool"
        }
      ],
      "stateMutability": "view",
      "type": "function"
    },
    {
      "inputs": [
        {
          "internalType": "address",
          "name": "testedAdmin",
          "type": "address"
        }
      ],
      "name": "isTokenAdmin",
      "outputs": [
        {
          "internalType": "bool",
          "name": "",
          "type": "bool"
        }
      ],
      "stateMutability": "view",
      "type": "function"
    },
    {
      "inputs": [],
      "name": "mainAcceptGovernance",
      "outputs": [],
      "stateMutability": "nonpayable",
      "type": "function"
    },
    {
      "inputs": [],
      "name": "mainCancelNomination",
      "outputs": [],
      "stateMutability": "nonpayable",
      "type": "function"
    },
    {
      "inputs": [
        {
          "internalType": "address",
          "name": "testGovernor",
          "type": "address"
        }
      ],
      "name": "mainIsGovernor",
      "outputs": [
        {
          "internalType": "bool",
          "name": "",
          "type": "bool"
        }
      ],
      "stateMutability": "view",
      "type": "function"
    },
    {
      "inputs": [
        {
          "internalType": "address",
          "name": "newGovernor",
          "type": "address"
        }
      ],
      "name": "mainNominateNewGovernor",
      "outputs": [],
      "stateMutability": "nonpayable",
      "type": "function"
    },
    {
      "inputs": [
        {
          "internalType": "address",
          "name": "governorForRemoval",
          "type": "address"
        }
      ],
      "name": "mainRemoveGovernor",
      "outputs": [],
      "stateMutability": "nonpayable",
      "type": "function"
    },
    {
      "inputs": [
        {
          "internalType": "address",
          "name": "operator",
          "type": "address"
        },
        {
          "internalType": "address",
          "name": "",
          "type": "address"
        },
        {
          "internalType": "uint256",
          "name": "",
          "type": "uint256"
        },
        {
          "internalType": "bytes",
          "name": "",
          "type": "bytes"
        }
      ],
      "name": "onERC721Received",
      "outputs": [
        {
          "internalType": "bytes4",
          "name": "",
          "type": "bytes4"
        }
      ],
      "stateMutability": "nonpayable",
      "type": "function"
    },
    {
      "inputs": [
        {
          "internalType": "uint256",
          "name": "assetType",
          "type": "uint256"
        },
        {
          "internalType": "bytes",
          "name": "assetInfo",
          "type": "bytes"
        }
      ],
      "name": "registerSystemAssetType",
      "outputs": [],
      "stateMutability": "nonpayable",
      "type": "function"
    },
    {
      "inputs": [
        {
          "internalType": "uint256",
          "name": "",
          "type": "uint256"
        },
        {
          "internalType": "bytes",
          "name": "",
          "type": "bytes"
        }
      ],
      "name": "registerToken",
      "outputs": [],
      "stateMutability": "nonpayable",
      "type": "function"
    },
    {
      "inputs": [
        {
          "internalType": "uint256",
          "name": "",
          "type": "uint256"
        },
        {
          "internalType": "bytes",
          "name": "",
          "type": "bytes"
        },
        {
          "internalType": "uint256",
          "name": "",
          "type": "uint256"
        }
      ],
      "name": "registerToken",
      "outputs": [],
      "stateMutability": "nonpayable",
      "type": "function"
    },
    {
      "inputs": [
        {
          "internalType": "address",
          "name": "newAdmin",
          "type": "address"
        }
      ],
      "name": "registerTokenAdmin",
      "outputs": [],
      "stateMutability": "nonpayable",
      "type": "function"
    },
    {
      "inputs": [],
      "name": "unFreeze",
      "outputs": [],
      "stateMutability": "nonpayable",
      "type": "function"
    },
    {
      "inputs": [
        {
          "internalType": "address",
          "name": "oldAdmin",
          "type": "address"
        }
      ],
      "name": "unregisterTokenAdmin",
      "outputs": [],
      "stateMutability": "nonpayable",
      "type": "function"
    },
    {
      "inputs": [],
      "name": "validatedSelectors",
      "outputs": [
        {
          "internalType": "bytes4[]",
          "name": "selectors",
          "type": "bytes4[]"
        }
      ],
      "stateMutability": "pure",
      "type": "function"
    },
    {
      "inputs": [
        {
          "internalType": "uint256",
          "name": "ownerKey",
          "type": "uint256"
        },
        {
          "internalType": "uint256",
          "name": "assetType",
          "type": "uint256"
        }
      ],
      "name": "withdraw",
      "outputs": [],
      "stateMutability": "nonpayable",
      "type": "function"
    },
    {
      "inputs": [
        {
          "internalType": "uint256",
          "name": "ownerKey",
          "type": "uint256"
        },
        {
          "internalType": "uint256",
          "name": "assetType",
          "type": "uint256"
        },
        {
          "internalType": "bytes",
          "name": "mintingBlob",
          "type": "bytes"
        }
      ],
      "name": "withdrawAndMint",
      "outputs": [],
      "stateMutability": "nonpayable",
      "type": "function"
    },
    {
      "inputs": [
        {
          "internalType": "uint256",
          "name": "ownerKey",
          "type": "uint256"
        },
        {
          "internalType": "uint256",
          "name": "assetType",
          "type": "uint256"
        },
        {
          "internalType": "uint256",
          "name": "tokenId",
          "type": "uint256"
        }
      ],
      "name": "withdrawNft",
      "outputs": [],
      "stateMutability": "nonpayable",
      "type": "function"
    },
    {
      "inputs": [
        {
          "internalType": "uint256",
          "name": "ownerKey",
          "type": "uint256"
        },
        {
          "internalType": "uint256",
          "name": "assetType",
          "type": "uint256"
        },
        {
          "internalType": "uint256",
          "name": "tokenId",
          "type": "uint256"
        }
      ],
      "name": "withdrawWithTokenId",
      "outputs": [],
      "stateMutability": "nonpayable",
      "type": "function"
    }
  ],
  "bytecode": {
    "object": "0x608060405234801561001057600080fd5b50614c76806100206000396000f3fe6080604052600436106103335760003560e01c80638c4bce1c116101ab578063be2b1105116100f7578063e30a5cff11610095578063eeb728661161006f578063eeb7286614610f18578063f2011f6614610f2d578063f637d95014610f57578063fcb0582214610f8157610333565b8063e30a5cff14610ebe578063e6de628214610ed3578063ec3161b014610ee857610333565b8063c8b1031a116100d1578063c8b1031a14610cd1578063d88d8b3814610d53578063d91443b714610e0d578063dd7202d814610e9457610333565b8063be2b110514610bf6578063c1a8513014610c32578063c23b60ef14610c4757610333565b8063a6fa6e9011610164578063ae1cdde61161013e578063ae1cdde614610ab7578063ae87381614610af3578063b12773fb14610b29578063b766311214610be157610333565b8063a6fa6e9014610a39578063abf98fe114610a6c578063adac3e1514610aa257610333565b80638c4bce1c1461091f578063993f3639146109525780639ed1708414610967578063a1cc5e13146109a3578063a1cc921e146109d3578063a2bdde3d14610a0657610333565b806333eeb1471161028557806364d848421161022357806377e84e0d116101fd57806377e84e0d1461083d5780637cf12b90146108525780637df7dc04146108675780637fbf9ba91461089d57610333565b806364d84842146107f25780636ce5d9571461035f57806372eb36881461082857610333565b8063441a3e701161025f578063441a3e701461071757806345f5cd971461074757806349325bac1461077a5780634e8912da146107bc57610333565b806333eeb147146106725780633cc660ad14610687578063439fab911461069c57610333565b8063150b7a02116102f257806327b66a4d116102cc57806327b66a4d146105d057806328700a15146105e557806329e411ac146105fa578063333ac20b1461063c57610333565b8063150b7a02146104965780631dbd1da71461054e5780632505c3d91461059457610333565b806271754214610338578062aeef8a1461035f578063019b417a1461038a578063049f5ade146103c05780630b3a2d21146103fe5780630ebdac0314610431575b600080fd5b34801561034457600080fd5b5061034d610fbd565b60408051918252519081900360200190f35b6103886004803603606081101561037557600080fd5b5080359060208101359060400135610fc4565b005b34801561039657600080fd5b50610388600480360360608110156103ad57600080fd5b508035906020810135906040013561102d565b3480156103cc57600080fd5b506103ea600480360360208110156103e357600080fd5b5035611038565b604080519115158252519081900360200190f35b34801561040a57600080fd5b506103886004803603602081101561042157600080fd5b50356001600160a01b0316611050565b34801561043d57600080fd5b506104466110f7565b60408051602080825283518183015283519192839290830191858101910280838360005b8381101561048257818101518382015260200161046a565b505050509050019250505060405180910390f35b3480156104a257600080fd5b50610531600480360360808110156104b957600080fd5b6001600160a01b03823581169260208101359091169160408201359190810190608081016060820135600160201b8111156104f357600080fd5b82018360208201111561050557600080fd5b803590602001918460018302840111600160201b8311171561052657600080fd5b509092509050611213565b604080516001600160e01b03199092168252519081900360200190f35b34801561055a57600080fd5b506105786004803603602081101561057157600080fd5b503561123f565b604080516001600160a01b039092168252519081900360200190f35b3480156105a057600080fd5b50610388600480360360808110156105b757600080fd5b5080359060208101359060408101359060600135611284565b3480156105dc57600080fd5b5061034d6113fe565b3480156105f157600080fd5b50610388611407565b34801561060657600080fd5b50610388600480360360a081101561061d57600080fd5b5080359060208101359060408101359060608101359060800135611411565b34801561064857600080fd5b5061034d6004803603606081101561065f57600080fd5b508035906020810135906040013561160a565b34801561067e57600080fd5b506103ea61162e565b34801561069357600080fd5b5061034d61163e565b3480156106a857600080fd5b50610388600480360360208110156106bf57600080fd5b810190602081018135600160201b8111156106d957600080fd5b8201836020820111156106eb57600080fd5b803590602001918460018302840111600160201b8311171561070c57600080fd5b509092509050611643565b34801561072357600080fd5b506103886004803603604081101561073a57600080fd5b5080359060200135611682565b34801561075357600080fd5b506103ea6004803603602081101561076a57600080fd5b50356001600160a01b03166117c6565b34801561078657600080fd5b50610388600480360360a081101561079d57600080fd5b50803590602081013590604081013590606081013590608001356117d7565b3480156107c857600080fd5b5061034d600480360360608110156107df57600080fd5b5080359060208101359060400135611885565b3480156107fe57600080fd5b506103886004803603606081101561081557600080fd5b50803590602081013590604001356118a9565b34801561083457600080fd5b50610388611a1a565b34801561084957600080fd5b5061034d611a22565b34801561085e57600080fd5b50610388611a29565b34801561087357600080fd5b506103886004803603606081101561088a57600080fd5b5080359060208101359060400135611b6d565b3480156108a957600080fd5b50610388600480360360408110156108c057600080fd5b81359190810190604081016020820135600160201b8111156108e157600080fd5b8201836020820111156108f357600080fd5b803590602001918460018302840111600160201b8311171561091457600080fd5b509092509050611c41565b34801561092b57600080fd5b506103886004803603602081101561094257600080fd5b50356001600160a01b0316611d34565b34801561095e57600080fd5b5061034d611d40565b34801561097357600080fd5b506103886004803603608081101561098a57600080fd5b5080359060208101359060408101359060600135611d48565b3480156109af57600080fd5b5061034d600480360360408110156109c657600080fd5b5080359060200135611d5a565b3480156109df57600080fd5b50610388600480360360208110156109f657600080fd5b50356001600160a01b0316611e81565b348015610a1257600080fd5b506103ea60048036036020811015610a2957600080fd5b50356001600160a01b0316611e8a565b348015610a4557600080fd5b5061038860048036036020811015610a5c57600080fd5b50356001600160a01b0316611ea8565b348015610a7857600080fd5b5061034d60048036036060811015610a8f57600080fd5b5080359060208101359060400135611f4c565b348015610aae57600080fd5b5061034d611f84565b348015610ac357600080fd5b5061038860048036036080811015610ada57600080fd5b5080359060208101359060408101359060600135611f92565b348015610aff57600080fd5b5061038860048036036060811015610b1657600080fd5b5080359060208101359060400135612039565b348015610b3557600080fd5b5061034d60048036036040811015610b4c57600080fd5b81359190810190604081016020820135600160201b811115610b6d57600080fd5b820183602082011115610b7f57600080fd5b803590602001918460018302840111600160201b83111715610ba057600080fd5b91908080601f016020809104026020016040519081016040528093929190818152602001838380828437600092019190915250929550612176945050505050565b348015610bed57600080fd5b5061034d612237565b348015610c0257600080fd5b5061038860048036036080811015610c1957600080fd5b508035906020810135906040810135906060013561223e565b348015610c3e57600080fd5b5061034d6123f7565b348015610c5357600080fd5b50610c5c612405565b6040805160208082528351818301528351919283929083019185019080838360005b83811015610c96578181015183820152602001610c7e565b50505050905090810190601f168015610cc35780820380516001836020036101000a031916815260200191505b509250505060405180910390f35b348015610cdd57600080fd5b5061038860048036036040811015610cf457600080fd5b81359190810190604081016020820135600160201b811115610d1557600080fd5b820183602082011115610d2757600080fd5b803590602001918460018302840111600160201b83111715610d4857600080fd5b509092509050612421565b348015610d5f57600080fd5b5061038860048036036060811015610d7657600080fd5b81359190810190604081016020820135600160201b811115610d9757600080fd5b820183602082011115610da957600080fd5b803590602001918460018302840111600160201b83111715610dca57600080fd5b91908080601f0160208091040260200160405190810160405280939291908181526020018383808284376000920191909152509295505091359250612421915050565b348015610e1957600080fd5b5061038860048036036060811015610e3057600080fd5b813591602081013591810190606081016040820135600160201b811115610e5657600080fd5b820183602082011115610e6857600080fd5b803590602001918460018302840111600160201b83111715610e8957600080fd5b509092509050612465565b348015610ea057600080fd5b5061034d60048036036020811015610eb757600080fd5b503561265b565b348015610eca57600080fd5b5061034d61268c565b348015610edf57600080fd5b5061034d612691565b348015610ef457600080fd5b5061034d60048036036040811015610f0b57600080fd5b5080359060200135612696565b348015610f2457600080fd5b50610c5c6126c5565b348015610f3957600080fd5b5061034d60048036036020811015610f5057600080fd5b50356126e5565b348015610f6357600080fd5b50610c5c60048036036020811015610f7a57600080fd5b50356126ff565b348015610f8d57600080fd5b5061038860048036036080811015610fa457600080fd5b5080359060208101359060408101359060600135612804565b62093a8081565b610fcd8261287c565b611013576040805162461bcd60e51b8152602060048201526012602482015271494e56414c49445f41535345545f5459504560701b604482015290519081900360640190fd5b61102883838361102386346128a0565b611284565b505050565b6110288383836118a9565b60008181526015602052604090205460ff165b919050565b6110593361290d565b61109c576040805162461bcd60e51b815260206004820152600f60248201526e4f4e4c595f474f5645524e414e434560881b604482015290519081900360640190fd5b6001600160a01b038116600081815260116020908152604091829020805460ff19166001179055815192835290517f9085a9044aeb6daeeb5b4bf84af42b1a1613d4056f503c4e992b6396c16bd52f9281900390910190a150565b60408051600380825260808201909252606091906000908260208201858036833750508151919450506001820191631f7df70160e21b91859190811061113957fe5b6001600160e01b031990921660209283029190910190910152825160018201916357439c0b60e11b91859190811061116d57fe5b6001600160e01b03199092166020928302919091019091015282516001820191630441a3e760e41b9185919081106111a157fe5b6001600160e01b03199092166020928302919091019091015280821461120e576040805162461bcd60e51b815260206004820181905260248201527f494e434f52524543545f53454c4543544f52535f41525241595f4c454e475448604482015290519081900360640190fd5b505090565b60006001600160a01b038616301461122c576000611235565b630a85bd0160e11b5b9695505050505050565b6000818152601860205260408120546001600160a01b0316801561126457905061104b565b6001600160a01b038316831461127b57600061127d565b825b9392505050565b61128c61162e565b156112d0576040805162461bcd60e51b815260206004820152600f60248201526e29aa20aa22afa4a9afa32927ad22a760891b604482015290519081900360640190fd5b6112d98361293c565b15611321576040805162461bcd60e51b81526020600482015260136024820152724d494e5441424c455f41535345545f5459504560681b604482015290519081900360640190fd5b61132a83612980565b611375576040805162461bcd60e51b81526020600482015260176024820152764e4f4e5f46554e4749424c455f41535345545f5459504560481b604482015290519081900360640190fd5b82611382858285856129df565b5061138d8483612ad4565b7f06724742ccc8c330a39a641ef02a0b419bd09248360680bb38159b0a8c2635d6338685876113bc8988612d9e565b604080516001600160a01b0390961686526020860194909452848401929092526060840152608083015260a08201859052519081900360c00190a15050505050565b600160401b5490565b61140f612e15565b565b61141961162e565b1561145d576040805162461bcd60e51b815260206004820152600f60248201526e29aa20aa22afa4a9afa32927ad22a760891b604482015290519081900360640190fd5b61146684612ee2565b6114ac576040805162461bcd60e51b8152602060048201526012602482015271494e56414c49445f41535345545f5459504560701b604482015290519081900360640190fd5b60006114b88585611d5a565b905060006114c8878386866129df565b90506114d386612f26565b1561157c576001811115611526576040805162461bcd60e51b81526020600482015260156024820152741253131151d05317d15490cdcc8c57d05353d55395605a1b604482015290519081900360640190fd5b6040805133815260208101899052808201869052606081018890526080810187905260a0810184905290517f0fcf2162832b2d6033d4d34d2f45a28d9cfee523f1899945bbdd32529cfda67b9181900360c00190a15b611587868685612f39565b7fed94dc026fa9364c53bc0af51cde7f54f3109b3f31fceb26d01396d80e20453b3388868989876115b88d8b612d9e565b604080516001600160a01b0390981688526020880196909652868601949094526060860192909252608085015260a084015260c083015260e0820186905251908190036101000190a150505050505050565b60009283526007602090815260408085209385529281528284209184525290205490565b600454600160a01b900460ff1690565b600090565b6040805162461bcd60e51b815260206004820152600f60248201526e1393d517d253541311535153951151608a1b604482015290519081900360640190fd5b600061168d83612ffd565b90506116988261293c565b156116e0576040805162461bcd60e51b81526020600482015260136024820152724d494e5441424c455f41535345545f5459504560681b604482015290519081900360640190fd5b6116e982612980565b611734576040805162461bcd60e51b81526020600482015260176024820152764e4f4e5f46554e4749424c455f41535345545f5459504560481b604482015290519081900360640190fd5b600083815260086020908152604080832085845290915281208054919055829061175f838383613059565b7fb7477a7b93b2addc5272bbd7ad0986ef1c0d0bd265f26c3dc4bbe42727c2ac0c858561178c8785612d9e565b60408051938452602084019290925282820152606082018490526001600160a01b0386166080830152519081900360a00190a15050505050565b60006117d18261290d565b92915050565b6117df61162e565b15611823576040805162461bcd60e51b815260206004820152600f60248201526e29aa20aa22afa4a9afa32927ad22a760891b604482015290519081900360640190fd5b61182c846132f0565b611871576040805162461bcd60e51b81526020600482015260116024820152702727aa2fa2a92198989a9aafaa27a5a2a760791b604482015290519081900360640190fd5b61187e8585858585611411565b5050505050565b60009283526006602090815260408085209385529281528284209184525290205490565b6118b282612ee2565b6118f8576040805162461bcd60e51b8152602060048201526012602482015271494e56414c49445f41535345545f5459504560701b604482015290519081900360640190fd5b60006119048383611d5a565b9050600061191185612ffd565b60008681526008602090815260408083208684529091528120805491905590915061193e82868684613303565b61194785612f26565b156119a3576040805187815260208101879052808201869052606081018590526001600160a01b038416608082015290517fa5cfa8e2199ec5b8ca319288bcab72734207d30569756ee594a74b4df7abbf419181900360a00190a15b7fc6ba68235f3229e53f3a95cda25543ad54c0f6df2493a06c05fb930bea7966fe868686866119d28a87612d9e565b604080519586526020860194909452848401929092526060840152608083015260a082018490526001600160a01b03851660c0830152519081900360e00190a1505050505050565b61140f6133c9565b6202a30081565b611a3161162e565b611a75576040805162461bcd60e51b815260206004820152601060248201526f29aa20aa22afa727aa2fa32927ad22a760811b604482015290519081900360640190fd5b611a7e3361290d565b611ac1576040805162461bcd60e51b815260206004820152600f60248201526e4f4e4c595f474f5645524e414e434560881b604482015290519081900360640190fd5b600554421015611b18576040805162461bcd60e51b815260206004820152601860248201527f554e465245455a455f4e4f545f414c4c4f5745445f5945540000000000000000604482015290519081900360640190fd5b6004805460ff60a01b19169055600d805460019081019091556025805482019055600f805490910190556040517f07017fe9180629cfffba412f65a9affcf9a121de02294179f5c058f881dcc9f890600090a1565b82611b7781612ffd565b6001600160a01b0316336001600160a01b031614611bd9576040805162461bcd60e51b815260206004820152601a6024820152794d49534d41544348494e475f535441524b5f4554485f4b45595360301b604482015290519081900360640190fd5b60008481526007602090815260408083208684528252808320858452825291829020429055815186815290810184905280820185905290517f0bc1df35228095c37da66a6ffcc755ea79dfc437345685f618e05fafad6b445e9181900360600190a150505050565b611c4a33611e8a565b611c8f576040805162461bcd60e51b815260206004820152601160248201527027a7262cafaa27a5a2a729afa0a226a4a760791b604482015290519081900360640190fd5b600160401b5415611ce7576040805162461bcd60e51b815260206004820152601d60248201527f53595354454d5f41535345545f545950455f414c52454144595f534554000000604482015290519081900360640190fd5b600160401b839055611cfc8383836001613460565b6040805184815290517f51f48293a5ef1940e2b4eb2580372cf384aaa5bc739639e4624ce8d18c9644ab9181900360200190a1505050565b611d3d81613807565b50565b6301e1338081565b611d5484848484611284565b50505050565b6000611d6583612ee2565b611da05760405162461bcd60e51b8152600401808060200182810382526021815260200180614bfa6021913960400191505060405180910390fd5b6060611dab84612f26565b611dda576040518060400160405280600d81526020016c2727a72fa6a4a72a20a126229d60991b815250611df8565b6040518060400160405280600481526020016327232a1d60e11b8152505b90506001600160fa1b038185856040516020018084805190602001908083835b60208310611e375780518252601f199092019160209182019101611e18565b51815160209384036101000a600019018019909216911617905292019485525083810192909252506040805180840383018152928101905281519101209190911695945050505050565b611d3d81613904565b6001600160a01b031660009081526011602052604090205460ff1690565b611eb13361290d565b611ef4576040805162461bcd60e51b815260206004820152600f60248201526e4f4e4c595f474f5645524e414e434560881b604482015290519081900360640190fd5b6001600160a01b038116600081815260116020908152604091829020805460ff19169055815192835290517ffa49aecb996ea8d99950bb051552dfcc0b5460a0bb209867a1ed8067c32c21779281900390910190a150565b600083815260066020908152604080832085845282528083208484529091528120548390611f7b908290612d9e565b95945050505050565b680100000000000000015481565b611f9a61162e565b15611fde576040805162461bcd60e51b815260206004820152600f60248201526e29aa20aa22afa4a9afa32927ad22a760891b604482015290519081900360640190fd5b611fe783612f26565b61202b576040805162461bcd60e51b815260206004820152601060248201526f2727aa2fa2a9219b9918afaa27a5a2a760811b604482015290519081900360640190fd5b611d54848483856001611411565b8261204381612ffd565b6001600160a01b0316336001600160a01b0316146120a5576040805162461bcd60e51b815260206004820152601a6024820152794d49534d41544348494e475f535441524b5f4554485f4b45595360301b604482015290519081900360640190fd5b6120ae83612980565b6120f9576040805162461bcd60e51b81526020600482015260176024820152764e4f4e5f46554e4749424c455f41535345545f5459504560481b604482015290519081900360640190fd5b826000612107868386613a51565b9050612114338683613059565b7fe3e46ecf1138180bf93cba62a0b7e661d976a8ab3d40243f7b082667d8f500af8685876121428986612d9e565b60408051948552602085019390935283830191909152606083015260808201849052519081900360a00190a1505050505050565b600080828051906020012060001c9050600160fa1b6001600160f01b036040518060400160405280600981526020016826a4a72a20a126229d60b91b81525086846040516020018084805190602001908083835b602083106121e95780518252601f1990920191602091820191016121ca565b51815160209384036101000a60001901801990921691161790529201948552508381019290925250604080518084038301815292810190528151910120919091169190911795945050505050565b6224ea0081565b8361224881612ffd565b6001600160a01b0316336001600160a01b0316146122aa576040805162461bcd60e51b815260206004820152601a6024820152794d49534d41544348494e475f535441524b5f4554485f4b45595360301b604482015290519081900360640190fd5b6122b384612ee2565b6122f9576040805162461bcd60e51b8152602060048201526012602482015271494e56414c49445f41535345545f5459504560701b604482015290519081900360640190fd5b60006123058585611d5a565b90506000612314878386613a51565b905080156123285761232833878784613303565b61233186612f26565b15612385576040805188815260208101869052808201889052606081018790526080810184905290517ff00c0c1a754f6df7545d96a7e12aad552728b94ca6aa94f81e297bdbcf1dab9c9181900360a00190a15b7fcc00f2179d127845242252f3c3b6b238c5ed33c2e933179f09653cfb1cdee7ca87858888866123b58c88612d9e565b604080519687526020870195909552858501939093526060850191909152608084015260a083015260c08201849052519081900360e00190a150505050505050565b680100000000000000045481565b604051806060016040528060268152602001614c1b6026913981565b6040805162461bcd60e51b81526020600482015260146024820152732aa729aaa82827a92a22a22fa32aa721aa24a7a760611b604482015290519081900360640190fd5b600061247085612ffd565b60008581526015602052604090205490915060ff166124cb576040805162461bcd60e51b8152602060048201526012602482015271494e56414c49445f41535345545f5459504560701b604482015290519081900360640190fd5b6124d48461293c565b61251f576040805162461bcd60e51b81526020600482015260176024820152764e4f4e5f4d494e5441424c455f41535345545f5459504560481b604482015290519081900360640190fd5b60006125618585858080601f01602080910402602001604051908101604052809392919081815260200183838082843760009201919091525061217692505050565b60008781526008602090815260408083208484529091529020549091506125cf576040805162461bcd60e51b815260206004820152601d60248201527f4e4f5f50454e44494e475f5749544844524157414c5f42414c414e4345000000604482015290519081900360640190fd5b6000868152600860209081526040808320848452909152812080549190556125fa8682858888613b5e565b7f7e6e15df814c1a309a57686de672b2bedd128eacde35c5370c36d6840d4e9a9287876126278985612d9e565b604080519384526020840192909252828201526060820184905260808201859052519081900360a00190a150505050505050565b60008181526015602052604081205460ff166126795750600161104b565b5060009081526016602052604090205490565b600a81565b604081565b600082815260086020908152604080832084845290915281205482906126bd908290612d9e565b949350505050565b60606040518060600160405280602a8152602001614bd0602a9139905090565b680100000000000000026020526000908152604090205481565b60008181526015602052604090205460609060ff16612765576040805162461bcd60e51b815260206004820152601960248201527f41535345545f545950455f4e4f545f5245474953544552454400000000000000604482015290519081900360640190fd5b60008281526014602090815260409182902080548351601f6002600019610100600186161502019093169290920491820184900484028101840190945280845290918301828280156127f85780601f106127cd576101008083540402835291602001916127f8565b820191906000526020600020905b8154815290600101906020018083116127db57829003601f168201915b50505050509050919050565b8361280e81612ffd565b6001600160a01b0316336001600160a01b031614612870576040805162461bcd60e51b815260206004820152601a6024820152794d49534d41544348494e475f535441524b5f4554485f4b45595360301b604482015290519081900360640190fd5b61187e8585848661223e565b60006341917ff960e11b61288f83613d00565b6001600160e01b0319161492915050565b6000806128ac8461265b565b90508083816128b757fe5b06156128fb576040805162461bcd60e51b815260206004820152600e60248201526d1253959053125117d05353d5539560921b604482015290519081900360640190fd5b80838161290457fe5b04949350505050565b600080612918613d13565b6001600160a01b039390931660009081526020939093525050604090205460ff1690565b60008061294883613d00565b90506001600160e01b031981166368646e2d60e01b148061127d57506001600160e01b03198116635c5c333960e11b14915050919050565b60008061298c83613d00565b90506001600160e01b031981166341917ff960e11b14806129bd57506001600160e01b03198116630f47261b60e41b145b8061127d57506001600160e01b031981166368646e2d60e01b14915050919050565b60008481526006602090815260408083208684528252808320858452909152812054820182811015612a4b576040805162461bcd60e51b815260206004820152601060248201526f4445504f5349545f4f564552464c4f5760801b604482015290519081900360640190fd5b600086815260066020908152604080832088845282528083208784529091529020819055612a7886613d90565b8015612aa457506000868152600760209081526040808320888452825280832087845290915290205415155b15611f7b576000868152600760209081526040808320888452825280832087845290915281205595945050505050565b6000612ae08383612d9e565b9050612aeb83613db6565b15612ced5781612afb5750612d9a565b6000612b0684613dc9565b905060008190506000816001600160a01b03166370a08231306040518263ffffffff1660e01b815260040180826001600160a01b0316815260200191505060206040518083038186803b158015612b5c57600080fd5b505afa158015612b70573d6000803e3d6000fd5b505050506040513d6020811015612b8657600080fd5b50516040805133602482015230604482015260648082018890528251808303909101815260849091019091526020810180516001600160e01b03166323b872dd60e01b179052909150612be26001600160a01b03851682613ddc565b6000836001600160a01b03166370a08231306040518263ffffffff1660e01b815260040180826001600160a01b0316815260200191505060206040518083038186803b158015612c3157600080fd5b505afa158015612c45573d6000803e3d6000fd5b505050506040513d6020811015612c5b57600080fd5b5051905082811015612c9f576040805162461bcd60e51b81526020600482015260086024820152674f564552464c4f5760c01b604482015290519081900360640190fd5b8583018114612ce3576040805162461bcd60e51b815260206004820152601c6024820152600080516020614bb0833981519152604482015290519081900360640190fd5b5050505050611028565b612cf68361287c565b15612d5457803414612d4f576040805162461bcd60e51b815260206004820152601860248201527f494e434f52524543545f4445504f5349545f414d4f554e540000000000000000604482015290519081900360640190fd5b611028565b6040805162461bcd60e51b8152602060048201526016602482015275554e535550504f525445445f544f4b454e5f5459504560501b604482015290519081900360640190fd5b5050565b600080612daa8461265b565b9050808302915082818381612dbb57fe5b0414612e0e576040805162461bcd60e51b815260206004820152601760248201527f44455155414e54495a4154494f4e5f4f564552464c4f57000000000000000000604482015290519081900360640190fd5b5092915050565b6000612e1f613d13565b60018101549091506001600160a01b03163314612e83576040805162461bcd60e51b815260206004820152601760248201527f4f4e4c595f43414e4449444154455f474f5645524e4f52000000000000000000604482015290519081900360640190fd5b6001810154612e9a906001600160a01b0316613fc8565b6001810180546001600160a01b03191690556040805133815290517fcfb473e6c03f9a29ddaf990e736fa3de5188a0bd85d684f5b6e164ebfbfff5d29181900360200190a150565b600080612eee83613d00565b90506001600160e01b0319811663012b8bc960e11b148061127d57506001600160e01b03198116633348691d60e01b14915050919050565b600063012b8bc960e11b61288f83613d00565b612f4283612ee2565b612f89576040805162461bcd60e51b815260206004820152601360248201527246554e4749424c455f41535345545f5459504560681b604482015290519081900360640190fd5b612f9283612f26565b15612fec5780600114612fe2576040805162461bcd60e51b8152602060048201526013602482015272494c4c4547414c5f4e46545f42414c414e434560681b604482015290519081900360640190fd5b612d4f8383614048565b8015611028576110288383836140fb565b60006130088261123f565b90506001600160a01b03811661104b576040805162461bcd60e51b81526020600482015260116024820152701554d15497d553949151d254d511549151607a1b604482015290519081900360640190fd5b6001600160a01b0383166130a8576040805162461bcd60e51b81526020600482015260116024820152701253959053125117d49150d25412515395607a1b604482015290519081900360640190fd5b60006130b48383612d9e565b90506130bf83613db6565b156132bf57816130cf5750611028565b60006130da84613dc9565b905060008190506000816001600160a01b03166370a08231306040518263ffffffff1660e01b815260040180826001600160a01b0316815260200191505060206040518083038186803b15801561313057600080fd5b505afa158015613144573d6000803e3d6000fd5b505050506040513d602081101561315a57600080fd5b5051604080516001600160a01b03808b16602483015260448083018990528351808403909101815260649092019092526020810180516001600160e01b031663a9059cbb60e01b1790529192506131b390851682613ddc565b6000836001600160a01b03166370a08231306040518263ffffffff1660e01b815260040180826001600160a01b0316815260200191505060206040518083038186803b15801561320257600080fd5b505afa158015613216573d6000803e3d6000fd5b505050506040513d602081101561322c57600080fd5b5051905082811115613271576040805162461bcd60e51b8152602060048201526009602482015268554e444552464c4f5760b81b604482015290519081900360640190fd5b85830381146132b5576040805162461bcd60e51b815260206004820152601c6024820152600080516020614bb0833981519152604482015290519081900360640190fd5b5050505050611d54565b6132c88361287c565b15612d5457816132d85750611028565b6132eb6001600160a01b03851682614411565b611d54565b6000633348691d60e01b61288f83613d00565b61330c83612ee2565b613353576040805162461bcd60e51b815260206004820152601360248201527246554e4749424c455f41535345545f5459504560681b604482015290519081900360640190fd5b61335c83612f26565b156133b757806001146133ac576040805162461bcd60e51b8152602060048201526013602482015272494c4c4547414c5f4e46545f42414c414e434560681b604482015290519081900360640190fd5b6132eb8484846144ad565b8015611d5457611d54848484846145b2565b6133d23361290d565b613415576040805162461bcd60e51b815260206004820152600f60248201526e4f4e4c595f474f5645524e414e434560881b604482015290519081900360640190fd5b600061341f613d13565b6001810180546001600160a01b03191690556040519091507f7a8dc7dd7fffb43c4807438fa62729225156941e641fd877938f4edade3429f590600090a150565b61346933611e8a565b6134ae576040805162461bcd60e51b815260206004820152601160248201527027a7262cafaa27a5a2a729afa0a226a4a760791b604482015290519081900360640190fd5b6134b784611038565b15613509576040805162461bcd60e51b815260206004820152601860248201527f41535345545f414c52454144595f524547495354455245440000000000000000604482015290519081900360640190fd5b600167080000000000001160c01b018410613560576040805162461bcd60e51b8152602060048201526012602482015271494e56414c49445f41535345545f5459504560701b604482015290519081900360640190fd5b600081116135a7576040805162461bcd60e51b815260206004820152600f60248201526e494e56414c49445f5155414e54554d60881b604482015290519081900360640190fd5b600160801b81106135f1576040805162461bcd60e51b815260206004820152600f60248201526e494e56414c49445f5155414e54554d60881b604482015290519081900360640190fd5b60006001600160fa1b038484846040516020018084848082843791909101928352505060408051808303815260209283019091528051910120929092169250505084811461367b576040805162461bcd60e51b8152602060048201526012602482015271494e56414c49445f41535345545f5459504560701b604482015290519081900360640190fd5b6136ba84848080601f01602080910402602001604051908101604052809392919081815260200183838082843760009201919091525061489f92505050565b6136f984848080601f016020809104026020016040519081016040528093929190818152602001838380828437600092019190915250614a1b92505050565b156137495781600114613749576040805162461bcd60e51b8152602060048201526013602482015272494e56414c49445f4e46545f5155414e54554d60681b604482015290519081900360640190fd5b6000858152601560209081526040808320805460ff1916600117905560149091529020613777908585614b1c565b508160166000878152602001908152602001600020819055507f7a0efbc885500f3b4a895231945be4520e4c0ba5ef7274a225a0272c81ccbcb78585858560405180858152602001806020018381526020018281038252858582818152602001925080828437600083820152604051601f909101601f191690920182900397509095505050505050a15050505050565b6138103361290d565b613853576040805162461bcd60e51b815260206004820152600f60248201526e4f4e4c595f474f5645524e414e434560881b604482015290519081900360640190fd5b600061385d613d13565b90506138688261290d565b156138ad576040805162461bcd60e51b815260206004820152601060248201526f20a62922a0a22cafa3a7ab22a92727a960811b604482015290519081900360640190fd5b6001810180546001600160a01b0384166001600160a01b0319909116811790915560408051918252517f6166272c8d3f5f579082f2827532732f97195007983bb5b83ac12c56700b01a69181900360200190a15050565b61390d3361290d565b613950576040805162461bcd60e51b815260206004820152600f60248201526e4f4e4c595f474f5645524e414e434560881b604482015290519081900360640190fd5b336001600160a01b03821614156139a5576040805162461bcd60e51b8152602060048201526014602482015273474f5645524e4f525f53454c465f52454d4f564560601b604482015290519081900360640190fd5b60006139af613d13565b90506139ba8261290d565b6139fa576040805162461bcd60e51b815260206004820152600c60248201526b2727aa2fa3a7ab22a92727a960a11b604482015290519081900360640190fd5b6001600160a01b03821660008181526020838152604091829020805460ff19169055815192835290517fd75f94825e770b8b512be8e74759e252ad00e102e38f50cce2f7c6f868a295999281900390910190a15050565b6000838152600760209081526040808320858452825280832084845290915281205480613abc576040805162461bcd60e51b815260206004820152601460248201527311115413d4d25517d393d517d0d05390d153115160621b604482015290519081900360640190fd5b6202a30081810190811015613acd57fe5b80421015613b13576040805162461bcd60e51b815260206004820152600e60248201526d11115413d4d25517d313d0d2d15160921b604482015290519081900360640190fd5b50505060008381526006602090815260408083208584528252808320848452825280832080549084905595835260078252808320948352938152838220928252919091529081205590565b6001600160a01b038316613bad576040805162461bcd60e51b81526020600482015260116024820152701253959053125117d49150d25412515395607a1b604482015290519081900360640190fd5b613bb68561293c565b613c01576040805162461bcd60e51b81526020600482015260176024820152764e4f4e5f4d494e5441424c455f41535345545f5459504560481b604482015290519081900360640190fd5b60008411613c4c576040805162461bcd60e51b81526020600482015260136024820152721253959053125117d352539517d05353d55395606a1b604482015290519081900360640190fd5b6000613c588686612d9e565b90506000613c6587613dc9565b9050613cf78583868660405160240180856001600160a01b0316815260200184815260200180602001828103825284848281815260200192508082843760008184015260408051601f19601f9093018316909401848103909201845252506020810180516319ee6e3f60e01b6001600160e01b039091161790526001600160a01b03891696509450613ddc9350505050565b50505050505050565b60006117d1613d0e836126ff565b614a5f565b600080604051806060016040528060268152602001614c1b602691396040518082805190602001908083835b60208310613d5e5780518252601f199092019160209182019101613d3f565b51815160209384036101000a600019018019909216911617905292019485525060405193849003019092209392505050565b6000613d9b8261123f565b6001600160a01b0316336001600160a01b0316149050919050565b6000630f47261b60e41b61288f83613d00565b60006117d1613dd7836126ff565b614a70565b613de582614a77565b613e2a576040805162461bcd60e51b81526020600482015260116024820152704241445f544f4b454e5f4144445245535360781b604482015290519081900360640190fd5b60006060836001600160a01b0316836040518082805190602001908083835b60208310613e685780518252601f199092019160209182019101613e49565b6001836020036101000a0380198251168184511680821785525050505050509050019150506000604051808303816000865af19150503d8060008114613eca576040519150601f19603f3d011682016040523d82523d6000602084013e613ecf565b606091505b5091509150818190613f5f5760405162461bcd60e51b81526004018080602001828103825283818151815260200191508051906020019080838360005b83811015613f24578181015183820152602001613f0c565b50505050905090810190601f168015613f515780820380516001836020036101000a031916815260200191505b509250505060405180910390fd5b50805115611d5457808060200190516020811015613f7c57600080fd5b5051611d54576040805162461bcd60e51b81526020600482015260166024820152751513d2d15397d3d4115490551253d397d1905253115160521b604482015290519081900360640190fd5b613fd18161290d565b15614016576040805162461bcd60e51b815260206004820152601060248201526f20a62922a0a22cafa3a7ab22a92727a960811b604482015290519081900360640190fd5b6000614020613d13565b6001600160a01b0390921660009081526020929092525060409020805460ff19166001179055565b61405182612f26565b614095576040805162461bcd60e51b815260206004820152601060248201526f2727aa2fa2a9219b9918afaa27a5a2a760811b604482015290519081900360640190fd5b60006140a083613dc9565b6040805133602482015230604482015260648082018690528251808303909101815260849091019091526020810180516001600160e01b0316632142170760e11b179052909150611028906001600160a01b03831690613ddc565b614104836132f0565b614149576040805162461bcd60e51b81526020600482015260116024820152702727aa2fa2a92198989a9aafaa27a5a2a760791b604482015290519081900360640190fd5b8061415357611028565b600061415f8483612d9e565b9050600061416c85613dc9565b60408051627eeac760e11b815230600482015260248101879052905191925082916000916001600160a01b0384169162fdd58e91604480820192602092909190829003018186803b1580156141c057600080fd5b505afa1580156141d4573d6000803e3d6000fd5b505050506040513d60208110156141ea57600080fd5b810190808051906020019092919050505090506142ff63f242432a60e01b333089886040518060200160405280600081525060405160240180866001600160a01b03168152602001856001600160a01b0316815260200184815260200183815260200180602001828103825283818151815260200191508051906020019080838360005b8381101561428657818101518382015260200161426e565b50505050905090810190601f1680156142b35780820380516001836020036101000a031916815260200191505b5060408051601f198184030181529190526020810180516001600160e01b03166001600160e01b0319909a169990991790985250506001600160a01b038a1695945050613ddc92505050565b6000826001600160a01b031662fdd58e30896040518363ffffffff1660e01b815260040180836001600160a01b031681526020018281526020019250505060206040518083038186803b15801561435557600080fd5b505afa158015614369573d6000803e3d6000fd5b505050506040513d602081101561437f57600080fd5b50519050818110156143c3576040805162461bcd60e51b81526020600482015260086024820152674f564552464c4f5760c01b604482015290519081900360640190fd5b8482018114614407576040805162461bcd60e51b815260206004820152601c6024820152600080516020614bb0833981519152604482015290519081900360640190fd5b5050505050505050565b6040516000906001600160a01b0384169083908381818185875af1925050503d806000811461445c576040519150601f19603f3d011682016040523d82523d6000602084013e614461565b606091505b5050905080611028576040805162461bcd60e51b815260206004820152601360248201527211551217d514905394d1915497d19052531151606a1b604482015290519081900360640190fd5b6001600160a01b0383166144fc576040805162461bcd60e51b81526020600482015260116024820152701253959053125117d49150d25412515395607a1b604482015290519081900360640190fd5b61450582612f26565b614549576040805162461bcd60e51b815260206004820152601060248201526f2727aa2fa2a9219b9918afaa27a5a2a760811b604482015290519081900360640190fd5b600061455483613dc9565b604080513060248201526001600160a01b03808816604483015260648083018790528351808403909101815260849092019092526020810180516001600160e01b0316632142170760e11b179052919250611d549190831690613ddc565b6001600160a01b038416614601576040805162461bcd60e51b81526020600482015260116024820152701253959053125117d49150d25412515395607a1b604482015290519081900360640190fd5b61460a836132f0565b61464f576040805162461bcd60e51b81526020600482015260116024820152702727aa2fa2a92198989a9aafaa27a5a2a760791b604482015290519081900360640190fd5b8061465957611d54565b60006146658483612d9e565b9050600061467285613dc9565b60408051627eeac760e11b815230600482015260248101879052905191925082916000916001600160a01b0384169162fdd58e91604480820192602092909190829003018186803b1580156146c657600080fd5b505afa1580156146da573d6000803e3d6000fd5b505050506040513d60208110156146f057600080fd5b8101908080519060200190929190505050905061478b63f242432a60e01b308a89886040518060200160405280600081525060405160240180866001600160a01b03168152602001856001600160a01b0316815260200184815260200183815260200180602001828103825283818151815260200191508051906020019080838360008381101561428657818101518382015260200161426e565b6000826001600160a01b031662fdd58e30896040518363ffffffff1660e01b815260040180836001600160a01b031681526020018281526020019250505060206040518083038186803b1580156147e157600080fd5b505afa1580156147f5573d6000803e3d6000fd5b505050506040513d602081101561480b57600080fd5b5051905081811115614850576040805162461bcd60e51b8152602060048201526009602482015268554e444552464c4f5760b81b604482015290519081900360640190fd5b8482038114614894576040805162461bcd60e51b815260206004820152601c6024820152600080516020614bb0833981519152604482015290519081900360640190fd5b505050505050505050565b60006148aa82614a5f565b90506148b581614a7d565b6148ff576040805162461bcd60e51b8152602060048201526016602482015275554e535550504f525445445f544f4b454e5f5459504560501b604482015290519081900360640190fd5b6001600160e01b031981166341917ff960e11b141561496a578151600414614965576040805162461bcd60e51b8152602060048201526014602482015273494e56414c49445f41535345545f535452494e4760601b604482015290519081900360640190fd5b612d9a565b81516024146149b7576040805162461bcd60e51b8152602060048201526014602482015273494e56414c49445f41535345545f535452494e4760601b604482015290519081900360640190fd5b60006149c283614a70565b90506149d6816001600160a01b0316614a77565b611028576040805162461bcd60e51b81526020600482015260116024820152704241445f544f4b454e5f4144445245535360781b604482015290519081900360640190fd5b600080614a2783614a5f565b90506001600160e01b0319811663012b8bc960e11b148061127d57506001600160e01b03198116635c5c333960e11b14915050919050565b602001516001600160e01b03191690565b6024015190565b3b151590565b60006001600160e01b031982166341917ff960e11b1480614aae57506001600160e01b03198216630f47261b60e41b145b80614ac957506001600160e01b0319821663012b8bc960e11b145b80614ae457506001600160e01b031982166368646e2d60e01b145b80614aff57506001600160e01b03198216635c5c333960e11b145b806117d15750506001600160e01b031916633348691d60e01b1490565b828054600181600116156101000203166002900490600052602060002090601f016020900481019282601f10614b5d5782800160ff19823516178555614b8a565b82800160010185558215614b8a579182015b82811115614b8a578235825591602001919060010190614b6f565b50614b96929150614b9a565b5090565b5b80821115614b965760008155600101614b9b56fe494e434f52524543545f414d4f554e545f5452414e5346455252454400000000537461726b576172655f50657270657475616c546f6b656e73416e6452616d70696e675f323032325f3241535345545f545950455f444f45535f4e4f545f54414b455f544f4b454e5f4944537461726b45782e4d61696e2e323031392e476f7665726e6f7273496e666f726d6174696f6ea26469706673582212205c2a912cf752b5203ff94868287fb244749ec089caf92a7060b82fcfd2bd5bbf64736f6c634300060c0033",
    "linkReferences": {}
  },
  "methodIdentifiers": {
    "DEPOSIT_CANCEL_DELAY()": "77e84e0d",
    "FREEZE_GRACE_PERIOD()": "00717542",
    "MAIN_GOVERNANCE_INFO_TAG()": "c23b60ef",
    "MAX_FORCED_ACTIONS_REQS_PER_BLOCK()": "e30a5cff",
    "MAX_VERIFIER_COUNT()": "e6de6282",
    "UNFREEZE_DELAY()": "993f3639",
    "VERIFIER_REMOVAL_DELAY()": "b7663112",
    "calculateAssetIdWithTokenId(uint256,uint256)": "a1cc5e13",
    "calculateMintableAssetId(uint256,bytes)": "b12773fb",
    "configurationDelay()": "c1a85130",
    "configurationHash(uint256)": "f2011f66",
    "deposit(uint256,uint256,uint256)": "00aeef8a",
    "deposit(uint256,uint256,uint256,uint256)": "2505c3d9",
    "depositCancel(uint256,uint256,uint256)": "7df7dc04",
    "depositERC1155(uint256,uint256,uint256,uint256,uint256)": "49325bac",
    "depositERC20(uint256,uint256,uint256,uint256)": "9ed17084",
    "depositEth(uint256,uint256,uint256)": "6ce5d957",
    "depositNft(uint256,uint256,uint256,uint256)": "ae1cdde6",
    "depositNftReclaim(uint256,uint256,uint256,uint256)": "fcb05822",
    "depositReclaim(uint256,uint256,uint256)": "ae873816",
    "depositWithTokenId(uint256,uint256,uint256,uint256,uint256)": "29e411ac",
    "depositWithTokenIdReclaim(uint256,uint256,uint256,uint256)": "be2b1105",
    "getAssetInfo(uint256)": "f637d950",
    "getCancellationRequest(uint256,uint256,uint256)": "333ac20b",
    "getDepositBalance(uint256,uint256,uint256)": "abf98fe1",
    "getEthKey(uint256)": "1dbd1da7",
    "getQuantizedDepositBalance(uint256,uint256,uint256)": "4e8912da",
    "getQuantum(uint256)": "dd7202d8",
    "getSystemAssetType()": "27b66a4d",
    "getWithdrawalBalance(uint256,uint256)": "ec3161b0",
    "globalConfigurationHash()": "adac3e15",
    "identify()": "eeb72866",
    "initialize(bytes)": "439fab91",
    "initializerSize()": "3cc660ad",
    "isAssetRegistered(uint256)": "049f5ade",
    "isFrozen()": "33eeb147",
    "isTokenAdmin(address)": "a2bdde3d",
    "mainAcceptGovernance()": "28700a15",
    "mainCancelNomination()": "72eb3688",
    "mainIsGovernor(address)": "45f5cd97",
    "mainNominateNewGovernor(address)": "8c4bce1c",
    "mainRemoveGovernor(address)": "a1cc921e",
    "onERC721Received(address,address,uint256,bytes)": "150b7a02",
    "registerSystemAssetType(uint256,bytes)": "7fbf9ba9",
    "registerToken(uint256,bytes)": "c8b1031a",
    "registerToken(uint256,bytes,uint256)": "d88d8b38",
    "registerTokenAdmin(address)": "0b3a2d21",
    "unFreeze()": "7cf12b90",
    "unregisterTokenAdmin(address)": "a6fa6e90",
    "validatedSelectors()": "0ebdac03",
    "withdraw(uint256,uint256)": "441a3e70",
    "withdrawAndMint(uint256,uint256,bytes)": "d91443b7",
    "withdrawNft(uint256,uint256,uint256)": "019b417a",
    "withdrawWithTokenId(uint256,uint256,uint256)": "64d84842"
  },
  "id": 83
}