{
  "abi": [
    {
      "inputs": [],
      "name": "DEPOSIT_CANCEL_DELAY",
      "outputs": [
        {
          "internalType": "uint256",
          "name": "",
          "type": "uint256"
        }
      ],
      "stateMutability": "view",
      "type": "function"
    },
    {
      "inputs": [],
      "name": "FREEZE_GRACE_PERIOD",
      "outputs": [
        {
          "internalType": "uint256",
          "name": "",
          "type": "uint256"
        }
      ],
      "stateMutability": "view",
      "type": "function"
    },
    {
      "inputs": [],
      "name": "MAX_FORCED_ACTIONS_REQS_PER_BLOCK",
      "outputs": [
        {
          "internalType": "uint256",
          "name": "",
          "type": "uint256"
        }
      ],
      "stateMutability": "view",
      "type": "function"
    },
    {
      "inputs": [],
      "name": "MAX_VERIFIER_COUNT",
      "outputs": [
        {
          "internalType": "uint256",
          "name": "",
          "type": "uint256"
        }
      ],
      "stateMutability": "view",
      "type": "function"
    },
    {
      "inputs": [],
      "name": "UNFREEZE_DELAY",
      "outputs": [
        {
          "internalType": "uint256",
          "name": "",
          "type": "uint256"
        }
      ],
      "stateMutability": "view",
      "type": "function"
    },
    {
      "inputs": [],
      "name": "VERIFIER_REMOVAL_DELAY",
      "outputs": [
        {
          "internalType": "uint256",
          "name": "",
          "type": "uint256"
        }
      ],
      "stateMutability": "view",
      "type": "function"
    },
    {
      "inputs": [
        {
          "internalType": "uint256",
          "name": "assetType",
          "type": "uint256"
        },
        {
          "internalType": "uint256",
          "name": "tokenId",
          "type": "uint256"
        }
      ],
      "name": "calculateAssetIdWithTokenId",
      "outputs": [
        {
          "internalType": "uint256",
          "name": "",
          "type": "uint256"
        }
      ],
      "stateMutability": "view",
      "type": "function"
    },
    {
      "inputs": [
        {
          "internalType": "uint256",
          "name": "assetType",
          "type": "uint256"
        },
        {
          "internalType": "bytes",
          "name": "mintingBlob",
          "type": "bytes"
        }
      ],
      "name": "calculateMintableAssetId",
      "outputs": [
        {
          "internalType": "uint256",
          "name": "assetId",
          "type": "uint256"
        }
      ],
      "stateMutability": "pure",
      "type": "function"
    },
    {
      "inputs": [
        {
          "internalType": "uint256",
          "name": "assetType",
          "type": "uint256"
        }
      ],
      "name": "getAssetInfo",
      "outputs": [
        {
          "internalType": "bytes",
          "name": "assetInfo",
          "type": "bytes"
        }
      ],
      "stateMutability": "view",
      "type": "function"
    }
  ],
  "bytecode": {
    "object": "0x608060405234801561001057600080fd5b50610638806100206000396000f3fe608060405234801561001057600080fd5b50600436106100925760003560e01c8063b12773fb11610066578063b12773fb146100e4578063b766311214610191578063e30a5cff14610199578063e6de6282146101a1578063f637d950146101a957610092565b80627175421461009757806377e84e0d146100b1578063993f3639146100b9578063a1cc5e13146100c1575b600080fd5b61009f61023b565b60408051918252519081900360200190f35b61009f610242565b61009f610249565b61009f600480360360408110156100d757600080fd5b5080359060200135610251565b61009f600480360360408110156100fa57600080fd5b8135919081019060408101602082013564010000000081111561011c57600080fd5b82018360208201111561012e57600080fd5b8035906020019184600183028401116401000000008311171561015057600080fd5b91908080601f016020809104026020016040519081016040528093929190818152602001838380828437600092019190915250929550610378945050505050565b61009f610439565b61009f610440565b61009f610445565b6101c6600480360360208110156101bf57600080fd5b503561044a565b6040805160208082528351818301528351919283929083019185019080838360005b838110156102005781810151838201526020016101e8565b50505050905090810190601f16801561022d5780820380516001836020036101000a031916815260200191505b509250505060405180910390f35b62093a8081565b6202a30081565b6301e1338081565b600061025c8361054f565b6102975760405162461bcd60e51b81526004018080602001828103825260218152602001806105e26021913960400191505060405180910390fd5b60606102a284610593565b6102d1576040518060400160405280600d81526020016c2727a72fa6a4a72a20a126229d60991b8152506102ef565b6040518060400160405280600481526020016327232a1d60e11b8152505b90506001600160fa1b038185856040516020018084805190602001908083835b6020831061032e5780518252601f19909201916020918201910161030f565b51815160209384036101000a600019018019909216911617905292019485525083810192909252506040805180840383018152928101905281519101209190911695945050505050565b600080828051906020012060001c9050600160fa1b6001600160f01b036040518060400160405280600981526020016826a4a72a20a126229d60b91b81525086846040516020018084805190602001908083835b602083106103eb5780518252601f1990920191602091820191016103cc565b51815160209384036101000a60001901801990921691161790529201948552508381019290925250604080518084038301815292810190528151910120919091169190911795945050505050565b6224ea0081565b600a81565b604081565b60008181526015602052604090205460609060ff166104b0576040805162461bcd60e51b815260206004820152601960248201527f41535345545f545950455f4e4f545f5245474953544552454400000000000000604482015290519081900360640190fd5b60008281526014602090815260409182902080548351601f6002600019610100600186161502019093169290920491820184900484028101840190945280845290918301828280156105435780601f1061051857610100808354040283529160200191610543565b820191906000526020600020905b81548152906001019060200180831161052657829003601f168201915b50505050509050919050565b60008061055b836105b7565b90506001600160e01b0319811663012b8bc960e11b148061058c57506001600160e01b03198116633348691d60e01b145b9392505050565b600063012b8bc960e11b6105a6836105b7565b6001600160e01b0319161492915050565b60006105ca6105c58361044a565b6105d0565b92915050565b602001516001600160e01b0319169056fe41535345545f545950455f444f45535f4e4f545f54414b455f544f4b454e5f4944a2646970667358221220907ee07e1f466eebcbb6125ab3cec54167282d5abf351d90c34c5e593dfc792f64736f6c634300060c0033",
    "linkReferences": {}
  },
  "methodIdentifiers": {
    "DEPOSIT_CANCEL_DELAY()": "77e84e0d",
    "FREEZE_GRACE_PERIOD()": "00717542",
    "MAX_FORCED_ACTIONS_REQS_PER_BLOCK()": "e30a5cff",
    "MAX_VERIFIER_COUNT()": "e6de6282",
    "UNFREEZE_DELAY()": "993f3639",
    "VERIFIER_REMOVAL_DELAY()": "b7663112",
    "calculateAssetIdWithTokenId(uint256,uint256)": "a1cc5e13",
    "calculateMintableAssetId(uint256,bytes)": "b12773fb",
    "getAssetInfo(uint256)": "f637d950"
  },
  "id": 33
}